:020000040800F2
:10000000E8150020F14D00080D4D00080F4D0008C7
:10001000114D0008134D0008154D000800000000A8
:10002000000000000000000000000000174D000864
:10003000194D0008000000001B4D00081D4D000870
:10004000194E00081D4E0008214E0008254E0008DC
:10005000294E00082D4E0008314E0008354E00088C
:10006000394E00083D4E0008414E0008454E00083C
:10007000494E00084D4E0008514E0008554E0008EC
:10008000594E00085D4E0008614E0008654E00089C
:10009000694E00086D4E0008714E0008754E00084C
:1000A000794E00087D4E0008814E0008854E0008FC
:1000B000894E00082B4D00088D4E0008914E000817
:1000C000954E0008994E00089D4E0008A14E00086C
:1000D000A54E0008A94E0008AD4E0008314D00089D
:1000E000B14E0008B54E0008B94E0008BD4E0008DC
:1000F000C14E0008C54E0008C94E0008CD4E00088C
:10010000D14E0008D54E0008D94E0008DD4E00083B
:10011000E14E0008E54E0008E94E0008ED4E0008EB
:10012000F14E0008F54E0008F94E0008FD4E00089B
:100130002DE9F0439FB00FF6BC36269CDFF81C89F2
:1001400002918DF83B4000210B914FF0FF370446A0
:1001500091461D460AE019F8011B0298A0470028A5
:10016000029000F0A4800B98401C0B9099F80000BE
:1001700050B12528EFD1002000210590069107906D
:10018000089109900A9103E00B98A3E041F0010166
:1001900019F8010F2028F9D023280CD02B2804D0DF
:1001A0002D2805D0302809D083E041F00201EFE787
:1001B00041F00401ECE741F00801E9E741F01001EA
:1001C000E6E700200D900AE00D98404505DA00EBC7
:1001D000800302EB4302303A0D9209F1010999F8CC
:1001E0000020A2F130000A28EED399F800002E2852
:1001F00018BF0C9726D119F8010F2A2808D12868B2
:10020000286009F1010950F8042B28600C9219E0CC
:100210002D280CBF19F8010B002000220C920BE0D6
:1002200040B90C9A424505DA02EB820203EB420325
:10023000303B0C9309F1010999F80030A3F1300229
:100240000A2AEDD3ADF83810304699F8001000F0C6
:10025000C1FD08B119F8010B8DF83A009DF83A007C
:10026000682804BF99F80010682903D162208DF82E
:100270003A0008E06C2804BF99F800006C2804D10B
:1002800071218DF83A1009F1010910A804902A464D
:1002900019F8013B6946204600F05CF838B910AA0D
:1002A0006946204600F084F900287FF55FAF3846A4
:1002B00010E02A2885D12A682A6052F8040B2A60A7
:1002C00000280D9003D540420D9041F0040109F142
:1002D00001098AE71FB0BDE8F083622820D06828B2
:1002E00011D06A2803D06C2827D0712825D108683E
:1002F000C01D20F007000860D0E900230830086026
:10030000194610467047002A0A680A60106803D030
:10031000121D0A6000B217E0121D0A6080B217E0D9
:10032000002A0A680A60106803D0121D0A6040B2F1
:100330000AE0121D0A60C0B20AE0002A0A680A60D8
:10034000106803D0121D0A60C1177047121D0A60A1
:100350000021704770B51C460D46B4F125002E698A
:10036000114600F013812038022865D9133841D096
:100370000B3816D0401E1ED0401E02285CD9001F2C
:1003800019D0401F00F08380401E33D0401E00F083
:10039000CD80C01E00F0D880801E2BD0C01E29D07A
:1003A000FAE06869421C6A610A680A6052F8043B14
:1003B0000A603354FAE095F83A000122FFF78DFF06
:1003C000C5E900010023994204DA6869411C6961AA
:1003D0002D210DE0288F810704D56869411C6961D2
:1003E0002B2105E0C00722D56869411C69612021E5
:1003F00031541CE095F83A000022FFF76EFFC5E982
:10040000000195F83800010711D5D5E90023002037
:10041000834208BF82420AD044F02000782806D1E7
:10042000686930213154401C411C696134542146B3
:1004300068693044E86083E00868C01D20F0070068
:100440000860D0E9002308300860C5E90023D5E939
:100450000001C80F04D06869411C69612D210DE0BD
:10046000288F810704D56869411C69612B2105E04B
:10047000C00704D56869411C69612021315468694D
:100480003044E8602146284600F0C4F98EE005F1CA
:100490003A02507820B14FF0FF340FF660005EE072
:1004A0001078622808D0682824D06A2812D06C28D6
:1004B0002ED071280ED02BE00A680A6052F8040B87
:1004C0000A6020B94FF0FF340FF6480047E0E96AB0
:1004D00001706BE00A680A6052F8040B0A6020B9E8
:1004E0004FF0FF340FF62C0039E0EA6AD317C0E969
:1004F00000235BE00A680A6052F8040B0A6020B926
:100500004FF0FF340FF60C0029E0E96A01804DE05E
:100510000A680A6052F8040B0A6020B94FF0FF34F1
:100520000FF2F0701BE0E96A01603FE00A680A60C0
:1005300052F8040B0A600021C5E90001EE60782141
:10054000284600F0BBF831E00868086050F8044B1A
:100550000860EC603CB94FF0FF340FF2D07000F04F
:1005600045FC201A70BD2E6B002E04D5204600F0ED
:100570005DFC044608E032460021204600F072FC93
:10058000002814BF041B3446AC610FE06869411CAD
:1005900069612521315409E06969481C6861252297
:1005A0007254210002D0411C69613454002070BD96
:1005B0002DE9FC410F460646796B7869BC6A091A39
:1005C000386A091AB869091A786A091AF869091A99
:1005D00097F838000C1B410790460FD42021002CBF
:1005E0008DF800100ADD254601236A46394630465B
:1005F00000F068FB00285DD16D1EF5D17B69424695
:100600003946304600F05EFB002853D130208DF88B
:1006100000003D6A002D09DD01236A463946304657
:1006200000F050FB002845D16D1EF5D1BB69FA687A
:100630003946304600F046FB00283BD130208DF88B
:1006400000007D6A002D08DD01236A4639463046E8
:1006500000F038FB70BB6D1EF6D1F868B969FB6914
:1006600042183946304600F02DFB18BB30208DF87B
:100670000000BD6A002D08DD01236A463946304678
:1006800000F020FBB0B96D1EF6D197F83800410795
:100690000DD52021002C8DF8001008DD01236A46BD
:1006A0003946304600F00EFB20B9641EF6D100201A
:1006B000BDE8F6814FF0FF30BDE8F6812DE9FC473B
:1006C00007468A463E69BAF16F0F08BF082405D075
:1006D0004AF02001782914BF0A2410243C25D7E9C8
:1006E0000023BAF1640F18BFBAF1690F904699461A
:1006F00006D100218B4203DAD8F1000869EB4909E1
:100700000020814508BF80451FD1386BE8B9082C0F
:100710004CD197F83800010748D530203B2586F8A2
:100720003B0043E000280ED597F8380000F0140095
:10073000102808D17A6B7869121A386A121A511A7D
:100740000029C8BF3962BDE8F3878DF800A0404694
:1007500049462246E31700F0B1FB3032D0B26D1E9D
:100760003A28019504DB9DF80000A0F151018A1898
:100770007255404649462246E31700F09FFB8046EB
:1007800089460020814508BF804503D0F86871196B
:100790008842DCD3082C09D197F83800010705D529
:1007A000715D302902D06D1E30207055C5F13C01BD
:1007B000B9617019F860386B8142B3DA411A396255
:1007C0004FF6EF70398F01403987BDE8F3872DE987
:1007D000D04306460F4614464FF00008DFF88092DB
:1007E00012E0E00707D542464B463046394600F056
:1007F0007DFC06460F464046494642464B4600F0C1
:1008000075FC641080468946002CEAD13046394692
:10081000BDE8D0832DE9F84F05468CB0286BD5E9AB
:10082000009B00288A4602AF02D50620286305E017
:1008300001BF4AF02000672801212963D5E900841F
:1008400060004015401C0DD121030BD0AAF16101BD
:1008500003201A29A86102D20FF2EC4110E00FF236
:10086000EC410DE060004015401C0ED121030CD17D
:10087000AAF1610103201A29A86116D30FF2D4410D
:10088000E868032200F004FDE4E024F00043B3F53F
:10089000801F28F0000211D20026B34208BFB242E6
:1008A000019605D14046214618E00FF2A441E7E742
:1008B00001AA4046214600F03FFD08E069486A4928
:1008C00000EB135001900C40684940462143019BC6
:1008D000674E47F29752534393FBF6F6C5E9000182
:1008E00020F0000221F000430020834204BF824236
:1008F000002300F0A780484659460022002300F05C
:1009000053FD38BF8BF0004B3246D2F107020196FF
:1009100003DD5946FFF75BFF0AE0524200205549CC
:10092000FFF755FF02460B464846594600F054FD76
:1009300081464AF0200000906628286B06BF019F80
:100940000A3706273F18142FC8BF142730208B46BC
:100950008DF808000DF10906002F34DD4846594690
:1009600000F05EFE01460B4606F1080204200A264E
:10097000B3FBF6F606EB8604A3EB4403303302F830
:10098000013C0A23B6FBF3F303EB8304A6EB440616
:100990003036401E02F8026DE9D1083F002F02F107
:1009A0000806D9DD084600F04FFE02460B464846D1
:1009B000594600F057FE304C0022234600F096FBCB
:1009C00081468B46CAE70DF10900361A0DF1090779
:1009D00004E00198401E761E01907F1C3878302874
:1009E000F7D00099662902D10198401C03E06529DF
:1009F0000CBF012000202B6BC3189E42B8BF731E92
:100A0000002B1ED4B34204DAF85C3528A8BF392085
:100A100000DA302019467A1E02EB010900E05B1E65
:100A200019F801B9491E8345F9D0392802D1785CFB
:100A3000401C7854002904D50198401C17465B1CC3
:100A40000190019800B200901BB23A4651462846E8
:100A500000F014F80DB0BDE8F08F0000CBCCCC0C4A
:100A60000000244002FCFFFFFFFF0F800000E03F7A
:100A7000A08601000000F03F84D797412DE9F84798
:100A800083B005468A469146984600F05DFEB8F16F
:100A9000000F406A2F6B067803DC4FF001080FF25D
:100AA000B829BDF930404AF02000662808BF641C10
:100AB00013D0672840F08F8014F1040F7ADBBC421A
:100AC00078DA95F83800641C010702D4B845B8BF3D
:100AD000474620B23F1A48BF00270FFA84FAE86859
:100AE000A969BAF1000F23DC4A1C30234354002FBC
:100AF00003DC95F83800010702D5E8688654521CDB
:100B000017EB0A0FB8BF7C4224B2E7196042474591
:100B1000B8BFB846AA6168620FFA88F4EC61E86869
:100B2000AB6922464946184400F0B2FB3F1B18E06F
:100B300022B29045084416DA4246494600F0A8FB26
:100B4000A8694044A861AAEB0801002F696203DC90
:100B500095F838100A0704D5E9680E54E869401C76
:100B6000E861AF6297E0494600F092FBA869002F68
:100B70005044A8EB040803DC95F838100A0702D5A6
:100B8000E9680E54401CA8610FFA88F08742E868B3
:100B9000AB69B8BFB8460FFA88F209EB0A011844EE
:100BA00000F076FBA8690FFA88F10844A861781A6A
:100BB000686270E0B84504DA95F838100A0758BF43
:100BC00047467F1E48BF0027BAF1670F0CBF4FF0A2
:100BD000650A4FF0450AA969EB68481CA861002F17
:100BE00019F8012B5A5403DC95F838100A0717D569
:100BF000E968431CAB610E54002F11DDA8F101061A
:100C000030B28742E868B8BF3E4632B2494618441F
:100C100000F03EFBA86936B23018BF1BA8616F62B6
:100C2000E868A9690844002C80F800A003D42B21AF
:100C30004170811C03E02D2141706442811C002021
:100C40006A460AE023460A2493FBF4F404EB840684
:100C5000A3EB460302F8013B401C24B2002CF1DC5C
:100C6000012806DC4AF02002652A04BF302201F880
:100C7000012B48B9302001F8010B07E0401E1DF898
:100C80000020303201F8012B0028F7DCE868AA695F
:100C90001044091AE96195F8380000F01400102892
:100CA0000DD16969A8694118686A4118E869411855
:100CB000A86A4118686B8142BCBF411A296204B01E
:100CC000BDE8F087F8B505460E4617461C460020DD
:100CD00074B117F8011BB068A847B06030B1F06A72
:100CE000401CF0620020641EF3D1F2BD4FF0FF30D3
:100CF000F2BD0000686A6C747A4C00007072696E14
:100D000074665F733A20256E20646973616C6C6F42
:100D1000776564007072696E74663A20626164205F
:100D2000256E20617267756D656E74007072696EF4
:100D300074665F733A206261642025732061726774
:100D4000756D656E740000006E616E004E414E0060
:100D5000696E6600494E46003000F0B402461068E5
:100D600095681318506803EB5004C00721D54D4413
:100D70001FE0F0BC02F10C00704713F8017B05F88E
:100D8000017B491EF9D1A0B1B60813F8011B06F08A
:100D90000306032E08BF13F8016B01EB062149423D
:100DA000801C294405D011F8016B05F8016B401E29
:100DB000F9D1A342DDD013F8016B16F0030104BF93
:100DC00013F8011BC91C30090F28DAD113F8010BE5
:100DD0000F30D6E70278C9B28A421AB11CBF10F8A8
:100DE000012FF9E718BF00207047000080B500B957
:100DF00006A005490B681BB122220021984701E09B
:100E000000F0A6FC222002BDE0050020636F6E7397
:100E1000747261696E742068616E646C65723A20E8
:100E2000626164206D6573736167650000F10103A1
:100E3000810704D010F8011B89B18107FAD102683B
:100E4000B2F10131914311F0803F04BF50F8042FFB
:100E5000F6E710F8011B11B110F8011BFBE7C01AEF
:100E600070470000C9B2830706D0521E22D310F883
:100E7000013B9942F7D11FE0083A13D302F1040273
:100E800041EA012141EA014150F8043B121F21BF10
:100E90004B40A3F1013C2CEA030C1CF0803FF3D043
:100EA000C9B2001F083210F8013B521E28BF91EA58
:100EB000030FF8D818BF0120401E7047B3BBD9B14B
:100EC000B2F5803F7DD2022A1ED98C46B1FBF2F1E9
:100ED00002FB11C31B0443EA1043B3FBF2FC02FB09
:100EE0001C3380B240EA0343B3FBF2F002FB103242
:100EF00040EA0C4000237047022A05D98446B0FB23
:100F0000F2F002FB10C270474AB105D100F00102B5
:100F100049085FEA3000704700220023704700F064
:100F20001BBC0B000200002100207047904271EBB7
:100F3000030CF6D3B3F5803F2FD2F0B5B3FA83F7A5
:100F4000B1FA81F4A7F10F0E3D1B5340CEF12006FC
:100F500002FA0EF2F3415340B5F10F0746D80F3CA9
:100F60002C444140C4F12006A040F1414140B1FB76
:100F7000F3F603FB1611A2FB0645001BA94102D2A2
:100F8000761E8018594180EA010221FA0EF362FAB6
:100F90000EF200215A403046F0BD30B4B1FBF3FCF4
:100FA00003FB1C11A2FB0C45001BA94103D2ACF1B1
:100FB000010C8018594130BC02460B4660460021A6
:100FC0007047B2F1807F65D3F0B5B2FA82F7B1FA1B
:100FD00081F4C7F10F063D1B22FA06F307F1110E4B
:100FE000F24120355A40B5F10F07B8D94140C4F15C
:100FF0002006A040F1414140B1FBF3FC03FB1C1172
:10100000A2FB0C45001BA94103D2BCF1010C8018C6
:1010100059410F2F12D30F3FC90341EA5041B1FB91
:10102000F3F603FB1611A2FB0645D4EBC030A94131
:1010300002D2761E8018594146EACC3C07B34140A3
:10104000C7F12006B840F1414140B1FBF3F603FB84
:101050001611A2FB0645001BA94102D2761E80187C
:10106000594180EA010221FA0EF3C7F1200462FA25
:101070000EF20CFA07F05A402CFA04F13043F0BD9E
:1010800080EA010221FA0EF3002162FA0EF26046B4
:101090005A40F0BD8C46B1FBF2F102FB11C31B02BA
:1010A00043EA1063B3FBF2FC02FB1C331B024CEA65
:1010B000002043EA1063B3FBF2FC02FB1C331B026B
:1010C0004CEA002043EA1063B3FBF2FC02FB1C3342
:1010D0001B024CEA002043EA1063B3FBF2FC02FB64
:1010E0001C324CEA0020002370470000B0B581EAB2
:1010F000030C0CF0004C40F2FF7515EA11541DBFB3
:1011000015EA1357AC42AF4239E0E41923EA4553DC
:1011100043F48013C90241F0004141EA505EC70226
:101120001100A7FB020200284FF00000EEFB012097
:101130004FF00001E3FB072118BF42F00102401805
:1011400000214941E3FB0E01A4F580640F0302D2A4
:1011500052004041494154F101046CDD470872F1ED
:10116000004250F1000051EB0451A1F580115CBF29
:1011700041EA0C01B0BD4CEA05510020B0BD05EAC2
:101180001357AC4214BFAF4241E050EA410E1CBFBE
:1011900052EA430E02E061460020B0BD24423C44C6
:1011A0001BD15FEA070EF6D0090302BF01460020FB
:1011B000AEF1140EB1FA81F7AEEB070401FA07FEA7
:1011C0000C37C7F1200100FA07F7C8404EEA000EBD
:1011D00023EA455343F48013A2E733F00043B3FA04
:1011E00083F704BFB2FA82FE77440B3FE41BB7F1EA
:1011F000200E2FBF02FA0EF3BB40C7F1200E22FAD9
:101200000EFE38BF43EA0E03BA40641C82E750EA80
:10121000410E14BF52EA430E6FF000014FF4001765
:1012200017EB430F8ABF194617EB410FB5E74CEA9E
:1012300005510020B0BDD4F10104B4F120070FDA4C
:10124000C4F12007520828BF42F0010210FA07F546
:1012500001FA07F7E1BF2A43E0403843E1400FE0DD
:10126000352C98DCC7F1200452EA400220FA07F23C
:1012700018BF42F0010231FA07F0A1400A430021F1
:1012800072F1004250F1000051EB0C01B0BD0000C2
:1012900062B38B0708D0521E11F8013B00F8013BE6
:1012A00000F024808B07F6D1830740F0208000BF38
:1012B000103A07D330B4B1E83810103AA0E838102B
:1012C000F9D230BC530724BFB1E80810A0E80810D9
:1012D00044BF51F8043B40F8043BD20724BF31F827
:1012E000022B20F8022B44BF0B7803707047121FAB
:1012F00017D35B0009D151F8043B20F8023B1B0CCB
:10130000121F20F8023BF6D20BE051F8043B00F824
:10131000013B1B0A20F8023B1B0C121F00F8013B8B
:10132000F3D238BF121D521E24BF11F8013B00F842
:10133000013BF8D87047000010B5144600F002F8E1
:10134000226010BDC1F30A5343B14A0012F5001FD9
:1013500028D2A3F2FE32A1EB0251704750EA410CB1
:1013600020D001F0004C31EA0C01B1FA81F204BF47
:10137000B0FA80F3D2180B3AB2F120032CBF00FA76
:1013800003F1914041EA0C013EBFC2F1200C20FA6A
:101390000CF319439040524240F2FD33D21A01EB54
:1013A00003517047002270474FF4001C1CEB410FA3
:1013B00094BF1CEB430F09E041EA030C50EA4C0CCC
:1013C00052EA0C0C03D2994208BF9042704714BFF6
:1013D0008B42824270470000F0B540F2FF7581EA0F
:1013E000030C0CF0004C15EA11541DBF15EA1357FD
:1013F000AC42AF42E5E0BC41C1F31301C3F31303B8
:10140000801A994143F4801304D2641E400049417C
:1014100080185941C90241EA5051B1FBF3F603FB70
:101420001611A2FB0675D7EBC020A94102D2761E89
:1014300080185941C90241EA5051B1FBF3FE03FB48
:101440001E11A2FB0E75D7EBC020A94103D2AEF14D
:10145000010E80185941890241EA9051760546EA09
:101460008E2EB1FBF3F603FB1611A2FB0675D7EB2C
:101470008020A94102D2761E80185941C90241EA52
:1014800050514EEA060EB1FBF3F603FB1611A2FB18
:101490000675D7EBC020A94102D2761E80185941AB
:1014A000C90241EA5051B1FBF3F703FB1711A2FB4C
:1014B0000735D3EBC020A94167F100070CBF0042FC
:1014C00047F0010766F3D5274FEA1E31B80814F537
:1014D000806412DDBD0775F1004250EB0E5051EBF8
:1014E000045111F5801F5CBF41EA0C01F0BD4CF0C6
:1014F0007F6141F0E0410020F0BDBD076D0840EA8A
:101500000E5041F48011D4F10104B4F120060ADA3E
:10151000C4F120060200E04001FA06F3E14018435E
:10152000B24015430EE0342C13DCC6F1200445EA2A
:1015300040056D0820FA06F2154321FA06F0A14095
:101540000D43002175F1004250F1000051EB0C01F8
:10155000F0BD00205FEA0C01F0BDCFB992185B41ED
:10156000B3FA83F704BFB2FA82F6BF190B3FB7F1A3
:1015700020062FBF02FA06F3BB40C7F1200622FA6D
:1015800006F638BF3343BA401CB1E419641E33E792
:101590007F4231F00041B1FA81F404BFB0FA80F625
:1015A000A4190B3CB4F120062FBF00FA06F1A140AC
:1015B000C4F1200620FA06F638BF3143A0403C1B98
:1015C0001AE7AC421ABF05EA1357AF4212E050EADD
:1015D00041061CBF52EA4306BFE750EA41073046C6
:1015E00061461CBF41EA0551F0BD52EA430C08BFF9
:1015F000C143F0BD00204FF4001616EB410F98BF19
:1016000016EB430F08BF16EB410F24BFC14305E0A3
:1016100016EB430F0CBF61464CEA0551F0BD0000CC
:10162000400D491840EA81200CD2490DA1F5806196
:10163000491C40F0004005DBD1F11F0154BFC840F8
:10164000C017704700207047014648B1B0FA80F1DA
:101650008840C91CC1F58461090501EBD021400512
:101660007047000070B44FF0004591EA030F40F15D
:101670007D806B40841A71EB030603D2001BB141DD
:10168000121973414FF4001C1CEB410F34BF7CEB6B
:10169000430442E00C0DA4EB1356352E4FDC45EA13
:1016A000C323DB0A45EAC121C912B6F120050DDDCD
:1016B00063FA05F6EB4086EA0305124218BF45F0CF
:1016C0000105C01851F100010CD213E062FA06F5D1
:1016D000F2405540F3415A40B340F3405A4080181D
:1016E000594107D349085FEA30005FEA350528BF52
:1016F00045F0010501F58011420875F1004250F1F5
:10170000000041EB04514E0016F5001F70BC38BFBD
:1017100070470020090D090570471CEB410F10D2DE
:1017200052EA43060BD0BCEB410F05D80C0DAB437E
:10173000661E342EB6DD02E0AB438018594170BC02
:10174000704770BC70470000004870477C02002062
:10175000012000F0BFB800007047000070B44FF0E7
:10176000004591EA030F7FF585AF6B40841A71EB5A
:10177000030604D26E40001BB141121973414FF4AD
:10178000001C1CEB410F34BF7CEB430682E00C0DC8
:10179000A4EB1356362E7BDC012E45EAC32341DC35
:1017A00043EA525312BFD20292025B08240545EA73
:1017B000C12141EA5051D2EBC020994125D407D133
:1017C000B0FA80F610FA06F162D00020203608E068
:1017D000B1FA81F6B140C6F1200220FA02F21143BB
:1017E000B0404FEAF474B4EB465434F001064FEACB
:1017F00074040AD8D6F50016760D04F00044F040C3
:1018000061FA06F25040F1404840C00A40EA4150B7
:1018100021F0004128BF5FEA500550F1000044EB81
:10182000D12135E0DB0A45EAC121C90AB6F120051C
:101830000EDD42EA0242120CC5F1200603FA06F65A
:10184000EB4042EA06056D42984161F100010DE06E
:1018500062FA06F5F240554063FA06FC82EA0C0291
:10186000F3405A406D42904161EB030111F4801F37
:1018700005D1641E620502D06D004041494121F44A
:101880008011430875F1004350F1000041EB045111
:1018900070BC70471CEB410F15D223F0004352EA95
:1018A00043060BD04FEA4C0CBCEB410F04D80C0D97
:1018B000661E342EB7DDEBE7801A994150EA4106E7
:1018C00008BF0021E4E708BF1CEB430F28BF6FF0FF
:1018D0000001DDE780B5AFF30080024A1100182057
:1018E000ABBEFBE7260002002DE9F04786B000F012
:1018F000B5FD00F040F900F0EEFA00F07FF900F0DD
:10190000DCF900F033FA00F053FA00F0A2FA00F02C
:101910009BF9DFF8F849DFF8F80960604FF4E1302F
:10192000A0600020E060206160610C20A0610020C8
:10193000E0612062201D00F0DFFD201D00F0A0FD11
:1019400000F083FADFF8CC09DFF8CC99DFF8CC5946
:10195000DFF8CC69DFF8CCA900F0BBFF0421DFF889
:10196000B40900F0B6FFDFF8AC0900F085FF0821EC
:10197000DFF8B40900F0ADFF0C21DFF8AC0900F08E
:10198000A8FF0C21DFF8A40900F0A3FF0821DFF86D
:101990009C0900F09EFF0C21DFF8780900F099FF08
:1019A000002100F0DEF8042100F0DBF8082100F04F
:1019B000D8F80C2100F0D5F84021201D00F02AFCB9
:1019C0000FF6782001F0CAFA2DE0DFF864792722BB
:1019D0003946201D00F0A0FD6078012823D100F0D9
:1019E000D2FB97F925000FF65C272070D9F8440048
:1019F00001F0C8FACDE90401D9F8080001F0C2FAF3
:101A0000CDE90201D8F8440001F0BCFACDE90001AB
:101A1000D8F8080001F0B6FA02460B46384601F045
:101A20009DFA0020607094F90000DFF80889002812
:101A3000CBD1287E012807D16968032205F10C006B
:101A400000F0D0FC00202876307E012807D1716894
:101A5000032206F10C0000F0C5FC00203076DFF810
:101A6000D878387E012807D17968032207F10C0065
:101A700000F0B8FC002038769AF81800012809D147
:101A8000DAF8041003220AF10C0000F0ABFC00208D
:101A90008AF81800686801F075FA00F066F801F03D
:101AA00095FAA860706801F06DFA00F05EF801F038
:101AB0008DFAB060786801F065FA00F056F801F030
:101AC00085FAB860DAF8040001F05CFA00F04DF82D
:101AD00001F07CFACAF8080004F14402514640467D
:101AE00000F073FA04F15402394608F13C0000F0AA
:101AF0006CFA04F164023146484600F066FA04F1DB
:101B00007402294609F13C0000F05FFA206DDFF80D
:101B10002C780128ACBF012200224FF4805100F044
:101B20001DF8206E0128ACBF012200224FF40051A5
:101B300000F014F8206F0128ACBF012200224FF4FE
:101B4000804100F00BF8D4F880000128B4BF0022D7
:101B500001224FF4004100F001F864E7384601F03B
:101B6000ACBBDFF8DC0700F0ECBEDFF8D827DFF80D
:101B7000D837FFF7BBBA00B5002195B001200D9111
:101B80000B90022112914FF480300C90012213909F
:101B90004FF4E0110F9214910BA801F0B3FB00B1C8
:101BA000FEE70F2102200091019000214FF4806098
:101BB0000291039004916846022101F031FD00B1C9
:101BC000FEE7022005904FF40041079105A801F0BF
:101BD0000BFE00B1FEE701F0D1FD4FF47A71B0FBCE
:101BE000F1F001F0BCFE042001F0CDFE0022002146
:101BF0004FF0FF3001F088FE15B000BD1FB5DFF8D3
:101C00004C47DFF84C0700F04AF8032020612046DB
:101C100001F0D8FE00B1FEE70E20012100900191F5
:101C200002912046694601F055FF00B1FEE70F2002
:101C300000F029F801F04EFF00B1FEE70720009008
:101C4000032100F026F819E01FB5DFF80847DFF898
:101C5000080700F024F802202061204601F0B2FEBF
:101C600000B1FEE705200090012100F012F801F01C
:101C700031FF00B1FEE7062000F005F801F02AFF71
:101C800000B1FEE71FBD0221009001912046694688
:101C900070470020019102906946204670472060FD
:101CA0004FF48070A0600120E060002060614FF47C
:101CB0006020E061002060607047DFF8A00610B58A
:101CC000DFF85846E0614720206290B00020606253
:101CD0004FF4FF60A0620020E0622063606304F1C3
:101CE0001C0000F0E9FD00F0B0F80791089007A98A
:101CF00004F11C0001F0C9FF00B1FEE76020009074
:101D00000021042001910291039104904FF480710D
:101D1000002005910690002200F023F800F08EF8D4
:101D200000F060FF00F083F800F05CFF00F08DF839
:101D3000049005910C2200F014F800F086F80A9146
:101D40000C9109904FF400510B900D900E910F9053
:101D500009A904F11C0001F06BFF00F0A0F810B01D
:101D600010BD694604F11C0000F03CBF4FF08040FC
:101D700018B5DFF8AC45E0614720206289B000F07B
:101D80009EF800F092F800B1FEE76020002102907A
:101D900003910020042104900691002200F07AF8BB
:101DA00000B1FEE7042200F075F800B1FEE765E03F
:101DB000DFF8AC0510B5DFF88045E061082020624F
:101DC00086B00020606241F61F40A0620020E06201
:101DD000606304F11C0000F09FFD00F036F80491F0
:101DE000059004A904F11C0001F04FFF00B1FEE7CB
:101DF000012101910090002102900391002200F046
:101E000011F800F01BF800F06BFE00F010F800F085
:101E100067FE00B1FEE70C2200F004F800B1FEE717
:101E200006B010BD694604F11C0000F059BE00B1B7
:101E3000FEE70822694604F11C00704700B1FEE786
:101E40000422694604F11C00704700B1FEE700213E
:101E50007047DFF8100518B5DFF8C844E061472087
:101E6000206289B000F02BF800F01FF8FFF7EDFFBB
:101E7000039104916020042102900691082200F051
:101E800009F800B1FEE70C2200F004F800F007F8B2
:101E90000AB010BD02A904F11C0000F0A3BE00B1FD
:101EA000FEE704F11C0001F0EABF00B1FEE70021EB
:101EB00000910190694604F11C0001F0E6BE00208B
:101EC00060624FF4FF60A0620020E062606304F192
:101ED0001C0000F0F1BCF0B5DFF88C04DFF88C6476
:101EE000DFF85844DFF8885485B0016841F02001DC
:101EF000016041F20C07026802F02002049204998A
:101F0000016841F010010160026802F010020492C1
:101F10000499016841F004010160026802F00402C2
:101F2000049200220499016841F0080101603946D9
:101F3000006800F0080004900498304601F0BDF9F4
:101F400000224FF47041204601F0B7F9082000F05C
:101F500037F8284600F031F80120019000210320D5
:101F60000291039000976946304601F063F84FF400
:101F70007040012100900191002003210290039103
:101F800000F01AF8042000F01BF86946DFF8E403BB
:101F900001F050F8382000F013F800F00DF84FF47D
:101FA000406000900221012001910290694628467C
:101FB00001F040F805B0F0BD2046694601F03AB89E
:101FC000002100900191029170472DE9F041DFF866
:101FD000A843064620688968154601F0F9FFDFF836
:101FE0009C1302F035F8044638BFDFF8940306D39B
:101FF000DFF8901302F03EF805D8DFF88C03214695
:1020000002F04AF80446F169B461204601F0E0FFAD
:102010003062DE4F7762B4693068214602F0AEF874
:102020008046C6F80C802046394602F0A7F8716851
:1020300002F0A4F8316902F02FF8D549306102F0BE
:1020400019F898BFD348D449306102F001F838BF7D
:10205000084630613946306A02F0FCF8B16802F097
:102060008DF8074677614146306902F015F8394628
:1020700002F012F8C949B06201F0EAFF38BF084621
:1020800004D3C74901F0F6FF98BFC648B06202F01A
:102090005FF9E860F461BDE8F081A54A53185B7808
:1020A00000F82C3F53189B7843705318DB788370EB
:1020B00053181B79838053185B79C38053189B791D
:1020C00003815318DB794381531811441B7A8381B0
:1020D000497AC18170472DE9F843064606F12C077D
:1020E000B14C3878B14D02F049F9306000F04AFF48
:1020F00080468946B978787800F03DF800F042FFD4
:1021000000F03DF800F033F800F060FF3060B7F900
:10211000040002F041F900F035FF80468946B7F926
:102120000810B7F9060000F026F800F02BFF00F0C9
:1021300026F800F01CF800F049FF7060B7F90A00BB
:1021400002F02AF900F01EFF80468946B7F90E100A
:10215000B7F90C0000F00FF800F014FF00F00FF8D2
:1021600000F005F800F032FFB060BDE8F1834246B0
:102170004B46FFF7F3BA40EA012002F00DB92246C0
:102180002B46FEF7B3BF38B56A4C4FF0FF312046FF
:10219000FFF783FF082104F13C00FFF77EFF5E4D4F
:1021A00011212846FFF779FF1A2105F13C00FFF7BE
:1021B00074FF2046FFF78FFF04F13C00FFF78BFF11
:1021C0002846FFF788FF05F13C00BDE8324082E772
:1021D000574810B590F826204C4C262100F008F8FE
:1021E00008B901206070201DBDE81040402111E0B9
:1021F00030B50023002402E0055DEB18641C8C421E
:10220000FADB180403EB10639BB29A18D243D0B2E6
:1022100030BD70470122090A02FA01F10068C94382
:1022200089B20160704738B501684D4CA1426AD14E
:10223000017F4F48012917D1384DE96D491CE965E7
:10224000616B2980402101F032F818B100F0B0F83C
:10225000012145E00022012100F0B4F800F0ACF8C3
:1022600028BF01F5E15148E0022914D12C4DA16BA2
:102270002980802101F01BF818B100F099F80221A3
:102280002EE00022022100F09DF800F095F828BF12
:1022900001F5E15131E0042915D1274DE16B298089
:1022A0004FF4807101F003F818B100F081F80321B8
:1022B00016E00022032100F085F800F07DF828BF29
:1022C00001F5E15119E008291DD1164D216C298035
:1022D0004FF4007100F0EBFF30B100F069F8042119
:1022E0002046BDE838406FE00022042100F06AF883
:1022F00000F062F828BF01F5E151081A02F04CF82D
:1023000068600120287631BD000000000000002038
:102310000048004050030020FC000020340300204F
:10232000940300204C04002068040020B003002027
:10233000A805002084000020F0030020000C0140CC
:102340000C0400209A9999999999A93F4805002071
:10235000002401407805002000280140002C0140A5
:10236000000400400008004018100240000801402E
:102370000010014000140140D8050020000034C3C3
:102380000000B443000034430000B4C36F12833A2A
:102390000100A0410000A0410000A0C10000FFC357
:1023A0000100FF430000FF43FCA9F1D24D62503F02
:1023B000288868800222704768882988884229888E
:1023C000688870472046FFE7491E02238900002ADB
:1023D00003FA01F1026A89B20CBF22EA010111433A
:1023E000016270472DE9F34115468046002600271B
:1023F0006C1E08E058F827004FF07E5101F04CFEAB
:1024000048F827007F1CA742F4DB019808EB850100
:10241000002741F8040C06E058F82700314601F087
:102420003BFE06467F1CAF42F6DB284601F0B4FFB8
:1024300001463046BDE8FC4101F00CBF4D61696EBC
:102440000D0A0000252E336620252E336620252E0A
:10245000336620252E3366200D0A000080B507481C
:10246000016841F010010160032001F040FA0020F2
:1024700001F0A4FF01F02EFC002002BD002002406C
:1024800038B5040001D1012032BD00F022F808B9AE
:1024900000F023F800F013F800F024F8FFE74161A2
:1024A00000F001F832BD2068C16841F40051C160FC
:1024B0000020686020206870A870002070472420E9
:1024C00068702068C16821F40051C160204600F0A6
:1024D0005EB904F1380568787047002129702046FC
:1024E00001F00DBD2068016921F49041016120686F
:1024F000416921F02A01704710B508B9012010BDCB
:1025000000F138042421617001F034FD0020606086
:102510006070A070207010BD30B500F138039C7859
:10252000202C21D109B1140001D1012030BD1C782B
:10253000012C19D001251D7081628285C285002180
:10254000596022219970002119700168CA6842F40B
:102550008072CA6001684A6942F001024A610068FB
:10256000C16841F0200101E0022030BDC1600020BF
:1025700030BD416921F040014161606B704738B561
:10258000044625682968EA686B6911F00F0007D1D5
:1025900088065DD590065BD52046BDE83240ABE0AD
:1025A000D80702D412F4907F52D0C80705D5D005C1
:1025B00003D5E06B40F00100E063480705D5D8077C
:1025C00003D5E06B40F00200E063880705D5D8072B
:1025D00003D5E06B40F00400E063080705D5D80799
:1025E00003D5E06B40F00800E063E06B00286ED09C
:1025F000890604D5900644BF204600F07DF8206887
:102600004069E16B0A0701D440061BD5204600F063
:102610005FF8206841694A060FD5FFF7AAFF60B14D
:102620000FF2C9014163606B01F0E8FE00284ED053
:10263000606B416BBDE8344008472046BDE832403E
:10264000FFF7E7BD2046FFF7E4FD0020E06331BD62
:1026500008062CD510062AD594F83900212836D141
:10266000A168206AB1F5805F0DD10188C1F308012E
:102670006960206918B9216A881C206207E0206A15
:10268000411C216203E0411C216200786860E08CFB
:10269000401EE08480B2D0B92068C16821F080017A
:1026A000C1602068C16841F04001C16031BD480689
:1026B0000DD550060BD5E86820F04000E8602021D9
:1026C00084F839102046BDE8324001F01FBF31BD0B
:1026D0000168CA6822F49072CA6001684A695208A7
:1026E00052004A61202180F83A107047406A002168
:1026F000C185C184FFF78DBD80B590F83A102229BD
:1027000043D18268B2F5805F14D1826A016941B910
:1027100003685968C1F308011180826A911C8162C3
:1027200018E001684B6803F0FF031380816A4A1CBC
:1027300082620FE001690029816A04D14A1C826229
:102740000268536805E04A1C82620268536803F01D
:102750007F030B70C18D491EC18589B299B901688B
:10276000CA6822F02002CA600168CA6822F4807236
:10277000CA6001684A69520852004A61202180F803
:102780003A10FFF725FD002002BD022002BD2DE911
:10279000F0470446642521680A69E06822F4405243
:1027A00002430A611926CA6831480240A068024300
:1027B0002069024360690243CA604A69A06922F441
:1027C000407202432B484A6181420ED100F0E1FF82
:1027D000074600F0DEFF804600F0DBFF814600F098
:1027E000D8FF824600F0D5FF0DE000F0CAFF074693
:1027F00000F0C7FF804600F0C4FF814600F0C1FF33
:10280000824600F0BEFF06FB09F961688900774344
:10281000B7FBF1F206FB08F7B7FBF1F3B9FBF1F7F1
:10282000B7FBF5F705FB17331B013233B3FBF5F3A9
:10283000B2FBF5F203F0F00303EB021306FB0AF719
:102840004643B7FBF1F2B6FBF1F06421B0FBF1F0C7
:1028500005FB10252D0132356420B5FBF0F0216811
:1028600000F00F00C3188B60BDE8F0870000000087
:10287000F3E9FFFF003801400068C16841F0010141
:10288000C160026842F0010202600020704702202D
:102890006870211D206800F01CFA0120687000207B
:1028A00032BD03D1416C41F400414164026842F001
:1028B00001020260002016BD38B5040001D10120DC
:1028C00032BD00F03AF818B900F033F801F083FA9D
:1028D000DDE71CB500F007F800F019F81CBFDFF8C1
:1028E0009C108842DDE704460122206800F02ABBE4
:1028F0002068C26842F0080270472068C26842F04F
:10290000040270472068C26842F0020270472068E3
:10291000DFF86C108842704738B5040001D10120FF
:1029200032BD00F00AF818B900F003F801F07BFAA4
:10293000ADE7002129702046704704F13C05687816
:10294000704710B5044608000BD004290CD00829A4
:102950000DD00C2901BF2068C36843F01003C36089
:1029600008E0FFF7CFFF04E0FFF7C7FF01E0FFF744
:10297000BFFFC2602068012205E000000034014072
:10298000002C0140206800F0DDFA2068016841F069
:1029900001010160002010BD10B5044620680169E6
:1029A0008A0715D5C1688A0712D56FF00202026145
:1029B00001212177806910F0030F204602D0FFF734
:1029C00032FC03E001F0A3FD00F087F8002020773F
:1029D000206801694A0715D5C1684A0712D56FF00A
:1029E0000402026102212177806910F4407F2046B1
:1029F00002D0FFF718FC03E001F089FD00F06DF84C
:102A000000202077206801690A0715D5C1680A07E8
:102A100012D56FF00802026104212177C06910F01D
:102A2000030F204602D0FFF7FEFB03E001F06FFD2D
:102A300000F053F80020207720680169CA0615D5F8
:102A4000C168CA0612D56FF0100202610821217711
:102A5000C06910F4407F204602D0FFF7E4FB03E09A
:102A600001F055FD00F039F8002020772068016959
:102A7000CA0708D5C168CA0705D56FF0010202610F
:102A8000204601F045FD206801690A0608D5C168A5
:102A90000A0605D56FF080020261204601F039FD7B
:102AA000206801694A0608D5C1684A0605D56FF055
:102AB00040020261204601F02DFD206801698A066E
:102AC0000AD5C1688A0607D56FF020020261204648
:102AD000BDE8104001F01FBD10BD204601F01CBD37
:102AE000F8B500F0E7F801D10220F2BD00F0E9F8F6
:102AF00082B9EB686A682968306800F0D2F93068FA
:102B0000816921F00C01816131688A69A8680243FA
:102B10008A6164E0042A10D1EB686A682968306829
:102B200000F0F6F93068816921F4406100F0BEF8E8
:102B3000AA6841EA0221816151E0082AE9686A68CD
:102B40002B6827D13768386A20F480703862090111
:102B500007F11C0001F0F001D0F800C0D7F820E028
:102B60004FEA9C0C42EA8C0222F0F0021143016011
:102B70001B022EF4206003F4206303433B623068A1
:102B8000C16921F00C01C1613168CA69A8680243BA
:102B9000CA6124E030681C300903476827F4805775
:102BA000476001F470410768D0F804C027F440770B
:102BB00047EA022727F47047394301601B032CF4CE
:102BC000005103F400530B4343603068C16921F4A2
:102BD000406100F067F8AA6841EA0221C161012062
:102BE000607073E070B500F065F801D1022070BD2F
:102BF00000F067F832B1042A17D0082A28D00C2A2E
:102C000039D04AE03068294600F09DF83068816983
:102C100041F0080100F04AF821F0040181613168B7
:102C20008A69286902438A6137E03068294600F0E2
:102C3000B3F83068816941F4006100F037F821F49D
:102C4000806100F033F82A6941EA0221816124E0C1
:102C50003068294600F0D0F83068C16941F00801B9
:102C600000F020F821F00401C1613168CA692869C7
:102C70000243CA6111E03068294600F0EFF830687D
:102C8000C16941F4006100F00DF821F4806100F0A9
:102C900009F82A6941EA0221C1610120607000201F
:102CA000207070BDC1613068C16970478161306852
:102CB00081697047064606F13C040D4620780128DC
:102CC0007047012121700220607070470020207041
:102CD000F2BDF0B5DFF824C2894F0368894C8A4DF4
:102CE0008A4E604518BFB84208D0B0F1804F18BF77
:102CF000B04203D0A84218BFA0420DD14A6823F0C9
:102D000070031343604518BFB84207D0B0F1804F3D
:102D10001CBFB042A84201D0A04203D1CA6823F42C
:102D2000407313434A6923F08003134303606045F3
:102D30008A68C2620A68826212BFB8420969016386
:102D400001214161F0BDF0B5026A6C4F6C4E520832
:102D500052000262056A4368846900F079F825F040
:102D600002051543B84218BFB04207D1CA6825F022
:102D700008051543B84225F0040501D0B04205D13D
:102D80004A6923F4407313438A691343436084619F
:102D9000496841630562F0BDF0B5026A574E22F002
:102DA00010020262B042056A436884690A6824F42A
:102DB000E64444EA02248A6825F0200545EA021523
:102DC0004F4A18BF904208D1CF6825F0800545EAE8
:102DD0000715B04225F0400501D0904206D14E695A
:102DE0008A6923F44063164343EA8603436084619F
:102DF000496881630562F0BDF0B5026A3F4E22F476
:102E000080720262056A4368C46900F021F825F403
:102E1000007545EA02253A4AB04218BF904208D1EF
:102E2000CF6825F4006545EA0725B04225F48065A2
:102E300001D0904206D14E698A6923F4405316436B
:102E400043EA06134360C4614968C1630562F0BD8B
:102E50000A6824F0730414438A68704770B5026AE4
:102E6000264E22F480520262B042046A4268C3696C
:102E70000D6823F4E64343EA05238D6824F40054E7
:102E80001CBF1F4EB04244EA053404D14D6922F400
:102E9000804242EA85124260C3614968016404626B
:102EA00070BD70B5046A154E640864000462B042D7
:102EB0008469056A1CBF124EB0420BD0B0F1804F3E
:102EC0001CBF124EB04205D00F4EB0421CBF0D4E7B
:102ED000B04203D1A40842EA840201E044F00102B6
:102EE0001B0122F0F00203F0F0031A4325F00A055B
:102EF00001F00A0182612943016270BD002C01408A
:102F000000340140000C0040000800400004004074
:102F100030B5046A24F0100404621B038469056A56
:102F200024F4407444EA022424F4704403F470430B
:102F30000901234325F0A00501F0A0018361294385
:102F4000016230BD10B5036A01248C40A3430362C3
:102F500002FA01F1036A1943016210BD0EB4C0B553
:102F6000024603A800210190009101AB0121044811
:102F700078440C30FDF7DCF806BC5DF810FB00BFB0
:102F80004F1E0000C0F3C75181B1FF2906D0C11008
:102F9000400721F0E04101F16051704741020CBF50
:102FA00040F4E0016FF000410020704700F0004164
:102FB00000020AD0B0FA80FC00FA0CF001F1605176
:102FC000A1EB0C5101EBD0214005704701F000420C
:102FD0008B1AA3F16051B1F5801F0ADBB1F17F6F4D
:102FE0001FD242EAC102C10071F1004142EB5070B0
:102FF00070470B15C3F10903212B10D2890241EA56
:10300000905180020128494141F0004121FA03F02A
:10301000C3F12003994071F1004150417047100005
:1030200070476FF0000013EB103F5CBF000E42EAE8
:10303000C05070472DE9F84F83460F460020804668
:10304000A149A24AA24B4FF00F094FF0010A3C6878
:103050000AFA08F606EA040EB64540F0AE807C682F
:103060003CB3012C1AD0022C1DD0032C2ED0112CD5
:1030700016D0122C1AD0974DAC421CBF964DAC42C4
:1030800017D0964DAC421CBF954DAC4211D0954D1A
:10309000AC421CBF944DAC420BD018E0F86816E06F
:1030A000F868001D13E0F868083010E0F8680C308C
:1030B0000DE0B86808B9042009E0012819BF08200C
:1030C000CBF814600820CBF8106000E00020BEF5BB
:1030D000807F03D2DC464FEA880404E0A8F10804AC
:1030E0000BF1040CA400DCF8005009FA04F6B54317
:1030F00000FA04F42C43CCF800407C68E4005CD572
:103100001C6844F001041C604FEA980C1D6805F02F
:1031100001050095009C52F82C604FEA880404F0E9
:103120000C0409FA04F526EA0505704EB34508BFFC
:10313000002618D06E4EB34508BF012613D06D4E41
:10314000B34508BF02260ED06B4EB34508BF032619
:1031500009D06A4EB34508BF042604D0684EB34573
:103160000CBF0526062606FA04F42C4342F82C4030
:103170006FEA0E067C68E50304D50D684EEA050586
:103180000D6002E00C6834400C607C68A5034C685C
:103190004CBF4EEA040434404C607C68E5028C6805
:1031A0004CBF4EEA040434408C607C68A502CC68B5
:1031B0004CBF4EEA04043440CC6008F10108B8F179
:1031C0000F0F7FF644AFBDE8F18F2DE9F84F0022D5
:1031D0003D4BDFF81881DFF8F4900F264FF0010B1C
:1031E00082461BE0464FBA4514BF0627052707FA5B
:1031F0000CF7BD4211D159F8245025EA0E0549F8C3
:1032000024501C6804401C605C6804405C609C683E
:1032100004409C60DC682040D860521C31FA02F007
:1032200043D00BFA02F00840F7D0B0F5807F03D20C
:10323000D4464FEA820E05E0A2F108040AF1040C1C
:103240004FEA840EDCF8004006FA0EF5AC43042584
:1032500005FA0EF52C43CCF80040C043DAF80C40D8
:103260000440CAF80C409700940859F8245007F01D
:103270000C0C06FA0CFEC2450EEA050508BF002735
:10328000B5D01B4FBA4508BF0127B0D0194FBA457A
:1032900008BF0227ABD0184FBA4508BF0327A6D0F6
:1032A000164FBA459ED10427A1E7BDE8F18F80688B
:1032B000084018BF0120C0B2704781B002B90904AC
:1032C000016101B0704700000004014008000140A6
:1032D0001810024000001110000012100000211010
:1032E00000002210000031100000321000080140E0
:1032F000000C014000100140001401400018014082
:10330000001C01402DE9F8430646DFF89C54307854
:10331000C1074AD5686800F00C00042807D0686827
:1033200000F00C0008280BD16868C10308D5296893
:1033300088033AD57068002840F0C080012069E118
:103340007068B0F5803F0FD038B9296821F480311A
:103350002960286820F4802009E0B0F5A02F2968B2
:1033600007D141F480212960286840F4803028602A
:1033700006E021F4803129602A6822F480222A6044
:10338000706868B101F0CAF804462968880300F142
:10339000958001F0C3F8001B6528F6D3032039E1BE
:1033A00001F0BCF804462868810340F1878001F0F1
:1033B000B5F8001B6528F6D3F0E701F0AFF8001B65
:1033C000022840F2AA80E9E7306970B10121396032
:1033D00001F0A4F804462868810700F1DC8001F0C0
:1033E0009DF8001B0228F6D9D8E7386001F096F85E
:1033F00004462868810765D501F090F8001B022873
:10340000F7D9CBE7086001F089F80446686A8107BC
:1034100077D501F083F8001B0228F7D9BEE708B979
:10342000286A09E00528286A06D140F004002862CD
:10343000286A40F0010005E0400840002862286A40
:1034400020F00400286241F28938F06868B101F088
:1034500065F88146286A810700F1AA8001F05EF8CC
:10346000A0EB09004045F5D398E701F057F88146F5
:10347000286A810740F19C8001F050F8A0EB090018
:103480004045F5D38AE701F049F8001B022840F2D5
:10349000A28083E701F042F8001B022840F2B580C9
:1034A0007CE700F0B9F804462868810140F1B1805A
:1034B00001F034F8001B0228F6D96FE73078DFF806
:1034C000F47281071BD5686810F00C0F09D068688A
:1034D00000F00C0008287FF477AF6868C1033FF55F
:1034E00073AF2968880703D5306901287FF426AFB8
:1034F0002968706921F0F80141EAC001296031783A
:1035000008071DD5B069DFF8B01200283FF47AAF84
:1035100001220A6001F002F80446686A81077FF51B
:103520004CAFDFF888120868C0084FF47A72B0FB1D
:10353000F2F2009200BF0098411E00280091F9D1DC
:103540003078410739D5E8690024C10009D4E86919
:1035500040F08050E8610124E86900F0805000905C
:103560000098DFF85882D8F80010C8051BD4D8F8A6
:10357000000040F48070C8F8000000F0CFFF8146E2
:10358000D8F80010C8050ED400F0C8FFA0EB090061
:103590006528F5D302E72868716920F0F80040EA51
:1035A000C1002860ABE7F06801287FF438AF3FE73F
:1035B0001CB1E86920F08050E861F06948B369689F
:1035C00001F00C0108293FF4B9AE02287FF469AF7D
:1035D00000F022F80446286881013FF554AF306AB4
:1035E000B0F5803F05D16968B06821F4003101432E
:1035F00069606968306A21F474110143706A01439B
:103600006960012000F009F80446286881017FF50F
:1036100041AF0020BDE8F2830020386600F07EBF95
:103620002DE9F843664F05463868894600F00700E3
:10363000484502D200F07AF86CD129785A4C8807B4
:1036400005D56168A86821F0F00101436160287820
:10365000C10757D56868012802D121688A0303E0B1
:10366000022803D121688A0103D453E0226891071C
:1036700050D56168890840EA8100606041F289386C
:1036800000F04CFF0646686801280BD1606800F026
:103690000C00042836D000F041FF801B4045F5D3D4
:1036A00003202DE0022837D1606800F00C000828C4
:1036B00028D000F033FF801B4045F5D3F0E7287891
:1036C000410705D56168E86821F4E0610143616064
:1036D0002878010706D56068296920F4605040EA1F
:1036E000C100606000F02CF862683649C2F3031232
:1036F000895C2E4AC8401060002000F05FFE002068
:10370000BDE8F283386800F007008145D7D200F0A9
:103710000DF8D4D00120F3E7606810F00C0FF1D061
:1037200000F0FCFE801B4045F6D3B9E73968C908B4
:1037300049EAC1013960386800F007004845704720
:1037400021491B480A6802F00C03082B00D070477F
:1037500010B500BF1FA4C2F38343D203E35C09D5B5
:10376000096800BF1FA2C1F340415843515CB0FB40
:10377000F1F010BD18461549484310BD0B480068CC
:1037800070470A48104A006813681149C3F30222BF
:1037900006E006480C4A006813680D49C3F3C222CC
:1037A000895CC84070470000001002408001002082
:1037B00000127A0000004242800442420070004041
:1037C000002002402C4C00080410024000093D007B
:1037D0000C4E000802030405060708090A0B0C0D2D
:1037E0000E0F1010010200002DE9FC410646354D78
:1037F0003078C10750D5A8690024C10009D4A86950
:1038000040F08050A8610124A86900F08050009029
:1038100000982D4F3968C80517D4386840F4807077
:10382000386000F07BFE80463968C8050DD400F092
:1038300075FEA0EB08006528F6D303203FE000F0FA
:103840006DFEC01B404519D3F7E7E86910F44070DE
:103850001EBF716801F44071884212D01B49E869AB
:1038600001220A6020F4407000220A60E861C0076B
:1038700007D500F053FE074641F28938E869810711
:10388000DDD5E969706821F440710143E9611CB13B
:10389000A86920F08050A8613178880705D52A688A
:1038A000B06822F4404202432A603078C10605D550
:1038B0002968706921F48001014329600020BDE876
:1038C000F6810000041002400070004040044242B3
:1038D0000901020081B006D5314A00F00F00104402
:1038E00000F8041C01E02F4B195401B070472E4A18
:1038F00013684FF6FF0100020B4000F4E06018432C
:103900002A4908431060704738B5274B1C68C4F338
:103910000223C3F10704052C28BF04241D1D072D15
:1039200034BF0023DB1E012505FA04F4641E214088
:10393000994005FA03F35B1E1A401143BDE8344079
:10394000C6E7012200F01F01194B03E0012200F03D
:103950001F01184B8A40400943F82020704710B5DA
:10396000401EB0F1807F01D3012010BD124C606079
:103970000F214FF0FF30FFF7ABFF0022A2600720BE
:103980002060002010BD04280B4904D1086840F0D5
:103990000400086070470A6822F004020A60704759
:1039A00018ED00E000E400E00CED00E00000FA0596
:1039B00000E100E080E100E010E000E000F000B88D
:1039C00070470000F8B5044600270026002C7AD086
:1039D00004F12405686820B9AE602870204600F024
:1039E000C3F9204600F002F96968CA066CD40100E8
:1039F0006AD1696821F4885141F002016960236845
:103A0000DFF8CC11E269D4F804C08B4204BFB2F5F0
:103A1000402F4FF40022E16842EA0C02D4F808C0BB
:103A2000BCF5807F14BFBCF1010F4FF48077D4F850
:103A300014C0BCF1010F42EA41020FD131B9A169B2
:103A4000491E490341F400610F4307E0696841F0F2
:103A500020016960A96841F00101A960596821F459
:103A600069410F435F602368DFF868119F680F406A
:103A700017439F60A168B1F5807F18BF012902D16B
:103A80002669761E36052168CB6A23F470031E432F
:103A9000CE622468DFF84011A3680B40934208D13E
:103AA0000021A960696821F0020141F0010169600B
:103AB000F2BD686820F0020040F010006860A8685D
:103AC00040F00100A86003E0686840F01000686002
:103AD0000120F2BDF8B50A46002100F1240300914F
:103AE0001C78012C01D10220F2BD01251D701F2779
:103AF000546815680668072C08D2641E04EB840419
:103B0000D6F834C000F05EF8756312E00D2C08D2D0
:103B1000E41F04EB8404D6F830C000F053F835639A
:103B200007E00D3C04EB8404D6F82CC000F04AF802
:103B3000F56207271668946805680A2E08D30A3EBE
:103B400006EB4606D5F80CC000F036F8EC6006E04F
:103B500006EB4606D5F810C000F02EF82C6114686C
:103B6000102C18BF112C23D100681D4CA0421AD173
:103B70001C48046825021BD4056845F4000505604F
:103B80001068102814D1154C17482568B5FBF0F0C3
:103B90000A2250430090009800281EBF009A521E2F
:103BA0000092F8D104E00121586840F020005860EC
:103BB000002018700846F2BDB7402CEA0707B44051
:103BC0003C437047A7402CEA0707A5403D43704798
:103BD000003C0140FDF7E1FFFE0E1FFF80010020C9
:103BE000002401400824014040420F0038B504463B
:103BF00020688168CA0719D5816849084900816031
:103C000000F08CFC054620688168C8070ED500F0DE
:103C100085FC401B0328F6D3A06A40F01000A06288
:103C2000E06A40F00100E062012032BD002032BDB8
:103C300030B590F83C20012A01D1022030BD01238B
:103C400080F83C30CD688B684A688C6925F44075F3
:103C50001D4325F4806515430B680A69496925F4FD
:103C600000651D4325F48055154325F400550D438B
:103C700025F480452543026825F400452C4354640F
:103C8000002180F83C10002030BD30B500F13C032D
:103C90001A78012A01D1022030BD01241C700222B1
:103CA0005A700268546824F07004546004686568AF
:103CB0000A68154365600268946824F08004946083
:103CC000026894684868044394600120587000209A
:103CD000187030BD80B5DFF8C802016841F00101FD
:103CE0000160026802F0010200920099416841F00F
:103CF00080514160406800F080500090009803209F
:103D0000FFF7F5FD002200216FF00B00FFF7FCFD2F
:103D1000002200216FF00A00FFF7F6FD00220021CB
:103D20006FF00900FFF7F0FD002200216FF00400A2
:103D3000FFF7EAFD002200216FF00300FFF7E4FD2A
:103D4000002200216FF00100FFF7DEFD00220021BC
:103D50004FF0FF30FFF7D8FD00F0C6F821F0E0612A
:103D600041F00071016001BD00B585B000F02DF893
:103D700016D1116841F4007111600323126802F436
:103D80000072049280220499009201936946FFF721
:103D900051F930200321009001916946814810E0DB
:103DA000814B99420FD1116841F480611160032366
:103DB000126802F4806204926022049900920193D6
:103DC0006946FFF737F905B000BD0168774B7848C1
:103DD000734A9942704781B00068764A70499042B0
:103DE00008D1086840F400600860096801F40061C7
:103DF000009115E0B0F1804F07D1486840F0010014
:103E00004860486800F0010009E06B4A904208D120
:103E1000486840F004004860486800F004000090E2
:103E2000009801B0704700686449884200D070472C
:103E300000B5634885B0016841F0020101604FF4AC
:103E40007071006800F00200009000220098554850
:103E500001910292039201A9FFF7ECF800F044F8F7
:103E600041F0E06141F440610160002200211D2029
:103E7000FFF74AFD1D20FFF764FD05B000BD1FB52B
:103E800001684C4A4A48914208D14FF47061009150
:103E90000222032301920393694622E0B1F1804F8D
:103EA000484C17D1032100910222039101926946E7
:103EB000FFF7C0F84FF4406000F019F8FFF7BAF8C8
:103EC00000F012F821F4407141F0E06141F400711A
:103ED00001601FBD3848814205D14FF4407000F0A9
:103EE00006F8FFF7A7F81FBD374801687047009034
:103EF0000221032001910390694620467047006823
:103F00003249884200D0704718B52D48254C85B0FD
:103F1000016841F4802101604FF48061006800F481
:103F200080200090022200980191032004900292C8
:103F300001A92046FFF77EF84FF4006001900021B0
:103F400001200291039001A92046FFF773F8FFF7C3
:103F5000CBFF21F0300141F0E06141F01001016040
:103F6000002200212720FFF7CFFC2720FFF7E9FCE4
:103F700006B010BD00681549884200D0704780B572
:103F80000F48016821F4802101604FF44061054829
:103F9000FFF71BF9BDE802402720FFF7D7BC000060
:103FA0001810024000100140002801400024014088
:103FB00000080140002C01400008004000040040BF
:103FC0001C100240000C0140040001400048004069
:103FD00090EA010F40F1668081F00041421A3CBF37
:103FE000801A89184FF0004CC0F3C752FF2A24D022
:103FF000C1F3C75313B3D21AD2F1190327DD4CEA28
:1040000001214CFA03F321EA0303D140C20D4CEA2B
:104010000020401834BF20EA0C004CEA5000D205C2
:1040200053EA006373EB0C0C52EB1020420012F1C8
:10403000807F38BF7047C00DC0057047490212BF6E
:104040009A4200EB5120F8E7D2F11703D9D5704717
:104050004FF0807C1CEB400F94BF1CEB410F05E040
:1040600040EA010C1CEB0C0F01D28842704718BFCC
:10407000814270474FF0807C1CEB400F94BF1CEBDB
:10408000410F05E040EA010C1CEB0C0F01D281420C
:10409000704718BF8842704790EA010F7FF59EAFC6
:1040A00081F00041431A4FF000423EBF5340C01A16
:1040B000C91800BFD3095FEAD05C13EB400F34BFCF
:1040C000B3EB410F40E07CEBD1530CD342EA01212A
:1040D00022D8D1EB402009D3400A28BF5FEA500123
:1040E00040EBCC507047401A15D04002B0FA80F235
:1040F000521C9040400A4FEA3C23B3EB026384BF5A
:1041000000EB730007E040F400001A16DB07C2F171
:104110000102D04018437047182BFCDC31FA03F23F
:1041200002FA03F3591A38BF42F00102D2EB4020E1
:104130003CBF4000ACF1010C5FEACC5CC20572F1FF
:1041400000414CEB5020704713EB400F0FD2C94297
:1041500009D0ACEBD153022B03DB4902172BDDDD79
:1041600070479143401AC042D5D10020704713EBED
:10417000410FD0D36FF0000070470000FF2212EA19
:10418000D05C1DBF12EAD153944593422BE09C446E
:10419000D30780EA01021A4043EA002043EA0121E2
:1041A000A1FB0030C04238BF40007CF17F010BDB37
:1041B000FE294ADA5B0842EAC15153EA006373F10F
:1041C000004C51EB10207047D1F1080CDCF12001BC
:1041D0002FDB5B0810FA01F10B4320FA0CF073F1AE
:1041E00000415041704794451CBF02EAD1539342AD
:1041F00080EA010202F000421DD0400019D04900BF
:1042000017D05BB9634514D00902B1FA81F3994024
:10421000BCEB030CC00140F00040C1E70002B0FA63
:1042200080FC10FA0CF0B3EB0C0CC90141F000411A
:10423000B6E71000704740000AD0490008D010F1DE
:10424000807F94BF11F1807F02E042F0FF40704711
:10425000D043704710B5FF2313EAD0541DBF13EAB3
:10426000D1529C429A4239E0A41ADA0780EA01034B
:10427000134042EA012142EA0020421A3CBF641E78
:1042800001EB4202090AB2FBF1FE01FB1E221202FF
:10429000B2FBF1F001FB10226EF30F201202B2FB11
:1042A000F1FE4EEA00207F3406DDFE2C24DA53EACC
:1042B000500050EBC45010BDD4F1020401FB1E228B
:1042C00040F08071192C1DDC21FA04F0C4F12004A7
:1042D000A140114371F10042584110BD9C421ABFE8
:1042E00003EAD1529A420FE080EA010E0EF0004339
:1042F000400004D0490016D143F0FF4010BD4900F2
:1043000008BFD343180010BD9C4205D1D21AF7D084
:1043100001F00041484010BD4A0212BF0846484023
:1043200000F0004010BD4AB90902B1FA81F2914093
:1043300044B1A418C00140F000409EE7C90141F01B
:10434000004152420002B0FA80F4A040141B94E7EE
:10435000C0F3C7517E390EDDC217D1F1200106DD51
:10436000000240F00040C840104450407047D04325
:1043700080F00040704700207047000000280AD0FD
:10438000B0FA80F18840D1F19D01C905020672F1B1
:10439000004241EB10207047C2175040801AB0FA1B
:1043A00080F10AD08840D1F19D01D20742EAC15183
:1043B000020672F1004241EB1020704738B50D4DF6
:1043C0000D4A297804464FF47A70B0FBF1F1106879
:1043D000B0FBF1F0FFF7C3FA50B9102C08D200225D
:1043E00021464FF0FF30FFF78FFAAC60002032BD5E
:1043F000012032BD7401002080010020F8B590F842
:1044000021200024022A00F1340103D00420486056
:1044100001245FE00268DFF8C460136823F00E0334
:1044200013604FF48077026815686D086D001560A1
:104430004FF480320368B3424FF4805519D9DFF846
:104440009860B34208BF012210D0DFF89460B342F5
:1044500008BF10220AD0DFF88C60B34208BF3A468A
:1044600004D0DFF88460B34208BF2A46DFF87C300E
:1044700027E0DFF87CC063451CD0DFF878C06345D7
:104480001AD0DFF874C0634518D0DFF87070BB42F3
:104490000EBF2A46DFF86850AB4210D0DFF86450F8
:1044A000AB4208BF4FF4801209D0B34207D14FF09E
:1044B000807204E0012202E0102200E03A46DFF8B8
:1044C00048301A60012280F8212080F820400968D5
:1044D00001B188472046F2BD080402408000024036
:1044E0001C04024030040240440402400404024020
:1044F000080002401C00024030000240440002401C
:10450000580002406C0002400400024070477047AF
:104510007047704770477047704700000148406817
:10452000704700BF7401002010B50446AFF300804F
:10453000204600F005F80446AFF30080204610BD89
:104540007CB500F10F06F608F600B04240D2082E06
:1045500004D2082602E0083000F047F8DFF80451E2
:104560002C68210005D1002007E00268B24221D268
:10457000011D08680028F8D12068291D0A688242B8
:1045800022D01368B34238BF111DF7D312E093193C
:104590000B60801B54685C600B68186016600968CB
:1045A00000291DBF48680028081D0020286002F16E
:1045B000080076BD61B10A681068A0F10803B34233
:1045C000E5D250680860EAE700F04EF80028C2D152
:1045D000002076BD10B5040006D0AFF30080204661
:1045E00000F003F8AFF3008010BD002800D1704741
:1045F00050B4A0F108021368072B2BD913F0070F52
:1046000028D1184C616809B18A4202D251606260B7
:1046100013E0486800B3904238BF0146F9D31BE06D
:10462000964203D11B180B600A4606E0486810B199
:10463000134498420ED350604A60506850B11368DA
:10464000D118814206D1002121600168CB18136086
:104650004068506050BC704708680E18B242DFD204
:1046600050BC7047D00500200749086808B10020F9
:1046700070470648C008C00008600549C908C9005D
:10468000091A0160704700BFDC050020EF1500200B
:10469000E82500202DE9F04107468846387810F0DB
:1046A000030F16461D4633D0384600F099F878BB04
:1046B000B8F1000F1CBFD8E900018619012D2ED1D9
:1046C0003888C10415D5396A07F14402384600F02C
:1046D000A3F83A6B044602B93A69F968384600F023
:1046E0009BF8361B341A7A69F968384600F094F85A
:1046F000261A1EB94DB916F1010F09D097F903001A
:104700002A46314600F08EF8064616F1010F09D10F
:104710002320AFF300804FF0FF30BDE8F081022D81
:10472000E8D1EBE7388810F4405F0ED07868F86085
:1047300038617861B8617868F86107F144003862DF
:1047400007F13000786200203863B8F1000F05D01F
:10475000D8E9020107F13402C2E9000139884CF6B8
:10476000FF60014039800020BDE8F08170B505464A
:10477000AFF300802888810415D56E680024EA68AC
:1047800095F903003146914212D2521A00F06FF8A7
:1047900010F1010F1CBF00283618F0D10FE04DF6C4
:1047A000FF70014029802846AFF30080002070BDD3
:1047B0000022002100F05BF810F1010F00D101246C
:1047C0006868E860A861E861002C2988E7D041F4B6
:1047D000007129802846AFF300804FF0FF3070BD94
:1047E000F8B5A0B9AFF3008000250A4E08244FF0B9
:1047F000FF37306820B1FFF7B9FF002848BF3D46BA
:10480000361D641EF5D1AFF300802846F2BDBDE829
:10481000F240ABE75C020020914234BF511A002104
:10482000084670473EB504000D00012A02D100F091
:104830006BF807E0022A07D1009400200190694636
:104840000C20ABBE2D1801E0002A0CD1009401957C
:1048500069460A20ABBE002805D1002221002800AD
:1048600000F02FF801E00020C04303B030BD80B558
:10487000002802D400F06AF802BD002002BD00004A
:1048800010B4314A002113461C6884421EBF491CE3
:104890009C6884421EBF491C1C69844209D09C69E3
:1048A000491C844205D0491C20331029ECD310BC8C
:1048B0007047002342F8313002EBC1014B6010BC5D
:1048C000704778B4204C002325462E688E421EBFC8
:1048D0005B1CAE688E421EBF5B1C2E698E4209D0E7
:1048E000AE695B1C8E4205D05B1C2035102BECD3CF
:1048F00072BC7047054604EBC303012A04BF596824
:104900004D195D6072BC704710B40F4A0021134608
:104910001C6884421EBF491C9C6884421EBF491CFF
:104920001C6984420AD09C69491C844206D0491CF7
:1049300020331029ECD310BC0020704702EBC100DB
:10494000406810BC70470000B402002080B5002908
:1049500001D1002002BD012801D0022802D100F0BF
:1049600005F802BD00F02AF802BD000070B40B008B
:10497000002111480068C0010FD4080070BC7047C6
:104980005D782D0225439C7826042E43DC7824068E
:1049900034431B1D0460121F091D002AEDD0E020C6
:1049A00000060468002CFAD01C78042AE8D20470AF
:1049B0005B1C491C521EF0E7FCED00E018B583B00B
:1049C0000300140000930191029469460520ABBED8
:1049D00001221900201AFFF774FF04B010BD10B5B2
:1049E0000446E068A169884251D3218849F2020354
:1049F0000B40022B08D008044CBF4FF400704FF45A
:104A00008440014321803BE001F4C042B2F5C04F35
:104A100006D1A168884203D32046FFF7E1FE78BBA8
:104A2000208810F4406F02BF606804F1440188429E
:104A300017D14FF40070FFF777FD606030B904F1D3
:104A400044006060E060401CA0600AE0218841F002
:104A500040012180E060606100F500726068A26042
:104A6000E06160682061A068A061207841070AD5F4
:104A700002220021204600F00CF810F1010F02D1B3
:104A80004FF0FF3010BD208840F4C040208000204F
:104A900010BD70B504460D461646AFF30080334690
:104AA0002A4600212046FFF7F5FD05462046AFF3D4
:104AB0000080284670BD38B504000ED0207810F074
:104AC000030F03D094F90300002809D5AFF3008049
:104AD000204600F02FF8AFF300804FF0FF3032BDDA
:104AE0002046FFF77DFE0546AFF3008020784106A3
:104AF00044BF606800F05CF80020606094F9030037
:104B0000022804D900F056F808B14FF0FF35E06BE9
:104B100048B100F05BF808B14FF0FF35E06B00F0F2
:104B200047F80020E063204600F004F8AFF300806F
:104B3000284632BD01780A0626D51C4A1368002192
:104B4000834203D1002342F821301BE05368012146
:104B500083421EBF022193688342F3D0D3680321AE
:104B600083421EBF042113698342EBD053690521A0
:104B700083421EBF0621936983421EBF0721D3696A
:104B80008342DFD000F014B8002101804FF0FF31E4
:104B9000C17000F144014160C16001614161816106
:104BA000C161016200F13001416270475C02002086
:104BB000FFF710BD1CB50200009269460220ABBE93
:104BC00004001000FFF75CFE200016BDE0B5009069
:104BD000FCF72CF9019069460E20ABBE03B000BD76
:104BE0000E49086840F0010008604A680C4802401D
:104BF0004A600B680B4803400B60086820F4802073
:104C000008604FF41F004A6822F4FE024A60886080
:104C10004FF0006004490860704700000010024037
:104C20000000FFF8FFFFF6FE08ED00E000000000C6
:104C300000000000010203040607080938B50C460D
:104C4000C5B22046AFF30080E068A169884204D372
:104C50002046FFF7C4FE00280FD4E068401CE06047
:104C600000F8015D2088010503D440050BD50A2D0D
:104C700009D12046FFF7B4FD28B12046AFF30080EC
:104C80004FF0FF3032BD2046AFF30080284632BDE2
:104C900019E050F8042BD30744BFA9F101039A1877
:104CA000091F0023042942F8043BF9D25FEA817C02
:104CB000134604D54FF0000CA2F800C09B1CC90796
:104CC00044BF0021197050F8041B0029E1D170473E
:104CD00038B50D4D0824286800281CBF017811F054
:104CE000030F05D090F90310002958BFFFF7E3FE2A
:104CF0002D1D641EEFD1BDE83840002200214FF089
:104D0000FF30FFF7B4BD00BF5C0200207047FEE734
:104D1000FEE7FEE7FEE770477047704780B500F09A
:104D20000FF8BDE80140FEF749BE0348FDF734BE69
:104D30000248FDF724BC00000C0400200400002001
:104D400002494A68087882184A6070477401002056
:104D500010B5074979441831064C7C44163404E0F8
:104D60000A68081D114488470146A142F8D110BDC8
:104D7000080000002400000019FFFFFF30030000BE
:104D8000B402002000000000D3BFFFFF7401000048
:104D9000220100000000002000F00DF8002801D0E2
:104DA000FFF7D6FFAFF300800020AFF30080FCF7E1
:104DB0009BFD00F002F80120704700F001B80000F0
:104DC0000746FFF785FF3846FCF784FDFBE738B55B
:104DD00004460D46284600F005F8A84218BF0024F6
:104DE000204632BD0149FFF729BF00BFCC0100209A
:104DF0000148804701480047E14B0008014E000888
:104E0000AFF30080AFF30080FFF7C6FF00000000A3
:104E10000102030400002E00FFF7FEBFFFF7FEBFF4
:104E2000FFF7FEBFFFF7FEBFFFF7FEBFFFF7FEBFB6
:104E3000FFF7FEBFFFF7FEBFFFF7FEBFFFF7FEBFA6
:104E4000FFF7FEBFFFF7FEBFFFF7FEBFFFF7FEBF96
:104E5000FFF7FEBFFFF7FEBFFFF7FEBFFFF7FEBF86
:104E6000FFF7FEBFFFF7FEBFFFF7FEBFFFF7FEBF76
:104E7000FFF7FEBFFFF7FEBFFFF7FEBFFFF7FEBF66
:104E8000FFF7FEBFFFF7FEBFFFF7FEBFFFF7FEBF56
:104E9000FFF7FEBFFFF7FEBFFFF7FEBFFFF7FEBF46
:104EA000FFF7FEBFFFF7FEBFFFF7FEBFFFF7FEBF36
:104EB000FFF7FEBFFFF7FEBFFFF7FEBFFFF7FEBF26
:104EC000FFF7FEBFFFF7FEBFFFF7FEBFFFF7FEBF16
:104ED000FFF7FEBFFFF7FEBFFFF7FEBFFFF7FEBF06
:104EE000FFF7FEBFFFF7FEBFFFF7FEBFFFF7FEBFF6
:104EF000FFF7FEBFFFF7FEBFFFF7FEBFFFF7FEBFE6
:104F0000F33201000130010C0140046101F11F1076
:104F1000200500003FCDCCCC3D04F1228FF1A03C18
:104F20006574221008100AA24A0401040000C80196
:104F30000020C90452C804211BA10852B40CF10B73
:104F400001200A02040101F804002048050020089D
:104F5000210421346108F0031310020020FC4850A2
:104F600002080202A84052A80421346108125848DD
:104F7000F31144024812846C12CC04F206142CF093
:104F80000207144E00080452FF01F2001614030039
:014F90000020
:0400000508004E01A0
:00000001FF
