:020000040800F2
:10000000D0160020D5560008F1550008F355000819
:10001000F5550008F7550008F955000800000000E4
:10002000000000000000000000000000FB55000878
:10003000FD55000800000000FF55000801560008AB
:10004000FD56000801570008055700080957000829
:100050000D570008115700081557000819570008D8
:100060001D57000821570008255700082957000888
:100070002D57000831570008355700083957000838
:100080003D570008415700084557000849570008E8
:100090004D57000851570008555700085957000898
:1000A0005D57000861570008655700086957000848
:1000B0006D5700080F560008715700087557000863
:1000C000795700087D5700088157000885570008B8
:1000D000895700088D5700089157000815560008E9
:1000E00095570008995700089D570008A157000828
:1000F000A5570008A9570008AD570008B1570008D8
:10010000B5570008B9570008BD570008C157000887
:10011000C5570008C9570008CD570008D157000837
:10012000D5570008D9570008DD570008E1570008E7
:100130002DE9F04F9DB001F057F900F0CFFB00F032
:1001400093FD00F00EFC00F06BFC00F0C3FC00F02F
:1001500004FD00F054FD00F030FCDFF8A80CDFF8DF
:10016000A81C01604FF4E131416000218160C16051
:1001700001610C21416100218161C16101F046F9F9
:1001800000B1FEE7DFF8C44D002100F0A3FB00F052
:10019000A0FB04F1280001F025FBDFF8704C0821DA
:1001A000204601F04CFB0C21204601F048FBDFF813
:1001B000404E082100F08EFB0C2100F08BFB00F07C
:1001C00088FBDFF8304E002100F07FFB042100F0B7
:1001D0007CFB082100F079FB0C2100F076FB01F09C
:1001E000A9FEDFF82C4CDFF82C5C2088ADF800006D
:1001F00005F592701C90BDF8000001F013FF00F0AF
:100200005AFB002101F01CFF04D10FF2E45001F071
:1002100025FF69E0BDF8000001F004FF00F04BFB92
:10022000A866608800F04BFB00F045FBE866A088FC
:1002300000F045FB00F03FFB2867E08800F03FFB43
:1002400000F039FB45F8A40F208900F038FB00F0DE
:1002500032FB6860608900F032FB00F02CFBA86084
:10026000A08900F02CFB00F026FBE863E08900F099
:1002700026FB00F020FB2864208A00F020FB00F021
:100280001AFB6864608A00F01AFB00F014FBA86790
:10029000A08A00F014FB00F00EFBE867DFF8685C52
:1002A000E08A00F00CFB00F006FB1C990860208B34
:1002B00000F005FB00F0FFFAA862608B00F0FFFA87
:1002C00000F0F9FAE862A08B00F0F9FA00F0F3FA16
:1002D000286301F03DFE1C99A86A48631C99E86AEE
:1002E00088631C99286BC8630FF22050DFF8246BD9
:1002F000DFF85C9CDFF8008D01F0B0FEDFF8082C21
:10030000106B01F0BFFECDE91A01DFF8FC3BD86AA3
:1003100001F0B8FECDE9180106F1A404DFF8E80BFE
:10032000806A01F0AFFECDE916011C98006801F06B
:10033000A9FECDE91401E06F01F0A4FECDE91201A0
:10034000A06F01F09FFECDE91001606C01F09AFEF4
:10035000CDE90E01206C01F095FECDE90C01E06BBA
:1003600001F090FECDE90A01A06801F08BFECDE915
:100370000801606801F086FECDE90601206801F001
:1003800081FECDE90401306F01F07CFECDE9020170
:10039000F06E01F077FECDE90001B06E01F072FE63
:1003A00002460B460FF27C4001F058FE0FF2C040AF
:1003B00001F054FE40F6B83001F088FE06F58E706C
:1003C000039006F1E000029031E00122082101F0E3
:1003D00062FF00F067FA17E03846716600F24C40A1
:1003E000C9F80000716E01F24C41C9F80410D8F848
:1003F0004810DFF8140D7F29E7DD0022082101F005
:100400004AFF00F04FFA803800F0B8FFDFF8EC1B2D
:100410000860B8F91410B8F92430726E0FF2584021
:100420000191B8F930100091B16D01F017FEDFF8BD
:10043000D4091422414601F025F898F82000DFF88D
:10044000C85A012806F1A40A4FF47A7440F0F080EB
:1004500000F0E2FDAA6A1046002101F0F1FD10D083
:100460001C99496BEB6A01F0EBFD0CD11C99896B6F
:10047000184601F0E5FD06D11C99286BC96B01F007
:10048000DFFD00F0D280C9F80040C9F804401C9894
:10049000DFF87CB9DFF8D07C42631C998B631C9930
:1004A000286BC86301F046FD00203064C6F848B0F0
:1004B0000120F06469460020009006F1400001F040
:1004C0000FFFB06E00F0A8FC01F076FF82B20023AF
:1004D000594600F0E1F9F06E00F09EFC01F06CFF6F
:1004E00082B20023DFF8441C00F0D6F9306F00F030
:1004F00093FC01F061FF82B20023DFF8341C00F0AE
:10050000CBF9DAF8000000F087FC01F055FF82B269
:100510000023DFF8201C00F0BFF9DAF8040000F037
:100520007BFC01F049FF82B20023DFF8401C00F0A1
:10053000B3F9DAF8080000F06FFC01F03DFF82B279
:100540000023DFF82C1C00F0A7F9DAF83C0000F0DB
:1005500063FC01F031FF82B20023DFF8181C00F0C9
:100560009BF9DAF8400000F057FC01F025FF82B259
:100570000023DFF8041C00F08FF9DAF8440000F0E3
:100580004BFC01F019FF82B20023DFF8F01B00F0F2
:1005900083F9DAF8780000F03FFC01F00DFF82B239
:1005A0000023DFF8DC1B00F077F9DAF87C0000F0BC
:1005B00033FC01F001FF82B20023DFF8C81B00F01A
:1005C0006BF91C98006800F027FC01F0F5FE82B280
:1005D0000023DFF8B41B00F05FF9A86A00F01CFCF0
:1005E00001F0EAFE82B20023DFF8A01B00F054F90C
:1005F000E86A00F011FC01F0DFFE82B20023DFF8B0
:10060000901B00F049F9286B00F006FC01F0D4FEC5
:1006100082B20023DFF87C1B00F03EF901F098FC69
:10062000DFF8741BDFF8740B0860002188F82010D5
:10063000287EDFF884BC01280AD1284600F07CFD22
:10064000002100915B46A8685A4600F0A1FEA86010
:10065000DFF8F808007E012804BFDFF8F00800F09A
:100660006BFDDFF88C09007E012804BFDFF88009EC
:1006700000F062FDDFF87C79387E01280AD1384627
:1006800000F05AFD002100915B46B8685A4600F020
:100690007FFEB86001233246294606F1680000F06B
:1006A000BEFBDFF8A818002306F11002504600F048
:1006B000B6FB0298DFF83819012306F1200200F09A
:1006C000AEFB0398002306F13002394600F0A7FB89
:1006D00005F1280000F042FBF068DFF8E07B00281D
:1006E000CCBF012200224FF4805100F0D8F8F0690D
:1006F0000028CCBF002201224FF4005100F0CFF8B7
:10070000F06A0028CCBF002201224FF4804100F0A3
:10071000C6F8F06B0028CCBF012200224FF4004144
:1007200000F0BDF8F068DFF8987B01F05AFE386001
:10073000F06901F056FE7860DFF8C078F06A01F0E9
:1007400050FE7860F06B01F04CFEB860D8F84C00B9
:1007500040B9C9F80040C9F804400021B16570668D
:10076000A86344E62F6DDFF85CBB384601F08AFCD5
:1007700004460D463846002101F074FE0DD2204695
:1007800025F0004100225B4601F07EFE01F04EFFA5
:10079000074600F07BF822460CE0224600F076F88F
:1007A00001F072FE01F042FF074625F000410022F1
:1007B0005B46204601F068FE01F038FFD8F84C1087
:1007C000CF19B7650818002F70664FF4617148BFE4
:1007D000002703D4B7F5617FC8BF0F460028B7656F
:1007E00048BF002103D4B0F5617FD8BF0146F3E5CF
:1007F000466C617368204D656D6F7279205265613A
:1008000064204661696C65640D0A0000466C617382
:1008100068204D656D6F72792052656164204F6B61
:100820000D0A0000252E336620252E336620252E46
:10083000336620252E336620252E336620252E3361
:100840006620252E336620252E336620252E33661E
:1008500020252E336620252E336620252E33662054
:10086000252E336620252E336620252E33660A007A
:100870004D61696E0D0A0000256420256420256401
:100880002025642025640D0A0000000025F00043A7
:100890000020DFF8341A7047012001F015BB3846FC
:1008A00001F0F9BC4FF4FA7000900023D8F848002A
:1008B0007F2200217047DFF8B01801F0D5BEADF8F7
:1008C0000000BDF8000001F0ADBB04F1280000F00D
:1008D000EEBF042104F1280000F0B1BF00B50021F3
:1008E00095B001200D910B90022112914FF48030B0
:1008F0000C90012213904FF4E0110F9214910BA869
:1009000001F030FF00B1FEE70F21022000910190BD
:1009100000214FF480600291039004916846022107
:1009200002F0AEF800B1FEE7022005904FF400415E
:10093000079105A802F088F900B1FEE702F04EF930
:100940004FF47A71B0FBF1F002F035FA042002F0B6
:1009500046FA002200214FF0FF3002F005FA15B0F0
:1009600000BD1FB5DFF86449DFF8640900F04AF8FC
:1009700003202061204602F04FFA00B1FEE70E206E
:1009800001210090019102912046694602F0CCFAC3
:1009900000B1FEE70F2000F00AF802F0C5FA00B13E
:1009A000FEE707200090032100F026F81FE0022157
:1009B000009001912046694670471FB5DFF8144941
:1009C000DFF8140900F01EF802202061204602F032
:1009D00023FA00B1FEE705200090012100F00CF899
:1009E00002F0A2FA00B1FEE70620FFF7E0FF02F0F6
:1009F0009BFA00B1FEE71FBD0020019102906946FD
:100A00002046704720604FF48070A0600120E060B5
:100A1000002060614FF46020E0610020606070475A
:100A2000DFF8B80810B5DFF82445A0624720E0627F
:100A300090B0002020634FF4FF6060630020A0634B
:100A4000E063206404F1280000F0ECFE00F0D3F82D
:100A50000791089007A900F077F800B1FEE7602041
:100A600000904FF47A7100200290039001910420CD
:100A700004904FF480710020059106900022694691
:100A800000F067F800F0B0F801F062F800F0A5F8A7
:100A900001F05EF800F0AFF8049005910C22694671
:100AA00000F057F800F0A7F80A910C9109904FF464
:100AB00000510B900D900E910F9009A904F12800A0
:100AC00002F0E0FA00B1FEE704F1280002F001FCB8
:100AD00010B010BD4FF0804018B5DFF81445A0628B
:100AE00040F21F10E06289B00020206340F2FD1048
:100AF00000F067F800F096FE00F07DF8009101909C
:100B0000694600F021F800B1FEE760200021029064
:100B100003910020042104900691002200F018F8AF
:100B200000B1FEE7042200F013F800B1FEE708224E
:100B300000F00EF800B1FEE70C2200F009F800B159
:100B4000FEE704F128008BE004F1280002F0C7BAA8
:100B500002A904F1280000F0FBBFDFF8840710B5FC
:100B6000DFF89044A0620820E06286B00020206395
:100B700041F61F4000F025F800F084FE00F03BF83D
:100B80000491059004A9FFF7DFFF00B1FEE7012102
:100B900001910090002102900391002200F018F8CA
:100BA00000F022F800F052FF00F017F800F04EFFBE
:100BB00000B1FEE70C2200F00BF800B1FEE706B032
:100BC00010BD60630020A063206404F1280070471A
:100BD000694604F1280000F039BF00B1FEE70822A1
:100BE000694604F12800704700B1FEE70422694617
:100BF00004F12800704700B1FEE700217047DFF8DC
:100C0000E40618B5814C206040F21F10606089B086
:100C10000020A06040F2FD10E06000202061A06193
:100C2000204600F0FFFDFFF7E6FFFFF7C1FE02F0F0
:100C300056FAFFF7E0FF039104916020042102902F
:100C40000691082202A9204600F082FF00B1FEE7CB
:100C50000C2202A9204600F07BFF00B1FEE72046EF
:100C600002F037FB0AB010BDF0B5DFF87C06DFF804
:100C70009864DFF84846DFF8745685B0016841F0A3
:100C80002001016041F20C07026802F02002049288
:100C90000499016841F010010160026802F010023D
:100CA00004920499016841F004010160026802F0B5
:100CB0000402049200220499016841F008010160D5
:100CC0003946006800F0080004900498304601F0AE
:100CD000E2FA00224FF47041204601F0DCFA0820CD
:100CE00000F037F8284600F031F80120019000218B
:100CF00003200291039000976946304601F0FAF90B
:100D00004FF47040012100900191002003210290D6
:100D1000039100F01AF8042000F01BF86946DFF890
:100D2000D00501F0E7F9382000F013F800F00DF8D5
:100D30004FF4406000900221012001910290694629
:100D4000284601F0D7F905B0F0BD2046694601F00C
:100D5000D1B900210090019102917047F8B5A64DDC
:100D6000DFF890750446B5F9140002F045FBA96957
:100D700002F054FBA061E16902F050FB206267625F
:100D8000A5692068294602F089FB0646E6602846E8
:100D900000F042F8616802F081FB216902F0EAFB91
:100DA000DFF85415206102F057FC38BF084606D31F
:100DB000DFF8481501F056FB98BFDFF844052061C5
:100DC0003946206A01F050FCA16802F067FB074633
:100DD00020696761314602F0CDFB394602F0CAFB5B
:100DE000DFF82015A06202F037FC38BF084606D3B2
:100DF000DFF8141501F036FB98BFDFF81005A0628C
:100E0000E561F1BDF405002000480040B405002074
:100E10000070000800000020394602F03FBB2DE9B9
:100E2000F04106467448002B0C4615460CBFB0F93D
:100E30002400B0F9300002F0DFFAA16802F0EEFA07
:100E4000DFF8CC1402F008FC044638BFDFF8680471
:100E500006D3DFF8C01401F005FB05D8DFF8B804AD
:100E6000214602F087FB0446F169B461204602F096
:100E7000D5FA3062DFF87C747762B4693068214655
:100E800002F00CFB8046C6F80C802046FFF7C4FF3A
:100E9000716802F003FB316902F06CFBDFF87C142F
:100EA000306102F0D9FB38BF084606D3DFF8701472
:100EB00001F0D8FA98BFDFF86C0430613946306A27
:100EC00001F0D2FBB16802F0E9FA074677614146CA
:100ED000306902F04FFB394602F04CFBDFF8481452
:100EE000B06202F0B9FB38BF084606D3DFF83C1405
:100EF00001F0B8FA98BFDFF83804B06201F05CFA8C
:100F0000E860F461BDE8F081B4010020DFF824243A
:100F100053185B7800F82C3F53189B784370531894
:100F2000DB78837053181B79838053185B79C380F7
:100F300053189B7903815318DB794381531811446B
:100F40001B7A8381497AC18170470000DC0300204D
:100F5000342C01402DE9F843064606F12C07DFF852
:100F6000D8433878DFF8D45301F05CF8306001F0F2
:100F700089F880468946B978787800F045F801F01C
:100F800081F800F045F800F03BF802F077FB3060A4
:100F9000B7F9040002F030FA01F074F8804689468F
:100FA000B7F90810B7F9060000F02EF801F06AF85A
:100FB00000F02EF800F024F802F060FB7060B7F942
:100FC0000A0002F019FA01F05DF880468946B7F987
:100FD0000E10B7F90C0000F017F801F053F800F00C
:100FE00017F800F00DF802F049FBB060BDE8F1839E
:100FF00044040020AC0400206401002038000040BC
:1010000042464B4602F06EBB40EA012002F0F4B9C2
:1010100022462B4601F038BA2DE9FC47C84C4FF068
:10102000FF3104F12800FFF771FF04F12800FFF7FA
:1010300091FFC04EF47A757BB48235770023B77B7D
:10104000C0497777FF22707C96F80F9096F8108051
:10105000B06486F81E9086F81F80B07C087040F25D
:101060006B3100910021307B00F088F9F064E819C1
:1010700002F0C2F905462D2000906FF02C07707A1F
:10108000B5613B465A22002100F078F9B0843B4616
:101090002D2000905A22B07A002100F06FF982468C
:1010A0002D2000903B465A220021204600F066F990
:1010B000B082B6F92400010044BF00F5B470B084DA
:1010C0000FFA8AF0002848BF0AF5B47AA6F830A0D3
:1010D000284600F0D7FF04460D4649EA082002F0F2
:1010E0008BF900F0CFFF944A944B01F0CDF9002228
:1010F000954B02F0F7FA22462B4602F0F3FA02F083
:10110000BDFAB061BDE8F3870008014010B5894C15
:10111000E27C1321204600F043F810B9012084F846
:1011200020004021BDE8104088484BE002700008D4
:10113000047000080670000810B50446606800F0EE
:10114000A1FF834A834B01F09FF902F097FAA06058
:101150005949A06801F086F992BFA160A068606259
:101160000020207610BD000000007A4408700008BE
:101170000A7000080C7000080E700008107000085B
:10118000127000081470000816700008187000082B
:101190001A7000081C7000080CED00E00400FA054D
:1011A00030B50023002402E0055DEB18641C8C427E
:1011B000FADB180403EB10639BB29A18D243D0B247
:1011C00030BD70470122090A02FA01F10068C943E3
:1011D00089B20160704738B50168414CA1426AD1BB
:1011E000017F4248012917D1554D696E491C696636
:1011F000616B2980402101F048F818B100F0B8F87F
:10120000012145E00022012100F0B6F800F0AAF823
:1012100028BF01F5E15148E0022914D14E4DA16BE0
:101220002980802101F031F818B100F0A1F80221E5
:101230002EE00022022100F09FF800F093F828BF72
:1012400001F5E15131E0042915D1444DE16B2980CC
:101250004FF4807101F019F818B100F089F80321FA
:1012600016E00022032100F087F800F07BF828BF89
:1012700001F5E15119E008291DD1394D216C298072
:101280004FF4007101F001F830B100F071F8042161
:101290002046BDE8384099E00022042100F06CF8B7
:1012A00000F060F828BF01F5E151081A02F0A4F837
:1012B00068600120287631BD0000B443000C014075
:1012C0003C0800400000E0BF0000E03F3406002082
:1012D000002401406406002000280140002C014049
:1012E00000040040000800401810024000100140B7
:1012F000001401406F12833A000020C10100204118
:1013000000002041000048C201004842000048425D
:10131000000034C3000034430000B4C30000F0C137
:101320000100F0410000F0410000FFC30100FF4355
:101330000000FF4364010020FCA9F1D24D62503F40
:10134000B4010020C806002000E06FC0F4050020B2
:101350009A9999999999A93FDC03002044040020A7
:10136000AC040020688829888842298868887047EA
:101370002888688002227047204627E010B5029C2A
:10138000401AE41A6043511A90FBF1F0181810BD8E
:101390002DE9F041069F0C4615461E4602F03EF828
:1013A00080463846314602F039F8414602F076F878
:1013B00007462846214602F031F80146384601F03A
:1013C00053F93146BDE8F04102F0D4B8491E02237A
:1013D0008900002A03FA01F1026A89B20CBF22EAED
:1013E000010111430162704780B50748016841F06F
:1013F00010010160032001F0AAFC002002F02EFA87
:1014000001F092FE002002BD0020024038B5040029
:1014100001D1012032BD00F022F808B900F023F814
:1014200000F013F800F024F8FFE7416100F001F844
:1014300032BD2068C16841F40051C160002068607D
:1014400020206870A87000207047242068702068F1
:10145000C16821F40051C160204600F04EB904F18A
:1014600038056878704700212970204601F071BF67
:101470002068016921F4904101612068416921F0EF
:101480002A01704730B500F138039C78202C21D117
:1014900009B1140001D1012030BD1C78012C19D0F4
:1014A00001251D7081628285C2850021596022213B
:1014B0009970002119700168CA6842F48072CA608C
:1014C00001684A6942F001024A610068C16841F05E
:1014D000200101E0022030BDC160002030BD416923
:1014E00021F040014161606B704738B504462568C2
:1014F0002968EA686B6911F00F0007D188065DD58D
:1015000090065BD52046BDE83240ABE0D80702D458
:1015100012F4907F52D0C80705D5D00503D5E06BF3
:1015200040F00100E063480705D5D80703D5E06B1C
:1015300040F00200E063880705D5D80703D5E06BCB
:1015400040F00400E063080705D5D80703D5E06B39
:1015500040F00800E063E06B00286ED0890604D5F7
:10156000900644BF204600F07DF820684069E16B9A
:101570000A0701D440061BD5204600F05FF820681A
:1015800041694A060FD5FFF7AAFF60B10FF2C90102
:101590004163606B02F082F900284ED0606B416BB2
:1015A000BDE8344008472046BDE83240FFF709BE99
:1015B0002046FFF706FE0020E06331BD08062CD56B
:1015C00010062AD594F83900212836D1A168206A5E
:1015D000B1F5805F0DD10188C1F308016960206910
:1015E00018B9216A881C206207E0206A411C216228
:1015F00003E0411C216200786860E08C401EE084BA
:1016000080B2D0B92068C16821F08001C160206833
:10161000C16841F04001C16031BD48060DD550069A
:101620000BD5E86820F04000E860202184F83910EC
:101630002046BDE8324002F0B9B931BD0168CA6840
:1016400022F49072CA6001684A69520852004A61E5
:10165000202180F83A107047406A0021C185C1847A
:10166000FFF7AFBD80B590F83A10222943D18268C8
:10167000B2F5805F14D1826A016941B90368596883
:10168000C1F308011180826A911C816218E001682F
:101690004B6803F0FF031380816A4A1C82620FE0EB
:1016A00001690029816A04D14A1C82620268536878
:1016B00005E04A1C82620268536803F07F030B70E6
:1016C000C18D491EC18589B299B90168CA6822F0E5
:1016D0002002CA600168CA6822F48072CA60016888
:1016E0004A69520852004A61202180F83A10FFF7F7
:1016F0000DFD002002BD022002BD2DE9F047044689
:10170000642521680A69E06822F4405202430A61B4
:101710001926CA6831480240A06802432069024382
:1017200060690243CA604A69A06922F440720243B8
:101730002B484A6181420ED101F05BFA074601F065
:1017400058FA804601F055FA814601F052FA824675
:1017500001F04FFA0DE001F044FA074601F041FABA
:10176000804601F03EFA814601F03BFA824601F0E4
:1017700038FA06FB09F9616889007743B7FBF1F293
:1017800006FB08F7B7FBF1F3B9FBF1F7B7FBF5F789
:1017900005FB17331B013233B3FBF5F3B2FBF5F254
:1017A00003F0F00303EB021306FB0AF74643B7FB13
:1017B000F1F2B6FBF1F06421B0FBF1F005FB10256E
:1017C0002D0132356420B5FBF0F0216800F00F00E8
:1017D000C3188B60BDE8F08700000000F3E9FFFF4D
:1017E000003801400068C16841F00101C160026831
:1017F00042F0010202600020704702206870211D43
:10180000206800F01CFA01206870002032BD03D16E
:10181000416C41F400414164026842F001020260FF
:10182000002016BD38B5040001D1012032BD00F002
:101830003AF818B900F033F801F0F7FCDDE71CB511
:1018400000F007F800F019F81CBFDFF89C10884280
:10185000DDE704460122206800F02ABB2068C26848
:1018600042F0080270472068C26842F004027047E4
:101870002068C26842F0020270472068DFF86C10EE
:101880008842704738B5040001D1012032BD00F014
:101890000AF818B900F003F801F0EFFCADE70021F9
:1018A00029702046704704F13C056878704710B5F0
:1018B000044608000BD004290CD008290DD00C29AF
:1018C00001BF2068C36843F01003C36008E0FFF75E
:1018D000CFFF04E0FFF7C7FF01E0FFF7BFFFC260E3
:1018E0002068012205E0000000340140002C014086
:1018F000206800F0DDFA2068016841F00101016014
:10190000002010BD10B50446206801698A0715D56E
:10191000C1688A0712D56FF00202026101212177A6
:10192000806910F0030F204602D0FFF754FC03E05B
:1019300002F03DF800F087F8002020772068016968
:101940004A0715D5C1684A0712D56FF00402026133
:1019500002212177806910F4407F204602D0FFF7F2
:101960003AFC03E002F023F800F06DF80020207745
:10197000206801690A0715D5C1680A0712D56FF0FA
:101980000802026104212177C06910F0030F20468C
:1019900002D0FFF720FC03E002F009F800F053F852
:1019A0000020207720680169CA0615D5C168CA06DB
:1019B00012D56FF01002026108212177C06910F47E
:1019C000407F204602D0FFF706FC03E001F0EFFF66
:1019D00000F039F80020207720680169CA0708D58F
:1019E000C168CA0705D56FF001020261204601F007
:1019F000DFFF206801690A0608D5C1680A0605D517
:101A00006FF080020261204601F0D3FF2068016977
:101A10004A0608D5C1684A0605D56FF04002026142
:101A2000204601F0C7FF206801698A060AD5C1680F
:101A30008A0607D56FF0200202612046BDE81040FB
:101A400001F0B9BF10BD204601F0B6BFF8B500F0F7
:101A5000E7F801D10220F2BD00F0E9F882B9EB68A5
:101A60006A682968306800F0D2F93068816921F02D
:101A70000C01816131688A69A86802438A6164E067
:101A8000042A10D1EB686A682968306800F0F6F91A
:101A90003068816921F4406100F0BEF8AA6841EA2B
:101AA0000221816151E0082AE9686A682B6827D120
:101AB0003768386A20F480703862090107F11C0029
:101AC00001F0F001D0F800C0D7F820E04FEA9C0CFC
:101AD00042EA8C0222F0F002114301601B022EF454
:101AE000206003F4206303433B623068C16921F046
:101AF0000C01C1613168CA69A8680243CA6124E067
:101B000030681C300903476827F48057476001F4A8
:101B100070410768D0F804C027F4407747EA0227ED
:101B200027F47047394301601B032CF4005103F480
:101B300000530B4343603068C16921F4406100F0F9
:101B400067F8AA6841EA0221C1610120607073E070
:101B500070B500F065F801D1022070BD00F067F8A3
:101B600032B1042A17D0082A28D00C2A39D04AE0EA
:101B70003068294600F09DF83068816941F008011D
:101B800000F04AF821F00401816131688A6928690E
:101B900002438A6137E03068294600F0B3F83068C4
:101BA000816941F4006100F037F821F4806100F0B0
:101BB00033F82A6941EA0221816124E0306829462C
:101BC00000F0D0F83068C16941F0080100F020F859
:101BD00021F00401C1613168CA6928690243CA6100
:101BE00011E03068294600F0EFF83068C16941F42F
:101BF000006100F00DF821F4806100F009F82A6915
:101C000041EA0221C161012060700020207070BD96
:101C1000C1613068C169704781613068816970470E
:101C2000064606F13C040D46207801287047012144
:101C3000217002206070704700202070F2BDF0B566
:101C4000DFF824C2894F0368894C8A4D8A4E60456B
:101C500018BFB84208D0B0F1804F18BFB04203D0CF
:101C6000A84218BFA0420DD14A6823F07003134365
:101C7000604518BFB84207D0B0F1804F1CBFB042DA
:101C8000A84201D0A04203D1CA6823F44073134391
:101C90004A6923F080031343036060458A68C26287
:101CA0000A68826212BFB842096901630121416179
:101CB000F0BDF0B5026A6C4F6C4E520852000262E1
:101CC000056A4368846900F079F825F00205154338
:101CD000B84218BFB04207D1CA6825F008051543BD
:101CE000B84225F0040501D0B04205D14A6923F479
:101CF000407313438A6913434360846149684163B5
:101D00000562F0BDF0B5026A574E22F01002026281
:101D1000B042056A436884690A6824F4E64444EAE8
:101D200002248A6825F0200545EA02154F4A18BFAB
:101D3000904208D1CF6825F0800545EA0715B042EA
:101D400025F0400501D0904206D14E698A6923F4FE
:101D50004063164343EA86034360846149688163B4
:101D60000562F0BDF0B5026A3F4E22F48072026255
:101D7000056A4368C46900F021F825F4007545EA56
:101D800002253A4AB04218BF904208D1CF6825F4E4
:101D9000006545EA0725B04225F4806501D09042F0
:101DA00006D14E698A6923F44053164343EA061369
:101DB0004360C4614968C1630562F0BD0A6824F0EC
:101DC000730414438A68704770B5026A264E22F481
:101DD00080520262B042046A4268C3690D6823F40B
:101DE000E64343EA05238D6824F400541CBF1F4ECC
:101DF000B04244EA053404D14D6922F4804242EAFB
:101E000085124260C36149680164046270BD70B5A7
:101E1000046A154E640864000462B0428469056A6D
:101E20001CBF124EB0420BD0B0F1804F1CBF124EFF
:101E3000B04205D00F4EB0421CBF0D4EB04203D190
:101E4000A40842EA840201E044F001021B0122F0EE
:101E5000F00203F0F0031A4325F00A0501F00A012D
:101E600082612943016270BD002C014000340140B1
:101E7000000C0040000800400004004030B5046A37
:101E800024F0100404621B038469056A24F440747E
:101E900044EA022424F4704403F470430901234308
:101EA00025F0A00501F0A00183612943016230BD46
:101EB00010B5036A01248C40A343036202FA01F1C6
:101EC000036A1943016210BD2DE9F84F4F4E0446D5
:101ED000307E01288B469046994608BF022027D0C5
:101EE000012131764CF2503A504600F043F801009F
:101EF0001CD1012C1CBF022C04240025444FA542F8
:101F000014DA404649462A0101F058FD81B20BEB34
:101F1000450000F024F8504600F02CF839684908D4
:101F200049003960010008BF6D1CE8D000213176FE
:101F3000BDE8F28F3849CA680020130607D5374B31
:101F4000374A0B600A60C9680A0648BF012070471B
:101F50002F48016841F0800101600020704710B5F2
:101F60002A4B0022DA612A4A146844F00104146002
:101F7000018010BD70B5044601F030FD0646254DC8
:101F80002868C1070CD514F1010FF9D024B101F074
:101F900025FD801B8442F3D2032070BD002070BD5C
:101FA0002868810644BF202129602868C10605D41D
:101FB0002869C10702D429684807EFD500F002F864
:101FC000012070BD10B5134A104913680020DC06CB
:101FD00004D5C86940F00200C861102013685C078E
:101FE00005D5CB6943F00103CB6140F004001369D0
:101FF000DC0707D5CB6943F00403CB6111694908BD
:1020000049001161106010BD00000000980600201A
:10201000102002400C2002400420024023016745AA
:10202000AB89EFCD00280AD0B0FA80F18840D1F119
:102030009D01C905020672F1004241EB1020704774
:1020400040EA010C1CEB0C0F07D0884205D14FEA87
:10205000400C1CF1807F98BF804270470EB4C0B521
:10206000024603A800210190009101AB0121044820
:1020700078440C3001F0B8FC06BC5DF810FB00BFE2
:1020800033360000C0F3C75181B1FF2906D0C1101B
:10209000400721F0E04101F16051704741020CBF5F
:1020A00040F4E0016FF000410020704700F0004173
:1020B00000020AD0B0FA80FC00FA0CF001F1605185
:1020C000A1EB0C5101EBD0214005704738B5044617
:1020D00001F084FC14F1010F054602D00449087890
:1020E000041901F07BFC401BA042FAD331BD00BFB4
:1020F0001C0200202DE9F84F83460F460020804641
:102100006849694A694B4FF00F094FF0010A3C6872
:102110000AFA08F606EA040EB64540F0AE807C687E
:102120003CB3012C1AD0022C1DD0032C2ED0112C24
:1021300016D0122C1AD05E4DAC421CBF5D4DAC4285
:1021400017D05D4DAC421CBF5C4DAC4211D05C4D14
:10215000AC421CBF5B4DAC420BD018E0F86816E0F7
:10216000F868001D13E0F868083010E0F8680C30DB
:102170000DE0B86808B9042009E0012819BF08205B
:10218000CBF814600820CBF8106000E00020BEF50A
:10219000807F03D2DC464FEA880404E0A8F10804FB
:1021A0000BF1040CA400DCF8005009FA04F6B54366
:1021B00000FA04F42C43CCF800407C68E4005CD5C1
:1021C0001C6844F001041C604FEA980C1D6805F07F
:1021D00001050095009C52F82C604FEA880404F039
:1021E0000C0409FA04F526EA0505374EB34508BF85
:1021F000002618D0354EB34508BF012613D0344E03
:10220000B34508BF02260ED0324EB34508BF0326A1
:1022100009D0314EB34508BF042604D02F4EB34534
:102220000CBF0526062606FA04F42C4342F82C407F
:102230006FEA0E067C68E50304D50D684EEA0505D5
:102240000D6002E00C6834400C607C68A5034C68AB
:102250004CBF4EEA040434404C607C68E5028C6854
:102260004CBF4EEA040434408C607C68A502CC6804
:102270004CBF4EEA04043440CC6008F10108B8F1C8
:102280000F0F7FF644AFBDE8F18F8068084018BF9C
:102290000120C0B2704781B002B90904016101B0E8
:1022A000704700000004014008000140181002407F
:1022B0000000111000001210000021100000221078
:1022C000000031100000321000080140000C0140F5
:1022D000001001400014014000180140001C0140A2
:1022E0002DE9F047DFF8C8600746307E0125012858
:1022F000884608BF022039D035764CF2503938680C
:10230000DFF8B040022848460DD1FFF733FE50BB3E
:10231000012000F02DF800F039F80546206820F083
:10232000040020601FE0FFF725FEE0B94FF0FF300A
:10233000C8F80000D7F808A001E00AF5006AF868BC
:10234000B96801EBC0218A450DD2504600F021F852
:1023500000F01CF80546206820F0020020602800EC
:10236000EBD0C8F800A0002131762846BDE8F08700
:102370000F490020C8610F48026842F00402026061
:10238000016841F04001016070473E804846FFF718
:10239000F1BD074A0021D16106490B6843F00203F1
:1023A0000B604860086840F040000860704700001B
:1023B0009806002010200240C0F3C7517E390EDD80
:1023C000C217D1F1200106DD000240F00040C840F4
:1023D000104450407047D04380F0004070470020C8
:1023E0007047002848BF40427047F0B4024610686A
:1023F00095681318506803EB5004C00721D54D446D
:102400001FE0F0BC02F10C00704713F8017B05F8E7
:10241000017B491EF9D1A0B1B60813F8011B06F0E3
:102420000306032E08BF13F8016B01EB0621494296
:10243000801C294405D011F8016B05F8016B401E82
:10244000F9D1A342DDD013F8016B16F0030104BFEC
:1024500013F8011BC91C30090F28DAD113F8010B3E
:102460000F30D6E74FF0807C1CEB400F94BF1CEB85
:10247000410F05E040EA010C1CEB0C0F01D2814238
:10248000704718BF88427047B0B581EA030C0CF062
:10249000004C40F2FF7515EA11541DBF15EA1357A1
:1024A000AC42AF4239E0E41923EA455343F48013C8
:1024B000C90241F0004141EA505EC7021100A7FB8A
:1024C000020200284FF00000EEFB01204FF0000157
:1024D000E3FB072118BF42F00102401800214941E7
:1024E000E3FB0E01A4F580640F0302D252004041C9
:1024F000494154F101046CDD470872F1004250F18A
:10250000000051EB0451A1F580115CBF41EA0C01C0
:10251000B0BD4CEA05510020B0BD05EA1357AC42EE
:1025200014BFAF4241E050EA410E1CBF52EA430ED5
:1025300002E061460020B0BD24423C441BD15FEA6A
:10254000070EF6D0090302BF01460020AEF1140EBB
:10255000B1FA81F7AEEB070401FA07FE0C37C7F1B9
:10256000200100FA07F7C8404EEA000E23EA45535F
:1025700043F48013A2E733F00043B3FA83F704BFB8
:10258000B2FA82FE77440B3FE41BB7F1200E2FBF57
:1025900002FA0EF3BB40C7F1200E22FA0EFE38BF3E
:1025A00043EA0E03BA40641C82E750EA410E14BFAE
:1025B00052EA430E6FF000014FF4001717EB430F80
:1025C0008ABF194617EB410FB5E74CEA05510020C9
:1025D000B0BDD4F10104B4F120070FDAC4F1200733
:1025E000520828BF42F0010210FA07F501FA07F776
:1025F000E1BF2A43E0403843E1400FE0352C98DC4E
:10260000C7F1200452EA400220FA07F218BF42F054
:10261000010231FA07F0A1400A43002172F10042A1
:1026200050F1000051EB0C01B0BD0000C1F30A53A2
:1026300040F2FE329B1A14DDD3F120034FEAE1721F
:1026400008DDC90241EA505141F00040D8408018ED
:102650005040704703F2E13010B1D24382F00040A5
:10266000704700207047000010B5FF2313EAD054D4
:102670001DBF13EAD1529C429A4239E0A41ADA07EC
:1026800080EA0103134042EA012142EA0020421A93
:102690003CBF641E01EB4202090AB2FBF1FE01FBE2
:1026A0001E221202B2FBF1F001FB10226EF30F208A
:1026B0001202B2FBF1FE4EEA00207F3406DDFE2C52
:1026C00024DA53EA500050EBC45010BDD4F1020498
:1026D00001FB1E2240F08071192C1DDC21FA04F050
:1026E000C4F12004A140114371F10042584110BDD2
:1026F0009C421ABF03EAD1529A420FE080EA010ECF
:102700000EF00043400004D0490016D143F0FF40D2
:1027100010BD490008BFD343180010BD9C4205D12D
:10272000D21AF7D001F00041484010BD4A0212BF52
:102730000846484000F0004010BD4AB90902B1FA0D
:1027400081F2914044B1A418C00140F000409EE7DE
:10275000C90141F0004152420002B0FA80F4A040A9
:10276000141B94E72DE9F8430646DFF89C543078B3
:10277000C1074AD5686800F00C00042807D06868D3
:1027800000F00C0008280BD16868C10308D529683F
:1027900088033AD57068002840F0C080012069E1C4
:1027A0007068B0F5803F0FD038B9296821F48031C6
:1027B0002960286820F4802009E0B0F5A02F29685E
:1027C00007D141F480212960286840F480302860D6
:1027D00006E021F4803129602A6822F480222A60F0
:1027E000706868B101F0FAF804462968880300F1BE
:1027F000958001F0F3F8001B6528F6D3032039E13A
:1028000001F0ECF804462868810340F1878001F06C
:10281000E5F8001B6528F6D3F0E701F0DFF8001BB0
:10282000022840F2AA80E9E7306970B101213960DD
:1028300001F0D4F804462868810700F1DC8001F03B
:10284000CDF8001B0228F6D9D8E7386001F0C6F8A9
:1028500004462868810765D501F0C0F8001B0228EE
:10286000F7D9CBE7086001F0B9F80446686A810738
:1028700077D501F0B3F8001B0228F7D9BEE708B9F5
:10288000286A09E00528286A06D140F00400286279
:10289000286A40F0010005E0400840002862286AEC
:1028A00020F00400286241F28938F06868B101F034
:1028B00095F88146286A810700F1AA8001F08EF818
:1028C000A0EB09004045F5D398E701F087F8814671
:1028D000286A810740F19C8001F080F8A0EB090094
:1028E0004045F5D38AE701F079F8001B022840F251
:1028F000A28083E701F072F8001B022840F2B58045
:102900007CE700F0B9F804462868810140F1B18005
:1029100001F064F8001B0228F6D96FE73078DFF881
:10292000F47281071BD5686810F00C0F09D0686835
:1029300000F00C0008287FF477AF6868C1033FF50A
:1029400073AF2968880703D5306901287FF426AF63
:102950002968706921F0F80141EAC00129603178E5
:1029600008071DD5B069DFF8B01200283FF47AAF30
:1029700001220A6001F032F80446686A81077FF597
:102980004CAFDFF888120868C0084FF47A72B0FBC9
:10299000F2F2009200BF0098411E00280091F9D188
:1029A0003078410739D5E8690024C10009D4E869C5
:1029B00040F08050E8610124E86900F08050009008
:1029C0000098DFF85882D8F80010C8051BD4D8F852
:1029D000000040F48070C8F8000000F0FFFF81465E
:1029E000D8F80010C8050ED400F0F8FFA0EB0900DD
:1029F0006528F5D302E72868716920F0F80040EAFD
:102A0000C1002860ABE7F06801287FF438AF3FE7EA
:102A10001CB1E86920F08050E861F06948B369684A
:102A200001F00C0108293FF4B9AE02287FF469AF28
:102A300000F022F80446286881013FF554AF306A5F
:102A4000B0F5803F05D16968B06821F400310143D9
:102A500069606968306A21F474110143706A014346
:102A60006960012000F009F80446286881017FF5BB
:102A700041AF0020BDE8F2830020386600F0AEBF11
:102A80002DE9F843664F05463868894600F007008F
:102A9000484502D200F07AF86CD129785A4C880760
:102AA00005D56168A86821F0F001014361602878CC
:102AB000C10757D56868012802D121688A0303E05D
:102AC000022803D121688A0103D453E022689107C8
:102AD00050D56168890840EA8100606041F2893818
:102AE00000F07CFF0646686801280BD1606800F0A2
:102AF0000C00042836D000F071FF801B4045F5D350
:102B000003202DE0022837D1606800F00C0008286F
:102B100028D000F063FF801B4045F5D3F0E728780C
:102B2000410705D56168E86821F4E061014361600F
:102B30002878010706D56068296920F4605040EACA
:102B4000C100606000F02CF862683649C2F30312DD
:102B5000895C2E4AC8401060002000F07FFE0020F3
:102B6000BDE8F283386800F007008145D7D200F055
:102B70000DF8D4D00120F3E7606810F00C0FF1D00D
:102B800000F02CFF801B4045F6D3B9E73968C9082F
:102B900049EAC1013960386800F0070048457047CC
:102BA00021491B480A6802F00C03082B00D070472B
:102BB00010B500BF1FA4C2F38343D203E35C09D561
:102BC000096800BF1FA2C1F340415843515CB0FBEC
:102BD000F1F010BD18461549484310BD0B48006878
:102BE00070470A48104A006813681149C3F302226B
:102BF00006E006480C4A006813680D49C3F3C22278
:102C0000895CC84070470000001002402802002084
:102C100000127A00000042428004424200700040EC
:102C200000200240105500080410024000093D0039
:102C3000F056000802030405060708090A0B0C0DEC
:102C40000E0F1010010200002DE9FC410646354D23
:102C50003078C10750D5A8690024C10009D4A869FB
:102C600040F08050A8610124A86900F080500090D5
:102C700000982D4F3968C80517D4386840F4807023
:102C8000386000F0ABFE80463968C8050DD400F00E
:102C9000A5FEA0EB08006528F6D303203FE000F076
:102CA0009DFEC01B404519D3F7E7E86910F440705A
:102CB0001EBF716801F44071884212D01B49E86957
:102CC00001220A6020F4407000220A60E861C00717
:102CD00007D500F083FE074641F28938E86981078D
:102CE000DDD5E969706821F440710143E9611CB1E7
:102CF000A86920F08050A8613178880705D52A6836
:102D0000B06822F4404202432A603078C10605D5FB
:102D10002968706921F48001014329600020BDE821
:102D2000F68100000410024000700040400442425E
:102D30000901020081B006D52F4A00F00F001044AF
:102D400000F8041C01E02D4B195401B070472C4AC7
:102D500013684FF6FF0100020B4000F4E0601843D7
:102D6000284908431060704738B5254B1C68C4F3E8
:102D70000223C3F10704052C28BF04241D1D072DC1
:102D800034BF0023DB1E012505FA04F4641E214034
:102D9000994005FA03F35B1E1A401143BDE8344025
:102DA000C6E7012200F01F01174BFFE78A404009E8
:102DB00043F82020704710B5401EB0F1807F01D34A
:102DC000012010BD114C60600F214FF0FF30FFF764
:102DD000AFFF0022A26007202060002010BD042861
:102DE0000A4904D1086840F00400086070470A6886
:102DF00022F004020A60704718ED00E000E400E0F1
:102E00000CED00E00000FA0500E100E010E000E059
:102E100000F000B870470000F8B50446002700260F
:102E2000002C7AD004F12405686820B9AE602870BF
:102E3000204600F0C3F9204600F002F96968CA068E
:102E40006CD401006AD1696821F4885141F0020113
:102E500069602368DFF8CC11E269D4F804C08B42C2
:102E600004BFB2F5402F4FF40022E16842EA0C02A1
:102E7000D4F808C0BCF5807F14BFBCF1010F4FF43B
:102E80008077D4F814C0BCF1010F42EA41020FD19F
:102E900031B9A169491E490341F400610F4307E0BC
:102EA000696841F020016960A96841F00101A960E9
:102EB000596821F469410F435F602368DFF86811A6
:102EC0009F680F4017439F60A168B1F5807F18BFCE
:102ED000012902D12669761E36052168CB6A23F4C2
:102EE00070031E43CE622468DFF84011A3680B40D4
:102EF000934208D10021A960696821F0020141F0E4
:102F000001016960F2BD686820F0020040F0100025
:102F10006860A86840F00100A86003E0686840F0BD
:102F2000100068600120F2BDF8B50A46002100F1EA
:102F3000240300911C78012C01D10220F2BD01254F
:102F40001D701F27546815680668072C08D2641E78
:102F500004EB8404D6F834C000F05EF8756312E028
:102F60000D2C08D2E41F04EB8404D6F830C000F026
:102F700053F8356307E00D3C04EB8404D6F82CC00D
:102F800000F04AF8F56207271668946805680A2E6B
:102F900008D30A3E06EB4606D5F80CC000F036F81A
:102FA000EC6006E006EB4606D5F810C000F02EF8FF
:102FB0002C611468102C18BF112C23D100681D4CF3
:102FC000A0421AD11C48046825021BD4056845F4A8
:102FD000000505601068102814D1154C17482568A5
:102FE000B5FBF0F00A2250430090009800281EBF65
:102FF000009A521E0092F8D104E00121586840F076
:1030000020005860002018700846F2BDB7402CEA36
:103010000707B4403C437047A7402CEA0707A54088
:103020003D437047003C0140FDF7E1FFFE0E1FFFEE
:1030300028020020002401400824014040420F00E3
:1030400038B5044620688168CA0719D581684908DF
:103050004900816000F0C2FC054620688168C8070D
:103060000ED500F0BBFC401B0328F6D3A06A40F04D
:103070001000A062E06A40F00100E062012032BD71
:10308000002032BD30B590F83C20012A01D1022049
:1030900030BD012380F83C30CD688B684A688C696C
:1030A00025F440751D4325F4806515430B680A69B6
:1030B000496925F400651D4325F48055154325F421
:1030C00000550D4325F480452543026825F400454D
:1030D0002C435464002180F83C10002030BD30B5F2
:1030E00000F13C031A78012A01D1022030BD0124ED
:1030F0001C7002225A700268546824F070045460F4
:10310000046865680A68154365600268946824F07D
:1031100080049460026894684868044394600120C5
:1031200058700020187030BD80B5DFF89C0201682F
:1031300041F001010160026802F001020092009971
:10314000416841F080514160406800F0805000903B
:1031500000980320FFF7FBFD002200216FF00B0019
:10316000FFF702FE002200216FF00A00FFF7FCFDCE
:10317000002200216FF00900FFF7F6FD0022002178
:103180006FF00400FFF7F0FD002200216FF0030054
:10319000FFF7EAFD002200216FF00100FFF7E4FDD8
:1031A000002200214FF0FF30FFF7DEFD00F0C6F8EF
:1031B00021F0E06141F00071016001BD00B585B012
:1031C00000F02DF816D1116841F40071116003234D
:1031D000126802F400720492802204990092019312
:1031E0006946FEF787FF3020032100900191694670
:1031F000764810E0764B99420FD1116841F4806116
:1032000011600323126802F4806204926022049920
:10321000009201936946FEF76DFF05B000BD01689D
:103220006C4B6D48684A9942704781B000686B4AA0
:103230006549904208D1086840F400600860096858
:1032400001F40061009115E0B0F1804F07D14868AA
:1032500040F001004860486800F0010009E0604A61
:10326000904208D1486840F004004860486800F087
:1032700004000090009801B07047006859498842E6
:1032800000D0704700B5584885B0016841F0020190
:1032900001604FF47071006800F00200009000229D
:1032A00000984A4801910292039201A9FEF722FF79
:1032B00000F044F841F0E06141F440610160002217
:1032C00000211D20FFF750FD1D20FFF76AFD05B00E
:1032D00000BD1FB50168414A3F48914208D14FF4F3
:1032E000706100910222032301920393694622E058
:1032F000B1F1804F3D4C17D103210091022203917F
:1033000001926946FEF7F6FE4FF4406000F019F8AE
:10331000FEF7F0FE00F012F821F4407141F0E06198
:1033200041F4007101601FBD2D48814205D14FF469
:10333000407000F006F8FEF7DDFE1FBD2C48016866
:1033400070470090022103200191039069462046B6
:10335000704700682749884200D0704718B5224856
:103360001A4C85B0016841F4802101604FF48061FE
:10337000006800F480200090022200980191032050
:103380000490029201A92046FEF7B4FE4FF40060BB
:103390000190002101200291039001A92046FEF72F
:1033A000A9FEFFF7CBFF21F0300141F0E06141F0D1
:1033B00010010160002200212720FFF7D5FC272003
:1033C000FFF7EFFC06B010BD1810024000100140DE
:1033D000002801400024014000080140002C014069
:1033E00000080040000400401C100240000C014096
:1033F0000400014000480040C2175040801AB0FA53
:1034000080F10AD08840D1F19D01D20742EAC15132
:10341000020672F1004241EB1020704790EA010F62
:1034200040F1AE8081F00041421A3CBF801A8918F9
:103430004FF0004CC0F3C752FF2A24D0C1F3C7534A
:1034400013B3D21AD2F1190327DD4CEA01214CFA49
:1034500003F321EA0303D140C20D4CEA00204018D7
:1034600034BF20EA0C004CEA5000D20553EA006356
:1034700073EB0C0C52EB1020420012F1807F38BF2E
:103480007047C00DC0057047490212BF9A4200EB59
:103490005120F8E7D2F11703D9D57047FF2212EA7D
:1034A000D05C1DBF12EAD153944593422BE09C445B
:1034B000D30780EA01021A4043EA002043EA0121CF
:1034C000A1FB0030C04238BF40007CF17F010BDB24
:1034D000FE294ADA5B0842EAC15153EA006373F1FC
:1034E000004C51EB10207047D1F1080CDCF12001A9
:1034F0002FDB5B0810FA01F10B4320FA0CF073F19B
:1035000000415041704794451CBF02EAD153934299
:1035100080EA010202F000421DD0400019D04900AB
:1035200017D05BB9634514D00902B1FA81F3994011
:10353000BCEB030CC00140F00040C1E70002B0FA50
:1035400080FC10FA0CF0B3EB0C0CC90141F0004107
:10355000B6E71000704740000AD0490008D010F1CB
:10356000807F94BF11F1807F02E042F0FF407047FE
:10357000D043704790EA010F7FF556AF81F00041CC
:10358000431A4FF000423EBF5340C01AC91800BF53
:10359000D3095FEAD05C13EB400F34BFB3EB410FAC
:1035A00040E07CEBD1530CD342EA012122D8D1EB8D
:1035B000402009D3400A28BF5FEA500140EBCC50BD
:1035C0007047401A15D04002B0FA80F2521C904069
:1035D000400A4FEA3C23B3EB026384BF00EB730065
:1035E00007E040F400001A16DB07C2F10102D040E8
:1035F00018437047182BFCDC31FA03F202FA03F38C
:10360000591A38BF42F00102D2EB40203CBF4000C3
:10361000ACF1010C5FEACC5CC20572F100414CEBED
:103620005020704713EB400F0FD2C94209D0ACEBCA
:10363000D153022B03DB4902172BDDDD7047914389
:10364000401AC042D5D10020704713EB410FD0D3B0
:103650006FF00000704700004FF0807C1CEB400FC3
:1036600094BF1CEB410F05E040EA010C1CEB0C0F72
:1036700001D28842704718BF8142704701F0004272
:103680008B1AA3F16051B1F5801F0ADBB1F17F6F96
:103690001FD242EAC102C10071F1004142EB5070F9
:1036A00070470B15C3F10903212B10D2890241EA9F
:1036B000905180020128494141F0004121FA03F074
:1036C000C3F12003994071F100415041704710004F
:1036D00070476FF0000013EB103F5CBF000E42EA32
:1036E000C050704770B44FF0004591EA030F40F1AD
:1036F00099876B40841A71EB030604D26E40001B5D
:10370000B141121973414FF4001C1CEB410F34BF3F
:103710007CEB430682E00C0DA4EB1356362E7BDCCB
:10372000012E45EAC32341DC43EA525312BFD202C1
:1037300092025B08240545EAC12141EA5051D2EBCF
:10374000C020994125D407D1B0FA80F610FA06F1CD
:1037500062D00020203608E0B1FA81F6B140C6F10F
:10376000200220FA02F21143B0404FEAF474B4EBA5
:10377000465434F001064FEA74040AD8D6F5001610
:10378000760D04F00044F04061FA06F25040F1403A
:103790004840C00A40EA415021F0004128BF5FEA9A
:1037A000500550F1000044EBD12135E0DB0A45EA39
:1037B000C121C90AB6F120050EDD42EA0242120C0F
:1037C000C5F1200603FA06F6EB4042EA06056D4213
:1037D000984161F100010DE062FA06F5F2405540B2
:1037E00063FA06FC82EA0C02F3405A406D429041B3
:1037F00061EB030111F4801F05D1641E620502D044
:103800006D004041494121F48011430875F10043A6
:1038100050F1000041EB045170BC70471CEB410FAC
:1038200015D223F0004352EA43060BD04FEA4C0C6A
:10383000BCEB410F04D80C0D661E342EB7DDEBE750
:10384000801A994150EA410608BF0021E4E708BF09
:103850001CEB430F28BF6FF00001DDE738B50D4DBD
:103860000D4A297804464FF47A70B0FBF1F11068E4
:10387000B0FBF1F0FFF79FFA50B9102C08D20022EC
:1038800021464FF0FF30FFF76FFAAC60002032BDE9
:10389000012032BD1C02002028020020F8B590F85B
:1038A00021200024022A00F1340103D004204860C2
:1038B00001245FE00268DFF8C460136823F00E03A0
:1038C00013604FF48077026815686D086D0015600D
:1038D0004FF480320368B3424FF4805519D9DFF8B2
:1038E0009860B34208BF012210D0DFF89460B34261
:1038F00008BF10220AD0DFF88C60B34208BF3A46F6
:1039000004D0DFF88460B34208BF2A46DFF87C3079
:1039100027E0DFF87CC063451CD0DFF878C0634542
:103920001AD0DFF874C0634518D0DFF87070BB425E
:103930000EBF2A46DFF86850AB4210D0DFF8645063
:10394000AB4208BF4FF4801209D0B34207D14FF009
:10395000807204E0012202E0102200E03A46DFF823
:1039600048301A60012280F8212080F82040096840
:1039700001B188472046F2BD0804024080000240A1
:103980001C0402403004024044040240040402408B
:10399000080002401C000240300002404400024087
:1039A000580002406C00024004000240704770471B
:1039B000704770477047704770470000D2B2203A96
:1039C00022BF21FA02F0002170472032D141D040BD
:1039D00048409140D140484070470000014840684D
:1039E000704700BF1C0200202DE9F0439FB00FF686
:1039F000BC36269CDFF81C8902918DF83B400021E3
:103A00000B914FF0FF37044691461D460AE019F826
:103A1000011B0298A0470028029000F0A4800B9898
:103A2000401C0B9099F8000050B12528EFD10020E0
:103A30000021059006910790089109900A9103E0F2
:103A40000B98A3E041F0010119F8010F2028F9D0EB
:103A500023280CD02B2804D02D2805D0302809D0BD
:103A600083E041F00201EFE741F00401ECE741F0AF
:103A70000801E9E741F01001E6E700200D900AE0B7
:103A80000D98404505DA00EB800302EB4302303A23
:103A90000D9209F1010999F80020A2F130000A28DD
:103AA000EED399F800002E2818BF0C9726D119F8EC
:103AB000010F2A2808D12868286009F1010950F867
:103AC000042B28600C9219E02D280CBF19F8010B6B
:103AD000002000220C920BE040B90C9A424505DA16
:103AE00002EB820203EB4203303B0C9309F1010924
:103AF00099F80030A3F130020A2AEDD3ADF838105E
:103B0000304699F8001000F0F7FD08B119F8010BE4
:103B10008DF83A009DF83A00682804BF99F8001023
:103B2000682903D162208DF83A0008E06C2804BFB0
:103B300099F800006C2804D171218DF83A1009F130
:103B4000010910A804902A4619F8013B694620464D
:103B500000F05CF838B910AA6946204600F084F9F4
:103B600000287FF55FAF384610E02A2885D12A6803
:103B70002A6052F8040B2A6000280D9003D54042B9
:103B80000D9041F0040109F101098AE71FB0BDE879
:103B9000F083622820D0682811D06A2803D06C28CE
:103BA00027D0712825D10868C01D20F007000860C3
:103BB000D0E9002308300860194610467047002AF3
:103BC0000A680A60106803D0121D0A6000B217E08C
:103BD000121D0A6080B217E0002A0A680A601068A5
:103BE00003D0121D0A6040B20AE0121D0A60C0B282
:103BF0000AE0002A0A680A60106803D0121D0A60F1
:103C0000C1177047121D0A600021704770B51C462D
:103C10000D46B4F125002E69114600F013812038BD
:103C2000022865D9133841D00B3816D0401E1ED05B
:103C3000401E02285CD9001F19D0401F00F083806D
:103C4000401E33D0401E00F0CD80C01E00F0D88052
:103C5000801E2BD0C01E29D0FAE06869421C6A6120
:103C60000A680A6052F8043B0A603354FAE095F897
:103C70003A000122FFF78DFFC5E9000100239942B8
:103C800004DA6869411C69612D210DE0288F8107E4
:103C900004D56869411C69612B2105E0C00722D564
:103CA0006869411C6961202131541CE095F83A0093
:103CB0000022FFF76EFFC5E9000195F83800010703
:103CC00011D5D5E900230020834208BF82420AD0E3
:103CD00044F02000782806D1686930213154401C16
:103CE000411C69613454214668693044E86083E0CE
:103CF0000868C01D20F007000860D0E900230830E4
:103D00000860C5E90023D5E90001C80F04D068693F
:103D1000411C69612D210DE0288F810704D5686958
:103D2000411C69612B2105E0C00704D56869411C6D
:103D300069612021315468693044E8602146284691
:103D400000F0C4F98EE005F13A02507820B14FF04E
:103D5000FF340FF660005EE01078622808D0682813
:103D600024D06A2812D06C282ED071280ED02BE0D7
:103D70000A680A6052F8040B0A6020B94FF0FF3459
:103D80000FF6480047E0E96A01706BE00A680A60D4
:103D900052F8040B0A6020B94FF0FF340FF62C00E4
:103DA00039E0EA6AD317C0E900235BE00A680A60D9
:103DB00052F8040B0A6020B94FF0FF340FF60C00E4
:103DC00029E0E96A01804DE00A680A6052F8040BB4
:103DD0000A6020B94FF0FF340FF2F0701BE0E96A7F
:103DE00001603FE00A680A6052F8040B0A60002193
:103DF000C5E90001EE607821284600F0BBF831E00B
:103E00000868086050F8044B0860EC603CB94FF05B
:103E1000FF340FF2D07000F07BFC201A70BD2E6BC7
:103E2000002E04D5204600F093FC044608E03246FC
:103E30000021204600F0A8FC002814BF041B3446D3
:103E4000AC610FE06869411C69612521315409E0CA
:103E50006969481C686125227254210002D0411C06
:103E600069613454002070BD2DE9FC410F460646BF
:103E7000796B7869BC6A091A386A091AB869091A2B
:103E8000786A091AF869091A97F838000C1B410773
:103E900090460FD42021002C8DF800100ADD254615
:103EA00001236A463946304600F068FB00285DD1A0
:103EB0006D1EF5D17B6942463946304600F05EFB07
:103EC000002853D130208DF800003D6A002D09DD17
:103ED00001236A463946304600F050FB002845D1A0
:103EE0006D1EF5D1BB69FA683946304600F046FBD5
:103EF00000283BD130208DF800007D6A002D08DDC0
:103F000001236A463946304600F038FB70BB6D1E0F
:103F1000F6D1F868B969FB6942183946304600F0B5
:103F20002DFB18BB30208DF80000BD6A002D08DD88
:103F300001236A463946304600F020FBB0B96D1EB9
:103F4000F6D197F8380041070DD52021002C8DF8C7
:103F5000001008DD01236A463946304600F00EFBAA
:103F600020B9641EF6D10020BDE8F6814FF0FF3085
:103F7000BDE8F6812DE9FC4707468A463E69BAF15D
:103F80006F0F08BF082405D04AF02001782914BF1C
:103F90000A2410243C25D7E90023BAF1640F18BF86
:103FA000BAF1690F9046994606D100218B4203DA97
:103FB000D8F1000869EB49090020814508BF804518
:103FC0001FD1386BE8B9082C4CD197F8380001079D
:103FD00048D530203B2586F83B0043E000280ED52D
:103FE00097F8380000F01400102808D17A6B78692F
:103FF000121A386A121A511A0029C8BF3962BDE86C
:10400000F3878DF800A0404649462246E31700F0AA
:10401000E7FB3032D0B26D1E3A28019504DB9DF8E3
:104020000000A0F151018A187255404649462246C7
:10403000E31700F0D5FB804689460020814508BF84
:10404000804503D0F86871198842DCD3082C09D167
:1040500097F83800010705D5715D302902D06D1E33
:1040600030207055C5F13C01B9617019F860386BAA
:104070008142B3DA411A39624FF6EF70398F01404D
:104080003987BDE8F3872DE9D04306460F4614462D
:104090004FF00008DFF8809212E0E00707D54246B3
:1040A0004B4630463946FEF7EFF906460F46404686
:1040B000494642464B46FEF7E7F96410804689467A
:1040C000002CEAD130463946BDE8D0832DE9F84FBF
:1040D00005468CB0286BD5E9009B00288A4602AFC4
:1040E00002D50620286305E001BF4AF020006728BA
:1040F00001212963D5E9008460004015401C0DD1E1
:1041000021030BD0AAF1610103201A29A86102D270
:104110000FF2EC4110E00FF2EC410DE060004015B1
:10412000401C0ED121030CD1AAF1610103201A29F0
:10413000A86116D30FF2D441E868032200F068FCAE
:10414000E4E024F00043B3F5801F28F0000211D210
:104150000026B34208BFB242019605D1404621462F
:1041600018E00FF2A441E7E701AA4046214600F01B
:10417000A3FC08E069486A4900EB135001900C4029
:10418000684940462143019B674E47F2975253438B
:1041900093FBF6F6C5E9000120F0000221F0004390
:1041A0000020834204BF8242002300F0A7804846DB
:1041B00059460022002300F0B7FC38BF8BF0004BBB
:1041C0003246D2F10702019603DD5946FFF75BFF45
:1041D0000AE0524200205549FFF755FF02460B46C0
:1041E0004846594600F0B8FC81464AF0200000904D
:1041F0006628286B06BF019F0A3706273F18142F31
:10420000C8BF142730208B468DF808000DF1090631
:10421000002F34DD4846594600F0C2FD01460B46EA
:1042200006F1080204200A26B3FBF6F606EB860424
:10423000A3EB4403303302F8013C0A23B6FBF3F34B
:1042400003EB8304A6EB44063036401E02F8026DF1
:10425000E9D1083F002F02F10806D9DD084600F039
:10426000B3FD02460B464846594600F0D3F9304CA0
:1042700000222346FEF708F981468B46CAE70DF176
:104280000900361A0DF1090704E00198401E761E58
:1042900001907F1C38783028F7D00099662902D128
:1042A0000198401C03E065290CBF012000202B6B06
:1042B000C3189E42B8BF731E002B1ED4B34204DA4B
:1042C000F85C3528A8BF392000DA302019467A1E5C
:1042D00002EB010900E05B1E19F801B9491E834594
:1042E000F9D0392802D1785C401C7854002904D5D3
:1042F0000198401C17465B1C0190019800B2009089
:104300001BB23A465146284600F014F80DB0BDE8FD
:10431000F08F0000CBCCCC0C0000244002FCFFFF4F
:10432000FFFF0F800000E03FA08601000000F03F8B
:1043300084D797412DE9F84783B005468A469146D0
:10434000984600F04FFDB8F1000F406A2F6B0678D9
:1043500003DC4FF001080FF2B829BDF930404AF0F4
:104360002000662808BF641C13D0672840F08F80A7
:1043700014F1040F7ADBBC4278DA95F83800641C3B
:10438000010702D4B845B8BF474620B23F1A48BF1C
:1043900000270FFA84FAE868A969BAF1000F23DC54
:1043A0004A1C30234354002F03DC95F838000107E2
:1043B00002D5E8688654521C17EB0A0FB8BF7C423E
:1043C00024B2E71960424745B8BFB846AA6168629F
:1043D0000FFA88F4EC61E868AB6922464946184454
:1043E00000F016FB3F1B18E022B29045084416DA95
:1043F0004246494600F00CFBA8694044A861AAEB7C
:104400000801002F696203DC95F838100A0704D50B
:10441000E9680E54E869401CE861AF6297E04946DC
:1044200000F0F6FAA869002F5044A8EB040803DC5A
:1044300095F838100A0702D5E9680E54401CA861A7
:104440000FFA88F08742E868AB69B8BFB8460FFA40
:1044500088F209EB0A01184400F0DAFAA8690FFAA9
:1044600088F10844A861781A686270E0B84504DAF7
:1044700095F838100A0758BF47467F1E48BF0027E7
:10448000BAF1670F0CBF4FF0650A4FF0450AA969F2
:10449000EB68481CA861002F19F8012B5A5403DC63
:1044A00095F838100A0717D5E968431CAB610E541C
:1044B000002F11DDA8F1010630B28742E868B8BFCD
:1044C0003E4632B24946184400F0A2FAA86936B214
:1044D0003018BF1BA8616F62E868A9690844002C06
:1044E00080F800A003D42B214170811C03E02D2112
:1044F00041706442811C00206A460AE023460A2477
:1045000093FBF4F404EB8406A3EB460302F8013BAF
:10451000401C24B2002CF1DC012806DC4AF0200209
:10452000652A04BF302201F8012B48B9302001F878
:10453000010B07E0401E1DF80020303201F8012B6E
:104540000028F7DCE868AA691044091AE96195F8BF
:10455000380000F0140010280DD16969A8694118CD
:10456000686A4118E8694118A86A4118686B814275
:10457000BCBF411A296204B0BDE8F087F8B5054612
:104580000E4617461C46002074B117F8011BB06890
:10459000A847B06030B1F06A401CF0620020641E91
:1045A000F3D1F2BD4FF0FF30F2BD0000686A6C74C9
:1045B0007A4C00007072696E74665F733A20256EE3
:1045C00020646973616C6C6F776564007072696EEA
:1045D00074663A2062616420256E20617267756D91
:1045E000656E74007072696E74665F733A20626102
:1045F0006420257320617267756D656E740000001C
:104600006E616E004E414E00696E6600494E460076
:104610003000000070B44FF0004591EA030F7FF5C1
:1046200069A86B40841A71EB030603D2001BB141E9
:10463000121973414FF4001C1CEB410F34BF7CEB8B
:10464000430442E00C0DA4EB1356352E4FDC45EA33
:10465000C323DB0A45EAC121C912B6F120050DDDED
:1046600063FA05F6EB4086EA0305124218BF45F0EF
:104670000105C01851F100010CD213E062FA06F5F1
:10468000F2405540F3415A40B340F3405A4080183D
:10469000594107D349085FEA30005FEA350528BF72
:1046A00045F0010501F58011420875F1004250F115
:1046B000000041EB04514E0016F5001F70BC38BFDE
:1046C00070470020090D090570471CEB410F10D2FF
:1046D00052EA43060BD0BCEB410F05D80C0DAB439F
:1046E000661E342EB6DD02E0AB438018594170BC23
:1046F000704770BC704700000278C9B28A421AB194
:104700001CBF10F8012FF9E718BF00207047000008
:1047100080B500B906A005490B681BB12222002113
:10472000984701E000F062FB222002BDC406002091
:10473000636F6E73747261696E742068616E646C0D
:1047400065723A20626164206D657373616765000C
:1047500000F10103810704D010F8011B89B1810722
:10476000FAD10268B2F10131914311F0803F04BFE8
:1047700050F8042FF6E710F8011B11B110F8011BD7
:10478000FBE7C01A70470000C9B2830706D0521E6B
:1047900022D310F8013B9942F7D11FE0083A13D316
:1047A00002F1040241EA012141EA014150F8043BCF
:1047B000121F21BF4B40A3F1013C2CEA030C1CF05B
:1047C000803FF3D0C9B2001F083210F8013B521EDF
:1047D00028BF91EA030FF8D818BF0120401E704788
:1047E000B3BBD9B1B2F5803F7DD2022A1ED98C4627
:1047F000B1FBF2F102FB11C31B0443EA1043B3FB0C
:10480000F2FC02FB1C3380B240EA0343B3FBF2F03C
:1048100002FB103240EA0C4000237047022A05D9FF
:104820008446B0FBF2F002FB10C270474AB105D1DA
:1048300000F0010249085FEA3000704700220023BF
:10484000704700F0D7BA0B0002000021002070472B
:10485000904271EB030CF6D3B3F5803F2FD2F0B545
:10486000B3FA83F7B1FA81F4A7F10F0E3D1B534061
:10487000CEF1200602FA0EF2F3415340B5F10F07D4
:1048800046D80F3C2C444140C4F12006A040F141E1
:104890004140B1FBF3F603FB1611A2FB0645001BDA
:1048A000A94102D2761E8018594180EA010221FAFC
:1048B0000EF362FA0EF200215A403046F0BD30B4D9
:1048C000B1FBF3FC03FB1C11A2FB0C45001BA9412F
:1048D00003D2ACF1010C8018594130BC02460B46A2
:1048E000604600217047B2F1807F65D3F0B5B2FA1F
:1048F00082F7B1FA81F4C7F10F063D1B22FA06F3E5
:1049000007F1110EF24120355A40B5F10F07B8D921
:104910004140C4F12006A040F1414140B1FBF3FC0D
:1049200003FB1C11A2FB0C45001BA94103D2BCF1E7
:10493000010C801859410F2F12D30F3FC90341EAD0
:104940005041B1FBF3F603FB1611A2FB0645D4EB75
:10495000C030A94102D2761E8018594146EACC3CAB
:1049600007B34140C7F12006B840F1414140B1FBD7
:10497000F3F603FB1611A2FB0645001BA94102D268
:10498000761E8018594180EA010221FA0EF3C7F120
:10499000200462FA0EF20CFA07F05A402CFA04F1E5
:1049A0003043F0BD80EA010221FA0EF3002162FAE1
:1049B0000EF260465A40F0BD8C46B1FBF2F102FBAC
:1049C00011C31B0243EA1063B3FBF2FC02FB1C336E
:1049D0001B024CEA002043EA1063B3FBF2FC02FB2B
:1049E0001C331B024CEA002043EA1063B3FBF2FCC9
:1049F00002FB1C331B024CEA002043EA1063B3FBAA
:104A0000F2FC02FB1C324CEA00200023704700003D
:104A100062B38B0708D0521E11F8013B00F8013B2E
:104A200000F024808B07F6D1830740F0208000BF80
:104A3000103A07D330B4B1E83810103AA0E8381073
:104A4000F9D230BC530724BFB1E80810A0E8081021
:104A500044BF51F8043B40F8043BD20724BF31F86F
:104A6000022B20F8022B44BF0B7803707047121FF3
:104A700017D35B0009D151F8043B20F8023B1B0C13
:104A8000121F20F8023BF6D20BE051F8043B00F86D
:104A9000013B1B0A20F8023B1B0C121F00F8013BD4
:104AA000F3D238BF121D521E24BF11F8013B00F88B
:104AB000013BF8D87047000010B5144600F002F82A
:104AC000226010BDC1F30A5343B14A0012F5001F22
:104AD00028D2A3F2FE32A1EB0251704750EA410CFA
:104AE00020D001F0004C31EA0C01B1FA81F204BF90
:104AF000B0FA80F3D2180B3AB2F120032CBF00FABF
:104B000003F1914041EA0C013EBFC2F1200C20FAB2
:104B10000CF319439040524240F2FD33D21A01EB9C
:104B200003517047002270474FF4001C1CEB410FEB
:104B300094BF1CEB430F09E041EA030C50EA4C0C14
:104B400052EA0C0C03D2994208BF9042704714BF3E
:104B50008B42824270470000F0B540F2FF7581EA57
:104B6000030C0CF0004C15EA11541DBF15EA135745
:104B7000AC42AF42E5E0BC41C1F31301C3F3130300
:104B8000801A994143F4801304D2641E40004941C5
:104B900080185941C90241EA5051B1FBF3F603FBB9
:104BA0001611A2FB0675D7EBC020A94102D2761ED2
:104BB00080185941C90241EA5051B1FBF3FE03FB91
:104BC0001E11A2FB0E75D7EBC020A94103D2AEF196
:104BD000010E80185941890241EA9051760546EA52
:104BE0008E2EB1FBF3F603FB1611A2FB0675D7EB75
:104BF0008020A94102D2761E80185941C90241EA9B
:104C000050514EEA060EB1FBF3F603FB1611A2FB60
:104C10000675D7EBC020A94102D2761E80185941F3
:104C2000C90241EA5051B1FBF3F703FB1711A2FB94
:104C30000735D3EBC020A94167F100070CBF004244
:104C400047F0010766F3D5274FEA1E31B80814F57F
:104C5000806412DDBD0775F1004250EB0E5051EB40
:104C6000045111F5801F5CBF41EA0C01F0BD4CF00E
:104C70007F6141F0E0410020F0BDBD076D0840EAD2
:104C80000E5041F48011D4F10104B4F120060ADA87
:104C9000C4F120060200E04001FA06F3E1401843A7
:104CA000B24015430EE0342C13DCC6F1200445EA73
:104CB00040056D0820FA06F2154321FA06F0A140DE
:104CC0000D43002175F1004250F1000051EB0C0141
:104CD000F0BD00205FEA0C01F0BDCFB992185B4136
:104CE000B3FA83F704BFB2FA82F6BF190B3FB7F1EC
:104CF00020062FBF02FA06F3BB40C7F1200622FAB6
:104D000006F638BF3343BA401CB1E419641E33E7DA
:104D10007F4231F00041B1FA81F404BFB0FA80F66D
:104D2000A4190B3CB4F120062FBF00FA06F1A140F4
:104D3000C4F1200620FA06F638BF3143A0403C1BE0
:104D40001AE7AC421ABF05EA1357AF4212E050EA25
:104D500041061CBF52EA4306BFE750EA410730460E
:104D600061461CBF41EA0551F0BD52EA430C08BF41
:104D7000C143F0BD00204FF4001616EB410F98BF61
:104D800016EB430F08BF16EB410F24BFC14305E0EC
:104D900016EB430F0CBF61464CEA0551F0BD000015
:104DA000400D491840EA81200CD2490DA1F58061DF
:104DB000491C40F0004005DBD1F11F0154BFC84041
:104DC000C017704700207047014648B1B0FA80F123
:104DD0008840C91CC1F58461090501EBD02140055B
:104DE000704700000048704724030020012000F0B5
:104DF00003B800007047000080B5AFF30080024A9E
:104E000011001820ABBEFBE72600020010B50446D7
:104E1000AFF30080204600F005F80446AFF30080B1
:104E2000204610BD7CB500F10F06F608F600B04232
:104E300040D2082E04D2082602E0083000F047F8DD
:104E4000DFF804512C68210005D1002007E002683A
:104E5000B24221D2011D08680028F8D12068291D1E
:104E60000A68824222D01368B34238BF111DF7D3BB
:104E700012E093190B60801B54685C600B6818602B
:104E80001660096800291DBF48680028081D002019
:104E9000286002F1080076BD61B10A681068A0F1CF
:104EA0000803B342E5D250680860EAE700F04EF824
:104EB0000028C2D1002076BD10B5040006D0AFF3A3
:104EC0000080204600F003F8AFF3008010BD0028FA
:104ED00000D1704750B4A0F108021368072B2BD9FA
:104EE00013F0070F28D1184C616809B18A4202D229
:104EF0005160626013E0486800B3904238BF0146D9
:104F0000F9D31BE0964203D11B180B600A4606E05A
:104F1000486810B1134498420ED350604A605068FC
:104F200050B11368D118814206D100212160016877
:104F3000CB1813604068506050BC704708680E186A
:104F4000B242DFD250BC7047B8060020074908685B
:104F500008B1002070470648C008C0000860054935
:104F6000C908C900091A0160704700BFC0060020C7
:104F7000D7160020D02600202DE9F04107468846AC
:104F8000387810F0030F16461D4633D0384600F02F
:104F900099F878BBB8F1000F1CBFD8E90001861959
:104FA000012D2ED13888C10415D5396A07F1440284
:104FB000384600F0A3F83A6B044602B93A69F9683A
:104FC000384600F09BF8361B341A7A69F96838467F
:104FD00000F094F8261A1EB94DB916F1010F09D048
:104FE00097F903002A46314600F08EF8064616F17E
:104FF000010F09D12320AFF300804FF0FF30BDE84F
:10500000F081022DE8D1EBE7388810F4405F0ED034
:105010007868F86038617861B8617868F86107F19C
:105020004400386207F13000786200203863B8F13C
:10503000000F05D0D8E9020107F13402C2E90001EE
:1050400039884CF6FF60014039800020BDE8F081CE
:1050500070B50546AFF300802888810415D56E68C9
:105060000024EA6895F903003146914212D2521A9F
:1050700000F06FF810F1010F1CBF00283618F0D1B6
:105080000FE04DF6FF70014029802846AFF3008005
:10509000002070BD0022002100F05BF810F1010F2C
:1050A00000D101246868E860A861E861002C2988C3
:1050B000E7D041F4007129802846AFF300804FF01B
:1050C000FF3070BDF8B5A0B9AFF3008000250A4EDF
:1050D00008244FF0FF37306820B1FFF7B9FF0028F0
:1050E00048BF3D46361D641EF5D1AFF3008028460B
:1050F000F2BDBDE8F240ABE704030020914234BFAB
:10510000511A0021084670473EB504000D00012ADF
:1051100002D100F06BF807E0022A07D100940020CA
:10512000019069460C20ABBE2D1801E0002A0CD17D
:105130000094019569460A20ABBE002805D10022E3
:105140002100280000F02FF801E00020C04303B048
:1051500030BD80B5002802D400F06AF802BD0020FE
:1051600002BD000010B4314A002113461C6884427D
:105170001EBF491C9C6884421EBF491C1C69844296
:1051800009D09C69491C844205D0491C2033102950
:10519000ECD310BC7047002342F8313002EBC10160
:1051A0004B6010BC704778B4204C002325462E6815
:1051B0008E421EBF5B1CAE688E421EBF5B1C2E69FA
:1051C0008E4209D0AE695B1C8E4205D05B1C203537
:1051D000102BECD372BC7047054604EBC303012AC5
:1051E00004BF59684D195D6072BC704710B40F4A16
:1051F000002113461C6884421EBF491C9C688442DF
:105200001EBF491C1C6984420AD09C69491C844207
:1052100006D0491C20331029ECD310BC0020704765
:1052200002EBC100406810BC704700005C03002026
:1052300080B5002901D1002002BD012801D002283B
:1052400002D100F005F802BD00F02AF802BD00000E
:1052500070B40B00002111480068C0010FD4080091
:1052600070BC70475D782D0225439C7826042E4340
:10527000DC78240634431B1D0460121F091D002A1C
:10528000EDD0E02000060468002CFAD01C78042A37
:10529000E8D204705B1C491C521EF0E7FCED00E0F4
:1052A00018B583B00300140000930191029469467D
:1052B0000520ABBE01221900201AFFF774FF04B0CD
:1052C00010BD10B50446E068A169884251D3218819
:1052D00049F202030B40022B08D008044CBF4FF4E4
:1052E00000704FF48440014321803BE001F4C04250
:1052F000B2F5C04F06D1A168884203D32046FFF71C
:10530000E1FE78BB208810F4406F02BF606804F1B2
:105310004401884217D14FF40070FFF777FD6060B9
:1053200030B904F144006060E060401CA0600AE015
:10533000218841F040012180E060606100F5007249
:105340006068A260E06160682061A068A061207868
:1053500041070AD502220021204600F00CF810F186
:10536000010F02D14FF0FF3010BD208840F4C04043
:105370002080002010BD70B504460D461646AFF3E0
:10538000008033462A4600212046FFF7F5FD0546FA
:105390002046AFF30080284670BD38B504000ED01B
:1053A000207810F0030F03D094F90300002809D5EA
:1053B000AFF30080204600F02FF8AFF300804FF0ED
:1053C000FF3032BD2046FFF77DFE0546AFF300807B
:1053D0002078410644BF606800F05CF800206060FF
:1053E00094F90300022804D900F056F808B14FF0F0
:1053F000FF35E06B48B100F05BF808B14FF0FF35C6
:10540000E06B00F047F80020E063204600F004F86D
:10541000AFF30080284632BD01780A0626D51C4A23
:1054200013680021834203D1002342F821301BE09E
:105430005368012183421EBF022193688342F3D047
:10544000D368032183421EBF042113698342EBD03A
:105450005369052183421EBF0621936983421EBF03
:105460000721D3698342DFD000F014B80021018006
:105470004FF0FF31C17000F144014160C160016132
:1054800041618161C161016200F130014162704797
:1054900004030020FFF710BD1CB50200009269460E
:1054A0000220ABBE04001000FFF75CFE200016BD1A
:1054B000E0B50090FFF74CF9019069460E20ABBEB5
:1054C00003B000BD0E49086840F0010008604A685A
:1054D0000C4802404A600B680B4803400B600868A8
:1054E00020F4802008604FF41F004A6822F4FE0276
:1054F0004A6088604FF0006004490860704700000F
:10550000001002400000FFF8FFFFF6FE08ED00E08B
:105510000000000000000000010203040607080963
:1055200038B50C46C5B22046AFF30080E068A169EB
:10553000884204D32046FFF7C4FE00280FD4E06859
:10554000401CE06000F8015D2088010503D440059F
:105550000BD50A2D09D12046FFF7B4FD28B120460E
:10556000AFF300804FF0FF3032BD2046AFF3008034
:10557000284632BD19E050F8042BD30744BFA9F1E7
:1055800001039A18091F0023042942F8043BF9D2A9
:105590005FEA817C134604D54FF0000CA2F800C0EE
:1055A0009B1CC90744BF0021197050F8041B002937
:1055B000E1D1704738B50D4D0824286800281CBF7C
:1055C000017811F0030F05D090F90310002958BF9E
:1055D000FFF7E3FE2D1D641EEFD1BDE83840002229
:1055E00000214FF0FF30FFF7B4BD00BF04030020DF
:1055F0007047FEE7FEE7FEE7FEE77047704770473B
:1056000080B500F00FF8BDE80140FDF701BC03488C
:10561000FCF778B90248FBF768BF0000D40400200B
:10562000F405002002494A68087882184A607047E9
:105630001C02002010B5074979441831064C7C44FF
:10564000163404E00A68081D114488470146A14247
:10565000F8D110BD080000002400000019FFFFFF72
:10566000700300005C030020000000007FCDFFFFFE
:1056700074010000740100000000002000F00DF82B
:10568000002801D0FFF7D6FFAFF300800020AFF372
:105690000080FAF74DFD00F002F80120704700F09D
:1056A00001B800000746FFF785FF3846FFF7A4FB67
:1056B000FBE738B504460D46284600F005F8A84239
:1056C00018BF0024204632BD0149FFF729BF00BFA3
:1056D000740200200148804701480047C554000873
:1056E000E5560008AFF30080AFF30080FFF7C6FF78
:1056F000000000000102030400002E00FFF7FEBFBF
:10570000FFF7FEBFFFF7FEBFFFF7FEBFFFF7FEBFCD
:10571000FFF7FEBFFFF7FEBFFFF7FEBFFFF7FEBFBD
:10572000FFF7FEBFFFF7FEBFFFF7FEBFFFF7FEBFAD
:10573000FFF7FEBFFFF7FEBFFFF7FEBFFFF7FEBF9D
:10574000FFF7FEBFFFF7FEBFFFF7FEBFFFF7FEBF8D
:10575000FFF7FEBFFFF7FEBFFFF7FEBFFFF7FEBF7D
:10576000FFF7FEBFFFF7FEBFFFF7FEBFFFF7FEBF6D
:10577000FFF7FEBFFFF7FEBFFFF7FEBFFFF7FEBF5D
:10578000FFF7FEBFFFF7FEBFFFF7FEBFFFF7FEBF4D
:10579000FFF7FEBFFFF7FEBFFFF7FEBFFFF7FEBF3D
:1057A000FFF7FEBFFFF7FEBFFFF7FEBFFFF7FEBF2D
:1057B000FFF7FEBFFFF7FEBFFFF7FEBFFFF7FEBF1D
:1057C000FFF7FEBFFFF7FEBFFFF7FEBFFFF7FEBF0D
:1057D000FFF7FEBFFFF7FEBFFFF7FEBFFFF7FEBFFD
:1057E000FFF7FEBF3002000C0140046101F11F1001
:1057F000E10192081CA10C1300F80CF00124D04028
:105800000001F0042548420000803F3C13F4413C75
:10581000F2253E3C127078F0016B504000012544A7
:105820001104F323080286F729803F385001000055
:1058300001392210081403A24A04010412100202C2
:1058400000207104527004211BA108525C0CF10B62
:105850000110070204010164050020B4045264042D
:105860002134610812B844F213A44850020802021D
:10587000144052140421346108F003120003002084
:10588000EC48122C24127404F206BC2CF00207F827
:0E5890005600080452FF01F200FA1403000053
:04000005080056E5B4
:00000001FF
