:10000000D0070020F54C0000554B0000574B000076
:10001000594B00005B4B00005D4B000000000000EE
:100020000000000000000000000000005F4B000026
:10003000614B000000000000634B0000654B0000B6
:10004000194D00001D4D0000214D0000254D000000
:10005000294D00002D4D0000314D0000354D0000B0
:10006000394D00003D4D0000414D0000454D000060
:10007000494D00004D4D0000514D0000554D000010
:10008000734B0000794B0000594D00005D4D00009E
:10009000614D0000654D0000694D00006D4D000090
:1000A000714D0000754D0000794D00007D4D000040
:1000B000814D00007F4B0000854D0000854B000006
:1000C0008B4B0000894D00008D4D0000914D0000CC
:1000D000954D0000994D00009D4D0000A14D000080
:1000E000A54D0000A94D0000AD4D0000B14D000030
:1000F000B54D0000B94D0000BD4D0000C14D0000E0
:10010000C54D0000C94D0000CD4D0000D14D00008F
:10011000D54D0000D94D0000DD4D0000E14D00003F
:10012000E54D0000E94D0000ED4D0000F14D0000EF
:100130002DE9F0439FB00FF6AC36269CDFF81C8902
:1001400002918DF83B4000210B914FF0FF370446A0
:1001500091461D460AE019F8011B0298A0470028A5
:10016000029000F0A4800B98401C0B9099F80000BE
:1001700050B12528EFD1002000210590069107906D
:10018000089109900A9103E00B98A3E041F0010166
:1001900019F8010F2028F9D023280CD02B2804D0DF
:1001A0002D2805D0302809D083E041F00201EFE787
:1001B00041F00401ECE741F00801E9E741F01001EA
:1001C000E6E700200D900AE00D98404505DA00EBC7
:1001D000800302EB4302303A0D9209F1010999F8CC
:1001E0000020A2F130000A28EED399F800002E2852
:1001F00018BF0C9726D119F8010F2A2808D12868B2
:10020000286009F1010950F8042B28600C9219E0CC
:100210002D280CBF19F8010B002000220C920BE0D6
:1002200040B90C9A424505DA02EB820203EB420325
:10023000303B0C9309F1010999F80030A3F1300229
:100240000A2AEDD3ADF83810304699F8001000F0C6
:10025000B9FD08B119F8010B8DF83A009DF83A0084
:10026000682804BF99F80010682903D162208DF82E
:100270003A0008E06C2804BF99F800006C2804D10B
:1002800071218DF83A1009F1010910A804902A464D
:1002900019F8013B6946204600F05CF838B910AA0D
:1002A0006946204600F084F900287FF55FAF3846A4
:1002B00010E02A2885D12A682A6052F8040B2A60A7
:1002C00000280D9003D540420D9041F0040109F142
:1002D00001098AE71FB0BDE8F083622820D06828B2
:1002E00011D06A2803D06C2827D0712825D108683E
:1002F000C01D20F007000860D0E900230830086026
:10030000194610467047002A0A680A60106803D030
:10031000121D0A6000B217E0121D0A6080B217E0D9
:10032000002A0A680A60106803D0121D0A6040B2F1
:100330000AE0121D0A60C0B20AE0002A0A680A60D8
:10034000106803D0121D0A60C1177047121D0A60A1
:100350000021704770B51C460D46B4F125002E698A
:10036000114600F013812038022865D9133841D096
:100370000B3816D0401E1ED0401E02285CD9001F2C
:1003800019D0401F00F08380401E33D0401E00F083
:10039000CD80C01E00F0D880801E2BD0C01E29D07A
:1003A000FAE06869421C6A610A680A6052F8043B14
:1003B0000A603354FAE095F83A000122FFF78DFF06
:1003C000C5E900010023994204DA6869411C6961AA
:1003D0002D210DE0288F810704D56869411C6961D2
:1003E0002B2105E0C00722D56869411C69612021E5
:1003F00031541CE095F83A000022FFF76EFFC5E982
:10040000000195F83800010711D5D5E90023002037
:10041000834208BF82420AD044F02000782806D1E7
:10042000686930213154401C411C696134542146B3
:1004300068693044E86083E00868C01D20F0070068
:100440000860D0E9002308300860C5E90023D5E939
:100450000001C80F04D06869411C69612D210DE0BD
:10046000288F810704D56869411C69612B2105E04B
:10047000C00704D56869411C69612021315468694D
:100480003044E8602146284600F0C4F98EE005F1CA
:100490003A02507820B14FF0FF340FF650005EE082
:1004A0001078622808D0682824D06A2812D06C28D6
:1004B0002ED071280ED02BE00A680A6052F8040B87
:1004C0000A6020B94FF0FF340FF6380047E0E96AC0
:1004D00001706BE00A680A6052F8040B0A6020B9E8
:1004E0004FF0FF340FF61C0039E0EA6AD317C0E979
:1004F00000235BE00A680A6052F8040B0A6020B926
:100500004FF0FF340FF2FC7029E0E96A01804DE002
:100510000A680A6052F8040B0A6020B94FF0FF34F1
:100520000FF2E0701BE0E96A01603FE00A680A60D0
:1005300052F8040B0A600021C5E90001EE60782141
:10054000284600F0BBF831E00868086050F8044B1A
:100550000860EC603CB94FF0FF340FF2C07000F05F
:100560003DFC201A70BD2E6B002E04D5204600F0F5
:1005700055FC044608E032460021204600F06AFCA3
:10058000002814BF041B3446AC610FE06869411CAD
:1005900069612521315409E06969481C6861252297
:1005A0007254210002D0411C69613454002070BD96
:1005B0002DE9FC410F460646796B7869BC6A091A39
:1005C000386A091AB869091A786A091AF869091A99
:1005D00097F838000C1B410790460FD42021002CBF
:1005E0008DF800100ADD254601236A46394630465B
:1005F00000F060FB00285DD16D1EF5D17B6942469D
:100600003946304600F056FB002853D130208DF893
:1006100000003D6A002D09DD01236A463946304657
:1006200000F048FB002845D16D1EF5D1BB69FA6882
:100630003946304600F03EFB00283BD130208DF893
:1006400000007D6A002D08DD01236A4639463046E8
:1006500000F030FB70BB6D1EF6D1F868B969FB691C
:1006600042183946304600F025FB18BB30208DF883
:100670000000BD6A002D08DD01236A463946304678
:1006800000F018FBB0B96D1EF6D197F8380041079D
:100690000DD52021002C8DF8001008DD01236A46BD
:1006A0003946304600F006FB20B9641EF6D1002022
:1006B000BDE8F6814FF0FF30BDE8F6812DE9FC473B
:1006C00007468A463E69BAF16F0F08BF082405D075
:1006D0004AF02001782914BF0A2410243C25D7E9C8
:1006E0000023BAF1640F18BFBAF1690F904699461A
:1006F00006D100218B4203DAD8F1000869EB4909E1
:100700000020814508BF80451FD1386BE8B9082C0F
:100710004CD197F83800010748D530203B2586F8A2
:100720003B0043E000280ED597F8380000F0140095
:10073000102808D17A6B7869121A386A121A511A7D
:100740000029C8BF3962BDE8F3878DF800A0404694
:1007500049462246E31700F0A9FB3032D0B26D1EA5
:100760003A28019504DB9DF80000A0F151018A1898
:100770007255404649462246E31700F097FB8046F3
:1007800089460020814508BF804503D0F86871196B
:100790008842DCD3082C09D197F83800010705D529
:1007A000715D302902D06D1E30207055C5F13C01BD
:1007B000B9617019F860386B8142B3DA411A396255
:1007C0004FF6EF70398F01403987BDE8F3872DE987
:1007D000D04306460F4614464FF00008DFF88092DB
:1007E00012E0E00707D542464B463046394600F056
:1007F00075FC06460F464046494642464B4600F0C9
:100800006DFC641080468946002CEAD1304639469A
:10081000BDE8D0832DE9F84F05468CB0286BD5E9AB
:10082000009B00288A4602AF02D50620286305E017
:1008300001BF4AF02000672801212963D5E900841F
:1008400060004015401C0DD121030BD0AAF16101BD
:1008500003201A29A86102D20FF2DC4110E00FF246
:10086000DC410DE060004015401C0ED121030CD18D
:10087000AAF1610103201A29A86116D30FF2C4411D
:10088000E868032200F0FCFCE4E024F00043B3F548
:10089000801F28F0000211D20026B34208BFB242E6
:1008A000019605D14046214618E00FF29441E7E752
:1008B00001AA4046214600F037FD08E069486A4930
:1008C00000EB135001900C40684940462143019BC6
:1008D000674E47F29752534393FBF6F6C5E9000182
:1008E00020F0000221F000430020834204BF824236
:1008F000002300F0A780484659460022002300F05C
:100900004BFD38BF8BF0004B3246D2F10702019607
:1009100003DD5946FFF75BFF0AE0524200205549CC
:10092000FFF755FF02460B464846594600F04CFD7E
:1009300081464AF0200000906628286B06BF019F80
:100940000A3706273F18142FC8BF142730208B46BC
:100950008DF808000DF10906002F34DD4846594690
:1009600000F056FE01460B4606F1080204200A2656
:10097000B3FBF6F606EB8604A3EB4403303302F830
:10098000013C0A23B6FBF3F303EB8304A6EB440616
:100990003036401E02F8026DE9D1083F002F02F107
:1009A0000806D9DD084600F047FE02460B464846D9
:1009B000594600F04FFE304C0022234600F08EFBDB
:1009C00081468B46CAE70DF10900361A0DF1090779
:1009D00004E00198401E761E01907F1C3878302874
:1009E000F7D00099662902D10198401C03E06529DF
:1009F0000CBF012000202B6BC3189E42B8BF731E92
:100A0000002B1ED4B34204DAF85C3528A8BF392085
:100A100000DA302019467A1E02EB010900E05B1E65
:100A200019F801B9491E8345F9D0392802D1785CFB
:100A3000401C7854002904D50198401C17465B1CC3
:100A40000190019800B200901BB23A4651462846E8
:100A500000F014F80DB0BDE8F08F0000CBCCCC0C4A
:100A60000000244002FCFFFFFFFF0F800000E03F7A
:100A7000A08601000000F03F84D797412DE9FC4398
:100A8000054683B01F462E6B002F904602DC0127DF
:100A90000FF2B4288946BDF9304049F0200066289D
:100AA00008BF641C13D0672840F08D8014F1040F38
:100AB00078DBB44276DA95F83800641C010702D47A
:100AC000B742B8BF3E4620B2361A48BF00260FFADA
:100AD00084F9E868A969B9F1000F23DC4A1C3023C6
:100AE0004354002E03DC95F83800010703D5E8686D
:100AF0002E218154521C16EB090FB8BF744224B248
:100B000060426862A619BE42AA61B8BF3746E8686B
:100B1000AB693FB2EF613A464146184400F0B0FB82
:100B2000F61B19E022B29742084417DA3A464146CA
:100B300000F0A6FBA8693818A9EB0707002EA861EA
:100B40006F6203DC95F838100A0705D5E9682E2294
:100B50000A54E869401CE861AE6294E0414600F046
:100B60008FFBA8693F1B002E484403DC95F8381022
:100B70000A0703D5E9682E220A54401CA86138B23E
:100B80008642E868AB69B8BF37463AB208EB09015C
:100B9000184400F075FBA8693FB23818F71BA8612C
:100BA0006F6270E0B74204DA95F838100A0758BF50
:100BB0003E46761E48BF0026B9F1670F0CBF4FF0C6
:100BC00065094FF04509A969EB68481CA861002E2A
:100BD00018F8012B5A5403DC95F838100A0717D57A
:100BE000EA68431CAB612E211154002E10DD7F1EDC
:100BF00038B28642E868B8BF37463AB24146184430
:100C000000F03EFBA8693FB23818F61BA8616E627F
:100C1000E868A9690844002C80F8009003D42B21CF
:100C20004170811C03E02D2141706442811C002031
:100C30006A460AE023460A2493FBF4F404EB840694
:100C4000A3EB460302F8013B401C24B2002CF1DC6C
:100C5000012806DC49F02002652A04BF302201F891
:100C6000012B48B9302001F8010B07E0401E1DF8A8
:100C70000020303201F8012B0028F7DCE868AA696F
:100C80001044091AE96195F8380000F014001028A2
:100C90000DD16969A8694118686A4118E869411865
:100CA000A86A4118686B8142BCBF411A296205B02D
:100CB000BDE8F083F8B505460E4617461C460020F1
:100CC00074B117F8011BB068A847B06030B1F06A82
:100CD000401CF0620020641EF3D1F2BD4FF0FF30E3
:100CE000F2BD0000686A6C747A4C00007072696E24
:100CF00074665F733A20256E20646973616C6C6F53
:100D0000776564007072696E74663A20626164206F
:100D1000256E20617267756D656E74007072696E04
:100D200074665F733A206261642025732061726784
:100D3000756D656E740000006E616E004E414E0070
:100D4000696E6600494E46003000F0B402461068F5
:100D500095681318506803EB5004C00721D54D4423
:100D60001FE0F0BC02F10C00704713F8017B05F89E
:100D7000017B491EF9D1A0B1B60813F8011B06F09A
:100D80000306032E08BF13F8016B01EB062149424D
:100D9000801C294405D011F8016B05F8016B401E39
:100DA000F9D1A342DDD013F8016B16F0030104BFA3
:100DB00013F8011BC91C30090F28DAD113F8010BF5
:100DC0000F30D6E70278C9B28A421AB11CBF10F8B8
:100DD000012FF9E718BF00207047000080B500B967
:100DE00006A005490B681BB122220021984701E0AB
:100DF00000F0A1FC222002BDCC030020636F6E73C3
:100E0000747261696E742068616E646C65723A20F8
:100E1000626164206D6573736167650000F10103B1
:100E2000810704D010F8011B89B18107FAD102684B
:100E3000B2F10131914311F0803F04BF50F8042F0B
:100E4000F6E710F8011B11B110F8011BFBE7C01AFF
:100E500070470000C9B2830706D0521E22D310F893
:100E6000013B9942F7D11FE0083A13D302F1040283
:100E700041EA012141EA014150F8043B121F21BF20
:100E80004B40A3F1013C2CEA030C1CF0803FF3D053
:100E9000C9B2001F083210F8013B521E28BF91EA68
:100EA000030FF8D818BF0120401E7047B3BBD9B15B
:100EB000B2F5803F7DD2022A1ED98C46B1FBF2F1F9
:100EC00002FB11C31B0443EA1043B3FBF2FC02FB19
:100ED0001C3380B240EA0343B3FBF2F002FB103252
:100EE00040EA0C4000237047022A05D98446B0FB33
:100EF000F2F002FB10C270474AB105D100F00102C6
:100F000049085FEA3000704700220023704700F074
:100F100015BC0B000200002100207047904271EBCD
:100F2000030CF6D3B3F5803F2FD2F0B5B3FA83F7B5
:100F3000B1FA81F4A7F10F0E3D1B5340CEF120060C
:100F400002FA0EF2F3415340B5F10F0746D80F3CB9
:100F50002C444140C4F12006A040F1414140B1FB86
:100F6000F3F603FB1611A2FB0645001BA94102D2B2
:100F7000761E8018594180EA010221FA0EF362FAC6
:100F80000EF200215A403046F0BD30B4B1FBF3FC04
:100F900003FB1C11A2FB0C45001BA94103D2ACF1C1
:100FA000010C8018594130BC02460B4660460021B6
:100FB0007047B2F1807F65D3F0B5B2FA82F7B1FA2B
:100FC00081F4C7F10F063D1B22FA06F307F1110E5B
:100FD000F24120355A40B5F10F07B8D94140C4F16C
:100FE0002006A040F1414140B1FBF3FC03FB1C1182
:100FF000A2FB0C45001BA94103D2BCF1010C8018D7
:1010000059410F2F12D30F3FC90341EA5041B1FBA1
:10101000F3F603FB1611A2FB0645D4EBC030A94141
:1010200002D2761E8018594146EACC3C07B34140B3
:10103000C7F12006B840F1414140B1FBF3F603FB94
:101040001611A2FB0645001BA94102D2761E80188C
:10105000594180EA010221FA0EF3C7F1200462FA35
:101060000EF20CFA07F05A402CFA04F13043F0BDAE
:1010700080EA010221FA0EF3002162FA0EF26046C4
:101080005A40F0BD8C46B1FBF2F102FB11C31B02CA
:1010900043EA1063B3FBF2FC02FB1C331B024CEA75
:1010A000002043EA1063B3FBF2FC02FB1C331B027B
:1010B0004CEA002043EA1063B3FBF2FC02FB1C3352
:1010C0001B024CEA002043EA1063B3FBF2FC02FB74
:1010D0001C324CEA0020002370470000B0B581EAC2
:1010E000030C0CF0004C40F2FF7515EA11541DBFC3
:1010F00015EA1357AC42AF4239E0E41923EA4553ED
:1011000043F48013C90241F0004141EA505EC70236
:101110001100A7FB020200284FF00000EEFB0120A7
:101120004FF00001E3FB072118BF42F00102401815
:1011300000214941E3FB0E01A4F580640F0302D2B4
:1011400052004041494154F101046CDD470872F1FD
:10115000004250F1000051EB0451A1F580115CBF39
:1011600041EA0C01B0BD4CEA05510020B0BD05EAD2
:101170001357AC4214BFAF4241E050EA410E1CBFCE
:1011800052EA430E02E061460020B0BD24423C44D6
:101190001BD15FEA070EF6D0090302BF014600200B
:1011A000AEF1140EB1FA81F7AEEB070401FA07FEB7
:1011B0000C37C7F1200100FA07F7C8404EEA000ECD
:1011C00023EA455343F48013A2E733F00043B3FA14
:1011D00083F704BFB2FA82FE77440B3FE41BB7F1FA
:1011E000200E2FBF02FA0EF3BB40C7F1200E22FAE9
:1011F0000EFE38BF43EA0E03BA40641C82E750EA91
:10120000410E14BF52EA430E6FF000014FF4001775
:1012100017EB430F8ABF194617EB410FB5E74CEAAE
:1012200005510020B0BDD4F10104B4F120070FDA5C
:10123000C4F12007520828BF42F0010210FA07F556
:1012400001FA07F7E1BF2A43E0403843E1400FE0ED
:10125000352C98DCC7F1200452EA400220FA07F24C
:1012600018BF42F0010231FA07F0A1400A43002101
:1012700072F1004250F1000051EB0C01B0BD0000D2
:1012800062B38B0708D0521E11F8013B00F8013BF6
:1012900000F024808B07F6D1830740F0208000BF48
:1012A000103A07D330B4B1E83810103AA0E838103B
:1012B000F9D230BC530724BFB1E80810A0E80810E9
:1012C00044BF51F8043B40F8043BD20724BF31F837
:1012D000022B20F8022B44BF0B7803707047121FBB
:1012E00017D35B0009D151F8043B20F8023B1B0CDB
:1012F000121F20F8023BF6D20BE051F8043B00F835
:10130000013B1B0A20F8023B1B0C121F00F8013B9B
:10131000F3D238BF121D521E24BF11F8013B00F852
:10132000013BF8D87047000010B5144600F002F8F1
:10133000226010BDC1F30A5343B14A0012F5001FE9
:1013400028D2A3F2FE32A1EB0251704750EA410CC1
:1013500020D001F0004C31EA0C01B1FA81F204BF57
:10136000B0FA80F3D2180B3AB2F120032CBF00FA86
:1013700003F1914041EA0C013EBFC2F1200C20FA7A
:101380000CF319439040524240F2FD33D21A01EB64
:1013900003517047002270474FF4001C1CEB410FB3
:1013A00094BF1CEB430F09E041EA030C50EA4C0CDC
:1013B00052EA0C0C03D2994208BF9042704714BF06
:1013C0008B42824270470000F0B540F2FF7581EA1F
:1013D000030C0CF0004C15EA11541DBF15EA13570D
:1013E000AC42AF42E5E0BC41C1F31301C3F31303C8
:1013F000801A994143F4801304D2641E400049418D
:1014000080185941C90241EA5051B1FBF3F603FB80
:101410001611A2FB0675D7EBC020A94102D2761E99
:1014200080185941C90241EA5051B1FBF3FE03FB58
:101430001E11A2FB0E75D7EBC020A94103D2AEF15D
:10144000010E80185941890241EA9051760546EA19
:101450008E2EB1FBF3F603FB1611A2FB0675D7EB3C
:101460008020A94102D2761E80185941C90241EA62
:1014700050514EEA060EB1FBF3F603FB1611A2FB28
:101480000675D7EBC020A94102D2761E80185941BB
:10149000C90241EA5051B1FBF3F703FB1711A2FB5C
:1014A0000735D3EBC020A94167F100070CBF00420C
:1014B00047F0010766F3D5274FEA1E31B80814F547
:1014C000806412DDBD0775F1004250EB0E5051EB08
:1014D000045111F5801F5CBF41EA0C01F0BD4CF0D6
:1014E0007F6141F0E0410020F0BDBD076D0840EA9A
:1014F0000E5041F48011D4F10104B4F120060ADA4F
:10150000C4F120060200E04001FA06F3E14018436E
:10151000B24015430EE0342C13DCC6F1200445EA3A
:1015200040056D0820FA06F2154321FA06F0A140A5
:101530000D43002175F1004250F1000051EB0C0108
:10154000F0BD00205FEA0C01F0BDCFB992185B41FD
:10155000B3FA83F704BFB2FA82F6BF190B3FB7F1B3
:1015600020062FBF02FA06F3BB40C7F1200622FA7D
:1015700006F638BF3343BA401CB1E419641E33E7A2
:101580007F4231F00041B1FA81F404BFB0FA80F635
:10159000A4190B3CB4F120062FBF00FA06F1A140BC
:1015A000C4F1200620FA06F638BF3143A0403C1BA8
:1015B0001AE7AC421ABF05EA1357AF4212E050EAED
:1015C00041061CBF52EA4306BFE750EA41073046D6
:1015D00061461CBF41EA0551F0BD52EA430C08BF09
:1015E000C143F0BD00204FF4001616EB410F98BF29
:1015F00016EB430F08BF16EB410F24BFC14305E0B4
:1016000016EB430F0CBF61464CEA0551F0BD0000DC
:10161000400D491840EA81200CD2490DA1F58061A6
:10162000491C40F0004005DBD1F11F0154BFC84008
:10163000C017704700207047014648B1B0FA80F1EA
:101640008840C91CC1F58461090501EBD021400522
:101650007047000070B44FF0004591EA030F40F16D
:101660006F806B40841A71EB030603D2001BB141FB
:10167000121973414FF4001C1CEB410F34BF7CEB7B
:10168000430442E00C0DA4EB1356352E4FDC45EA23
:10169000C323DB0A45EAC121C912B6F120050DDDDD
:1016A00063FA05F6EB4086EA0305124218BF45F0DF
:1016B0000105C01851F100010CD213E062FA06F5E1
:1016C000F2405540F3415A40B340F3405A4080182D
:1016D000594107D349085FEA30005FEA350528BF62
:1016E00045F0010501F58011420875F1004250F105
:1016F000000041EB04514E0016F5001F70BC38BFCE
:1017000070470020090D090570471CEB410F10D2EE
:1017100052EA43060BD0BCEB410F05D80C0DAB438E
:10172000661E342EB6DD02E0AB438018594170BC12
:10173000704770BC7047012000F0B6B870470000D9
:10174000841A71EB030604D26E40001BB1411219DA
:1017500073414FF4001C1CEB410F34BF7CEB43067C
:1017600082E00C0DA4EB1356362E7BDC012E45EAED
:10177000C32341DC43EA525312BFD20292025B08F8
:10178000240545EAC12141EA5051D2EBC0209941DC
:1017900025D407D1B0FA80F610FA06F162D0002005
:1017A000203608E0B1FA81F6B140C6F1200220FAF5
:1017B00002F21143B0404FEAF474B4EB465434F0F3
:1017C00001064FEA74040AD8D6F50016760D04F027
:1017D0000044F04061FA06F25040F1404840C00A2F
:1017E00040EA415021F0004128BF5FEA500550F126
:1017F000000044EBD12135E0DB0A45EAC121C90AEA
:10180000B6F120050EDD42EA0242120CC5F12006B7
:1018100003FA06F6EB4042EA06056D42984161F193
:1018200000010DE062FA06F5F240554063FA06FC4D
:1018300082EA0C02F3405A406D42904161EB030191
:1018400011F4801F05D1641E620502D06D00404175
:10185000494121F48011430875F1004350F1000023
:1018600041EB045170BC70471CEB410F15D223F0C3
:10187000004352EA43060BD04FEA4C0CBCEB410F3D
:1018800004D80C0D661E342EB7DDEBE7801A9941A3
:1018900050EA410608BF0021E4E708BF1CEB430FF4
:1018A00028BF6FF00001DDE780B5AFF30080024A8A
:1018B00011001820ABBEFBE726000200F8B50400BB
:1018C00016D004F13C05687820B900212970204623
:1018D00000F0FEFD00F066F801F061F90146606875
:1018E000DFF8D020904205D2DFF8CC00814205D24B
:1018F0000120F2BDDFF8C4008142F9D3DFF8C00057
:10190000B1FBF0F3206843606668964206D34FF45B
:10191000967043434FF47A76B3FBF6F327685B1C6B
:101920003B62491E6368934206D25B0000F034F8C4
:10193000042813D2042011E0A06820B903EB43036C
:1019400000F02AF805E01920434300F025F840F4A0
:10195000804001050CBF012040F400402168C861AF
:10196000E269206A0243206802602169E06801435D
:10197000206881606169A06901432068C1602068B6
:10198000016841F00101016000206860202068705A
:1019900000202063A870F2BDB1FBF3F0401CC0F33F
:1019A0000B007047242068702068016849084900CE
:1019B00001607047A186010080841E0000093D007F
:1019C00040420F00DFF80008E06270472DE9F84F51
:1019D000044604F13D022168DFF87489D1F81890BB
:1019E0004E694F685078DFF87C55DFF868A9DFF85A
:1019F00068B9DFF874C9102818BF40286ED116F0F6
:101A0000011F04F144032ED0B8053ED5507840287C
:101A100009D1D86818B91A6802F0FE0221E01868E6
:101A200040F0010026E02069B0F5804F0BD112781C
:101A3000212A03D1186800F0FE001CE01A6842F069
:101A40000102D2B20DE0D86820B900F0C6F842F029
:101A5000F00206E0D868012817D100F0BEF842F085
:101A6000F1020A6111E0DFF80409064205D0BA0567
:101A70000BD51868C0B2086107E016EA0C0F04D055
:101A8000B80544BF204600F07FFA19EA0B0F12D0C8
:101A900016EA0A0F07D0780505D52E4203D1204655
:101AA000BDE8F24F0BE12E4245D0B8055CD520468B
:101AB000BDE8F24F67E116EA080F07D0780505D5B3
:101AC0002E4203D12046BDE8F24FA7E12E4232D08C
:101AD000B80549D52046BDE8F24FF9E116EA0C0FEA
:101AE00012D0B8051AD58A6989690020530758BFF2
:101AF00001200A060146204654BFE268A269BDE8FB
:101B0000F84F92B201F075B8DFF86408064205D0CC
:101B1000BB0503D52046BDE8F24FE9E219EA0B0FF9
:101B20002CD016EA0A0F1CD078051AD52E4218D1EF
:101B30001378608D00284ED0606A451C656200787D
:101B4000086100F050F808BF292B44D100F051F88B
:101B500021202063282010702046BDE8F24F01F0BC
:101B600049B82E4237D0B80535D5608D002832D01F
:101B7000606A421C62620078086129E016EA080F78
:101B80001BD0780519D52E4217D11378608D10B36C
:101B9000606A451C65620969017000F024F808BF9D
:101BA0002A2B18D100F025F822202063282010705D
:101BB0002046BDE8F24F01F0EABB2E420BD0B8053B
:101BC00009D5608D38B1606A421C62620969017092
:101BD000608D411E6185BDE8F18F1A681204D20D37
:101BE00002F006027047608D411E6185608D0028FD
:101BF00070472068416821F4806141607047F8B502
:101C00000446DFF870172068456946680D420DD01C
:101C1000F20518D5216C41F0010121646FF4807246
:101C200042612068016841F40041016015F4813F80
:101C300009D0F0053CD5206C40F0020020646FF420
:101C400000712068416115F4823F24D0F0052FD542
:101C500004F13D004778618D0278236B202F08BF87
:101C600000290BD1212A18BF292A03D0282A08BF0E
:101C7000212B03D1204600F0A9FA0CE0216C41F0A1
:101C8000040121644078102801D100F067FB6FF453
:101C900080602268506115F4843F09D0F00507D5B3
:101CA000206C40F0080020646FF4006122685161EC
:101CB000206C18B12046BDE8F240C3E2F1BD38B552
:101CC00000F13D0213785478C56A018D002908BFE0
:101CD000212B16D1042D1EBF082DDFF89C168D4236
:101CE00002D000F07EF809E000F087F804D100236C
:101CF000537001F04BFC44E00021517001F047FCAF
:101D00003FE0212B03D0402C08BF222B39D1418D3D
:101D100011B900F0D1F834E0517840292FD100F109
:101D20004803996889B900685968012905D11A687A
:101D3000D2B202619868801C05E019680904090E96
:101D400001619868401C98601BE09968012907D1DF
:101D50001A680068D2B202619968491C996010E063
:101D6000996802290DD11378222B05D100680168EA
:101D700041F48071016004E01278212A01D100F061
:101D800026F8002032BD10B5C36A00F13D02147878
:101D9000212C1AD1418D11B100F019F815E0042B56
:101DA0001EBF082BDFF8D0158B4202D000F019F8C7
:101DB00009E000F022F804D10023537001F0E6FBA3
:101DC00003E00021517001F0E2FB002010BD416AE8
:101DD0004A1C4262026809781161418D4A1E42859F
:101DE000704701684B6823F4E0634B601121016385
:101DF0000021517020211170704701684B6823F455
:101E0000E0634B6001680B6843F400730B600021D2
:101E100001632021117051784029704710B500F1FD
:101E20003D010A78222A45D1428D042A02D300F0CE
:101E30009BF83FE0022A18BF032A13D10168C26A47
:101E40000B68022A08D023F480630B6001680A68DB
:101E500042F400620A6002E043F480630B6000F029
:101E60002BF827E00268C36A022B04D0146824F41C
:101E70008064146003E0136843F48063136000F02F
:101E800021F8426A531C436203681C691470428D36
:101E9000531E4385002220230B7002634A78402A98
:101EA00004D100234B7001F073FB03E000224A7061
:101EB00001F06FFB002010BD0068416821F48061D3
:101EC000416070470268536823F4E06353607047D1
:101ED00080B5C16A438DDFF8A024032B07D1042904
:101EE0001CBF0829914237D100F0F3F834E0438D4C
:101EF000022B31D104291CBF082991420ED002685F
:101F0000022904D0116821F48061116003E0136894
:101F100043F48063136000F031F806E000F02EF81F
:101F200001680A6842F400720A6000F01DF800F0CF
:101F30001BF800F13D0120220A70002202634A785A
:101F4000402A04D100234B7001F022FB06E000225E
:101F50004A7001F01EFB01E000F006F8002002BD0F
:101F60000000000004000100416A4A1C426202684D
:101F700013690B70418D4A1E4285704701684A689B
:101F800022F440724A60704738B500F13D014A784A
:101F9000C36A046B0D78222D40F08580016D002905
:101FA00008BF402A02D1002200927EE0016D002984
:101FB00004BF0269B2F5404F07D100F081F842F446
:101FC00080720A60016D491C6BE0418D11B90022DD
:101FD00000922BE0418D012933D1DFF89C239342FD
:101FE0000DD100F076F801684A68130510D400227C
:101FF00000924B6900938A690092009B1CE0042BBD
:102000001CBF082B122C0DD00168C26A022A04D012
:102010000B6823F480630B6040E00A6842F480623E
:102020000A603BE000F055F80021009101684A6920
:1020300000928B690093009A0A6842F400720A6069
:102040002EE00168428D022A1CD1C36A022B0AD0FD
:102050000A6842F400620A60002100F031F822F4BC
:1020600080620A6005E00B6843F480630B6000F057
:1020700036F801684A68130512D54A6842F480525E
:102080004A600DE00B6843F480630B6001684A68A6
:10209000130503D54A6842F480524A6000F01FF8E5
:1020A0000021016504E000210091006800F002F8C1
:1020B000002032BD4169009180690090009970470D
:1020C000009101684A6900928B690093009A0A683E
:1020D000704701680A6822F480620A607047002134
:1020E000009101684A69009289690091009A7047DD
:1020F0007CB500F13D02137801684C6824F4E0647B
:102100004C600021009101684C6900940D6845F015
:1021100001050D60009901680C6824F480640C606E
:10212000046861680D050DD51578222D1CBF117846
:102130002A2903D1856B29684E6802E0416B0D683E
:102140006E684685418DD1B16569690707D5416AD9
:102150004D1C456224690C70418D4C1E44850168FC
:102160004C69650607D5446A651C4562096921709A
:10217000418D4C1E4485016C41F004010164016CE9
:1021800011B100F05FF81CE0282B1CBF2A2B292B73
:102190000BD1DFF8E411C16200210163202111702D
:1021A0000021517001F0F6F90BE0016B222918BFF4
:1021B000222B06D10023036320211170537001F0FC
:1021C000E6F8002076BD00000000FFFF38B500F102
:1021D0003D016FF480620B78C46ADFF89C51042CD7
:1021E00014BF082C282B15D1C56203685C6824F441
:1021F000E0645C6003685A610268146824F48064D7
:1022000014600022026320220A7000224A7001F04A
:10221000C1F915E0212B11D1C562036320230B7096
:1022200000234B7001684B6823F4E0634B60016846
:102230004A61FFF74EFF00F0DDFC01E000684261FB
:10224000002032BD38B5044604F13D052878292820
:1022500018BF2A2804D100202063282028700BE012
:102260002878602805D02168486801055CBF2021D6
:10227000297000202063687000F05CF820684168D5
:102280000A0523D5416821F400614160606B0FF2BB
:10229000ED0190F82120012A09D04163606B01F023
:1022A000BEF9002829D000F04BF8606B0BE0A06B62
:1022B0004163A06B01F0B3F9F8B1206800F031F888
:1022C00000F03EF8A06B416B884716E02978602942
:1022D0000ED120222A700022226400F022F8206809
:1022E0000168490849000160204601F003FB04E051
:1022F00000F017F8204601F0FEFA287828280FD1C0
:10230000216C48070CD5FFF75DFB002020632020DF
:102310002870002068702046BDE8324001F03AB9CC
:1023200031BD41694A0604D5616A4A1C626200698E
:10233000087070472068016821F4006101607047EF
:102340002068016849084900016020202870704712
:1023500040000100800001000400100020680168B6
:1023600041F40071016070470200010008000100A3
:1023700010000100000101000000FFFF406A016839
:102380000A6822F480620A6000214185426B516331
:10239000826B516300F13D010B78602B0BD1202241
:1023A0000A7000224A70026401680A6852085200EA
:1023B0000A6001F09FBA20230B7000224A70016866
:1023C0000A68520852000A6001F095BA80B5DFF839
:1023D000C802016841F001010160026802F00102D7
:1023E00000920099416841F080514160406800F0DE
:1023F000805000900098032001F08DFA0022002107
:102400006FF00B0001F094FA002200216FF00A0037
:1024100001F08EFA002200216FF0090001F088FA25
:10242000002200216FF0040001F082FA0022002156
:102430006FF0030001F07CFA002200216FF0010030
:1024400001F076FA002200214FF0FF3001F070FA1F
:102450009248016821F0E06141F00071016001BD26
:1024600000B585B000F02DF816D1116841F4007167
:1024700011600323126802F400720492802204990E
:1024800000920193694601F0ABFA302003210090DD
:1024900001916946824810E0824B99420FD1116840
:1024A00041F4806111600323126802F48062049297
:1024B0006022049900920193694601F091FA05B0F7
:1024C00000BD0168784B7948734A99427047000013
:1024D000F0B5044685B020687549884241D1C021D5
:1024E0001220019102900322049201A97148724DB9
:1024F000DFF8C86177A701F073FA7148016841F409
:102500000011016005F11401006800F40010009052
:102510000098316000207060B06000F024F84FF443
:102520004050F061304601F037F818B1DC213846F0
:1025300001F012F81020A6637462624E70600020F1
:10254000B060356000F00FF84FF40050F061304695
:1025500001F022F818B1EC21384600F0FDFF666367
:10256000746205B0F0BD8020F060002030617061C1
:10257000B061704781B00068534A4749904208D122
:10258000086840F400600860096801F40061009187
:1025900015E0B0F1804F07D1486840F00100486075
:1025A000486800F0010009E0484A904208D14868B4
:1025B00040F004004860486800F004000090009873
:1025C00001B0704700684249884200D0704700B5AA
:1025D0003B4885B0016841F0020101604FF4707121
:1025E000006800F002000090002200982C48019141
:1025F0000292039201A901F0F3F92848016841F021
:10260000E06141F440610160002200211D2001F0E1
:102610008FF91D2001F0A9F905B000BD1FB50168B3
:10262000294A2248914208D14FF470610091022258
:10263000032301920393694622E0B1F1804F1D4CC0
:1026400017D103210091022203910192694601F002
:10265000C7F94FF4406000F016F801F0C1F90F48D7
:10266000016821F4407141F0E06141F400710160C2
:102670001FBD1648814205D14FF4407000F003F8A9
:1026800001F0AEF91FBD00900221032001910390DB
:1026900069462046704700001810024004000140BF
:1026A00000100140002801400024014000080140C2
:1026B00000540040000C01406C000240E402002085
:1026C0001C10024028030020002C0140000800409C
:1026D00000040040433A5C55736572735C73657522
:1026E0006E676879756E5C4465736B746F705C447B
:1026F000722E6F6E655C44722E6F6E655C41524D3A
:102700005C44722E6F6E655C5372635C73746D33E0
:1027100032663178785F68616C5F6D73702E63002C
:102720002DE9F8430646DFF88C543078C1074AD5C6
:10273000686800F00C00042807D0686800F00C00FE
:1027400008280BD16868C10308D5296888033AD5E1
:102750007068002840F0C080012069E17068B0F521
:10276000803F0FD038B9296821F48031296028686A
:1027700020F4802009E0B0F5A02F296807D141F4AA
:1027800080212960286840F48030286006E021F428
:10279000803129602A6822F480222A60706868B13A
:1027A00001F014FA04462968880300F1958001F0CD
:1027B0000DFA001B6528F6D3032039E101F006FA73
:1027C00004462868810340F1878001F0FFF9001B6F
:1027D0006528F6D3F0E701F0F9F9001B022840F272
:1027E000AA80E9E7306970B10121396001F0EEF9A2
:1027F00004462868810700F1DC8001F0E7F9001B3E
:102800000228F6D9D8E7386001F0E0F904462868D4
:10281000810765D501F0DAF9001B0228F7D9CBE76B
:10282000086001F0D3F90446686A810777D501F0A2
:10283000CDF9001B0228F7D9BEE708B9286A09E0DC
:102840000528286A06D140F004002862286A40F072
:10285000010005E0400840002862286A20F00400DA
:10286000286241F28938F06868B101F0AFF9814619
:10287000286A810700F1AA8001F0A8F9A0EB0900FD
:102880004045F5D398E701F0A1F98146286A810710
:1028900040F19C8001F09AF9A0EB09004045F5D386
:1028A0008AE701F093F9001B022840F2A28083E737
:1028B00001F08CF9001B022840F2B5807CE700F0A3
:1028C000B9F804462868810140F1B18001F07EF931
:1028D000001B0228F6D96FE73078DFF8E472810731
:1028E0001BD5686810F00C0F09D0686800F00C0068
:1028F00008287FF477AF6868C1033FF573AF296894
:10290000880703D5306901287FF426AF29687069EC
:1029100021F0F80141EAC0012960317808071DD58E
:10292000B069DFF8A01200283FF47AAF01220A60F4
:1029300001F04CF90446686A81077FF54CAFDFF877
:1029400078120868C0084FF47A72B0FBF2F2009275
:1029500000BF0098411E00280091F9D1307841074E
:1029600039D5E8690024C10009D4E86940F08050F5
:10297000E8610124E86900F0805000900098DFF8D9
:102980004882D8F80010C8051BD4D8F8000040F4DD
:102990008070C8F8000001F019F98146D8F80010DD
:1029A000C8050ED401F012F9A0EB09006528F5D393
:1029B00002E72868716920F0F80040EAC100286049
:1029C000ABE7F06801287FF438AF3FE71CB1E86956
:1029D00020F08050E861F06948B3696801F00C01AB
:1029E00008293FF4B9AE02287FF469AF00F022F85D
:1029F0000446286881013FF554AF306AB0F5803F46
:102A000005D16968B06821F40031014369606968E3
:102A1000306A21F474110143706A01436960012036
:102A200000F009F80446286881017FF541AF0020D5
:102A3000BDE8F2830020386601F0C8B82DE9F843FC
:102A4000624F05463868894600F00700484502D2C3
:102A500000F07AF86CD12978564C880705D5616862
:102A6000A86821F0F001014361602878C10757D5BB
:102A70006868012802D121688A0303E0022803D193
:102A800021688A0103D453E02268910750D5616818
:102A9000890840EA8100606041F2893801F096F8C7
:102AA0000646686801280BD1606800F00C00042815
:102AB00036D001F08BF8801B4045F5D303202DE084
:102AC000022837D1606800F00C00082828D001F0F7
:102AD0007DF8801B4045F5D3F0E72878410705D500
:102AE0006168E86821F4E0610143616028780107CA
:102AF00006D56068296920F4605040EAC100606032
:102B000000F02CF862683249C2F30312895C2A4A49
:102B1000C8401060002001F05FF80020BDE8F2839B
:102B2000386800F007008145D7D200F00DF8D4D006
:102B30000120F3E7606810F00C0FF1D001F046F8C7
:102B4000801B4045F6D3B9E73968C90849EAC10195
:102B50003960386800F00700484570471D4917483C
:102B60000A6802F00C03082B00D0704710B500BFB4
:102B70001BA4C2F38343D203E35C09D5096800BFF9
:102B80001BA2C1F340415843515CB0FBF1F010BDB2
:102B900018461149484310BD074800687047064869
:102BA0000C4A006813680D49C3F30222FFE7895CF1
:102BB000C8407047001002407001002000127A00E7
:102BC0000000424280044242007000400020024067
:102BD000F44A00000410024000093D00104D0000BE
:102BE00002030405060708090A0B0C0D0E0F10104E
:102BF00001027047704700002DE9F04F95B001F0D9
:102C00000BF800F0AFF900F054FBDFF86408DFF8D0
:102C100064A8016841F001010160006800F0010052
:102C20000090009800F0E1F90AF58070DFF848188C
:102C30000161DFF84818416100218161FE21C16115
:102C40004FF480410162002141628162C1628021B2
:102C500001630AF58870FEF731FE00B1FEE700F06F
:102C600022FA00F073FA00F0A6FA00F0F3FA00F08E
:102C7000E1F9002200211F2000F05AFE1F2000F081
:102C800074FE00220021202000F052FE202000F0DF
:102C90006CFE00220021102000F04AFE102000F0FF
:102CA00064FE00220021112000F042FE112000F0FD
:102CB0005CFE0FF2582800F04BF9DFF8C447002102
:102CC00000F042F9042100F03FF900F041F9DFF88B
:102CD000B467082106F11C0000F0D2FF0C2106F1B8
:102CE0001C0000F0CDFFDFF8A057082105F11C0003
:102CF00000F0C6FF0C2105F11C0000F0C1FF00F040
:102D000027F90C2100F020F900F022F9DFF87C7798
:102D1000002100F020F9042100F01DF9082100F045
:102D20001AF90C2100F017F9DFF864B7002200F05F
:102D300006F9DFF86017DFF8609740F2DC500860B2
:102D400000F006F90AF5807014907EE04FF480419F
:102D500000F0F7F81498006800F001F92CBF012288
:102D600000224FF4004100F0ECF8207E012807D14A
:102D70006168032204F10C0000F0C2FB0020207601
:102D8000307E012807D17168032206F10C0000F0A3
:102D9000B7FB00203076387E012807D179680322FE
:102DA00007F10C0000F0ACFB00203876287E0128EB
:102DB00007D16968032205F10C0000F0A1FB002097
:102DC00028766068DFF8D48601F09EFA00F0AEF84D
:102DD00001F0BEFAA060706801F096FA00F0A6F863
:102DE00001F0B6FAB060786801F08EFA00F09EF853
:102DF00001F0AEFAB860686801F086FA00F096F863
:102E000001F0A6FAA8600FF25478A06801F07CFAED
:102E100000F090F8B0680FF2507801F075FA00F009
:102E200089F8B8680FF24C7801F06EFA00F082F879
:102E3000A8680FF24C7801F067FA00F07BF8D4A094
:102E400001F0BAFA642001F0CBFABAE8050011A942
:102E500005C15AF808290A60214600F063F884B0D9
:102E60000AF1300100F05AF80FBC00F08CFA0AF1B8
:102E70000C000AC811AA0AF158080AC203681360B4
:102E8000314600F04FF884B00AF1680100F046F8CE
:102E90000FBC00F078FA0AF1180000F039F8394652
:102EA00000F040F884B00AF1A00100F037F80FBC40
:102EB00000F069FA0AF1240000F02AF8294600F02F
:102EC00031F884B00AF1D80100F028F80FBC00F006
:102ED0005AFAD8F8000000F042F834BF002201226C
:102EE00000F02DF8D8F8380000F039F834BF00228F
:102EF00001224FF4005100F024F8D8F8700000F0DF
:102F00002EF834BF0022012220E7000048690A00A1
:102F10000AC811AA0AC203681360704768463822BB
:102F2000FEF7BEB90AA81C22FEF7BAB942464B46C4
:102F3000FEF7D4B802460B46404601F03DBA4FF4C6
:102F40008051584600F01DBE04F11C0000F098BEF0
:102F5000404601F031BA07F11C0000F0C9BE002163
:102F600001F052BA00B5002195B001200D910B90EF
:102F7000022112914FF480300C90012213904FF4F3
:102F8000E0110F9214910BA8FFF7CAFB00B1FEE706
:102F90000F2102200091019000214FF480600291E6
:102FA0000390049168460221FFF748FD00B1FEE757
:102FB000022005904FF40041079105A801F036FA70
:102FC00000B1FEE7FFF7E8FD4FF47A71B0FBF1F0D6
:102FD00000F0D5FC042000F0E6FC002200214FF0B8
:102FE000FF3000F0A5FC15B000BD1FB5DFF8B04400
:102FF000DFF8B00400F049F803202061204601F01A
:1030000089FA00B1FEE70E20012100F0B8F9204650
:10301000694601F007FB00B1FEE70F2000F029F838
:1030200001F000FB00B1FEE707200090032100F053
:1030300026F819E01FB5DFF87044DFF8700400F0DF
:1030400024F802202061204601F064FA00B1FEE776
:1030500005200090012100F012F801F0E3FA00B120
:10306000FEE7062000F005F801F0DCFA00B1FEE70B
:103070001FBD022100900191204669467047002043
:103080000191029069462046704720604FF480709D
:10309000A0600120E060002060614FF46020E061EA
:1030A000002060607047DFF8080438B5DFF8D043CF
:1030B000E0614720206240F2F77500206062E06224
:1030C0002063606390B0A56200F06CF800F0BEF879
:1030D0000791089007A904F11C0001F07EFB00B1E4
:1030E000FEE7602000904FF4807100200290039072
:1030F0000591042004900195002006900022694665
:1031000000F055F800F09BF800F042FF00F090F856
:1031100000F03EFF00F09AF8049005910C226946F9
:1031200000F045F800F092F80A910C9109904FF4E4
:1031300000510B900D900E910F9009A904F11C0005
:1031400001F01EFB00F0A5F811B030BD4FF080403B
:1031500018B5CC4CE0614720206289B000F01AF825
:1031600000F09DF800B1FEE760200021029003917D
:103170000020042104900691002200F017F800B10D
:10318000FEE7042200F012F800B1FEE775E000004F
:103190000A0000000020606240F2F770A062002088
:1031A000E062606304F11C0000F05DBD02A904F15F
:1031B0001C0000F0EDBEBF4810B5B44CE061082023
:1031C000206286B00020606241F61F40A0620020AD
:1031D000E062606304F11C0000F075FD00F036F859
:1031E0000491059004A904F11C0001F0F6FA00B165
:1031F000FEE701210191009000210290039100223D
:1032000000F011F800F01BF800F040FE00F010F89C
:1032100000F03CFE00B1FEE70C2200F004F800B123
:10322000FEE706B010BD694604F11C0000F02EBE9A
:1032300000B1FEE70822694604F11C00704700B1A6
:10324000FEE70422694604F11C00704700B1FEE766
:1032500000217047984818B58B4CE06147202062E8
:1032600089B0FFF797FF00F01AF8FFF7EFFF03911F
:10327000049160200421029006910822FFF796FF36
:1032800000B1FEE70C22FFF791FF00F002F80AB050
:1032900010BD00B1FEE704F11C00FFF7BFB900B19B
:1032A000FEE7002100910190694604F11C0001F045
:1032B00094BA78B58148824C754D85B0016841F06B
:1032C0002001016041F20C06026802F02002049223
:1032D0000499016841F010010160026802F01002D7
:1032E00004920499016841F004010160026802F04F
:1032F0000402049200220499016841F0080101606F
:103300003146006800F0080004900498204600F060
:1033100038FC00224FF47041284600F032FC0820AF
:1033200000F02CF86946674800F05AFB0120019034
:10333000002103200291039000966946204600F088
:103340004FFB4FF4704001210090019100200321B8
:10335000029003912846694600F042FB042000F0E9
:103360000DF86946584800F03BFB382000F006F89D
:103370002846694600F034FB06B070BD002100907D
:103380000191029170470FB4109804B070477047D4
:1033900038B50168474CA14267D1017F49480129EE
:1033A00014D1374D616B2980402100F0E4FB18B146
:1033B00000F092F8012145E00022012100F090F890
:1033C00000F084F828BF01F5E15148E0022914D14A
:1033D0002C4DA16B2980802100F0CDFB18B100F0AD
:1033E0007BF802212EE00022022100F079F800F0A3
:1033F0006DF828BF01F5E15131E0042915D1234DC5
:10340000E16B29804FF4807100F0B5FB18B100F03A
:1034100063F8032116E00022032100F061F800F0B8
:1034200055F828BF01F5E15119E008291DD1164DC5
:10343000216C29804FF4007100F09DFB30B100F049
:103440004BF804212046BDE838404BE0002204211F
:1034500000F046F800F03AF828BF01F5E151081AEB
:1034600001F0E0F968600120287631BD000000001D
:10347000141002400000002000540040801A060092
:1034800074010020D0010020880200202C020020BE
:10349000000C01403C0800409999A93F9A999999DC
:1034A0006C030020002401409C0300200028014000
:1034B000002C0140000400400008004018100240A9
:1034C000000801400010014000140140688829886C
:1034D0008842298868887047288868800222704757
:1034E0002046FFE7491E02238900002A03FA01F162
:1034F000026A89B20CBF22EA0101114301627047DE
:103500002DE9F34115468046002600276C1E08E091
:1035100058F827004FF07E5101F096F948F827003F
:103520007F1CA742F4DB019808EB8501002741F8D6
:10353000040C06E058F82700314601F085F90646EC
:103540007F1CAF42F6DB284601F06CF9014630469D
:10355000BDE8FC4101F0EAB9FEE700006368303ADB
:1035600020252E33660900006368313A20252E336A
:10357000660900006368323A20252E336609000090
:103580006368333A20252E33660900007047704780
:10359000704770477047000030B508B9012030BD52
:1035A0000268DFF80C138A4200F1280306D2DFF824
:1035B000041300F02DF8DFF8001305E0DFF8FC122B
:1035C00000F026F8DFF8F8125961022180F8211086
:1035D000146841686FF30D140C4381680C43C16893
:1035E0000C4301690C4341690C4381690C43C16977
:1035F0000C4314600021196059609960D960196109
:10360000012180F82110002180F82010002030BD19
:103610008C181425B4FBF5F4A4009C617047F8B530
:1036200090F821200024022A00F1340103D0042064
:10363000486001245FE00268DFF88862136823F0C5
:103640000E0313604FF48077026815686D086D00F3
:1036500015604FF480320368B3424FF4805519D996
:10366000DFF84C62B34208BF012210D0DFF8586285
:10367000B34208BF10220AD0DFF85062B34208BF3D
:103680003A4604D0DFF84862B34208BF2A46DFF862
:10369000443227E0DFF840C263451CD0DFF83CC26B
:1036A00063451AD0DFF838C2634518D0DFF83472AA
:1036B000BB420EBF2A46DFF83052AB4210D0DFF8D3
:1036C0002C52AB4208BF4FF4801209D0B34207D14D
:1036D0004FF0807204E0012202E0102200E03A463E
:1036E000DFF80C321A60012280F8212080F8204097
:1036F000096801B188472046F2BD2DE9F84F00F175
:10370000280204275169744BD1F800E004686D4920
:1037100025689669DFF8BC81DFF8B491DFF8ACA1C9
:10372000DFF8A4B1DFF888C1B7401EEA070F4AD01E
:103730006F0748D52568AD0603D4256825F0040534
:1037400025604FF4802407688F424FF480454FF482
:10375000806611D9674508BF04240AD05F4508BFB9
:10376000402406D0574508BF344602D04F4508BF15
:103770002C46C8F8004020E09F4217D0574B9F428C
:1037800016D0574B9F4215D0564B9F420EBF2C462A
:10379000554B9F420FD0554B9F4208BF4FF48004BA
:1037A00009D08F4207D14FF0806404E0042402E086
:1037B000402400E034464E490C605168002974D022
:1037C000BDE8F44F08470227B7401EEA070F4FD065
:1037D000AF074DD52568AD0606D4256825F00A0546
:1037E0002560012480F821404FF4003407688F429F
:1037F0004FF400554FF4007611D9674508BF0224F5
:103800000AD05F4508BF202406D0574508BF34467C
:1038100002D04F4508BF2C46C8F8004020E09F4228
:1038200017D02E4B9F4216D02D4B9F4215D02D4BBB
:103830009F420EBF2C462C4B9F420FD02B4B9F42DA
:1038400008BF4FF4001409D08F4207D14FF0007425
:1038500004E0022402E0202400E0344624490C6005
:10386000002180F820101168F9B1BDE8F44F084735
:10387000082101FA06F61EEA060F16D0290714D50C
:10388000216821F00E012160012391698B4051696B
:103890004B6001230021136180F8201080F8213053
:1038A000916811B1BDE8F44F0847BDE8F18F000001
:1038B00008040240F8FFFDBF00000240F8FBFDBF16
:1038C00000040240800002401C0402403004024018
:1038D0004404024004040240080002401C0002406C
:1038E0003000024044000240580002406C00024098
:1038F00004000240704770470901020081B006D5FC
:103900002F4A00F00F00104400F8041C01E02D4B7A
:10391000195401B070472C4A13684FF6FF0100029A
:103920000B4000F4E06018432849084310607047DA
:1039300038B5254B1C68C4F30223C3F10704052CDA
:1039400028BF04241D1D072D34BF0023DB1E0125C5
:1039500005FA04F4641E2140994005FA03F35B1E46
:103960001A401143BDE83440C6E7012200F01F01B0
:10397000174BFFE78A40400943F82020704710B5F5
:10398000401EB0F1807F01D3012010BD114C60605A
:103990000F214FF0FF30FFF7AFFF0022A26007209A
:1039A0002060002010BD04280A4904D1086840F0B6
:1039B0000400086070470A6822F004020A60704739
:1039C00018ED00E000E400E00CED00E00000FA0576
:1039D00000E100E010E000E000F000B870470000F7
:1039E0002DE9F84F83460F46002080466849694A12
:1039F000694B4FF00F094FF0010A3C680AFA08F6CC
:103A000006EA040EB64540F0AE807C683CB3012C5B
:103A10001AD0022C1DD0032C2ED0112C16D0122C13
:103A20001AD05E4DAC421CBF5D4DAC4217D05D4D0F
:103A3000AC421CBF5C4DAC4211D05C4DAC421CBFD3
:103A40005B4DAC420BD018E0F86816E0F868001D3A
:103A500013E0F868083010E0F8680C300DE0B86842
:103A600008B9042009E0012819BF0820CBF8146028
:103A70000820CBF8106000E00020BEF5807F03D264
:103A8000DC464FEA880404E0A8F108040BF1040CBA
:103A9000A400DCF8005009FA04F6B54300FA04F477
:103AA0002C43CCF800407C68E4005CD51C6844F0F2
:103AB00001041C604FEA980C1D6805F00105009593
:103AC000009C52F82C604FEA880404F00C0409FAB8
:103AD00004F526EA0505374EB34508BF002618D081
:103AE000354EB34508BF012613D0344EB34508BF49
:103AF00002260ED0324EB34508BF032609D0314E00
:103B0000B34508BF042604D02F4EB3450CBF05268D
:103B1000062606FA04F42C4342F82C406FEA0E06FF
:103B20007C68E50304D50D684EEA05050D6002E0EA
:103B30000C6834400C607C68A5034C684CBF4EEAAE
:103B4000040434404C607C68E5028C684CBF4EEA4B
:103B5000040434408C607C68A502CC684CBF4EEAFB
:103B600004043440CC6008F10108B8F10F0F7FF66F
:103B700044AFBDE8F18F8068084018BF0120C0B293
:103B8000704781B002B90904016101B070470000BB
:103B9000000401400800014018100240000011100C
:103BA000000012100000211000002210000031104F
:103BB0000000321000080140000C014000100140DC
:103BC0000014014000180140001C014001484068F9
:103BD000704700BF6401002038B50D4D0D4A2978AB
:103BE00004464FF47A70B0FBF1F11068B0FBF1F0CD
:103BF000FFF7C5FE50B9102C08D2002221464FF025
:103C0000FF30FFF795FEAC60002032BD012032BDD1
:103C1000640100207001002080B50748016841F070
:103C2000100101600320FFF776FE0020FFF7D4FFAC
:103C3000FEF7CCFB002002BD00200240022068708D
:103C4000211D206800F01BFA01206870002032BDA1
:103C500003D1416C41F400414164026842F0010229
:103C60000260002016BD38B5040001D1012032BD2C
:103C700000F03AF818B900F033F8FEF77BFCDDE706
:103C80001CB500F007F800F019F81CBFDFF8981019
:103C90008842DDE704460122206800F029BB206845
:103CA000C26842F0080270472068C26842F004020D
:103CB00070472068C26842F0020270472068DFF84F
:103CC0006C108842704738B5040001D1012032BD24
:103CD00000F00AF818B900F003F8FEF773FCADE73E
:103CE000002129702046704704F13C056878704730
:103CF00010B5044608000BD004290CD008290DD0BB
:103D00000C2901BF2068C36843F01003C36008E0BA
:103D1000FFF7CFFF04E0FFF7C7FF01E0FFF7BFFFAA
:103D2000C2602068012204E000340140002C014000
:103D3000206800F0DDFA2068016841F001010160AF
:103D4000002010BD10B50446206801698A0715D50A
:103D5000C1688A0712D56FF0020202610121217742
:103D6000806910F0030F204602D0FFF711FB03E03B
:103D700000F05AFE00F087F80020207720680169E3
:103D80004A0715D5C1684A0712D56FF004020261CF
:103D900002212177806910F4407F204602D0FFF78E
:103DA000F7FA03E000F040FE00F06DF80020207705
:103DB000206801690A0715D5C1680A0712D56FF096
:103DC0000802026104212177C06910F0030F204628
:103DD00002D0FFF7DDFA03E000F026FE00F053F812
:103DE0000020207720680169CA0615D5C168CA0677
:103DF00012D56FF01002026108212177C06910F41A
:103E0000407F204602D0FFF7C3FA03E000F00CFE2B
:103E100000F039F80020207720680169CA0708D52A
:103E2000C168CA0705D56FF001020261204600F0A3
:103E3000FCFD206801690A0608D5C1680A0605D597
:103E40006FF080020261204600F0F0FD20680169F9
:103E50004A0608D5C1684A0605D56FF040020261DE
:103E6000204600F0E4FD206801698A060AD5C16891
:103E70008A0607D56FF0200202612046BDE8104097
:103E800000F0D6BD10BD204600F0D3BDF8B500F05F
:103E9000E7F801D10220F2BD00F0E9F882B9EB6841
:103EA0006A682968306800F0D2F93068816921F0C9
:103EB0000C01816131688A69A86802438A6164E003
:103EC000042A10D1EB686A682968306800F0F6F9B6
:103ED0003068816921F4406100F0BEF8AA6841EAC7
:103EE0000221816151E0082AE9686A682B6827D1BC
:103EF0003768386A20F480703862090107F11C00C5
:103F000001F0F001D0F800C0D7F820E04FEA9C0C97
:103F100042EA8C0222F0F002114301601B022EF4EF
:103F2000206003F4206303433B623068C16921F0E1
:103F30000C01C1613168CA69A8680243CA6124E002
:103F400030681C300903476827F48057476001F444
:103F500070410768D0F804C027F4407747EA022789
:103F600027F47047394301601B032CF4005103F41C
:103F700000530B4343603068C16921F4406100F095
:103F800067F8AA6841EA0221C1610120607073E00C
:103F900070B500F065F801D1022070BD00F067F83F
:103FA00032B1042A17D0082A28D00C2A39D04AE086
:103FB0003068294600F09DF83068816941F00801B9
:103FC00000F04AF821F00401816131688A692869AA
:103FD00002438A6137E03068294600F0B3F8306860
:103FE000816941F4006100F037F821F4806100F04C
:103FF00033F82A6941EA0221816124E030682946C8
:1040000000F0D0F83068C16941F0080100F020F8F4
:1040100021F00401C1613168CA6928690243CA619B
:1040200011E03068294600F0EFF83068C16941F4CA
:10403000006100F00DF821F4806100F009F82A69B0
:1040400041EA0221C161012060700020207070BD32
:10405000C1613068C16970478161306881697047AA
:10406000064606F13C040D462078012870470121E0
:10407000217002206070704700202070F2BDF0B502
:10408000DFF824C2894F0368894C8A4D8A4E604507
:1040900018BFB84208D0B0F1804F18BFB04203D06B
:1040A000A84218BFA0420DD14A6823F07003134301
:1040B000604518BFB84207D0B0F1804F1CBFB04276
:1040C000A84201D0A04203D1CA6823F4407313432D
:1040D0004A6923F080031343036060458A68C26223
:1040E0000A68826212BFB842096901630121416115
:1040F000F0BDF0B5026A6C4F6C4E5208520002627D
:10410000056A4368846900F079F825F002051543D3
:10411000B84218BFB04207D1CA6825F00805154358
:10412000B84225F0040501D0B04205D14A6923F414
:10413000407313438A691343436084614968416350
:104140000562F0BDF0B5026A574E22F0100202621D
:10415000B042056A436884690A6824F4E64444EA84
:1041600002248A6825F0200545EA02154F4A18BF47
:10417000904208D1CF6825F0800545EA0715B04286
:1041800025F0400501D0904206D14E698A6923F49A
:104190004063164343EA8603436084614968816350
:1041A0000562F0BDF0B5026A3F4E22F480720262F1
:1041B000056A4368C46900F021F825F4007545EAF2
:1041C00002253A4AB04218BF904208D1CF6825F480
:1041D000006545EA0725B04225F4806501D090428C
:1041E00006D14E698A6923F44053164343EA061305
:1041F0004360C4614968C1630562F0BD0A6824F088
:10420000730414438A68704770B5026A264E22F41C
:1042100080520262B042046A4268C3690D6823F4A6
:10422000E64343EA05238D6824F400541CBF1F4E67
:10423000B04244EA053404D14D6922F4804242EA96
:1042400085124260C36149680164046270BD70B543
:10425000046A154E640864000462B0428469056A09
:104260001CBF124EB0420BD0B0F1804F1CBF124E9B
:10427000B04205D00F4EB0421CBF0D4EB04203D12C
:10428000A40842EA840201E044F001021B0122F08A
:10429000F00203F0F0031A4325F00A0501F00A01C9
:1042A00082612943016270BD002C0140003401404D
:1042B000000C0040000800400004004030B5046AD3
:1042C00024F0100404621B038469056A24F440741A
:1042D00044EA022424F4704403F4704309012343A4
:1042E00025F0A00501F0A00183612943016230BDE2
:1042F00010B5036A01248C40A343036202FA01F162
:10430000036A1943016210BDC0F3C75181B1FF298F
:1043100006D0C110400721F0E04101F16051704723
:1043200041020CBF40F4E0016FF0004100207047F3
:1043300000F0004100020AD0B0FA80FC00FA0CF054
:1043400001F16051A1EB0C5101EBD0214005704708
:1043500001F000428B1AA3F16051B1F5801F0ADB16
:10436000B1F17F6F1FD242EAC102C10071F1004179
:1043700042EB507070470B15C3F10903212B10D28B
:10438000890241EA905180020128494141F00041EF
:1043900021FA03F0C3F12003994071F1004150412B
:1043A0007047100070476FF0000013EB103F5CBFC8
:1043B000000E42EAC05070470EB4C0B5024603A8D2
:1043C00000210190009101AB0121044878440C3098
:1043D000FBF7AEFE06BC5DF810FB00BF0309000052
:1043E00038B50446FFF7F2FB14F1010F054602D081
:1043F000044908780419FFF7E9FB401BA042FAD3EF
:1044000031BD00BF640100204FF0807C1CEB400FE9
:1044100094BF1CEB410F05E040EA010C1CEB0C0FB4
:1044200001D28142704718BF884270472DE9FC4194
:104430000646354D3078C10750D5A8690024C10023
:1044400009D4A86940F08050A8610124A86900F04F
:104450008050009000982D4F3968C80517D43868EF
:1044600040F480703860FFF7B1FB80463968C805BA
:104470000DD4FFF7ABFBA0EB08006528F6D30320B3
:104480003FE0FFF7A3FBC01B404519D3F7E7E869FE
:1044900010F440701EBF716801F44071884212D060
:1044A0001B49E86901220A6020F4407000220A607A
:1044B000E861C00707D5FFF789FB074641F2893855
:1044C000E8698107DDD5E969706821F4407101432D
:1044D000E9611CB1A86920F08050A8613178880793
:1044E00005D52A68B06822F4404202432A60307839
:1044F000C10605D52968706921F48001014329604E
:104500000020BDE8F6810000041002400070004069
:1045100040044242F8B5044600270026002C7AD019
:1045200004F12405686820B9AE6028702046FDF7C4
:1045300097FF204600F002F96968CA066CD40100B2
:104540006AD1696821F4885141F0020169602368E9
:10455000DFF8CC11E269D4F804C08B4204BFB2F595
:10456000402F4FF40022E16842EA0C02D4F808C060
:10457000BCF5807F14BFBCF1010F4FF48077D4F8F5
:1045800014C0BCF1010F42EA41020FD131B9A16957
:10459000491E490341F400610F4307E0696841F097
:1045A00020016960A96841F00101A960596821F4FE
:1045B00069410F435F602368DFF868119F680F400F
:1045C00017439F60A168B1F5807F18BF012902D110
:1045D0002669761E36052168CB6A23F470031E43D4
:1045E000CE622468DFF84011A3680B40934208D1E3
:1045F0000021A960696821F0020141F001016960B0
:10460000F2BD686820F0020040F010006860A86801
:1046100040F00100A86003E0686840F010006860A6
:104620000120F2BDF8B50A46002100F124030091F3
:104630001C78012C01D10220F2BD01251D701F271D
:10464000546815680668072C08D2641E04EB8404BD
:10465000D6F834C000F05EF8756312E00D2C08D275
:10466000E41F04EB8404D6F830C000F053F835633F
:1046700007E00D3C04EB8404D6F82CC000F04AF8A7
:10468000F56207271668946805680A2E08D30A3E63
:1046900006EB4606D5F80CC000F036F8EC6006E0F4
:1046A00006EB4606D5F810C000F02EF82C61146811
:1046B000102C18BF112C23D100681D4CA0421AD118
:1046C0001C48046825021BD4056845F400050560F4
:1046D0001068102814D1154C17482568B5FBF0F068
:1046E0000A2250430090009800281EBF009A521ED4
:1046F0000092F8D104E00121586840F02000586091
:10470000002018700846F2BDB7402CEA0707B440F5
:104710003C437047A7402CEA0707A5403D4370473C
:10472000003C0140FDF7E1FFFE0E1FFF700100207D
:10473000002401400824014040420F0038B50446DF
:1047400020688168CA0719D58168490849008160D5
:10475000FFF73CFA054620688168C8070ED5FFF7C9
:1047600035FA401B0328F6D3A06A40F01000A0627F
:10477000E06A40F00100E062012032BD002032BD5D
:1047800030B590F83C20012A01D1022030BD012330
:1047900080F83C30CD688B684A688C6925F4407598
:1047A0001D4325F4806515430B680A69496925F4A2
:1047B00000651D4325F48055154325F400550D4330
:1047C00025F480452543026825F400452C435464B4
:1047D000002180F83C10002030BD30B500F13C03D2
:1047E0001A78012A01D1022030BD01241C70022256
:1047F0005A700268546824F0700454600468656854
:104800000A68154365600268946824F08004946027
:10481000026894684868044394600120587000203E
:10482000187030BDC2175040801AB0FA80F10AD01B
:104830008840D1F19D01D20742EAC151020672F1CE
:10484000004241EB1020704790EA010F40F1F280E6
:1048500081F00041431A4FF000423EBF5340C01A5E
:10486000C91800BFD3095FEAD05C13EB400F34BF17
:10487000B3EB410F40E07CEBD1530CD342EA012172
:1048800022D8D1EB402009D3400A28BF5FEA50016B
:1048900040EBCC507047401A15D04002B0FA80F27D
:1048A000521C9040400A4FEA3C23B3EB026384BFA2
:1048B00000EB730007E040F400001A16DB07C2F1BA
:1048C0000102D04018437047182BFCDC31FA03F288
:1048D00002FA03F3591A38BF42F00102D2EB40202A
:1048E0003CBF4000ACF1010C5FEACC5CC20572F148
:1048F00000414CEB5020704713EB400F0FD2C942E0
:1049000009D0ACEBD153022B03DB4902172BDDDDC1
:1049100070479143401AC042D5D10020704713EB35
:10492000410FD0D36FF000007047000010B5FF2397
:1049300013EAD0541DBF13EAD1529C429A4239E087
:10494000A41ADA0780EA0103134042EA012142EA8D
:104950000020421A3CBF641E01EB4202090AB2FB6E
:10496000F1FE01FB1E221202B2FBF1F001FB10224C
:104970006EF30F201202B2FBF1FE4EEA00207F34EC
:1049800006DDFE2C24DA53EA500050EBC45010BD73
:10499000D4F1020401FB1E2240F08071192C1DDCB1
:1049A00021FA04F0C4F12004A140114371F1004246
:1049B000584110BD9C421ABF03EAD1529A420FE0FF
:1049C00080EA010E0EF00043400004D0490016D1E9
:1049D00043F0FF4010BD490008BFD343180010BD8D
:1049E0009C4205D1D21AF7D001F00041484010BDD9
:1049F0004A0212BF0846484000F0004010BD4AB9C4
:104A00000902B1FA81F2914044B1A418C00140F00A
:104A100000409EE7C90141F0004152420002B0FA55
:104A200080F4A040141B94E77047704770477047AC
:104A300070477047421A3CBF801A89184FF0004CEB
:104A4000C0F3C752FF2A24D0C1F3C75313B3D21AFD
:104A5000D2F1190327DD4CEA01214CFA03F321EAD4
:104A60000303D140C20D4CEA0020401834BF20EAB5
:104A70000C004CEA5000D20553EA006373EB0C0CB7
:104A800052EB1020420012F1807F38BF7047C00DFA
:104A9000C0057047490212BF9A4200EB5120F8E767
:104AA000D2F11703D9D570470E49086840F00100CC
:104AB00008604A680C4802404A600B680B48034093
:104AC0000B60086820F4802008604FF41F004A68DB
:104AD00022F4FE024A6088604FF0006004490860DA
:104AE00070470000001002400000FFF8FFFFF6FED4
:104AF00008ED00E0000000000000000001020304D7
:104B00000607080970B40B00002111480068C001B5
:104B10000FD4080070BC70475D782D0225439C7847
:104B200026042E43DC78240634431B1D0460121F28
:104B3000091D002AEDD0E02000060468002CFAD000
:104B40001C78042AE8D204705B1C491C521EF0E752
:104B5000FCED00E07047FEE7FEE7FEE7FEE770478A
:104B60007047704780B500F01BF8BDE80140FEF7C4
:104B700033BF0748FEF7C1BD0648FEF7BEBD064875
:104B8000FFF7E0B80548FCF721BF0448FDF737B848
:104B900028030020E4020020480200201001002029
:104BA00002494A68087882184A6070476401002008
:104BB00019E050F8042BD30744BFA9F101039A1858
:104BC000091F0023042942F8043BF9D25FEA817CE3
:104BD000134604D54FF0000CA2F800C09B1CC90777
:104BE00044BF0021197050F8041B0029E1D170471F
:104BF00010B5074979441831064C7C44163404E05A
:104C00000A68081D114488470146A142F8D110BD29
:104C10002C0000004800000018B583B00300140009
:104C200000930191029469460520ABBE0122190050
:104C3000201AAFF3008004B010BD000075FFFFFF25
:104C40005C0200007401002000000000FFC0FFFFB4
:104C5000A40100004C0000000000002080B58DF889
:104C6000000001226946012000F008F8012802D165
:104C70009DF8000002BD4FF0FF3002BD80B5002856
:104C800002D400F003F802BD002002BD80B5002967
:104C900001D1002002BD012801D0022802D1FFF776
:104CA00031FF02BDFFF7B8FF02BD000000F00DF8B4
:104CB000002801D0FFF79CFFAFF300800020AFF386
:104CC0000080FDF799FF00F002F80120704700F026
:104CD00001B8000007463846FCF7E6FDFBE738B5AB
:104CE00004460D462846FFF7B9FFA84218BF002426
:104CF000204632BD0148804701480047A94A0000CC
:104D0000054D0000AFF30080AFF30080FFF7CEFF4A
:104D10000000000001020304FFF7FEBFFFF7FEBF23
:104D2000FFF7FEBFFFF7FEBFFFF7FEBFFFF7FEBFB7
:104D3000FFF7FEBFFFF7FEBFFFF7FEBFFFF7FEBFA7
:104D4000FFF7FEBFFFF7FEBFFFF7FEBFFFF7FEBF97
:104D5000FFF7FEBFFFF7FEBFFFF7FEBFFFF7FEBF87
:104D6000FFF7FEBFFFF7FEBFFFF7FEBFFFF7FEBF77
:104D7000FFF7FEBFFFF7FEBFFFF7FEBFFFF7FEBF67
:104D8000FFF7FEBFFFF7FEBFFFF7FEBFFFF7FEBF57
:104D9000FFF7FEBFFFF7FEBFFFF7FEBFFFF7FEBF47
:104DA000FFF7FEBFFFF7FEBFFFF7FEBFFFF7FEBF37
:104DB000FFF7FEBFFFF7FEBFFFF7FEBFFFF7FEBF27
:104DC000FFF7FEBFFFF7FEBFFFF7FEBFFFF7FEBF17
:104DD000FFF7FEBFFFF7FEBFFFF7FEBFFFF7FEBF07
:104DE000FFF7FEBFFFF7FEBFFFF7FEBFFFF7FEBFF7
:104DF000FFF7FEBF3002000C0140042101F1130C4B
:104E0000800100803F04F11B01F19738F14101520C
:0A4E100001812210080001A24A04EB
:0400000500004D05A5
:00000001FF
