:020000040800F2
:10000000B0160020394400083D4300083F43000873
:100010004143000843430008454300080000000036
:10002000000000000000000000000000474300083E
:1000300049430008000000004B4300084D430008FE
:100040005D440008614400086544000869440008F4
:100050006D440008714400087544000879440008A4
:100060007D44000881440008854400088944000854
:100070008D44000891440008954400089944000804
:100080009D440008A1440008A5440008A9440008B4
:10009000AD440008B1440008B5440008B944000864
:1000A000BD440008C1440008C5440008C944000814
:1000B000CD4400085B430008D1440008D544000843
:1000C000D9440008DD440008E1440008E544000884
:1000D000E9440008ED440008F144000861430008C9
:1000E000F5440008F9440008FD44000801450008F3
:1000F00005450008094500080D45000811450008A0
:1001000015450008194500081D450008214500084F
:1001100025450008294500082D45000831450008FF
:1001200035450008394500083D45000841450008AF
:100130002DE9F84F84B001F0CDF800F028FB00F075
:10014000DAFC00F067FB00F0C4FB00F01DFC00F0DF
:100150003EFC00F08DFC00F083FBDFF8280CDFF89C
:10016000281C41604FF4E13181600021C1600161D0
:1001700041610C2181610021C1610162001D01F01A
:10018000BBF800F071FCDFF8040CDFF8404CDFF83E
:10019000405C01F0CAFA0421DFF8F00B01F0C5FA67
:1001A000DFF8E80B01F094FA0821DFF8280C01F0E1
:1001B000BCFA0C21DFF81C0C01F0B7FA082100F0A2
:1001C000E2FA0C2100F0DFFA042100F0DCFA002151
:1001D00000F0CBFA042100F0C8FA082100F0C5FABB
:1001E0000C2100F0C2FA01F01BFE208800F0C5FAD5
:1001F00000F0BFFADFF8E01B0860608800F0BDFA8D
:1002000000F0B7FADFF8D01B4860A08800F0B5FA1C
:1002100000F0AFFADFF8C01B8860E08800F0ADFAAC
:1002200000F0A7FADFF8B01BC863208900F0A5FA38
:1002300000F09FFADFF8A01B0864608900F09DFAC7
:1002400000F097FADFF8901B4864A08900F095FA57
:1002500000F08FFA2860E08900F08FFA00F089FA48
:100260006860208A00F089FA00F083FAA860608A4A
:1002700000F083FA00F07DFAE863A08A00F07DFACE
:1002800000F077FA2864E08A00F077FA00F071FA5B
:100290006864208BDFF8445DDFF8DC9BDFF8DC7BF3
:1002A000DFF8A88D00F069FA00F063FAE861608B6E
:1002B00000F063FA00F05DFA2862A08B00F05DFAAE
:1002C00000F057FA686201F0B9FDDFF8B00BE96998
:1002D0000166296A4166696A81660FF2504001F041
:1002E00017FE40F6B83001F027FEDFF8640D0190EC
:1002F0000BE00022082101F004FF00F02DFA803805
:1003000000F0B2FFDFF8781B08603822DFF874BA1B
:1003100041460BF1040001F02BF89BF80000DFF8D8
:10032000BC4CDFF8AC5ADFF8B06A01284FF47A7A97
:1003300040F0DB8000F0AEFDE369396E226A1846BA
:1003400001F004FF0AD1796E104601F0FFFE05D1DD
:10035000606AB96E01F0FAFE00F0C480C9F800A02E
:10036000C9F804A03B667A66606AB86601F058FD79
:10037000002038656946DFF8540AB8650120F86541
:100380000020009007F1500001F0EEFE306800F010
:10039000D1F901F055FF82B20023DFF8301A00F0E6
:1003A000CCF9706800F0C6F901F04AFF82B2002370
:1003B000DFF82C1C00F0C1F9B06800F0BBF901F0C7
:1003C0003FFF82B20023DFF81C1C00F0B6F9F06B8F
:1003D00000F0B0F901F034FF82B20023DFF8301CE6
:1003E00000F0ABF9306C00F0A5F901F029FF82B202
:1003F0000023DFF8201C00F0A0F9706C00F09AF9DF
:1004000001F01EFF82B20023DFF80C1C00F095F90A
:10041000286800F08FF901F013FF82B20023DFF8A3
:10042000341C00F08AF9686800F084F901F008FFD4
:1004300082B20023DFF8201C00F07FF9A86800F0EA
:1004400079F901F0FDFE82B20023DFF8101C00F004
:1004500074F9E86B00F06EF901F0F2FE82B200234D
:10046000DFF8FC1B00F069F9286C00F063F901F07B
:10047000E7FE82B20023DFF8EC1B00F05EF9686C47
:1004800000F058F901F0DCFE82B20023DFF8D81B3F
:1004900000F053F9E06900F04DF901F0D1FE82B2AD
:1004A0000023DFF8C81B00F048F9206A00F042F989
:1004B00001F0C6FE82B20023DFF8B41B00F03DF964
:1004C000606A00F037F901F0BBFE82B20023DFF86A
:1004D000A41B00F032F901F0B1FCDFF89C1BDFF83F
:1004E0009C0B086000218BF80010DFF8B00C007E38
:1004F000012810D1DFF8A4BC584600F08FFD002081
:1005000000900021DFF8982CDBF80800134600F07B
:10051000B5FECBF80800DFF88C0C007E012804BF84
:10052000DFF8800C00F07AFDDFF87C0C007E0128FB
:1005300004BFDFF8740C00F071FDDFF844BB9BF8DA
:10054000180001280ED1584600F068FD00200090E8
:100550000021DFF84C3CDBF808001A4600F08EFE64
:10056000CBF808000123DFF8341C07F110023046F5
:1005700000F091FBDFF82C1C002307F1200206F1AC
:100580003C0000F088FBDFF8201C012307F130025B
:10059000284600F080FB002307F14002594605F190
:1005A0003C0000F078FB04F11C0000F01EFBF86931
:1005B000DFF8F85B0028CCBF012200224FF4805105
:1005C00000F0BEF8F86A0028CCBF002201224FF4E8
:1005D000005100F0B5F8F86B0028CCBF00220122D2
:1005E0004FF4804100F0ACF8F86C0028CCBF012239
:1005F00000224FF4004100F0A3F8F869DFF8B05B87
:1006000001F033FE2860F86A01F02FFE6860DFF821
:100610007058F86B01F029FE6860F86C01F025FE57
:10062000A860D8F8540030B9C9F800A0C9F804A0EF
:10063000002121626CE0B7F90650B7F90E0001F015
:1006400055FECDE90201284601F050FE666C824657
:100650008B46304601F05CFE04460D4630460021D4
:1006600001F07AFE0846224625F00043DFF8441BDD
:1006700012D201F083FE02460B465046594601F065
:100680004FFF01F0BFFF00F05EF802460B46DDE9C8
:10069000020101F0D5FF11E001F070FE02460B46A9
:1006A0005046594601F0CCFF01F0ACFF00F04BF88A
:1006B00002460B46DDE9020101F032FF01F0A2FF24
:1006C000D8F854108E1933B2FE800818002BF88128
:1006D0004FF4617140F2853248BF002602D4934244
:1006E000A8BF0E4603B2002BFE8048BF002102D4F3
:1006F0009342B8BF0146B7F90600F98100F24C40B9
:10070000C9F80000B7F90E1001F24C41C9F8041005
:10071000D8F85010DFF8A00A7F293FF7EAAD012290
:10072000082101F0EEFC00F017F8E9E54D61696E73
:100730000D0A0000019902F03FB8012001F03ABB18
:10074000284601F0DEBC064625F000410022DFF815
:10075000643A204601F012BE4FF4FA700090002374
:10076000D8F850007F2200217047DFF8500A01F0CE
:1007700014B8DFF8DC1802F08BB8ADF80000BDF853
:10078000000002F003B9DFF8380A00F0CEBF00B570
:10079000002195B001200D910B90022112914FF490
:1007A00080300C90012213904FF4E0110F921491BD
:1007B0000BA802F0F9F800B1FEE70F21022000912A
:1007C000019000214FF480600291039004916846EB
:1007D000022102F077FA00B1FEE7022005904FF403
:1007E0000041079105A802F051FB00B1FEE702F0BD
:1007F00017FB4FF47A71B0FBF1F002F0FEFB04201E
:1008000002F00FFC002200214FF0FF3002F0CEFB7F
:1008100015B000BD1FB5DFF8AC49DFF8AC0900F03A
:100820004AF803202061204602F018FC00B1FEE7E0
:100830000E2001210090019102912046694602F0AC
:1008400095FC00B1FEE70F2000F029F802F08EFCC5
:1008500000B1FEE707200090032100F026F819E020
:100860001FB5DFF86849DFF8680900F024F80220B6
:100870002061204602F0F2FB00B1FEE70520009067
:10088000012100F012F802F071FC00B1FEE7062031
:1008900000F005F802F06AFC00B1FEE71FBD02217E
:1008A0000090019120466946704700200191029016
:1008B00069462046704720604FF48070A060012098
:1008C000E060002060614FF46020E0610020606023
:1008D0007047DFF8000910B5DFF8C048A062472074
:1008E000E06290B0002020634FF4FF60606300205E
:1008F000A063E063206404F1280000F009FF00F029
:10090000B3F80791089007A904F1280002F009FD47
:1009100000B1FEE7602000904FF47A710020029051
:1009200003900191042004904FF480710020059100
:100930000690002200F023F800F08FF801F07EF816
:1009400000F084F801F07AF800F08EF80490059138
:100950000C2200F014F800F087F80A910C9109902D
:100960004FF400510B900D900E910F9009A904F1D6
:10097000280002F0A9FC00F0AEF810B010BD6946E6
:1009800004F1280001F05AB84FF0804018B5DFF8A4
:100990001448A06240F21F10E06289B000F08FF8A6
:1009A00000F09FF800B1FEE7602000210290039163
:1009B0000020042104900691002200F07BF800B191
:1009C000FEE7042200F076F800B1FEE766E0DFF80B
:1009D000080810B5DFF8D047A0620820E06286B0B2
:1009E0000020206341F61F4060630020A063206464
:1009F00004F1280000F0BCFE00F036F804910590E8
:100A000004A904F1280002F08CFC00B1FEE70121EA
:100A100001910090002102900391002200F011F852
:100A200000F01BF800F088FF00F010F800F084FFE1
:100A300000B1FEE70C2200F004F800B1FEE706B0BA
:100A400010BD694604F1280000F076BF00B1FEE752
:100A50000822694604F12800704700B1FEE704222D
:100A6000694604F12800704700B1FEE70021704795
:100A7000DFF8680718B5DFF80846A06240F21F10DB
:100A8000E06289B000F01BF800F02BF8FFF7ECFFF4
:100A9000039104916020042102900691082200F045
:100AA00009F800B1FEE70C2200F004F800F013F89A
:100AB0000AB010BD02A904F1280000F0BFBF002059
:100AC000206340F2FD1060630020A063206404F105
:100AD000280000F01DBE00B1FEE704F1280002F07E
:100AE0001ABD00B1FEE7002100910190694604F1B2
:100AF000280002F016BCF0B5DFF8E406DFF8B866AF
:100B0000DFF8A846DFF8DC5685B0016841F0200127
:100B1000016041F20C07026802F02002049204997D
:100B2000016841F010010160026802F010020492B5
:100B30000499016841F004010160026802F00402B6
:100B4000049200220499016841F0080101603946CD
:100B5000006800F0080004900498304601F0D1FAD3
:100B600000224FF47041204601F0CBFA082000F03B
:100B700037F8284600F031F80120019000210320C9
:100B80000291039000976946304601F0E9F94FF46D
:100B900070400121009001910020032102900391F7
:100BA00000F01AF8042000F01BF86946DFF8380658
:100BB00001F0D6F9382000F013F800F00DF84FF4EA
:100BC0004060009002210120019102906946284670
:100BD00001F0C6F905B0F0BD2046694601F0C0B984
:100BE00000210090019102917047F8B5DFF8EC53B5
:100BF000DFF8F8750446B5F9000002F01FFD6968DA
:100C000002F02EFDA061E16902F02AFD2062676218
:100C1000A5692068294601F0CFFD0646E660284612
:100C2000394601F0C9FD616801F0C6FD216902F095
:100C300057FDDFF8BC15206102F0C4FD38BF08463F
:100C400006D3DFF8B01501F087FB98BFDFF8A805E1
:100C500020613946206A01F01BFEA16801F0ACFD5D
:100C6000074620696761314602F03AFD394602F0D5
:100C700037FDDFF88815A06202F0A4FD38BF0846F2
:100C800006D3DFF87C1501F067FB98BFDFF8740529
:100C9000A062E561F1BD2DE9F04106460C46002B4E
:100CA000154607BFE949B1F93800CC48B0F9100042
:100CB00002F0C4FCA16802F0D3FCDFF84C1502F08E
:100CC00081FD044638BFDFF8D80406D3DFF83C15B1
:100CD00001F042FB05D8DFF83805214602F000FD9F
:100CE0000446F169B461204602F0BAFC3062DFF8D4
:100CF000FC747762B4693068214601F05DFD80467E
:100D0000C6F80C802046394601F056FD716801F0A6
:100D100053FD316902F0E4FCDFF8F814306102F0B1
:100D200051FD38BF084606D3DFF8EC1401F014FB80
:100D300098BFDFF8E80430613946306A01F0A8FD59
:100D4000B16801F039FD074677614146306902F02C
:100D5000C7FC394602F0C4FCDFF8C414B06202F0EC
:100D600031FD38BF084606D3DFF8B81401F0F4FAB5
:100D700098BFDFF8B404B06201F062FAE860F46191
:100D8000BDE8F081D805002000480040BC030020E9
:100D9000AE4A53185B7800F82C3F53189B78437089
:100DA0005318DB78837053181B79838053185B7951
:100DB000C38053189B7903815318DB7943815318FF
:100DC00011441B7A8381497AC18170470070000801
:100DD0003C010020F8040020C40000202DE9F84365
:100DE000064606F12C07DFF844443878DFF8405413
:100DF00001F0CCFD306001F08BFA80468946B9786D
:100E0000787800F0F1F801F083FA00F03FF800F094
:100E100039F802F0E9FC3060B7F9040002F00EFC8A
:100E200001F076FA80468946B7F90810B7F906004E
:100E300000F0DAF801F06CFA00F028F800F022F87F
:100E400002F0D2FC7060B7F90A0002F0F7FB01F083
:100E50005FFA80468946B7F90E10B7F90C0000F02A
:100E6000C3F801F055FA00F011F800F00BF802F0A9
:100E7000BBFCB060BDE8F183342C014000000020D1
:100E80003800004042464B4601F0DABB22462B4672
:100E900001F074BAF8B5DFF89C534FF0FF312846E3
:100EA000FFF776FF082105F13C00FFF771FFDFF83F
:100EB000887311213846FFF76BFF1A2107F13C00B8
:100EC000FFF766FFDFF87463232106F11C00FFF7CC
:100ED0005FFF5E4800F1380410F82D1F2180417833
:100EE000318281783180C178E16101793172417953
:100EF00071728179B172C179F172017A407AA1611E
:100F000030732846FFF76AFF05F13C00FFF766FFE4
:100F10003846FFF763FF07F13C00FFF75FFF06F17C
:100F20001C00FFF75BFF40F26B3000900023E0698C
:100F3000FF22002100F098F9E0616FF02C07707A31
:100F4000317A081802F07AFB05462D200090002126
:100F500075603B46605E5A2200F086F920803B4671
:100F60002D2000905A22B6F91000002100F07CF9E3
:100F7000308200212D2000903B46705E5A2200F006
:100F800073F93080B4F90000010044BF00F5B4707B
:100F90002080B6F91000010044BF00F5B470308223
:100FA000B6F90000010044BF00F5B4703080284657
:100FB00001F0AEF904460D46F17AB07A00F014F86B
:100FC00001F0A6F9994A9A4B01F0D8F922462B462E
:100FD00001F036FB02F008FC7060F1BDB4010020A6
:100FE000027000080470000840EA012002F026BBED
:100FF000164810B590F83720914C372100F042F890
:1010000008B901202070201DBDE8104040214BE0B0
:1010100006700008087000080A70000810B5044641
:10102000606801F075F9874A874B01F0A7F902F073
:10103000DBFBA0605A49A06801F08EF992BFA16065
:10104000A06860620020207610BD00006C000020C7
:1010500000007A440C7000080E7000081070000840
:10106000127000081470000816700008187000084C
:101070001A7000081C7000080CED00E00400FA056E
:10108000D004002030B50023002402E0055DEB18F9
:10109000641C8C42FADB180403EB10639BB29A18B1
:1010A000D243D0B230BD70470122090A02FA01F1E1
:1010B0000068C94389B20160704738B50168464C81
:1010C000A1426AD1017F4748012917D1334DA96E4A
:1010D000491CA966616B2980402101F00CF818B108
:1010E00000F0B6F8012145E00022012100F0BAF835
:1010F00000F0B2F828BF01F5E15148E0022914D10F
:10110000284DA16B2980802100F0F5FF18B100F077
:101110009FF802212EE00022022100F0A3F800F047
:101120009BF828BF01F5E15131E0042915D11E4D8E
:10113000E16B29804FF4807100F0DDFF18B100F001
:1011400087F8032116E00022032100F08BF800F05D
:1011500083F828BF01F5E15119E008291DD13B4D65
:10116000216C29804FF4007100F0C5FF30B100F010
:101170006FF804212046BDE838409DE0002204219C
:1011800000F070F800F068F828BF01F5E151081A86
:1011900002F054FA68600120287631BD94030020E3
:1011A0000000B4430004002068040020000C01404B
:1011B0003C0800400000E03F00080140900400208F
:1011C000280400201C060020002401404C060020BA
:1011D00000280140002C01400004004000080040AD
:1011E0001810024000100140001401406F12833AB1
:1011F000000020C10100204100002041000048C241
:101200000100484200004842000034C3000034435B
:101210000000B4C30000F0C10100F0410000F04143
:101220000000FFC30100FF430000FF43FCA9F1D20F
:101230004D62503FC40000203C010020B40100205A
:10124000D80500209A9999999999A93FD00400202E
:1012500028886880022270476888298888422988FF
:1012600068887047204627E010B5029C401AE41AAF
:101270006043511A90FBF1F0181810BD2DE9F041B0
:10128000069F0C4615461E4602F0EAF9804638468F
:10129000314602F0E5F9414601F08EFA074628464C
:1012A000214602F0DDF90146384601F0F1FA3146F7
:1012B000BDE8F04102F014BA491E02238900002A59
:1012C00003FA01F1026A89B20CBF22EA010111435B
:1012D0000162704780B50748016841F01001016064
:1012E000032001F056FE002002F0B2FA02F03EF8B0
:1012F000002002BD0020024038B5040001D10120C9
:1013000032BD00F022F808B900F023F800F013F81D
:1013100000F024F8FFE7416100F001F832BD2068D9
:10132000C16841F40051C1600020686020206870ED
:10133000A87000207047242068702068C16821F4DC
:101340000051C160204600F04EB904F138056878BC
:10135000704700212970204602F01DB920680169FC
:1013600021F4904101612068416921F02A01704710
:1013700030B500F138039C78202C21D109B114003C
:1013800001D1012030BD1C78012C19D001251D7020
:1013900081628285C28500215960222199700021D5
:1013A00019700168CA6842F48072CA6001684A69AB
:1013B00042F001024A610068C16841F0200101E089
:1013C000022030BDC160002030BD416921F04001E4
:1013D0004161606B704738B5044625682968EA6842
:1013E0006B6911F00F0007D188065DD590065BD5BB
:1013F0002046BDE83240ABE0D80702D412F4907F1B
:1014000052D0C80705D5D00503D5E06B40F00100E8
:10141000E063480705D5D80703D5E06B40F002002C
:10142000E063880705D5D80703D5E06B40F00400DA
:10143000E063080705D5D80703D5E06B40F0080046
:10144000E063E06B00286ED0890604D5900644BFA7
:10145000204600F07DF820684069E16B0A0701D45E
:1014600040061BD5204600F05FF8206841694A0617
:101470000FD5FFF7AAFF60B10FF2C9014163606B9E
:1014800002F006FA00284ED0606B416BBDE8344094
:1014900008472046BDE83240FFF705BE2046FFF76B
:1014A00002FE0020E06331BD08062CD510062AD5C7
:1014B00094F83900212836D1A168206AB1F5805FFF
:1014C0000DD10188C1F308016960206918B9216A4A
:1014D000881C206207E0206A411C216203E0411C55
:1014E000216200786860E08C401EE08480B2D0B950
:1014F0002068C16821F08001C1602068C16841F0A6
:101500004001C16031BD48060DD550060BD5E868D5
:1015100020F04000E860202184F839102046BDE822
:10152000324002F03DBA31BD0168CA6822F49072BF
:10153000CA6001684A69520852004A61202180F855
:101540003A107047406A0021C185C184FFF7ABBDE6
:1015500080B590F83A10222943D18268B2F5805FB5
:1015600014D1826A016941B903685968C1F308015D
:101570001180826A911C816218E001684B6803F057
:10158000FF031380816A4A1C82620FE0016900290F
:10159000816A04D14A1C82620268536805E04A1CD1
:1015A00082620268536803F07F030B70C18D491E8D
:1015B000C18589B299B90168CA6822F02002CA605F
:1015C0000168CA6822F48072CA6001684A695208D8
:1015D00052004A61202180F83A10FFF709FD0020EF
:1015E00002BD022002BD2DE9F047044664252168B2
:1015F0000A69E06822F4405202430A611926CA6867
:1016000031480240A06802432069024360690243F6
:10161000CA604A69A06922F4407202432B484A61B9
:1016200081420ED101F007FC074601F004FC804620
:1016300001F001FC814601F0FEFB824601F0FBFB5C
:101640000DE001F0F0FB074601F0EDFB804601F0F4
:10165000EAFB814601F0E7FB824601F0E4FB06FB72
:1016600009F9616889007743B7FBF1F206FB08F7D7
:10167000B7FBF1F3B9FBF1F7B7FBF5F705FB173350
:101680001B013233B3FBF5F3B2FBF5F203F0F003C9
:1016900003EB021306FB0AF74643B7FBF1F2B6FB76
:1016A000F1F06421B0FBF1F005FB10252D0132357E
:1016B0006420B5FBF0F0216800F00F00C3188B60C8
:1016C000BDE8F08700000000F3E9FFFF00380140AB
:1016D0000068C16841F00101C160026842F0010286
:1016E00002600020704702206870211D206800F011
:1016F0001CFA01206870002032BD03D1416C41F416
:1017000000414164026842F001020260002016BDFF
:1017100038B5040001D1012032BD00F03AF818B903
:1017200000F033F801F0A3FEDDE71CB500F007F888
:1017300000F019F81CBFDFF89C108842DDE7044672
:101740000122206800F02ABB2068C26842F008022B
:1017500070472068C26842F0040270472068C2687F
:1017600042F0020270472068DFF86C108842704730
:1017700038B5040001D1012032BD00F00AF818B9D3
:1017800000F003F801F09BFEADE700212970204630
:10179000704704F13C056878704710B504460800AE
:1017A0000BD004290CD008290DD00C2901BF2068CA
:1017B000C36843F01003C36008E0FFF7CFFF04E005
:1017C000FFF7C7FF01E0FFF7BFFFC26020680122FB
:1017D00005E0000000340140002C0140206800F0CA
:1017E000DDFA2068016841F001010160002010BDB0
:1017F00010B50446206801698A0715D5C1688A07B3
:1018000012D56FF00202026101212177806910F088
:10181000030F204602D0FFF750FC03E002F0C1F8AE
:1018200000F087F800202077206801694A0715D565
:10183000C1684A0712D56FF00402026102212177C4
:10184000806910F4407F204602D0FFF736FC03E0A9
:1018500002F0A7F800F06DF80020207720680169F9
:101860000A0715D5C1680A0712D56FF00802026190
:1018700004212177C06910F0030F204602D0FFF742
:101880001CFC03E002F08DF800F053F800202077F4
:1018900020680169CA0615D5C168CA0612D56FF05D
:1018A0001002026108212177C06910F4407F2046B0
:1018B00002D0FFF702FC03E002F073F800F039F801
:1018C0000020207720680169CA0708D5C168CA07C7
:1018D00005D56FF001020261204602F063F820682E
:1018E00001690A0608D5C1680A0605D56FF08002AD
:1018F0000261204602F057F8206801694A0608D5BF
:10190000C1684A0605D56FF040020261204602F028
:101910004BF8206801698A060AD5C1688A0607D58E
:101920006FF0200202612046BDE8104002F03DB891
:1019300010BD204602F03AB8F8B500F0E7F801D142
:101940000220F2BD00F0E9F882B9EB686A68296804
:10195000306800F0D2F93068816921F00C018161B2
:1019600031688A69A86802438A6164E0042A10D158
:10197000EB686A682968306800F0F6F930688169B8
:1019800021F4406100F0BEF8AA6841EA02218161B9
:1019900051E0082AE9686A682B6827D13768386AF5
:1019A00020F480703862090107F11C0001F0F00199
:1019B000D0F800C0D7F820E04FEA9C0C42EA8C0235
:1019C00022F0F002114301601B022EF4206003F4A8
:1019D000206303433B623068C16921F00C01C1619F
:1019E0003168CA69A8680243CA6124E030681C30C3
:1019F0000903476827F48057476001F4704107687E
:101A0000D0F804C027F4407747EA022727F470474C
:101A1000394301601B032CF4005103F400530B43C2
:101A200043603068C16921F4406100F067F8AA683A
:101A300041EA0221C1610120607073E070B500F0DD
:101A400065F801D1022070BD00F067F832B1042AB8
:101A500017D0082A28D00C2A39D04AE03068294605
:101A600000F09DF83068816941F0080100F04AF803
:101A700021F00401816131688A69286902438A6121
:101A800037E03068294600F0B3F83068816941F4E6
:101A9000006100F037F821F4806100F033F82A6922
:101AA00041EA0221816124E03068294600F0D0F843
:101AB0003068C16941F0080100F020F821F004010C
:101AC000C1613168CA6928690243CA6111E030689E
:101AD000294600F0EFF83068C16941F4006100F078
:101AE0000DF821F4806100F009F82A6941EA022129
:101AF000C161012060700020207070BDC16130683C
:101B0000C16970478161306881697047064606F196
:101B10003C040D46207801287047012121700220E5
:101B20006070704700202070F2BDF0B5DFF824C26D
:101B3000894F0368894C8A4D8A4E604518BFB84268
:101B400008D0B0F1804F18BFB04203D0A84218BFF0
:101B5000A0420DD14A6823F070031343604518BFBB
:101B6000B84207D0B0F1804F1CBFB042A84201D0AC
:101B7000A04203D1CA6823F4407313434A6923F097
:101B800080031343036060458A68C2620A68826208
:101B900012BFB8420969016301214161F0BDF0B58E
:101BA000026A6C4F6C4E520852000262056A43682A
:101BB000846900F079F825F002051543B84218BF92
:101BC000B04207D1CA6825F008051543B84225F090
:101BD000040501D0B04205D14A6923F44073134390
:101BE0008A69134343608461496841630562F0BDBB
:101BF000F0B5026A574E22F010020262B042056A46
:101C0000436884690A6824F4E64444EA02248A6842
:101C100025F0200545EA02154F4A18BF904208D129
:101C2000CF6825F0800545EA0715B04225F040054C
:101C300001D0904206D14E698A6923F4406316436D
:101C400043EA860343608461496881630562F0BDAD
:101C5000F0B5026A3F4E22F480720262056A436860
:101C6000C46900F021F825F4007545EA02253A4AD6
:101C7000B04218BF904208D1CF6825F4006545EA0C
:101C80000725B04225F4806501D0904206D14E6907
:101C90008A6923F44053164343EA06134360C46140
:101CA0004968C1630562F0BD0A6824F073041443F7
:101CB0008A68704770B5026A264E22F4805202622A
:101CC000B042046A4268C3690D6823F4E64343EAFC
:101CD00005238D6824F400541CBF1F4EB04244EA13
:101CE000053404D14D6922F4804242EA85124260F3
:101CF000C36149680164046270BD70B5046A154E21
:101D0000640864000462B0428469056A1CBF124E14
:101D1000B0420BD0B0F1804F1CBF124EB04205D084
:101D20000F4EB0421CBF0D4EB04203D1A40842EA90
:101D3000840201E044F001021B0122F0F00203F0F2
:101D4000F0031A4325F00A0501F00A0182612943D4
:101D5000016270BD002C014000340140000C0040C5
:101D6000000800400004004030B5046A24F010046C
:101D700004621B038469056A24F4407444EA022463
:101D800024F4704403F470430901234325F0A005B3
:101D900001F0A00183612943016230BD10B5036ADF
:101DA00001248C40A343036202FA01F1036A194340
:101DB000016210BD2DE9F84F4F4E0446307E0128D8
:101DC0008B469046994608BF022027D001213176E4
:101DD0004CF2503A504600F043F801001CD1012C5F
:101DE0001CBF022C04240025444FA54214DA4046AF
:101DF00049462A0101F0DCFD81B20BEB450000F001
:101E000024F8504600F02CF8396849084900396038
:101E1000010008BF6D1CE8D000213176BDE8F28FCB
:101E20003849CA680020130607D5374B374A0B607C
:101E30000A60C9680A0648BF012070472F48016838
:101E400041F0800101600020704710B52A4B00224C
:101E5000DA612A4A146844F001041460018010BD5C
:101E600070B5044601F0B4FD0646254D2868C1074B
:101E70000CD514F1010FF9D024B101F0A9FD801B9C
:101E80008442F3D2032070BD002070BD2868810613
:101E900044BF202129602868C10605D42869C107EC
:101EA00002D429684807EFD500F002F8012070BD80
:101EB00010B5134A104913680020DC0604D5C86920
:101EC00040F00200C861102013685C0705D5CB699B
:101ED00043F00103CB6140F004001369DC0707D530
:101EE000CB6943F00403CB611169490849001161D2
:101EF000106010BD0000000080060020102002408D
:101F00000C2002400420024023016745AB89EFCD3D
:101F10000EB4C0B5024603A800210190009101ABA8
:101F20000121044878440C3001F066FD06BC5DF8E0
:101F300010FB00BFE124000038B5044601F048FD65
:101F400014F1010F054602D004490878041901F084
:101F50003FFD401BA042FAD331BD00BF0C02002060
:101F60002DE9F84F83460F46002080466849694AAC
:101F7000694B4FF00F094FF0010A3C680AFA08F666
:101F800006EA040EB64540F0AE807C683CB3012CF6
:101F90001AD0022C1DD0032C2ED0112C16D0122CAE
:101FA0001AD05E4DAC421CBF5D4DAC4217D05D4DAA
:101FB000AC421CBF5C4DAC4211D05C4DAC421CBF6E
:101FC0005B4DAC420BD018E0F86816E0F868001DD5
:101FD00013E0F868083010E0F8680C300DE0B868DD
:101FE00008B9042009E0012819BF0820CBF81460C3
:101FF0000820CBF8106000E00020BEF5807F03D2FF
:10200000DC464FEA880404E0A8F108040BF1040C54
:10201000A400DCF8005009FA04F6B54300FA04F411
:102020002C43CCF800407C68E4005CD51C6844F08C
:1020300001041C604FEA980C1D6805F0010500952D
:10204000009C52F82C604FEA880404F00C0409FA52
:1020500004F526EA0505374EB34508BF002618D01B
:10206000354EB34508BF012613D0344EB34508BFE3
:1020700002260ED0324EB34508BF032609D0314E9A
:10208000B34508BF042604D02F4EB3450CBF052628
:10209000062606FA04F42C4342F82C406FEA0E069A
:1020A0007C68E50304D50D684EEA05050D6002E085
:1020B0000C6834400C607C68A5034C684CBF4EEA49
:1020C000040434404C607C68E5028C684CBF4EEAE6
:1020D000040434408C607C68A502CC684CBF4EEA96
:1020E00004043440CC6008F10108B8F10F0F7FF60A
:1020F00044AFBDE8F18F8068084018BF0120C0B22E
:10210000704781B002B90904016101B07047000055
:1021100000040140080001401810024000001110A6
:1021200000001210000021100000221000003110E9
:102130000000321000080140000C01400010014076
:102140000014014000180140001C014040EA010C4D
:102150001CEB0C0F07D0884205D14FEA400C1CF154
:10216000807F98BF804270472DE9F047DFF8C86054
:102170000746307E01250128884608BF022039D055
:1021800035764CF250393868DFF8B04002284846BE
:102190000DD1FFF765FE50BB012000F02DF800F0D7
:1021A00039F80546206820F0040020601FE0FFF7A2
:1021B00057FEE0B94FF0FF30C8F80000D7F808A08C
:1021C00001E00AF5006AF868B96801EBC0218A45A8
:1021D0000DD2504600F021F800F01CF805462068AA
:1021E00020F0020020602800EBD0C8F800A00021F9
:1021F00031762846BDE8F0870F490020C8610F48B6
:10220000026842F004020260016841F0400101608E
:1022100070473E804846FFF723BE074A0021D16140
:1022200006490B6843F002030B604860086840F001
:102230004000086070470000800600201020024027
:10224000C0F3C7517E390EDDC217D1F1200106DD82
:10225000000240F00040C840104450407047D04356
:1022600080F00040704700207047002848BF40427F
:102270007047F0B40246106895681318506803EB75
:102280005004C00721D54D441FE0F0BC02F10C0002
:10229000704713F8017B05F8017B491EF9D1A0B105
:1022A000B60813F8011B06F00306032E08BF13F847
:1022B000016B01EB06214942801C294405D011F82D
:1022C000016B05F8016B401EF9D1A342DDD013F874
:1022D000016B16F0030104BF13F8011BC91C300980
:1022E0000F28DAD113F8010B0F30D6E7C11768B108
:1022F0004840401AB0FA80F29040D21CC907C2F59B
:10230000846241EA025202EBD0214005704700008E
:10231000C0F3C75181B1FF2906D0C110400721F099
:10232000E04101F16051704741020CBF40F4E0010F
:102330006FF000410020704700F0004100020AD019
:10234000B0FA80FC00FA0CF001F16051A1EB0C51E5
:1023500001EBD021400570474FF0807C1CEB400F13
:1023600094BF1CEB410F05E040EA010C1CEB0C0F85
:1023700001D28142704718BF88427047B0B581EAE8
:10238000030C0CF0004C40F2FF7515EA11541DBF10
:1023900015EA1357AC42AF4239E0E41923EA45533A
:1023A00043F48013C90241F0004141EA505EC70284
:1023B0001100A7FB020200284FF00000EEFB0120F5
:1023C0004FF00001E3FB072118BF42F00102401863
:1023D00000214941E3FB0E01A4F580640F0302D202
:1023E00052004041494154F101046CDD470872F14B
:1023F000004250F1000051EB0451A1F580115CBF87
:1024000041EA0C01B0BD4CEA05510020B0BD05EA1F
:102410001357AC4214BFAF4241E050EA410E1CBF1B
:1024200052EA430E02E061460020B0BD24423C4423
:102430001BD15FEA070EF6D0090302BF0146002058
:10244000AEF1140EB1FA81F7AEEB070401FA07FE04
:102450000C37C7F1200100FA07F7C8404EEA000E1A
:1024600023EA455343F48013A2E733F00043B3FA61
:1024700083F704BFB2FA82FE77440B3FE41BB7F147
:10248000200E2FBF02FA0EF3BB40C7F1200E22FA36
:102490000EFE38BF43EA0E03BA40641C82E750EADE
:1024A000410E14BF52EA430E6FF000014FF40017C3
:1024B00017EB430F8ABF194617EB410FB5E74CEAFC
:1024C00005510020B0BDD4F10104B4F120070FDAAA
:1024D000C4F12007520828BF42F0010210FA07F5A4
:1024E00001FA07F7E1BF2A43E0403843E1400FE03B
:1024F000352C98DCC7F1200452EA400220FA07F29A
:1025000018BF42F0010231FA07F0A1400A4300214E
:1025100072F1004250F1000051EB0C01B0BD00001F
:1025200070B44FF0004591EA030F40F191806B4089
:10253000841A71EB030603D2001BB14112197341D7
:102540004FF4001C1CEB410F34BF7CEB430442E012
:102550000C0DA4EB1356352E4FDC45EAC323DB0AE2
:1025600045EAC121C912B6F120050DDD63FA05F671
:10257000EB4086EA0305124218BF45F00105C0187A
:1025800051F100010CD213E062FA06F5F240554019
:10259000F3415A40B340F3405A408018594107D3A1
:1025A00049085FEA30005FEA350528BF45F00105BC
:1025B00001F58011420875F1004250F1000041EB35
:1025C00004514E0016F5001F70BC38BF7047002044
:1025D000090D090570471CEB410F10D252EA430662
:1025E0000BD0BCEB410F05D80C0DAB43661E342E4F
:1025F000B6DD02E0AB438018594170BC704770BC37
:1026000070470000C1F30A5340F2FE329B1A14DDFA
:10261000D3F120034FEAE17208DDC90241EA5051CB
:1026200041F00040D84080185040704703F2E1303C
:1026300010B1D24382F00040704700207047000084
:1026400070B44FF0004591EA030F7FF571AF6B4016
:10265000841A71EB030604D26E40001BB1411219BB
:1026600073414FF4001C1CEB410F34BF7CEB43065D
:1026700082E00C0DA4EB1356362E7BDC012E45EACE
:10268000C32341DC43EA525312BFD20292025B08D9
:10269000240545EAC12141EA5051D2EBC0209941BD
:1026A00025D407D1B0FA80F610FA06F162D00020E6
:1026B000203608E0B1FA81F6B140C6F1200220FAD6
:1026C00002F21143B0404FEAF474B4EB465434F0D4
:1026D00001064FEA74040AD8D6F50016760D04F008
:1026E0000044F04061FA06F25040F1404840C00A10
:1026F00040EA415021F0004128BF5FEA500550F107
:10270000000044EBD12135E0DB0A45EAC121C90ACA
:10271000B6F120050EDD42EA0242120CC5F1200698
:1027200003FA06F6EB4042EA06056D42984161F174
:1027300000010DE062FA06F5F240554063FA06FC2E
:1027400082EA0C02F3405A406D42904161EB030172
:1027500011F4801F05D1641E620502D06D00404156
:10276000494121F48011430875F1004350F1000004
:1027700041EB045170BC70471CEB410F15D223F0A4
:10278000004352EA43060BD04FEA4C0CBCEB410F1E
:1027900004D80C0D661E342EB7DDEBE7801A994184
:1027A00050EA410608BF0021E4E708BF1CEB430FD5
:1027B00028BF6FF00001DDE7FF2212EAD05C1DBFE9
:1027C00012EAD153944593422BE09C44D30780EA0C
:1027D00001021A4043EA002043EA0121A1FB003034
:1027E000C04238BF40007CF17F010BDBFE294ADA92
:1027F0005B0842EAC15153EA006373F1004C51EBAC
:1028000010207047D1F1080CDCF120012FDB5B08B0
:1028100010FA01F10B4320FA0CF073F10041504122
:10282000704794451CBF02EAD153934280EA0102EB
:1028300002F000421DD0400019D0490017D05BB90A
:10284000634514D00902B1FA81F39940BCEB030C43
:10285000C00140F00040C1E70002B0FA80FC10FA6D
:102860000CF0B3EB0C0CC90141F00041B6E71000CD
:10287000704740000AD0490008D010F1807F94BF13
:1028800011F1807F02E042F0FF407047D043704773
:1028900010B5FF2313EAD0541DBF13EAD1529C4256
:1028A0009A4239E0A41ADA0780EA0103134042EAA7
:1028B000012142EA0020421A3CBF641E01EB4202A1
:1028C000090AB2FBF1FE01FB1E221202B2FBF1F07B
:1028D00001FB10226EF30F201202B2FBF1FE4EEA52
:1028E00000207F3406DDFE2C24DA53EA500050EB42
:1028F000C45010BDD4F1020401FB1E2240F08071CF
:10290000192C1DDC21FA04F0C4F12004A14011436C
:1029100071F10042584110BD9C421ABF03EAD152E6
:102920009A420FE080EA010E0EF00043400004D00E
:10293000490016D143F0FF4010BD490008BFD34302
:10294000180010BD9C4205D1D21AF7D001F0004109
:10295000484010BD4A0212BF0846484000F00040FF
:1029600010BD4AB90902B1FA81F2914044B1A418EC
:10297000C00140F000409EE7C90141F000415242D1
:102980000002B0FA80F4A040141B94E700280AD09B
:10299000B0FA80F18840D1F19D01C905020672F1BB
:1029A000004241EB102070472DE9F8430646DFF85E
:1029B0009C543078C1074AD5686800F00C000428A0
:1029C00007D0686800F00C0008280BD16868C103C4
:1029D00008D5296888033AD57068002840F0C0807F
:1029E000012069E17068B0F5803F0FD038B92968DF
:1029F00021F480312960286820F4802009E0B0F5B6
:102A0000A02F296807D141F480212960286840F46B
:102A10008030286006E021F4803129602A6822F4A1
:102A200080222A60706868B100F0D2FF04462968ED
:102A3000880300F1958000F0CBFF001B6528F6D3DA
:102A4000032039E100F0C4FF04462868810340F107
:102A5000878000F0BDFF001B6528F6D3F0E700F08B
:102A6000B7FF001B022840F2AA80E9E7306970B185
:102A70000121396000F0ACFF04462868810700F1AD
:102A8000DC8000F0A5FF001B0228F6D9D8E73860EB
:102A900000F09EFF04462868810765D500F098FF86
:102AA000001B0228F7D9CBE7086000F091FF04462D
:102AB000686A810777D500F08BFF001B0228F7D9E1
:102AC000BEE708B9286A09E00528286A06D140F05F
:102AD00004002862286A40F0010005E04008400038
:102AE0002862286A20F00400286241F28938F068E0
:102AF00068B100F06DFF8146286A810700F1AA8065
:102B000000F066FFA0EB09004045F5D398E700F020
:102B10005FFF8146286A810740F19C8000F058FFE2
:102B2000A0EB09004045F5D38AE700F051FF001BF8
:102B3000022840F2A28083E700F04AFF001B02282F
:102B400040F2B5807CE700F0B9F8044628688101BE
:102B500040F1B18000F03CFF001B0228F6D96FE77E
:102B60003078DFF8F47281071BD5686810F00C0F1D
:102B700009D0686800F00C0008287FF477AF686817
:102B8000C1033FF573AF2968880703D53069012871
:102B90007FF426AF2968706921F0F80141EAC0018D
:102BA0002960317808071DD5B069DFF8B012002818
:102BB0003FF47AAF01220A6000F00AFF0446686A17
:102BC00081077FF54CAFDFF888120868C0084FF422
:102BD0007A72B0FBF2F2009200BF0098411E00280A
:102BE0000091F9D13078410739D5E8690024C10056
:102BF00009D4E86940F08050E8610124E86900F0F8
:102C0000805000900098DFF85882D8F80010C8056E
:102C10001BD4D8F8000040F48070C8F8000000F021
:102C2000D7FE8146D8F80010C8050ED400F0D0FEBB
:102C3000A0EB09006528F5D302E72868716920F048
:102C4000F80040EAC1002860ABE7F06801287FF493
:102C500038AF3FE71CB1E86920F08050E861F069C7
:102C600048B3696801F00C0108293FF4B9AE0228A5
:102C70007FF469AF00F022F80446286881013FF52F
:102C800054AF306AB0F5803F05D16968B06821F46F
:102C90000031014369606968306A21F474110143AD
:102CA000706A01436960012000F009F80446286851
:102CB00081017FF541AF0020BDE8F2830020386636
:102CC00000F086BE2DE9F843664F05463868894610
:102CD00000F00700484502D200F07AF86CD129785C
:102CE0005A4C880705D56168A86821F0F0010143B6
:102CF00061602878C10757D56868012802D121682A
:102D00008A0303E0022803D121688A0103D453E037
:102D10002268910750D56168890840EA81006060A7
:102D200041F2893800F054FE0646686801280BD14C
:102D3000606800F00C00042836D000F049FE801BCB
:102D40004045F5D303202DE0022837D1606800F01C
:102D50000C00082828D000F03BFE801B4045F5D32E
:102D6000F0E72878410705D56168E86821F4E0615B
:102D7000014361602878010706D56068296920F45D
:102D8000605040EAC100606000F02CF8626836498B
:102D9000C2F30312895C2E4AC8401060002000F084
:102DA00057FD0020BDE8F283386800F00700814538
:102DB000D7D200F00DF8D4D00120F3E7606810F00E
:102DC0000C0FF1D000F004FE801B4045F6D3B9E7AC
:102DD0003968C90849EAC1013960386800F007005C
:102DE0004845704721491B480A6802F00C03082B2C
:102DF00000D0704710B500BF1FA4C2F38343D203B5
:102E0000E35C09D5096800BF1FA2C1F340415843E4
:102E1000515CB0FBF1F010BD18461549484310BD98
:102E20000B48006870470A48104A00681368114947
:102E3000C3F3022206E006480C4A006813680D49F5
:102E4000C3F3C222895CC8407047000000100240F2
:102E50001802002000127A00000042428004424220
:102E600000700040002002405C4200080410024054
:102E700000093D0054440008020304050607080940
:102E80000A0B0C0D0E0F1010010200002DE9FC4181
:102E90000646354D3078C10750D5A8690024C100D9
:102EA00009D4A86940F08050A8610124A86900F005
:102EB0008050009000982D4F3968C80517D43868A5
:102EC00040F48070386000F083FD80463968C805A2
:102ED0000DD400F07DFDA0EB08006528F6D303209B
:102EE0003FE000F075FDC01B404519D3F7E7E869E6
:102EF00010F440701EBF716801F44071884212D016
:102F00001B49E86901220A6020F4407000220A602F
:102F1000E861C00707D500F05BFD074641F289383C
:102F2000E8698107DDD5E969706821F440710143E2
:102F3000E9611CB1A86920F08050A8613178880748
:102F400005D52A68B06822F4404202432A603078EE
:102F5000C10605D52968706921F480010143296003
:102F60000020BDE8F681000004100240007000401F
:102F7000400442420901020081B006D52F4A00F008
:102F80000F00104400F8041C01E02D4B195401B04F
:102F900070472C4A13684FF6FF0100020B4000F403
:102FA000E0601843284908431060704738B5254B46
:102FB0001C68C4F30223C3F10704052C28BF0424B2
:102FC0001D1D072D34BF0023DB1E012505FA04F467
:102FD000641E2140994005FA03F35B1E1A40114319
:102FE000BDE83440C6E7012200F01F01174BFFE7A0
:102FF0008A40400943F82020704710B5401EB0F1C8
:10300000807F01D3012010BD114C60600F214FF073
:10301000FF30FFF7AFFF0022A260072020600020F2
:1030200010BD04280A4904D1086840F00400086073
:1030300070470A6822F004020A60704718ED00E049
:1030400000E400E00CED00E00000FA0500E100E023
:1030500010E000E000F000B870470000F8B504464A
:1030600000270026002C7AD004F12405686820B9D6
:10307000AE602870204600F0C3F9204600F002F947
:103080006968CA066CD401006AD1696821F4885164
:1030900041F0020169602368DFF8CC11E269D4F8DD
:1030A00004C08B4204BFB2F5402F4FF40022E16808
:1030B00042EA0C02D4F808C0BCF5807F14BFBCF112
:1030C000010F4FF48077D4F814C0BCF1010F42EA2D
:1030D00041020FD131B9A169491E490341F4006190
:1030E0000F4307E0696841F020016960A96841F079
:1030F0000101A960596821F469410F435F602368A9
:10310000DFF868119F680F4017439F60A168B1F511
:10311000807F18BF012902D12669761E36052168F5
:10312000CB6A23F470031E43CE622468DFF840119B
:10313000A3680B40934208D10021A960696821F07F
:10314000020141F001016960F2BD686820F00200EF
:1031500040F010006860A86840F00100A86003E03B
:10316000686840F0100068600120F2BDF8B50A46BA
:10317000002100F1240300911C78012C01D10220D0
:10318000F2BD01251D701F27546815680668072CBD
:1031900008D2641E04EB8404D6F834C000F05EF854
:1031A000756312E00D2C08D2E41F04EB8404D6F8FA
:1031B00030C000F053F8356307E00D3C04EB8404A5
:1031C000D6F82CC000F04AF8F56207271668946814
:1031D00005680A2E08D30A3E06EB4606D5F80CC051
:1031E00000F036F8EC6006E006EB4606D5F810C0B5
:1031F00000F02EF82C611468102C18BF112C23D16C
:1032000000681D4CA0421AD11C48046825021BD43A
:10321000056845F4000505601068102814D1154CA8
:1032200017482568B5FBF0F00A225043009000983B
:1032300000281EBF009A521E0092F8D104E001211E
:10324000586840F020005860002018700846F2BD11
:10325000B7402CEA0707B4403C437047A7402CEA2C
:103260000707A5403D437047003C0140FDF7E1FFE3
:10327000FE0E1FFF18020020002401400824014018
:1032800040420F0038B5044620688168CA0719D546
:10329000816849084900816000F09AFB0546206872
:1032A0008168C8070ED500F093FB401B0328F6D3B6
:1032B000A06A40F01000A062E06A40F00100E06205
:1032C000012032BD002032BD30B590F83C20012AEB
:1032D00001D1022030BD012380F83C30CD688B68DD
:1032E0004A688C6925F440751D4325F480651543B3
:1032F0000B680A69496925F400651D4325F480556A
:10330000154325F400550D4325F4804525430268F7
:1033100025F400452C435464002180F83C10002023
:1033200030BD30B500F13C031A78012A01D10220EA
:1033300030BD01241C7002225A700268546824F0C7
:1033400070045460046865680A6815436560026823
:10335000946824F080049460026894684868044388
:103360009460012058700020187030BD80B5DFF8DF
:103370009C02016841F001010160026802F0010253
:1033800000920099416841F080514160406800F02E
:103390008050009000980320FFF7FBFD00220021E1
:1033A0006FF00B00FFF702FE002200216FF00A0011
:1033B000FFF7FCFD002200216FF00900FFF7F6FD8A
:1033C000002200216FF00400FFF7F0FD0022002131
:1033D0006FF00300FFF7EAFD002200216FF001000B
:1033E000FFF7E4FD002200214FF0FF30FFF7DEFD84
:1033F00000F0C6F821F0E06141F00071016001BD0C
:1034000000B585B000F02DF816D1116841F40071B7
:1034100011600323126802F400720492802204995E
:10342000009201936946FEF79BFD30200321009036
:1034300001916946764810E0764B99420FD11168A8
:1034400041F4806111600323126802F480620492E7
:1034500060220499009201936946FEF781FD05B050
:1034600000BD01686C4B6D48684A9942704781B055
:1034700000686B4A6549904208D1086840F40060D2
:103480000860096801F40061009115E0B0F1804F17
:1034900007D1486840F001004860486800F001002A
:1034A00009E0604A904208D1486840F00400486052
:1034B000486800F004000090009801B07047006870
:1034C0005949884200D0704700B5584885B0016816
:1034D00041F0020101604FF47071006800F00200D9
:1034E0000090002200984A4801910292039201A99B
:1034F000FEF736FD00F044F841F0E06141F4406130
:103500000160002200211D20FFF750FD1D20FFF764
:103510006AFD05B000BD1FB50168414A3F489142B0
:1035200008D14FF4706100910222032301920393AA
:10353000694622E0B1F1804F3D4C17D10321009143
:103540000222039101926946FEF70AFD4FF44060A2
:1035500000F019F8FEF704FD00F012F821F44071B4
:1035600041F0E06141F4007101601FBD2D488142CE
:1035700005D14FF4407000F006F8FEF7F1FC1FBDD6
:103580002C480168704700900221032001910390AC
:1035900069462046704700682749884200D0704736
:1035A00018B522481A4C85B0016841F480210160A9
:1035B0004FF48061006800F480200090022200989F
:1035C000019103200490029201A92046FEF7C8FC55
:1035D0004FF400600190002101200291039001A9A5
:1035E0002046FEF7BDFCFFF7CBFF21F0300141F094
:1035F000E06141F010010160002200212720FFF767
:10360000D5FC2720FFF7EFFC06B010BD18100240D4
:103610000010014000280140002401400008014042
:10362000002C014000080040000400401C10024033
:10363000000C01400400014000480040C217504007
:10364000801AB0FA80F10AD08840D1F19D01D207EA
:1036500042EAC151020672F1004241EB102070476C
:1036600090EA010F40F1428081F00041421A3CBFD4
:10367000801A89184FF0004CC0F3C752FF2A24D09B
:10368000C1F3C75313B3D21AD2F1190327DD4CEAA1
:1036900001214CFA03F321EA0303D140C20D4CEAA5
:1036A0000020401834BF20EA0C004CEA5000D2053C
:1036B00053EA006373EB0C0C52EB1020420012F142
:1036C000807F38BF7047C00DC0057047490212BFE8
:1036D0009A4200EB5120F8E7D2F11703D9D5704791
:1036E00090EA010F7FF5C2AF81F00041431A4FF01D
:1036F00000423EBF5340C01AC91800BFD3095FEA59
:10370000D05C13EB400F34BFB3EB410F40E07CEBD8
:10371000D1530CD342EA012122D8D1EB402009D366
:10372000400A28BF5FEA500140EBCC507047401A76
:1037300015D04002B0FA80F2521C9040400A4FEA85
:103740003C23B3EB026384BF00EB730007E040F45B
:1037500000001A16DB07C2F10102D040184370477F
:10376000182BFCDC31FA03F202FA03F3591A38BFC2
:1037700042F00102D2EB40203CBF4000ACF1010C12
:103780005FEACC5CC20572F100414CEB50207047FF
:1037900013EB400F0FD2C94209D0ACEBD153022B2F
:1037A00003DB4902172BDDDD70479143401AC0420D
:1037B000D5D10020704713EB410FD0D36FF000003C
:1037C000704700004FF0807C1CEB400F94BF1CEB57
:1037D000410F05E040EA010C1CEB0C0F01D28842BE
:1037E000704718BF8142704701F000428B1AA3F165
:1037F0006051B1F5801F0ADBB1F17F6F1FD242EA41
:10380000C102C10071F1004142EB507070470B15CD
:10381000C3F10903212B10D2890241EA90518002A1
:103820000128494141F0004121FA03F0C3F120038E
:10383000994071F1004150417047100070476FF09E
:10384000000013EB103F5CBF000E42EAC05070470F
:1038500038B50D4D0D4A297804464FF47A70B0FB07
:10386000F1F11068B0FBF1F0FFF7C7FB50B9102C75
:1038700008D2002221464FF0FF30FFF797FBAC60E3
:10388000002032BD012032BD0C02002018020020B1
:10389000F8B590F821200024022A00F1340103D069
:1038A0000420486001245FE00268DFF8C460136808
:1038B00023F00E0313604FF48077026815686D08DB
:1038C0006D0015604FF480320368B3424FF48055A9
:1038D00019D9DFF89860B34208BF012210D0DFF891
:1038E0009460B34208BF10220AD0DFF88C60B34264
:1038F00008BF3A4604D0DFF88460B34208BF2A46C6
:10390000DFF87C3027E0DFF87CC063451CD0DFF8AF
:1039100078C063451AD0DFF874C0634518D0DFF86B
:103920007070BB420EBF2A46DFF86850AB4210D021
:10393000DFF86450AB4208BF4FF4801209D0B342A5
:1039400007D14FF0807204E0012202E0102200E073
:103950003A46DFF848301A60012280F8212080F8CA
:103960002040096801B188472046F2BD08040240A2
:10397000800002401C040240300402404404024023
:1039800004040240080002401C00024030000240D3
:1039900044000240580002406C0002400400024013
:1039A0007047704770477047704770477047000016
:1039B000D2B2203A22BF21FA02F000217047203211
:1039C000D141D04048409140D1404840704700002C
:1039D00001484068704700BF0C02002070B51C0011
:1039E0000546164606D0084616F8011BA847641E71
:1039F000FAD10146084670BD2DE9FC4383B08146EB
:103A0000884617461D4607E001233A464146484688
:103A1000FFF7E4FF80467F1C3878E0B12528F3D11A
:103A20007978BF1C252912D058295AD0632915D07E
:103A3000642918BF692918D06F2952D0702956D02F
:103A400073295BD0752918BF78294AD0E4E740462E
:103A5000C8478046E0E705B0BDE8F08328682860E5
:103A600050F8041B2860C9B2F1E72868286050F8B4
:103A7000046B2860002E03D52D214046C8478046A0
:103A800064216F2908BF082205D041F02000782862
:103A900014BF0A2210220B246429304602D1002EC2
:103AA00048BF4042B0FBF2FC02FB1C003030641EF9
:103AB000C3B23A2BA4BFA1F1510318180DF80400AA
:103AC0005FEA0C0001D0002CECDC0DEB0406D4F115
:103AD0000B044046BDD016F8011BC847641EFAD13E
:103AE000B7E72868286050F8046B2860C9E72868A1
:103AF0002860782150F8046B2860C2E728682860A5
:103B000050F8046B2860304600F00AF80400404684
:103B10009FD016F8011BC847641EFAD199E7000030
:103B200000F10103810704D010F8011B89B181075E
:103B3000FAD10268B2F10131914311F0803F04BF24
:103B400050F8042FF6E710F8011B11B110F8011B13
:103B5000FBE7C01A7047000010B50446AFF30080C1
:103B6000204600F005F80446AFF30080204610BD63
:103B70007CB500F10F06F608F600B04240D2082EE0
:103B800004D2082602E0083000F047F8DFF80451BC
:103B90002C68210005D1002007E00268B24221D242
:103BA000011D08680028F8D12068291D0A68824292
:103BB00022D01368B34238BF111DF7D312E0931916
:103BC0000B60801B54685C600B68186016600968A5
:103BD00000291DBF48680028081D0020286002F148
:103BE000080076BD61B10A681068A0F10803B3420D
:103BF000E5D250680860EAE700F04EF80028C2D12C
:103C0000002076BD10B5040006D0AFF3008020463A
:103C100000F003F8AFF3008010BD002800D170471A
:103C200050B4A0F108021368072B2BD913F0070F2B
:103C300028D1184C616809B18A4202D25160626091
:103C400013E0486800B3904238BF0146F9D31BE047
:103C5000964203D11B180B600A4606E0486810B173
:103C6000134498420ED350604A60506850B11368B4
:103C7000D118814206D1002121600168CB18136060
:103C80004068506050BC704708680E18B242DFD2DE
:103C900050BC7047A00600200749086808B1002002
:103CA00070470648C008C00008600549C908C90037
:103CB000091A0160704700BFA8060020B71600204F
:103CC000B02600202DE9F04107468846387810F0EC
:103CD000030F16461D4633D0384600F099F878BBDE
:103CE000B8F1000F1CBFD8E900018619012D2ED1B3
:103CF0003888C10415D5396A07F14402384600F006
:103D0000A3F83A6B044602B93A69F968384600F0FC
:103D10009BF8361B341A7A69F968384600F094F833
:103D2000261A1EB94DB916F1010F09D097F90300F3
:103D30002A46314600F08EF8064616F1010F09D1E9
:103D40002320AFF300804FF0FF30BDE8F081022D5B
:103D5000E8D1EBE7388810F4405F0ED07868F8605F
:103D600038617861B8617868F86107F144003862B9
:103D700007F13000786200203863B8F1000F05D0F9
:103D8000D8E9020107F13402C2E9000139884CF692
:103D9000FF60014039800020BDE8F08170B5054624
:103DA000AFF300802888810415D56E680024EA6886
:103DB00095F903003146914212D2521A00F06FF881
:103DC00010F1010F1CBF00283618F0D10FE04DF69E
:103DD000FF70014029802846AFF30080002070BDAD
:103DE0000022002100F05BF810F1010F00D1012446
:103DF0006868E860A861E861002C2988E7D041F490
:103E0000007129802846AFF300804FF0FF3070BD6D
:103E1000F8B5A0B9AFF3008000250A4E08244FF092
:103E2000FF37306820B1FFF7B9FF002848BF3D4693
:103E3000361D641EF5D1AFF300802846F2BDBDE803
:103E4000F240ABE7F4020020914234BF511A002146
:103E5000084670473EB504000D00012A02D100F06B
:103E60006BF807E0022A07D1009400200190694610
:103E70000C20ABBE2D1801E0002A0CD10094019556
:103E800069460A20ABBE002805D100222100280087
:103E900000F02FF801E00020C04303B030BD80B532
:103EA000002802D400F06AF802BD002002BD000024
:103EB00010B4314A002113461C6884421EBF491CBD
:103EC0009C6884421EBF491C1C69844209D09C69BD
:103ED000491C844205D0491C20331029ECD310BC66
:103EE0007047002342F8313002EBC1014B6010BC37
:103EF000704778B4204C002325462E688E421EBFA2
:103F00005B1CAE688E421EBF5B1C2E698E4209D0C0
:103F1000AE695B1C8E4205D05B1C2035102BECD3A8
:103F200072BC7047054604EBC303012A04BF5968FD
:103F30004D195D6072BC704710B40F4A00211346E2
:103F40001C6884421EBF491C9C6884421EBF491CD9
:103F50001C6984420AD09C69491C844206D0491CD1
:103F600020331029ECD310BC0020704702EBC100B5
:103F7000406810BC704700001403002080B5002981
:103F800001D1002002BD012801D0022802D100F099
:103F900005F802BD00F02AF802BD000070B40B0065
:103FA000002111480068C0010FD4080070BC7047A0
:103FB0005D782D0225439C7826042E43DC78240668
:103FC00034431B1D0460121F091D002AEDD0E020A0
:103FD00000060468002CFAD01C78042AE8D2047089
:103FE0005B1C491C521EF0E7FCED00E018B583B0E5
:103FF0000300140000930191029469460520ABBEB2
:1040000001221900201AFFF774FF04B010BD10B58B
:104010000446E068A169884251D3218849F202032D
:104020000B40022B08D008044CBF4FF400704FF433
:104030008440014321803BE001F4C042B2F5C04F0F
:1040400006D1A168884203D32046FFF7E1FE78BB82
:10405000208810F4406F02BF606804F14401884278
:1040600017D14FF40070FFF777FD606030B904F1AD
:1040700044006060E060401CA0600AE0218841F0DC
:1040800040012180E060606100F500726068A2601C
:10409000E06160682061A068A061207841070AD5CE
:1040A00002220021204600F00CF810F1010F02D18D
:1040B0004FF0FF3010BD208840F4C0402080002029
:1040C00010BD70B504460D461646AFF3008033466A
:1040D0002A4600212046FFF7F5FD05462046AFF3AE
:1040E0000080284670BD38B504000ED0207810F04E
:1040F000030F03D094F90300002809D5AFF3008023
:10410000204600F02FF8AFF300804FF0FF3032BDB3
:104110002046FFF77DFE0546AFF30080207841067C
:1041200044BF606800F05CF80020606094F9030010
:10413000022804D900F056F808B14FF0FF35E06BC3
:1041400048B100F05BF808B14FF0FF35E06B00F0CC
:1041500047F80020E063204600F004F8AFF3008049
:10416000284632BD01780A0626D51C4A136800216C
:10417000834203D1002342F821301BE05368012120
:1041800083421EBF022193688342F3D0D368032188
:1041900083421EBF042113698342EBD0536905217A
:1041A00083421EBF0621936983421EBF0721D36944
:1041B0008342DFD000F014B8002101804FF0FF31BE
:1041C000C17000F144014160C160016141618161E0
:1041D000C161016200F1300141627047F4020020C8
:1041E000FFF710BD1CB50200009269460220ABBE6D
:1041F00004001000FFF75CFE200016BDE0B5009043
:10420000FFF78EFC019069460E20ABBE03B000BDE7
:104210000E49086840F0010008604A680C480240F6
:104220004A600B680B4803400B60086820F480204C
:1042300008604FF41F004A6822F4FE024A6088605A
:104240004FF0006004490860704700000010024011
:104250000000FFF8FFFFF6FE08ED00E000000000A0
:1042600000000000010203040607080938B50C46E7
:10427000C5B22046AFF30080E068A169884204D34C
:104280002046FFF7C4FE00280FD4E068401CE06021
:1042900000F8015D2088010503D440050BD50A2DE7
:1042A00009D12046FFF7B4FD28B12046AFF30080C6
:1042B0004FF0FF3032BD2046AFF30080284632BDBC
:1042C00019E050F8042BD30744BFA9F101039A1851
:1042D000091F0023042942F8043BF9D25FEA817CDC
:1042E000134604D54FF0000CA2F800C09B1CC90770
:1042F00044BF0021197050F8041B0029E1D1704718
:1043000038B50D4D0824286800281CBF017811F02D
:10431000030F05D090F90310002958BFFFF7E3FE03
:104320002D1D641EEFD1BDE83840002200214FF062
:10433000FF30FFF7B4BD00BFF40200207047FEE776
:10434000FEE7FEE7FEE770477047704780B500F074
:104350000FF8BDE80140FEF77DBE0348FDF748BAFF
:104360000248FDF738B8000090040020DC0500206A
:1043700002494A68087882184A6070470C02002097
:1043800010B5074979441831064C7C44163404E0D2
:104390000A68081D114488470146A142F8D110BDA2
:1043A000080000002400000019FFFFFF9803000030
:1043B0001403002000000000BBDEFFFF88010000A6
:1043C000500100000000002000F00DF8002801D08E
:1043D000FFF7D6FFAFF300800020AFF30080FBF7BC
:1043E000A7FE00F002F80120704700F001B80000BD
:1043F0000746FFF785FF384600F002F8FBE70000AC
:1044000080B5AFF30080024A11001820ABBEFBE775
:104410002600020038B504460D46284600F006F88E
:10442000A84218BF0024204632BD00000149FFF712
:104430001DBF00BF640200200148804701480047BB
:104440001142000849440008AFF30080AFF3008038
:10445000FFF7BAFF0000000001020304FFF7FEBFF0
:10446000FFF7FEBFFFF7FEBFFFF7FEBFFFF7FEBF80
:10447000FFF7FEBFFFF7FEBFFFF7FEBFFFF7FEBF70
:10448000FFF7FEBFFFF7FEBFFFF7FEBFFFF7FEBF60
:10449000FFF7FEBFFFF7FEBFFFF7FEBFFFF7FEBF50
:1044A000FFF7FEBFFFF7FEBFFFF7FEBFFFF7FEBF40
:1044B000FFF7FEBFFFF7FEBFFFF7FEBFFFF7FEBF30
:1044C000FFF7FEBFFFF7FEBFFFF7FEBFFFF7FEBF20
:1044D000FFF7FEBFFFF7FEBFFFF7FEBFFFF7FEBF10
:1044E000FFF7FEBFFFF7FEBFFFF7FEBFFFF7FEBF00
:1044F000FFF7FEBFFFF7FEBFFFF7FEBFFFF7FEBFF0
:10450000FFF7FEBFFFF7FEBFFFF7FEBFFFF7FEBFDF
:10451000FFF7FEBFFFF7FEBFFFF7FEBFFFF7FEBFCF
:10452000FFF7FEBFFFF7FEBFFFF7FEBFFFF7FEBFBF
:10453000FFF7FEBFFFF7FEBFFFF7FEBFFFF7FEBFAF
:10454000FFF7FEBF20030008014000016108120CC4
:1045500008520C0C2101F11F10F14201A22D5D2126
:10456000A81104A308021512F880F226D084F004E2
:104570002548420000803F3C13F4413CF2253E3C7C
:10458000127078F22450B4D22D35C110F327803F39
:10459000D0520135221008100AA24A04010400007A
:1045A000600200206104526004211BA108524C0CDF
:1045B000F10B0110070204010188050020D8045204
:1045C00088042134610812A844F213944850020868
:1045D000020238405238042134610812F044F212C9
:0D45E000DC48121C24126404F206AC2C000E
:040000050800444962
:00000001FF
