:020000040800F2
:100000001016002099410008094000080B40000824
:100010000D4000080F4000081140000800000000DB
:100020000000000000000000000000001340000875
:1000300015400008000000001740000819400008A3
:10004000BD410008C1410008C5410008C941000880
:10005000CD410008D1410008D5410008D941000830
:10006000DD410008E1410008E5410008E9410008E0
:10007000ED410008F1410008F5410008F941000890
:10008000274000082D400008FD41000801420008FB
:1000900005420008094200080D420008114200080C
:1000A00015420008194200081D42000821420008BC
:1000B0002542000833400008294200083940000862
:1000C0003F4000082D420008314200083542000838
:1000D000394200083D4200084142000845420008FC
:1000E000494200084D4200085142000855420008AC
:1000F000594200085D42000861420008654200085C
:10010000694200086D42000871420008754200080B
:10011000794200087D4200088142000885420008BB
:10012000894200088D42000891420008954200086B
:10013000F8B5040016D004F13C05687820B9002118
:100140002970204600F06CFE00F066F801F0CDF951
:1001500001466068DFF89C21904205D2DFF89801E3
:10016000814205D20120F2BDDFF890018142F9D32E
:10017000DFF88C01B1FBF0F32068436066689642BB
:1001800006D34FF4967043434FF47A76B3FBF6F3FD
:1001900027685B1C3B62491E6368934206D25B0082
:1001A00000F034F8042813D2042011E0A06820B92C
:1001B00003EB430300F02AF805E01920434300F065
:1001C00025F840F4804001050CBF012040F40040B8
:1001D0002168C861E269206A0243206802602169DF
:1001E000E0680143206881606169A069014320687B
:1001F000C1602068016841F0010101600020686071
:100200002020687000202063A870F2BDB1FBF3F0DD
:10021000401CC0F30B007047242068702068016800
:100220004908490001607047DFF8E40005681926B5
:10023000B5FBF6F64FF47A77B6FBF7F7192047438C
:1002400000977047F8B500F02AF81FD109B11000E7
:1002500001D10120F2BDFFF7E7FF1D680098461E9F
:10026000009690B1A8698607F8D42678012E0DD0A3
:1002700000F01DF8222000F00BF81A855A85DFF8EF
:100280008C00D86200F022F83CE02BE00220F2BDA6
:1002900060702020A07000206060596270470346A3
:1002A0000020009003F13C04607820287047012072
:1002B00020702868C60703D42E6846F001062E6019
:1002C0001868056825F400650560704718680168BE
:1002D00041F480610160002020701868416841F499
:1002E000E0617047186320206070002020700320B8
:1002F000F2BD0000A186010080841E0000093D00BF
:1003000040420F0041600020F2BD00000000FFFFEE
:1003100088010020DFF80008E06270472DE9F84FFF
:10032000044604F13D022168DFF87489D1F8189081
:100330004E694F685078DFF87C55DFF868A9DFF820
:1003400068B9DFF874C9102818BF40286ED116F0BC
:10035000011F04F144032ED0B8053ED55078402843
:1003600009D1D86818B91A6802F0FE0221E01868AD
:1003700040F0010026E02069B0F5804F0BD11278E3
:10038000212A03D1186800F0FE001CE01A6842F030
:100390000102D2B20DE0D86820B900F0C6F842F0F0
:1003A000F00206E0D868012817D100F0BEF842F04C
:1003B000F1020A6111E0DFF80409064205D0BA052E
:1003C0000BD51868C0B2086107E016EA0C0F04D01C
:1003D000B80544BF204600F07FFA19EA0B0F12D08F
:1003E00016EA0A0F07D0780505D52E4203D120461C
:1003F000BDE8F24F0BE12E4245D0B8055CD5204652
:10040000BDE8F24F67E116EA080F07D0780505D579
:100410002E4203D12046BDE8F24FA7E12E4232D052
:10042000B80549D52046BDE8F24FF9E116EA0C0FB0
:1004300012D0B8051AD58A6989690020530758BFB8
:1004400001200A060146204654BFE268A269BDE8C1
:10045000F84F92B201F073B8DFF86408064205D095
:10046000BB0503D52046BDE8F24FE9E219EA0B0FC0
:100470002CD016EA0A0F1CD078051AD52E4218D1B6
:100480001378608D00284ED0606A451C6562007844
:10049000086100F050F808BF292B44D100F051F852
:1004A00021202063282010702046BDE8F24F01F083
:1004B00022BC2E4237D0B80535D5608D002832D009
:1004C000606A421C62620078086129E016EA080F3F
:1004D0001BD0780519D52E4217D11378608D10B333
:1004E000606A451C65620969017000F024F808BF64
:1004F0002A2B18D100F025F8222020632820107024
:100500002046BDE8F24F01F0F5BB2E420BD0B805F6
:1005100009D5608D38B1606A421C62620969017058
:10052000608D411E6185BDE8F18F1A681204D20DFD
:1005300002F006027047608D411E6185608D0028C3
:1005400070472068416821F4806141607047F8B5C8
:100550000446DFF870172068456946680D420DD0E3
:10056000F20518D5216C41F0010121646FF480720D
:1005700042612068016841F40041016015F4813F47
:1005800009D0F0053CD5206C40F0020020646FF4E7
:1005900000712068416115F4823F24D0F0052FD509
:1005A00004F13D004778618D0278236B202F08BF4E
:1005B00000290BD1212A18BF292A03D0282A08BFD5
:1005C000212B03D1204600F0A9FA0CE0216C41F068
:1005D000040121644078102801D100F067FB6FF41A
:1005E00080602268506115F4843F09D0F00507D57A
:1005F000206C40F0080020646FF4006122685161B3
:10060000206C18B12046BDE8F240C3E2F1BD38B518
:1006100000F13D0213785478C56A018D002908BFA6
:10062000212B16D1042D1EBF082DDFF89C168D42FC
:1006300002D000F07EF809E000F087F804D1002332
:10064000537001F06DFC44E00021517001F069FC31
:100650003FE0212B03D0402C08BF222B39D1418D04
:1006600011B900F0D1F834E0517840292FD100F1D0
:100670004803996889B900685968012905D11A6841
:10068000D2B202619868801C05E019680904090E5D
:1006900001619868401C98601BE09968012907D1A6
:1006A0001A680068D2B202619968491C996010E02A
:1006B000996802290DD11378222B05D100680168B1
:1006C00041F48071016004E01278212A01D100F028
:1006D00026F8002032BD10B5C36A00F13D0214783F
:1006E000212C1AD1418D11B100F019F815E0042B1D
:1006F0001EBF082BDFF8D0158B4202D000F019F88E
:1007000009E000F022F804D10023537001F008FC46
:1007100003E00021517001F004FC002010BD416A8B
:100720004A1C4262026809781161418D4A1E428565
:10073000704701684B6823F4E0634B60112101634B
:100740000021517020211170704701684B6823F41B
:10075000E0634B6001680B6843F400730B60002199
:1007600001632021117051784029704710B500F1C4
:100770003D010A78222A45D1428D042A02D300F095
:100780009BF83FE0022A18BF032A13D10168C26A0E
:100790000B68022A08D023F480630B6001680A68A2
:1007A00042F400620A6002E043F480630B6000F0F0
:1007B0002BF827E00268C36A022B04D0146824F4E3
:1007C0008064146003E0136843F48063136000F0F6
:1007D00021F8426A531C436203681C691470428DFD
:1007E000531E4385002220230B7002634A78402A5F
:1007F00004D100234B7001F095FB03E000224A7006
:1008000001F091FB002010BD0068416821F4806177
:10081000416070470268536823F4E0635360704797
:1008200080B5C16A438DDFF8A024032B07D10429CA
:100830001CBF0829914237D100F0F3F834E0438D12
:10084000022B31D104291CBF082991420ED0026825
:10085000022904D0116821F48061116003E013685B
:1008600043F48063136000F031F806E000F02EF8E6
:1008700001680A6842F400720A6000F01DF800F096
:100880001BF800F13D0120220A70002202634A7821
:10089000402A04D100234B7001F044FB06E0002203
:1008A0004A7001F040FB01E000F006F8002002BDB4
:1008B0000000000004000100416A4A1C4262026814
:1008C00013690B70418D4A1E4285704701684A6862
:1008D00022F440724A60704738B500F13D014A7811
:1008E000C36A046B0D78222D40F08580016D0029CC
:1008F00008BF402A02D1002200927EE0016D00294B
:1009000004BF0269B2F5404F07D100F081F842F40C
:1009100080720A60016D491C6BE0418D11B90022A3
:1009200000922BE0418D012933D1DFF89C239342C3
:100930000DD100F076F801684A68130510D4002242
:1009400000924B6900938A690092009B1CE0042B83
:100950001CBF082B122C0DD00168C26A022A04D0D9
:100960000B6823F480630B6040E00A6842F4806205
:100970000A603BE000F055F80021009101684A69E7
:1009800000928B690093009A0A6842F400720A6030
:100990002EE00168428D022A1CD1C36A022B0AD0C4
:1009A0000A6842F400620A60002100F031F822F483
:1009B00080620A6005E00B6843F480630B6000F01E
:1009C00036F801684A68130512D54A6842F4805225
:1009D0004A600DE00B6843F480630B6001684A686D
:1009E000130503D54A6842F480524A6000F01FF8AC
:1009F0000021016504E000210091006800F002F888
:100A0000002032BD416900918069009000997047D3
:100A1000009101684A6900928B690093009A0A6804
:100A2000704701680A6822F480620A6070470021FA
:100A3000009101684A69009289690091009A7047A3
:100A40007CB500F13D02137801684C6824F4E06441
:100A50004C600021009101684C6900940D6845F0DC
:100A600001050D60009901680C6824F480640C6035
:100A7000046861680D050DD51578222D1CBF11780D
:100A80002A2903D1856B29684E6802E0416B0D6805
:100A90006E684685418DD1B16569690707D5416AA0
:100AA0004D1C456224690C70418D4C1E44850168C3
:100AB0004C69650607D5446A651C45620969217061
:100AC000418D4C1E4485016C41F004010164016CB0
:100AD00011B100F05FF81CE0282B1CBF2A2B292B3A
:100AE0000BD1DFF8E411C1620021016320211170F4
:100AF0000021517001F018FA0BE0016B222918BF98
:100B0000222B06D10023036320211170537001F0C2
:100B1000F1F8002076BD00000000FFFF38B500F1BD
:100B20003D016FF480620B78C46ADFF89C51042C9D
:100B300014BF082C282B15D1C56203685C6824F407
:100B4000E0645C6003685A610268146824F480649D
:100B500014600022026320220A7000224A7001F011
:100B6000E3F915E0212B11D1C562036320230B703B
:100B700000234B7001684B6823F4E0634B6001680D
:100B80004A61FFF74EFF01F0B6F801E000684261EC
:100B9000002032BD38B5044604F13D0528782928E7
:100BA00018BF2A2804D100202063282028700BE0D9
:100BB0002878602805D02168486801055CBF20219D
:100BC000297000202063687000F05CF8206841689C
:100BD0000A0523D5416821F400614160606B0FF282
:100BE000ED0190F82120012A09D04163606B01F0EA
:100BF0001CFA002829D000F04BF8606B0BE0A06BCA
:100C00004163A06B01F011FAF8B1206800F031F8EF
:100C100000F03EF8A06B416B884716E02978602908
:100C20000ED120222A700022226400F022F82068CF
:100C30000168490849000160204601F061FB04E0B9
:100C400000F017F8204601F05AF8287828280FD12C
:100C5000216C48070CD5FFF75DFB002020632020A6
:100C60002870002068702046BDE8324001F05CB971
:100C700031BD41694A0604D5616A4A1C6262006955
:100C8000087070472068016821F4006101607047B6
:100C900020680168490849000160202028707047D9
:100CA000400001008000010004001000206801687D
:100CB00041F400710160704702000100080001006A
:100CC00010000100000101000000FFFF406A016800
:100CD0000A6822F480620A6000214185426B5163F8
:100CE000826B516300F13D010B78602B0BD1202208
:100CF0000A7000224A70026401680A6852085200B1
:100D00000A6001F0FDBA20230B7000224A700168CE
:100D10000A68520852000A6000F0F1BF80B5DFF89F
:100D2000C802016841F001010160026802F001029D
:100D300000920099416841F080514160406800F0A4
:100D4000805000900098032001F0EBFA002200216F
:100D50006FF00B0001F0F2FA002200216FF00A00A0
:100D600001F0ECFA002200216FF0090001F0E6FA30
:100D7000002200216FF0040001F0E0FA00220021BF
:100D80006FF0030001F0DAFA002200216FF0010099
:100D900001F0D4FA002200214FF0FF3001F0CEFA2A
:100DA0009248016821F0E06141F00071016001BDED
:100DB00000B585B000F02DF816D1116841F400712E
:100DC00011600323126802F40072049280220499D5
:100DD00000920193694601F009FB30200321009045
:100DE00001916946824810E0824B99420FD1116807
:100DF00041F4806111600323126802F4806204925E
:100E00006022049900920193694601F0EFFA05B05F
:100E100000BD0168784B7948734A994270470000D9
:100E2000F0B5044685B020687549884241D1C0219B
:100E30001220019102900322049201A97148724D7F
:100E4000DFF8C86177A701F0D1FA7148016841F471
:100E50000011016005F11401006800F40010009019
:100E60000098316000207060B06000F024F84FF40A
:100E70004050F061304601F095F818B1DC21384659
:100E800001F03CF81020A6637462624E706000208E
:100E9000B060356000F00FF84FF40050F06130465C
:100EA00001F080F818B1EC21384601F027F86663AC
:100EB000746205B0F0BD8020F06000203061706188
:100EC000B061704781B00068534A4749904208D1E9
:100ED000086840F400600860096801F4006100914E
:100EE00015E0B0F1804F07D1486840F0010048603C
:100EF000486800F0010009E0484A904208D148687B
:100F000040F004004860486800F004000090009839
:100F100001B0704700684249884200D0704700B570
:100F20003B4885B0016841F0020101604FF47071E7
:100F3000006800F002000090002200982C48019107
:100F40000292039201A901F051FA2848016841F088
:100F5000E06141F440610160002200211D2001F0A8
:100F6000EDF91D2001F007FA05B000BD1FB50168BD
:100F7000294A2248914208D14FF47061009102221F
:100F8000032301920393694622E0B1F1804F1D4C87
:100F900017D103210091022203910192694601F0C9
:100FA00025FA4FF4406000F016F801F01FFA0F48E0
:100FB000016821F4407141F0E06141F40071016089
:100FC0001FBD1648814205D14FF4407000F003F870
:100FD00001F00CFA1FBD0090022103200191039043
:100FE0006946204670470000181002400400014086
:100FF0000010014000280140002401400008014089
:1010000000540040000C01406C0002401805002014
:101010001C1002405C050020002C0140000800402C
:1010200000040040433A5C55736572735C736575E8
:101030006E676879756E5C4465736B746F705C4441
:10104000722E4F4E455C41524D5C44722E6F6E6560
:101050005C5372635C73746D3332663178785F68A9
:10106000616C5F6D73702E63000000002DE9F84322
:101070000646DFF88C543078C1074AD5686800F01E
:101080000C00042807D0686800F00C0008280BD179
:101090006868C10308D5296888033AD570680028B4
:1010A00040F0C080012069E17068B0F5803F0FD04A
:1010B00038B9296821F480312960286820F480201B
:1010C00009E0B0F5A02F296807D141F480212960FB
:1010D000286840F48030286006E021F480312960DF
:1010E0002A6822F480222A60706868B101F074FADC
:1010F00004462968880300F1958001F06DFA001B11
:101100006528F6D3032039E101F066FA0446286821
:10111000810340F1878001F05FFA001B6528F6D358
:10112000F0E701F059FA001B022840F2AA80E9E733
:10113000306970B10121396001F04EFA0446286827
:10114000810700F1DC8001F047FA001B0228F6D984
:10115000D8E7386001F040FA04462868810765D571
:1011600001F03AFA001B0228F7D9CBE7086001F03A
:1011700033FA0446686A810777D501F02DFA001B1F
:101180000228F7D9BEE708B9286A09E00528286AC5
:1011900006D140F004002862286A40F0010005E012
:1011A000400840002862286A20F00400286241F2CA
:1011B0008938F06868B101F00FFA8146286A810722
:1011C00000F1AA8001F008FAA0EB09004045F5D330
:1011D00098E701F001FA8146286A810740F19C8076
:1011E00001F0FAF9A0EB09004045F5D38AE701F0D8
:1011F000F3F9001B022840F2A28083E701F0ECF92A
:10120000001B022840F2B5807CE700F0B9F80446E4
:101210002868810140F1B18001F0DEF9001B02284D
:10122000F6D96FE73078DFF8E47281071BD568687C
:1012300010F00C0F09D0686800F00C0008287FF44B
:1012400077AF6868C1033FF573AF2968880703D596
:10125000306901287FF426AF2968706921F0F80110
:1012600041EAC0012960317808071DD5B069DFF86F
:10127000A01200283FF47AAF01220A6001F0ACF915
:101280000446686A81077FF54CAFDFF8781208687A
:10129000C0084FF47A72B0FBF2F2009200BF0098DF
:1012A000411E00280091F9D13078410739D5E8690D
:1012B0000024C10009D4E86940F08050E8610124AD
:1012C000E86900F0805000900098DFF84882D8F874
:1012D0000010C8051BD4D8F8000040F48070C8F88E
:1012E000000001F079F98146D8F80010C8050ED445
:1012F00001F072F9A0EB09006528F5D302E7286830
:10130000716920F0F80040EAC1002860ABE7F0689E
:1013100001287FF438AF3FE71CB1E86920F0805026
:10132000E861F06948B3696801F00C0108293FF4ED
:10133000B9AE02287FF469AF00F022F804462868AD
:1013400081013FF554AF306AB0F5803F05D169683F
:10135000B06821F40031014369606968306A21F4A2
:1013600074110143706A01436960012000F009F8BB
:101370000446286881017FF541AF0020BDE8F28373
:101380000020386601F028B92DE9F843624F054680
:101390003868894600F00700484502D200F07AF824
:1013A0006CD12978564C880705D56168A86821F06A
:1013B000F001014361602878C10757D568680128AA
:1013C00002D121688A0303E0022803D121688A013F
:1013D00003D453E02268910750D56168890840EA38
:1013E0008100606041F2893801F0F6F806466868CD
:1013F00001280BD1606800F00C00042836D001F001
:10140000EBF8801B4045F5D303202DE0022837D1AF
:10141000606800F00C00082828D001F0DDF8801B7F
:101420004045F5D3F0E72878410705D56168E868BD
:1014300021F4E061014361602878010706D5606806
:10144000296920F4605040EAC100606000F02CF887
:1014500062683249C2F30312895C2A4AC8401060AC
:10146000002001F0BFF80020BDE8F283386800F0EA
:1014700007008145D7D200F00DF8D4D00120F3E762
:10148000606810F00C0FF1D001F0A6F8801B404509
:10149000F6D3B9E73968C90849EAC1013960386843
:1014A00000F00700484570471D4917480A6802F0D8
:1014B0000C03082B00D0704710B500BF1BA4C2F36B
:1014C0008343D203E35C09D5096800BF1BA2C1F3C3
:1014D00040415843515CB0FBF1F010BD1846114932
:1014E000484310BD07480068704706480C4A00682A
:1014F00013680D49C3F30222FFE7895CC8407047B7
:10150000001002408801002000127A0000004242D0
:10151000800442420070004000200240A43F0008C6
:101520000410024000093D00B44100080203040514
:10153000060708090A0B0C0D0E0F10100102704768
:101540002DE9F84F01F06EF800F057F900F0FBFAC2
:10155000DFF89408DFF89468016841F00101016048
:10156000006800F001000090009800F089F9DFF8B1
:1015700080083060DFF87C0870600020B060602078
:10158000F0604FF48040306100207061B061F06124
:10159000802030623046FEF7CBFD00B1FEE700F060
:1015A00027F91F2000F0E7FE00F01DF9202000F0D1
:1015B000E2FE00F0C3F900F012FA00F038FA00F091
:1015C00084FA00F082F900F013F91F2000F0D3FE36
:1015D00000F009F9202000F0CEFE002200211020AA
:1015E00000F0ACFE102000F0C6FE00220021112009
:1015F00000F0A4FE112000F0BEFEDFF8FC47002141
:1016000000F0E9F8042100F0E6F804F11C0001F014
:101610001BF8DFF8E8A708210AF11C0001F041F8E7
:101620000C210AF11C0001F03CF8DFF8D4570C2122
:1016300005F11C0001F035F8082105F11C0001F04E
:1016400030F80C2100F0C7F8DFF8B877002100F07F
:10165000C6F8042100F0C3F8082100F0C0F80C21FE
:1016600000F0BDF800F0B1F80FF6940B38B1584611
:1016700001F05CFBFEE74FF4004100F0A3F800F03E
:10168000A4F8002878D1207E012807D161680322C0
:1016900004F10C0000F006FC00202076287E0128D2
:1016A00007D16968032205F10C0000F0FBFB002064
:1016B0002876387E012807D17968032207F10C00CB
:1016C00000F0F0FB002038769AF81800012809D1C4
:1016D000DAF8041003220AF10C0000F0E3FB00200A
:1016E0008AF818006068DFF82087DFF8209701F09B
:1016F00031FB00F063F801F051FBA060686801F075
:1017000029FB00F05BF801F049FBA860786801F064
:1017100021FB00F053F801F041FBB860DAF8040057
:1017200001F018FB00F04AF801F038FBCAF8080095
:1017300006F15402514606F1940000F078FA06F1E1
:101740006402394606F1CC0000F071FA06F1740229
:10175000294606F5827000F06AFA06F184022146F5
:1017600006F59E7000F063FA306EDFF8A48601285B
:10177000ACBF0122002203E0584601F0D7FAFEE791
:101780004FF4805100F01EF8306F0128ACBF0122E9
:1017900000224FF4005100F015F8D6F8800001281F
:1017A000ACBF012200224FF4804100F00BF8D6F8C4
:1017B00090000128B4BF002201225CE742464B465C
:1017C00001F020BB404600F0E2BE052206F5BA71EA
:1017D0003046FEF737BD04F11C0000F062BF07F190
:1017E0001C0000F096BF00220021202000F0A6BDC2
:1017F000002200211F2000F0A1BD00B5002195B0FE
:1018000001200D910B90022112914FF480300C9029
:10181000012213904FF4E0110F9214910BA8FFF7DF
:1018200025FC00B1FEE70F2102200091019000216C
:101830004FF4806002910390049168460221FFF703
:10184000A3FD00B1FEE7022005904FF4004107918F
:1018500005A801F0A9FB00B1FEE7FFF743FE4FF436
:101860007A71B0FBF1F000F090FD042000F0A1FDD2
:10187000002200214FF0FF3000F060FD15B000BDE8
:101880001FB5DFF89045DFF8900500F049F8032018
:101890002061204601F0FCFB00B1FEE70E20012193
:1018A00000F0C1F92046694601F07AFC00B1FEE77C
:1018B0000F2000F029F801F073FC00B1FEE70720CB
:1018C0000090032100F026F819E01FB5DFF84C4521
:1018D000DFF84C0500F024F802202061204601F0DA
:1018E000D7FB00B1FEE705200090012100F012F8BF
:1018F00001F056FC00B1FEE7062000F005F801F00B
:101900004FFC00B1FEE71FBD02210090019120466F
:101910006946704700200191029069462046704751
:1019200020604FF48070A0600120E06000206061C2
:101930004FF46020E061002060607047DFF8E4044D
:1019400030B5DFF8B444E0614720206289B0002060
:1019500060624FF4FF60A0620020E0622063606379
:1019600004F11C0000F090FE00B1FEE70021079199
:10197000089007A904F11C0001F0C0FC00B1FEE7CB
:10198000602000904FF47A7100F020F84FF48075D9
:1019900005950022694600F046F800F08FF801F046
:1019A00009F800B1FEE76020009040F2DC5100F041
:1019B0000DF805950822694600F035F800F077F833
:1019C00000F0F8FF00F0A3F809B030BD002001914D
:1019D00002900021042003910490069170474FF07B
:1019E000804018B5DFF81844E06140F21F10206213
:1019F00089B000F09CF800F090F800B1FEE760209C
:101A000000210290039100200421049006910022FD
:101A100000F008F800B1FEE7042200F003F800B17E
:101A2000FEE768E002A904F11C0000F0C3BFDFF884
:101A3000F80310B5DFF8CC43E0610820206286B0DF
:101A40000020606241F61F40A0620020E0626063F7
:101A500004F11C0000F048FE00B1FEE700210491F3
:101A6000059004A904F11C0001F048FC00B1FEE758
:101A7000012101910090002102900391002200F0C9
:101A800011F800F01BF800F013FF00B1FEE7082288
:101A900000F008F800F00BF800F00AFF00B1FEE7D4
:101AA00006B010BD694604F11C0000F001BF00B192
:101AB000FEE70C22694604F11C00704700B1FEE706
:101AC0000422694604F11C007047DFF8600318B572
:101AD000CA4CE06140F21F10206289B000F027F884
:101AE00000F01BF800B1FEE7002103910491602093
:101AF0000421029006910822FFF794FF00B1FEE74F
:101B00000C22FFF78FFF00F002F80AB010BD00B101
:101B1000FEE704F11C00FFF729BA00B1FEE700213F
:101B200000910190694604F11C0001F0E7BB002020
:101B3000606240F2FD10A0620020E062606304F188
:101B40001C0000F0A1BD78B5B948BA4CB04D85B0C5
:101B5000016841F02001016041F20C06026802F0C8
:101B6000200204920499016841F0100101600268AA
:101B700002F0100204920499016841F0040101602E
:101B8000026802F00402049200220499016841F004
:101B9000080101603146006800F0080004900498D4
:101BA000204600F0F4FC00224FF47041284600F07B
:101BB000EEFC082000F036F869469F4800F016FC5D
:101BC00001200190002103200291039000966946B4
:101BD000204600F00BFC4FF4704001210090019171
:101BE00000200321029003912846694600F0FEFB85
:101BF000042000F017F86946904800F0F7FB382001
:101C000000F010F82846694600F0F0FBC020009074
:101C100002210020019102906946284600F0E6FB6F
:101C200006B070BD002100900191029170472DE92E
:101C3000F041834C064620688968154601F084FB14
:101C4000804901F0C1FB044638BF7F4804D37F4977
:101C500001F0CCFB04D87E48214601F0D9FB0446B4
:101C6000F169B461204601F06FFB3062794F776211
:101C7000B4693068214601F03DFC8046C6F80C800E
:101C80002046394601F036FC716801F033FC3169B9
:101C900001F0BEFB7049306101F0A8FB98BF6F48AE
:101CA0006F49306101F090FB38BF0846306139461A
:101CB000306A01F08BFCB16801F01CFC07467761CB
:101CC0004146306901F0A4FB394601F0A1FB6549AA
:101CD000B06201F079FB38BF084604D3624901F0D5
:101CE00085FB98BF6148B06201F0EEFCE860F461EA
:101CF000BDE8F08100E000BF3AA001F017B87047DE
:101D000038B50168484DA9426AD13B4CE16D491C88
:101D1000E165017F4848012913D1696B2180402189
:101D200000F02FFC18B100F0A3F8012145E00022DB
:101D3000012100F0A1F800F0A1F828BF01F5E15160
:101D400048E0022914D12E4CA96B2180802100F09B
:101D500018FC18B100F08CF802212EE000220221BC
:101D600000F08AF800F08AF828BF01F5E15131E06F
:101D7000042915D1234CE96B21804FF4807100F0C8
:101D800000FC18B100F074F8032116E000220321D2
:101D900000F072F800F072F828BF01F5E15119E087
:101DA00008291DD1154C296C21804FF4007100F0D9
:101DB000E8FB30B100F05CF804212846BDE838406B
:101DC00062E00022042100F057F800F057F828BF25
:101DD00001F5E151081A01F08DFC606001202076C8
:101DE00031BD000068690A001410024000000020A4
:101DF00000540040801A0600040300201C04002048
:101E000064030020C00300209A9999999999A93FE9
:101E1000000C0140A005002000240140D005002056
:101E200000280140002C0140000400400008004050
:101E30001810024000080140001001400014014049
:101E400008060020000034C30000B44300003443FF
:101E50000000B4C36F12833A0100A0410000A0410A
:101E60000000A0C10000FFC30100FF430000FF43CA
:101E70002088608002227047284605E0608821881B
:101E80008842218860887047491E02238900002A01
:101E900003FA01F1026A89B20CBF22EA010111437F
:101EA000016270472DE9F341154680460026002760
:101EB0006C1E08E058F827004FF07E5101F0A8FA98
:101EC00048F827007F1CA742F4DB019808EB850146
:101ED000002741F8040C06E058F82700314601F0CD
:101EE00097FA06467F1CAF42F6DB284601F002FC5B
:101EF00001463046BDE8FC4101F068BBFEE700004A
:101F000073657420736C61766520526563656976CC
:101F100065204954204661696C65640A0000000030
:101F200070477047704770477047F0B402461068BA
:101F300095681318506803EB5004C00721D54D4431
:101F40001FE0F0BC02F10C00704713F8017B05F8AC
:101F5000017B491EF9D1A0B1B60813F8011B06F0A8
:101F60000306032E08BF13F8016B01EB062149425B
:101F7000801C294405D011F8016B05F8016B401E47
:101F8000F9D1A342DDD013F8016B16F0030104BFB1
:101F900013F8011BC91C30090F28DAD113F8010B03
:101FA0000F30D6E730B508B9012030BD0268DFF840
:101FB0000C138A4200F1280306D2DFF8041300F064
:101FC0002DF8DFF8001305E0DFF8FC1200F026F82A
:101FD000DFF8F8125961022180F821101468416875
:101FE0006FF30D140C4381680C43C1680C43016905
:101FF0000C4341690C4381690C43C1690C43146073
:102000000021196059609960D9601961012180F837
:102010002110002180F82010002030BD8C181425DC
:10202000B4FBF5F4A4009C617047F8B590F821204A
:102030000024022A00F1340103D004204860012466
:102040005FE00268DFF88862136823F00E03136014
:102050004FF48077026815686D086D0015604FF4C5
:1020600080320368B3424FF4805519D9DFF84C62CF
:10207000B34208BF012210D0DFF85862B34208BF54
:1020800010220AD0DFF85062B34208BF3A4604D0AB
:10209000DFF84862B34208BF2A46DFF8443227E03F
:1020A000DFF840C263451CD0DFF83CC263451AD05C
:1020B000DFF838C2634518D0DFF83472BB420EBF78
:1020C0002A46DFF83052AB4210D0DFF82C52AB4238
:1020D00008BF4FF4801209D0B34207D14FF080728D
:1020E00004E0012202E0102200E03A46DFF80C3260
:1020F0001A60012280F8212080F82040096801B18F
:1021000088472046F2BD2DE9F84F00F12802042748
:102110005169744BD1F800E004686D4925689669EF
:10212000DFF8BC81DFF8B491DFF8ACA1DFF8A4B12F
:10213000DFF888C1B7401EEA070F4AD06F0748D5BD
:102140002568AD0603D4256825F0040525604FF405
:10215000802407688F424FF480454FF4806611D980
:10216000674508BF04240AD05F4508BF402406D055
:10217000574508BF344602D04F4508BF2C46C8F823
:10218000004020E09F4217D0574B9F4216D0574B3C
:102190009F4215D0564B9F420EBF2C46554B9F4237
:1021A0000FD0554B9F4208BF4FF4800409D08F4297
:1021B00007D14FF0806404E0042402E0402400E0F2
:1021C00034464E490C605168002974D0BDE8F44F84
:1021D00008470227B7401EEA070F4FD0AF074DD57B
:1021E0002568AD0606D4256825F00A05256001247A
:1021F00080F821404FF4003407688F424FF40055B7
:102200004FF4007611D9674508BF02240AD05F4514
:1022100008BF202406D0574508BF344602D04F459A
:1022200008BF2C46C8F8004020E09F4217D02E4B34
:102230009F4216D02D4B9F4215D02D4B9F420EBF73
:102240002C462C4B9F420FD02B4B9F4208BF4FF484
:10225000001409D08F4207D14FF0007404E002242B
:1022600002E0202400E0344624490C60002180F87C
:1022700020101168F9B1BDE8F44F0847082101FAB0
:1022800006F61EEA060F16D0290714D5216821F09C
:102290000E012160012391698B4051694B6001233C
:1022A0000021136180F8201080F82130916811B16D
:1022B000BDE8F44F0847BDE8F18F00000804024074
:1022C000F8FFFDBF00000240F8FBFDBF0004024024
:1022D000800002401C0402403004024044040240DA
:1022E00004040240080002401C000240300002408A
:1022F00044000240580002406C00024004000240CA
:10230000704700000901020081B006D52F4A00F095
:102310000F00104400F8041C01E02D4B195401B0CB
:1023200070472C4A13684FF6FF0100020B4000F47F
:10233000E0601843284908431060704738B5254BC2
:102340001C68C4F30223C3F10704052C28BF04242E
:102350001D1D072D34BF0023DB1E012505FA04F4E3
:10236000641E2140994005FA03F35B1E1A40114395
:10237000BDE83440C6E7012200F01F01174BFFE71C
:102380008A40400943F82020704710B5401EB0F144
:10239000807F01D3012010BD114C60600F214FF0F0
:1023A000FF30FFF7AFFF0022A2600720206000206F
:1023B00010BD04280A4904D1086840F004000860F0
:1023C00070470A6822F004020A60704718ED00E0C6
:1023D00000E400E00CED00E00000FA0500E100E0A0
:1023E00010E000E000F000B8704700002DE9F84F61
:1023F00083460F46002080466849694A694B4FF082
:102400000F094FF0010A3C680AFA08F606EA040EC2
:10241000B64540F0AE807C683CB3012C1AD0022C4B
:102420001DD0032C2ED0112C16D0122C1AD05E4D9C
:10243000AC421CBF5D4DAC4217D05D4DAC421CBFE1
:102440005C4DAC4211D05C4DAC421CBF5B4DAC420C
:102450000BD018E0F86816E0F868001D13E0F86883
:10246000083010E0F8680C300DE0B86808B90420B6
:1024700009E0012819BF0820CBF814600820CBF828
:10248000106000E00020BEF5807F03D2DC464FEAFA
:10249000880404E0A8F108040BF1040CA400DCF8A3
:1024A000005009FA04F6B54300FA04F42C43CCF8C2
:1024B00000407C68E4005CD51C6844F001041C60AA
:1024C0004FEA980C1D6805F001050095009C52F834
:1024D0002C604FEA880404F00C0409FA04F526EA9B
:1024E0000505374EB34508BF002618D0354EB34515
:1024F00008BF012613D0344EB34508BF02260ED0C4
:10250000324EB34508BF032609D0314EB34508BF4C
:10251000042604D02F4EB3450CBF0526062606FA26
:1025200004F42C4342F82C406FEA0E067C68E50365
:1025300004D50D684EEA05050D6002E00C683440D4
:102540000C607C68A5034C684CBF4EEA0404344020
:102550004C607C68E5028C684CBF4EEA0404344051
:102560008C607C68A502CC684CBF4EEA0404344001
:10257000CC6008F10108B8F10F0F7FF644AFBDE859
:10258000F18F8068084018BF0120C0B2704781B049
:1025900002B90904016101B0704700000004014064
:1025A0000800014018100240000011100000121035
:1025B0000000211000002210000031100000321035
:1025C00000080140000C01400010014000140140CF
:1025D00000180140001C014001484068704700BFDE
:1025E0007C01002038B50D4D0D4A297804464FF482
:1025F0007A70B0FBF1F11068B0FBF1F0FFF7C5FEA7
:1026000050B9102C08D2002221464FF0FF30FFF7BE
:1026100095FEAC60002032BD012032BD7C0100205F
:102620008801002080B50748016841F01001016071
:102630000320FFF776FE0020FFF7D4FFFEF76EFBC6
:10264000002002BD002002400068C16841F0010185
:10265000C160026842F0010202600020704702205F
:102660006870211D206800F01CFA012068700020AD
:1026700032BD03D1416C41F400414164026842F033
:1026800001020260002016BD38B5040001D101200E
:1026900032BD00F03AF818B900F033F8FEF712FC3A
:1026A000DDE71CB500F007F800F019F81CBFDFF8F3
:1026B0009C108842DDE704460122206800F02ABB16
:1026C0002068C26842F0080270472068C26842F081
:1026D000040270472068C26842F002027047206816
:1026E000DFF86C108842704738B5040001D1012032
:1026F00032BD00F00AF818B900F003F8FEF70AFC42
:10270000ADE7002129702046704704F13C05687848
:10271000704710B5044608000BD004290CD00829D6
:102720000DD00C2901BF2068C36843F01003C360BB
:1027300008E0FFF7CFFF04E0FFF7C7FF01E0FFF776
:10274000BFFFC2602068012205E0000000340140A4
:10275000002C0140206800F0DDFA2068016841F09B
:1027600001010160002010BD10B504462068016918
:102770008A0715D5C1688A0712D56FF00202026177
:1027800001212177806910F0030F204602D0FFF766
:10279000B7FA03E000F0C0FF00F087F800202077D0
:1027A000206801694A0715D5C1684A0712D56FF03C
:1027B0000402026102212177806910F4407F2046E3
:1027C00002D0FFF79DFA03E000F0A6FF00F06DF8DD
:1027D00000202077206801690A0715D5C1680A071B
:1027E00012D56FF00802026104212177C06910F050
:1027F000030F204602D0FFF783FA03E000F08CFFBE
:1028000000F053F80020207720680169CA0615D52A
:10281000C168CA0612D56FF0100202610821217743
:10282000C06910F4407F204602D0FFF769FA03E048
:1028300000F072FF00F039F800202077206801696D
:10284000CA0708D5C168CA0705D56FF00102026141
:10285000204600F062FF206801690A0608D5C168B9
:102860000A0605D56FF080020261204600F056FF8F
:10287000206801694A0608D5C1684A0605D56FF087
:1028800040020261204600F04AFF206801698A0682
:102890000AD5C1688A0607D56FF02002026120467A
:1028A000BDE8104000F03CBF10BD204600F039BF2D
:1028B000F8B500F0E7F801D10220F2BD00F0E9F828
:1028C00082B9EB686A682968306800F0D2F930682C
:1028D000816921F00C01816131688A69A86802432D
:1028E0008A6164E0042A10D1EB686A68296830685C
:1028F00000F0F6F93068816921F4406100F0BEF81B
:10290000AA6841EA0221816151E0082AE9686A68FF
:102910002B6827D13768386A20F480703862090143
:1029200007F11C0001F0F001D0F800C0D7F820E05A
:102930004FEA9C0C42EA8C0222F0F0021143016043
:102940001B022EF4206003F4206303433B623068D3
:10295000C16921F00C01C1613168CA69A8680243EC
:10296000CA6124E030681C300903476827F48057A7
:10297000476001F470410768D0F804C027F440773D
:1029800047EA022727F47047394301601B032CF400
:10299000005103F400530B4343603068C16921F4D4
:1029A000406100F067F8AA6841EA0221C161012094
:1029B000607073E070B500F065F801D1022070BD61
:1029C00000F067F832B1042A17D0082A28D00C2A60
:1029D00039D04AE03068294600F09DF830688169B6
:1029E00041F0080100F04AF821F0040181613168EA
:1029F0008A69286902438A6137E03068294600F015
:102A0000B3F83068816941F4006100F037F821F4CF
:102A1000806100F033F82A6941EA0221816124E0F3
:102A20003068294600F0D0F83068C16941F00801EB
:102A300000F020F821F00401C1613168CA692869F9
:102A40000243CA6111E03068294600F0EFF83068AF
:102A5000C16941F4006100F00DF821F4806100F0DB
:102A600009F82A6941EA0221C16101206070002051
:102A7000207070BDC1613068C16970478161306884
:102A800081697047064606F13C040D46207801280E
:102A90007047012121700220607070470020207073
:102AA000F2BDF0B5DFF824C2894F0368894C8A4D26
:102AB0008A4E604518BFB84208D0B0F1804F18BFA9
:102AC000B04203D0A84218BFA0420DD14A6823F0FB
:102AD00070031343604518BFB84207D0B0F1804F70
:102AE0001CBFB042A84201D0A04203D1CA6823F45F
:102AF000407313434A6923F0800313430360604526
:102B00008A68C2620A68826212BFB84209690163B8
:102B100001214161F0BDF0B5026A6C4F6C4E520864
:102B200052000262056A4368846900F079F825F072
:102B300002051543B84218BFB04207D1CA6825F054
:102B400008051543B84225F0040501D0B04205D16F
:102B50004A6923F4407313438A69134343608461D1
:102B6000496841630562F0BDF0B5026A574E22F034
:102B700010020262B042056A436884690A6824F45C
:102B8000E64444EA02248A6825F0200545EA021555
:102B90004F4A18BF904208D1CF6825F0800545EA1A
:102BA0000715B04225F0400501D0904206D14E698C
:102BB0008A6923F44063164343EA860343608461D1
:102BC000496881630562F0BDF0B5026A3F4E22F4A8
:102BD00080720262056A4368C46900F021F825F436
:102BE000007545EA02253A4AB04218BF904208D122
:102BF000CF6825F4006545EA0725B04225F48065D5
:102C000001D0904206D14E698A6923F4405316439D
:102C100043EA06134360C4614968C1630562F0BDBD
:102C20000A6824F0730414438A68704770B5026A16
:102C3000264E22F480520262B042046A4268C3699E
:102C40000D6823F4E64343EA05238D6824F4005419
:102C50001CBF1F4EB04244EA053404D14D6922F432
:102C6000804242EA85124260C3614968016404629D
:102C700070BD70B5046A154E640864000462B04209
:102C80008469056A1CBF124EB0420BD0B0F1804F70
:102C90001CBF124EB04205D00F4EB0421CBF0D4EAD
:102CA000B04203D1A40842EA840201E044F00102E8
:102CB0001B0122F0F00203F0F0031A4325F00A058D
:102CC00001F00A0182612943016270BD002C0140BC
:102CD00000340140000C00400008004000040040A7
:102CE00030B5046A24F0100404621B038469056A89
:102CF00024F4407444EA022424F4704403F470433E
:102D00000901234325F0A00501F0A00183612943B7
:102D1000016230BD10B5036A01248C40A3430362F5
:102D200002FA01F1036A1943016210BD0EB4C0B585
:102D3000024603A800210190009101AB0121044843
:102D400078440C3000F0FCFC06BC5DF810FB00BFC2
:102D500025140000C0F3C75181B1FF2906D0C1106E
:102D6000400721F0E04101F16051704741020CBF82
:102D700040F4E0016FF000410020704700F0004196
:102D800000020AD0B0FA80FC00FA0CF001F16051A8
:102D9000A1EB0C5101EBD0214005704701F000423E
:102DA0008B1AA3F16051B1F5801F0ADBB1F17F6F7F
:102DB0001FD242EAC102C10071F1004142EB5070E2
:102DC00070470B15C3F10903212B10D2890241EA88
:102DD000905180020128494141F0004121FA03F05D
:102DE000C3F12003994071F1004150417047100038
:102DF00070476FF0000013EB103F5CBF000E42EA1B
:102E0000C0507047B0B581EA030C0CF0004C40F2A2
:102E1000FF7515EA11541DBF15EA1357AC42AF42B6
:102E200039E0E41923EA455343F48013C90241F021
:102E3000004141EA505EC7021100A7FB02020028D0
:102E40004FF00000EEFB01204FF00001E3FB0721F3
:102E500018BF42F00102401800214941E3FB0E0176
:102E6000A4F580640F0302D252004041494154F15D
:102E700001046CDD470872F1004250F1000051EB93
:102E80000451A1F580115CBF41EA0C01B0BD4CEAD0
:102E900005510020B0BD05EA1357AC4214BFAF4244
:102EA00041E050EA410E1CBF52EA430E02E0614687
:102EB0000020B0BD24423C441BD15FEA070EF6D08F
:102EC000090302BF01460020AEF1140EB1FA81F7EA
:102ED000AEEB070401FA07FE0C37C7F1200100FA38
:102EE00007F7C8404EEA000E23EA455343F4801327
:102EF000A2E733F00043B3FA83F704BFB2FA82FECD
:102F000077440B3FE41BB7F1200E2FBF02FA0EF3FC
:102F1000BB40C7F1200E22FA0EFE38BF43EA0E0373
:102F2000BA40641C82E750EA410E14BF52EA430ED5
:102F30006FF000014FF4001717EB430F8ABF1946DB
:102F400017EB410FB5E74CEA05510020B0BDD4F1B5
:102F50000104B4F120070FDAC4F12007520828BF9A
:102F600042F0010210FA07F501FA07F7E1BF2A4320
:102F7000E0403843E1400FE0352C98DCC7F12004F5
:102F800052EA400220FA07F218BF42F0010231FA79
:102F900007F0A1400A43002172F1004250F1000005
:102FA00051EB0C01B0BD00002DE9FC410646354D4A
:102FB0003078C10750D5A8690024C10009D4A86998
:102FC00040F08050A8610124A86900F08050009072
:102FD00000982D4F3968C80517D4386840F48070C0
:102FE0003860FFF7F9FA80463968C8050DD4FFF755
:102FF000F3FAA0EB08006528F6D303203FE0FFF7C3
:10300000EBFAC01B404519D3F7E7E86910F44070AC
:103010001EBF716801F44071884212D01B49E869F3
:1030200001220A6020F4407000220A60E861C007B3
:1030300007D5FFF7D1FA074641F28938E8698107D9
:10304000DDD5E969706821F440710143E9611CB183
:10305000A86920F08050A8613178880705D52A68D2
:10306000B06822F4404202432A603078C10605D598
:103070002968706921F48001014329600020BDE8BE
:10308000F6810000041002400070004040044242FB
:10309000F8B5044600270026002C7AD004F1240558
:1030A000686820B9AE6028702046FDF781FE204692
:1030B00000F002F96968CA066CD401006AD1696837
:1030C00021F4885141F0020169602368DFF8CC11D6
:1030D000E269D4F804C08B4204BFB2F5402F4FF42C
:1030E0000022E16842EA0C02D4F808C0BCF5807FF7
:1030F00014BFBCF1010F4FF48077D4F814C0BCF1B9
:10310000010F42EA41020FD131B9A169491E4903B9
:1031100041F400610F4307E0696841F020016960F4
:10312000A96841F00101A960596821F469410F4380
:103130005F602368DFF868119F680F4017439F6046
:10314000A168B1F5807F18BF012902D12669761EDA
:1031500036052168CB6A23F470031E43CE622468CF
:10316000DFF84011A3680B40934208D10021A96009
:10317000696821F0020141F001016960F2BD6868EF
:1031800020F0020040F010006860A86840F00100E4
:10319000A86003E0686840F0100068600120F2BD9C
:1031A000F8B50A46002100F1240300911C78012C97
:1031B00001D10220F2BD01251D701F27546815683A
:1031C0000668072C08D2641E04EB8404D6F834C0C9
:1031D00000F05EF8756312E00D2C08D2E41F04EBDA
:1031E0008404D6F830C000F053F8356307E00D3C96
:1031F00004EB8404D6F82CC000F04AF8F5620727E7
:103200001668946805680A2E08D30A3E06EB46063F
:10321000D5F80CC000F036F8EC6006E006EB460688
:10322000D5F810C000F02EF82C611468102C18BFCF
:10323000112C23D100681D4CA0421AD11C480468EF
:1032400025021BD4056845F40005056010681028A8
:1032500014D1154C17482568B5FBF0F00A225043ED
:103260000090009800281EBF009A521E0092F8D1CC
:1032700004E00121586840F02000586000201870D8
:103280000846F2BDB7402CEA0707B4403C437047FC
:10329000A7402CEA0707A5403D437047003C01408A
:1032A000FDF7E1FFFE0E1FFF880100200024014012
:1032B0000824014040420F0038B504462068816868
:1032C000CA0719D58168490849008160FFF784F968
:1032D000054620688168C8070ED5FFF77DF9401BB9
:1032E0000328F6D3A06A40F01000A062E06A40F024
:1032F0000100E062012032BD002032BD30B500F196
:103300003C031A78012A01D1022030BD01241C702F
:1033100002225A700268546824F0700454600468F1
:1033200065680A68154365600268946824F0800443
:10333000946002689468486804439460012058705F
:103340000020187030BD000090EA010F40F1668047
:1033500081F00041421A3CBF801A89184FF0004C9E
:10336000C0F3C752FF2A24D0C1F3C75313B3D21AF4
:10337000D2F1190327DD4CEA01214CFA03F321EACB
:103380000303D140C20D4CEA0020401834BF20EAAC
:103390000C004CEA5000D20553EA006373EB0C0CAE
:1033A00052EB1020420012F1807F38BF7047C00DF1
:1033B000C0057047490212BF9A4200EB5120F8E75E
:1033C000D2F11703D9D570474FF0807C1CEB400F2A
:1033D00094BF1CEB410F05E040EA010C1CEB0C0F05
:1033E00001D28842704718BF814270474FF0807CFD
:1033F0001CEB400F94BF1CEB410F05E040EA010CB1
:103400001CEB0C0F01D28142704718BF88427047F5
:1034100090EA010F7FF59EAF81F00041431A4FF013
:1034200000423EBF5340C01AC91800BFD3095FEA2B
:10343000D05C13EB400F34BFB3EB410F40E07CEBAB
:10344000D1530CD342EA012122D8D1EB402009D339
:10345000400A28BF5FEA500140EBCC507047401A49
:1034600015D04002B0FA80F2521C9040400A4FEA58
:103470003C23B3EB026384BF00EB730007E040F42E
:1034800000001A16DB07C2F10102D0401843704752
:10349000182BFCDC31FA03F202FA03F3591A38BF95
:1034A00042F00102D2EB40203CBF4000ACF1010CE5
:1034B0005FEACC5CC20572F100414CEB50207047D2
:1034C00013EB400F0FD2C94209D0ACEBD153022B02
:1034D00003DB4902172BDDDD70479143401AC042E0
:1034E000D5D10020704713EB410FD0D36FF000000F
:1034F00070470000FF2212EAD05C1DBF12EAD153D0
:10350000944593422BE09C44D30780EA01021A4081
:1035100043EA002043EA0121A1FB0030C04238BF4A
:1035200040007CF17F010BDBFE294ADA5B0842EAAE
:10353000C15153EA006373F1004C51EB1020704706
:10354000D1F1080CDCF120012FDB5B0810FA01F14E
:103550000B4320FA0CF073F1004150417047944541
:103560001CBF02EAD153934280EA010202F00042FA
:103570001DD0400019D0490017D05BB9634514D065
:103580000902B1FA81F39940BCEB030CC00140F091
:103590000040C1E70002B0FA80FC10FA0CF0B3EB77
:1035A0000C0CC90141F00041B6E710007047400023
:1035B0000AD0490008D010F1807F94BF11F1807FBC
:1035C00002E042F0FF407047D043704710B5FF2340
:1035D00013EAD0541DBF13EAD1529C429A4239E0FB
:1035E000A41ADA0780EA0103134042EA012142EA01
:1035F0000020421A3CBF641E01EB4202090AB2FBE2
:10360000F1FE01FB1E221202B2FBF1F001FB1022BF
:103610006EF30F201202B2FBF1FE4EEA00207F345F
:1036200006DDFE2C24DA53EA500050EBC45010BDE6
:10363000D4F1020401FB1E2240F08071192C1DDC24
:1036400021FA04F0C4F12004A140114371F10042B9
:10365000584110BD9C421ABF03EAD1529A420FE072
:1036600080EA010E0EF00043400004D0490016D15C
:1036700043F0FF4010BD490008BFD343180010BD00
:103680009C4205D1D21AF7D001F00041484010BD4C
:103690004A0212BF0846484000F0004010BD4AB937
:1036A0000902B1FA81F2914044B1A418C00140F07E
:1036B00000409EE7C90141F0004152420002B0FAC9
:1036C00080F4A040141B94E7C0F3C7517E390EDD8F
:1036D000C217D1F1200106DD000240F00040C840D1
:1036E000104450407047D04380F0004070470020A5
:1036F00070470000C2175040801AB0FA80F10AD01B
:103700008840D1F19D01D20742EAC151020672F10F
:10371000004241EB10207047704770477047704778
:103720007047704770B51C000546164606D008461F
:1037300016F8011BA847641EFAD10146084670BD61
:103740002DE9FC4383B08146884617461D4607E0B5
:1037500001233A4641464846FFF7E4FF80467F1C76
:103760003878E0B12528F3D17978BF1C252912D00B
:1037700058295AD0632915D0642918BF692918D04F
:103780006F2952D0702956D073295BD0752918BF84
:1037900078294AD0E4E74046C8478046E0E705B0CC
:1037A000BDE8F0832868286050F8041B2860C9B27F
:1037B000F1E72868286050F8046B2860002E03D5D4
:1037C0002D214046C847804664216F2908BF082242
:1037D00005D041F02000782814BF0A2210220B24C3
:1037E0006429304602D1002E48BF4042B0FBF2FCB3
:1037F00002FB1C003030641EC3B23A2BA4BFA1F1FF
:10380000510318180DF804005FEA0C0001D0002CD9
:10381000ECDC0DEB0406D4F10B044046BDD016F8E9
:10382000011BC847641EFAD1B7E72868286050F822
:10383000046B2860C9E728682860782150F8046B79
:103840002860C2E72868286050F8046B286030467A
:1038500000F00AF8040040469FD016F8011BC84744
:10386000641EFAD199E7000000F10103810704D03A
:1038700010F8011B89B18107FAD10268B2F1013158
:10388000914311F0803F04BF50F8042FF6E710F881
:10389000011B11B110F8011BFBE7C01A70470000B3
:1038A00010B50446AFF30080204600F005F804464A
:1038B000AFF30080204610BD7CB500F10F06F6087E
:1038C000F600B04240D2082E04D2082602E00830AA
:1038D00000F047F8DFF804512C68210005D10020E2
:1038E00007E00268B24221D2011D08680028F8D121
:1038F0002068291D0A68824222D01368B34238BF6B
:10390000111DF7D312E093190B60801B54685C60A3
:103910000B6818601660096800291DBF48680028F8
:10392000081D0020286002F1080076BD61B10A6818
:103930001068A0F10803B342E5D250680860EAE7D6
:1039400000F04EF80028C2D1002076BD10B504006A
:1039500006D0AFF30080204600F003F8AFF30080FC
:1039600010BD002800D1704750B4A0F108021368C0
:10397000072B2BD913F0070F28D1184C616809B118
:103980008A4202D25160626013E0486800B39042FC
:1039900038BF0146F9D31BE0964203D11B180B60D8
:1039A0000A4606E0486810B1134498420ED35060AE
:1039B0004A60506850B11368D118814206D1002185
:1039C00021600168CB1813604068506050BC70479C
:1039D00008680E18B242DFD250BC704700060020C3
:1039E0000749086808B1002070470648C008C000B1
:1039F00008600549C908C900091A0160704700BF7D
:103A00000C06002017160020102600202DE9F0419A
:103A100007468846387810F0030F16461D4633D007
:103A2000384600F099F878BBB8F1000F1CBFD8E910
:103A300000018619012D2ED13888C10415D5396AA7
:103A400007F14402384600F0A3F83A6B044602B985
:103A50003A69F968384600F09BF8361B341A7A69DF
:103A6000F968384600F094F8261A1EB94DB916F1D7
:103A7000010F09D097F903002A46314600F08EF86D
:103A8000064616F1010F09D12320AFF300804FF055
:103A9000FF30BDE8F081022DE8D1EBE7388810F463
:103AA000405F0ED07868F86038617861B8617868F6
:103AB000F86107F14400386207F1300078620020B5
:103AC0003863B8F1000F05D0D8E9020107F13402DC
:103AD000C2E9000139884CF6FF60014039800020BE
:103AE000BDE8F08170B50546AFF3008028888104F9
:103AF00015D56E680024EA6895F9030031469142B5
:103B000012D2521A00F06FF810F1010F1CBF0028FA
:103B10003618F0D10FE04DF6FF700140298028469D
:103B2000AFF30080002070BD0022002100F05BF8A0
:103B300010F1010F00D101246868E860A861E86114
:103B4000002C2988E7D041F4007129802846AFF382
:103B500000804FF0FF3070BDF8B5A0B9AFF3008022
:103B600000250A4E08244FF0FF37306820B1FFF7D8
:103B7000B9FF002848BF3D46361D641EF5D1AFF39E
:103B800000802846F2BDBDE8F240ABE764020020A9
:103B9000914234BF511A0021084670473EB50400D7
:103BA0000D00012A02D100F06BF807E0022A07D1CC
:103BB00000940020019069460C20ABBE2D1801E056
:103BC000002A0CD10094019569460A20ABBE00285A
:103BD00005D100222100280000F02FF801E000208C
:103BE000C04303B030BD80B5002802D400F06AF8AD
:103BF00002BD002002BD000010B4314A002113466E
:103C00001C6884421EBF491C9C6884421EBF491C1C
:103C10001C69844209D09C69491C844205D0491C16
:103C200020331029ECD310BC7047002342F8313008
:103C300002EBC1014B6010BC704778B4204C0023EC
:103C400025462E688E421EBF5B1CAE688E421EBF8C
:103C50005B1C2E698E4209D0AE695B1C8E4205D07A
:103C60005B1C2035102BECD372BC7047054604EB6F
:103C7000C303012A04BF59684D195D6072BC7047C7
:103C800010B40F4A002113461C6884421EBF491C11
:103C90009C6884421EBF491C1C6984420AD09C69EE
:103CA000491C844206D0491C20331029ECD310BC97
:103CB0000020704702EBC100406810BC7047000054
:103CC0008402002080B5002901D1002002BD012816
:103CD00001D0022802D100F005F802BD00F02AF858
:103CE00002BD000070B40B00002111480068C00143
:103CF0000FD4080070BC70475D782D0225439C7876
:103D000026042E43DC78240634431B1D0460121F56
:103D1000091D002AEDD0E02000060468002CFAD02E
:103D20001C78042AE8D204705B1C491C521EF0E780
:103D3000FCED00E018B583B003001400009301917E
:103D4000029469460520ABBE01221900201AFFF734
:103D500074FF04B010BD10B50446E068A169884244
:103D600051D3218849F202030B40022B08D00804EA
:103D70004CBF4FF400704FF48440014321803BE07E
:103D800001F4C042B2F5C04F06D1A168884203D306
:103D90002046FFF7E1FE78BB208810F4406F02BF99
:103DA000606804F14401884217D14FF40070FFF7B6
:103DB00077FD606030B904F144006060E060401C51
:103DC000A0600AE0218841F040012180E06060614C
:103DD00000F500726068A260E06160682061A06820
:103DE000A061207841070AD502220021204600F078
:103DF0000CF810F1010F02D14FF0FF3010BD2088F8
:103E000040F4C0402080002010BD70B504460D462F
:103E10001646AFF3008033462A4600212046FFF7BE
:103E2000F5FD05462046AFF30080284670BD38B545
:103E300004000ED0207810F0030F03D094F9030093
:103E4000002809D5AFF30080204600F02FF8AFF32B
:103E500000804FF0FF3032BD2046FFF77DFE054663
:103E6000AFF300802078410644BF606800F05CF842
:103E70000020606094F90300022804D900F056F88D
:103E800008B14FF0FF35E06B48B100F05BF808B1C6
:103E90004FF0FF35E06B00F047F80020E06320466C
:103EA00000F004F8AFF30080284632BD01780A061E
:103EB00026D51C4A13680021834203D1002342F80F
:103EC00021301BE05368012183421EBF0221936809
:103ED0008342F3D0D368032183421EBF04211369B8
:103EE0008342EBD05369052183421EBF06219369AB
:103EF00083421EBF0721D3698342DFD000F014B88C
:103F0000002101804FF0FF31C17000F14401416098
:103F1000C160016141618161C161016200F13001F3
:103F20004162704764020020FFF710BD1CB502001B
:103F3000009269460220ABBE04001000FFF75CFE51
:103F4000200016BDE0B50090FFF78EFC0190694699
:103F50000E20ABBE03B000BD0E49086840F0010062
:103F600008604A680C4802404A600B680B480340EE
:103F70000B60086820F4802008604FF41F004A6836
:103F800022F4FE024A6088604FF000600449086035
:103F900070470000001002400000FFF8FFFFF6FE2F
:103FA00008ED00E000000000000000000102030432
:103FB0000607080938B50C46C5B22046AFF30080A5
:103FC000E068A169884204D32046FFF7C4FE0028B8
:103FD0000FD4E068401CE06000F8015D2088010516
:103FE00003D440050BD50A2D09D12046FFF7B4FDB7
:103FF00028B12046AFF300804FF0FF3032BD20469D
:10400000AFF30080284632BD7047FEE7FEE7FEE7CB
:10401000FEE770477047704780B500F01BF8BDE8B9
:104020000140FEF7DFB90748FEF76DB80648FEF716
:104030006AB80648FEF798BB0548FCF76FB9044814
:10404000FCF785BA5C05002018050020DC03002081
:104050000000002002494A68087882184A607047C8
:104060007C01002019E050F8042BD30744BFA9F1CC
:1040700001039A18091F0023042942F8043BF9D2CE
:104080005FEA817C134604D54FF0000CA2F800C013
:104090009B1CC90744BF0021197050F8041B00295C
:1040A000E1D1704738B50D4D0824286800281CBFA1
:1040B000017811F0030F05D090F90310002958BFC3
:1040C000FFF7B5FE2D1D641EEFD1BDE8384000227C
:1040D00000214FF0FF30FFF786BD00BF64020020D3
:1040E00010B5074979441831064C7C44163404E075
:1040F0000A68081D114488470146A142F8D110BD45
:1041000008000000240000005DFFFFFF8C0300009A
:10411000840200200000000013DEFFFF7C0100008D
:10412000020100000000002000F00DF8002801D07E
:10413000FFF7D6FFAFF300800020AFF30080FDF75C
:10414000FFF900F002F80120704700F001B800000C
:104150000746FFF7A7FF384600F002F8FBE700002C
:1041600080B5AFF30080024A11001820ABBEFBE718
:104170002600020038B504460D46284600F006F831
:10418000A84218BF0024204632BD00000149FFF7B5
:1041900011BF00BFD40100200148804701480047FB
:1041A000593F0008A9410008AFF30080AFF3008039
:1041B000FFF7BAFF0000000001020304FFF7FEBF93
:1041C000FFF7FEBFFFF7FEBFFFF7FEBFFFF7FEBF23
:1041D000FFF7FEBFFFF7FEBFFFF7FEBFFFF7FEBF13
:1041E000FFF7FEBFFFF7FEBFFFF7FEBFFFF7FEBF03
:1041F000FFF7FEBFFFF7FEBFFFF7FEBFFFF7FEBFF3
:10420000FFF7FEBFFFF7FEBFFFF7FEBFFFF7FEBFE2
:10421000FFF7FEBFFFF7FEBFFFF7FEBFFFF7FEBFD2
:10422000FFF7FEBFFFF7FEBFFFF7FEBFFFF7FEBFC2
:10423000FFF7FEBFFFF7FEBFFFF7FEBFFFF7FEBFB2
:10424000FFF7FEBFFFF7FEBFFFF7FEBFFFF7FEBFA2
:10425000FFF7FEBFFFF7FEBFFFF7FEBFFFF7FEBF92
:10426000FFF7FEBFFFF7FEBFFFF7FEBFFFF7FEBF82
:10427000FFF7FEBFFFF7FEBFFFF7FEBFFFF7FEBF72
:10428000FFF7FEBFFFF7FEBFFFF7FEBFFFF7FEBF62
:10429000FFF7FEBFFFF7FEBFF243000130010C0144
:1042A00040046101F11F10200500003FCDCCCC3D42
:1042B00004F11EA0F1973831015201352210081087
:1042C0000AA24A0401040000D0010020D10452D007
:1042D00004211BA10852BC0CF10B01200A020401AD
:1042E00001C80400201805002008210421346108B9
:1042F000F00412180200200402485002080202785A
:104300004052780421346108126044F2124C481281
:094310008CB412D404F2061C2C3A
:04000005080041A905
:00000001FF
