:020000040800F2
:1000000018160020393C00083D3B00083F3B000823
:10001000413B0008433B0008453B0008000000004E
:10002000000000000000000000000000473B000846
:10003000493B0008000000004B3B00084D3B000816
:100040005D3C0008613C0008653C0008693C000814
:100050006D3C0008713C0008753C0008793C0008C4
:100060007D3C0008813C0008853C0008893C000874
:100070008D3C0008913C0008953C0008993C000824
:100080009D3C0008A13C0008A53C0008A93C0008D4
:10009000AD3C0008B13C0008B53C0008B93C000884
:1000A000BD3C0008C13C0008C53C0008C93C000834
:1000B000CD3C00085B3B0008D13C0008D53C000863
:1000C000D93C0008DD3C0008E13C0008E53C0008A4
:1000D000E93C0008ED3C0008F13C0008613B0008E9
:1000E000F53C0008F93C0008FD3C0008013D000813
:1000F000053D0008093D00080D3D0008113D0008C0
:10010000153D0008193D00081D3D0008213D00086F
:10011000253D0008293D00082D3D0008313D00081F
:10012000353D0008393D00083D3D0008413D0008CF
:100130002DE9F84F00F036FE00F055F900F018FBFD
:1001400000F094F900F0F1F900F047FA00F088FAB5
:1001500000F0D8FA00F0B6F9DFF8045ADFF8040A24
:1001600068604FF4E130A8600020E86028616861B1
:100170000C20A8610020E8612862281D00F024FE00
:1001800000B1FEE7DFF8F88A002108F1280001F04D
:1001900034F8042108F1280001F02FF808F12800B4
:1001A00000F0FEFFDFF8DC4A0821204601F025F8C8
:1001B0000C21204601F021F80821DFF8CC0ADFF8F5
:1001C000CCAADFF8CC4ADFF8CC6ADFF8CC9ADFF8AB
:1001D000CC7ADFF8CCBA01F010F80C21DFF8A80ACD
:1001E00001F00BF8002100F0F0F8042100F0EDF828
:1001F000082100F0EAF80C2100F0E7F801F042FBDA
:10020000208800F0EAF800F0E4F8DFF8981A886235
:10021000608800F0E2F800F0DCF8DFF8881AC862C5
:10022000A08800F0DAF800F0D4F8DFF8781A086354
:10023000E08800F0D2F800F0CCF83063208900F0BC
:10024000CCF800F0C6F87063608900F0C6F800F0E2
:10025000C0F8B063A08900F0C0F800F0BAF8C9F89F
:100260000000E08900F0B9F800F0B3F8C9F8040024
:10027000208A00F0B2F800F0ACF8C9F80800608AF3
:1002800000F0ABF800F0A5F8C9F83C00A08A00F037
:10029000A4F800F09EF8C9F84000E08A00F09DF84C
:1002A00000F097F8C9F8440001F0FAFA306BF866EC
:1002B000706B3867B06B78670FF6E02001F000FBD9
:1002C00020E04FF4804100F07DF8786EDFF8D849E7
:1002D0000028D4BF012200224FF4004100F072F840
:1002E000786B01F001FB2060786C01F0FDFA606032
:1002F000DFF8B849786D01F0F7FA2060786E01F008
:10030000F3FA606030223146281D00F099FD28780C
:10031000012803D100F090FB00212970387E0128CC
:1003200004BF384600F0F6FB98F81800012804BF17
:10033000404600F0EFFBDFF87849207E012804BF3B
:10034000204600F0E7FB9AF81800012804BF504649
:1003500000F0E0FBDFF84C09002307F128023946E2
:10036000283000F07FFA012307F13802414606F1F8
:10037000300000F077FA002307F148022146484692
:1003800000F070FA012307F15802514609F13C00D0
:1003900000F068FA786B0028CCBF002201224FF4ED
:1003A000805100F00FF8786C0028CCBF00220122A9
:1003B0004FF4005100F006F8786D0028CCBF002201
:1003C00001227EE7584601F064BB0AF1280000F0E4
:1003D0004CBFDFF8E01801F081BBADF80000BDF8BC
:1003E000000001F0F9BB00B5002195B001200D918E
:1003F0000B90022112914FF480300C900122139047
:100400004FF4E0110F9214910BA801F0F3FB00B12F
:10041000FEE70F2102200091019000214FF480603F
:100420000291039004916846022101F071FD00B130
:10043000FEE7022005904FF40041079105A801F066
:1004400087FE00B1FEE701F011FE4FF47A71B0FBB8
:10045000F1F001F034FF042001F045FF00220021FB
:100460004FF0FF3001F004FF15B000BD1FB5DFF8FD
:100470004848DFF8480800F04AF803202061204689
:1004800001F04EFF00B1FEE70E2001210090019126
:1004900002912046694601F0CBFF00B1FEE70F2034
:1004A00000F00AF801F0C4FF00B1FEE70720009059
:1004B000032100F026F81FE0022100900191204660
:1004C000694670471FB5DFF8F847DFF8F80700F016
:1004D0001EF802202061204601F022FF00B1FEE755
:1004E00005200090012100F00CF801F0A1FF00B1FF
:1004F000FEE70620FFF7E0FF01F09AFF00B1FEE7FC
:100500001FBD00200191029069462046704720607F
:100510004FF48070A0600120E060002060614FF423
:100520006020E061002060607047DFF89C0710B534
:10053000DFF84C47A0624720E06290B000202063C3
:100540004FF4FF6060630020A063E063206404F167
:10055000280000F045FE00F0D1F80791089007A9A7
:1005600000F075F800B1FEE7602000900021042043
:1005700001910291039104904FF480710020059144
:1005800006900022694600F067F800F0B0F800F02D
:10059000BDFF00F0A5F800F0B9FF00F0AFF804903F
:1005A00005910C22694600F057F800F0A7F80A916F
:1005B0000C9109904FF400510B900D900E910F90FB
:1005C00009A904F1280001F0E1FF00B1FEE704F100
:1005D000280002F002F910B010BD4FF0804018B5AD
:1005E000DFF8CC46A06240F21F10E06289B0002024
:1005F000206340F2FD1000F06CF800F0F1FD00F017
:100600007DF800910190694600F021F800B1FEE705
:1006100060200021029003910020042104900691A3
:10062000002200F018F800B1FEE7042200F013F8F1
:1006300000B1FEE7082200F00EF800B1FEE70C2240
:1006400000F009F800B1FEE704F128008CE004F1A5
:10065000280001F0C8BF02A904F1280000F056BF2D
:10066000DFF8680610B5DFF82446A0620820E062D3
:1006700086B00020206341F61F4000F02AF800F009
:10068000DFFD00F03BF80491059004A9FFF7DFFFC0
:1006900000B1FEE701210191009000210290039139
:1006A000002200F011F800F022F800F0ADFE00F09A
:1006B00017F800F0A9FE00B1FEE70C2200F004F8E4
:1006C00000B1FEE706B010BD694604F1280000F055
:1006D0009BBE60630020A063206404F12800704783
:1006E00000B1FEE70822694604F12800704700B116
:1006F000FEE70422694604F12800704700B1FEE7D6
:1007000000217047DFF8C80518B5DFF8784520608C
:1007100040F21F10606089B00020A06040F2FD1020
:10072000E06000202061A061204600F059FDFFF745
:10073000E5FFFFF7C2FE01F056FFFFF7DFFF039171
:1007400004916020042102900691082202A920460B
:1007500000F0DCFE00B1FEE70C2202A9204600F00A
:10076000D5FE00B1FEE7204602F037F80AB010BD12
:10077000F0B5DFF86005DFF86065DFF82445DFF8E5
:100780005C5585B0016841F02001016041F20C0721
:10079000026802F0200204920499016841F01001FD
:1007A0000160026802F0100204920499016841F0AD
:1007B00004010160026802F004020492002204991C
:1007C000016841F0080101603946006800F0080046
:1007D00004900498304601F05CF900224FF4704117
:1007E000204601F056F9082000F037F8284600F0BE
:1007F00031F801200190002103200291039000971D
:100800006946304601F074F84FF4704001210090C1
:100810000191002003210290039100F01AF80420B6
:1008200000F01BF86946DFF8B80401F061F83820E1
:1008300000F013F800F00DF84FF440600090022132
:100840000120019102906946284601F051F805B057
:10085000F0BD2046694601F04BB80021009001919F
:10086000029170472DE9F0410646DFF83804002B6D
:100870000C4615460CBF008A808B01F0ADF9A168CB
:1008800002F03EF8DFF8601402F07AF8044638BF50
:10089000DFF8580406D3DFF8581402F083F805D8BF
:1008A000DFF85004214602F08FF80446F169B46184
:1008B000204602F025F83062DFF828747762B469C8
:1008C0003068214602F0F2F88046C6F80C802046D7
:1008D000394602F0EBF8716802F0E8F8316902F08D
:1008E00073F8DFF81414306102F04AF838BF084694
:1008F00006D3DFF8081402F055F898BFDFF80004BB
:1009000030613946306A01F0E9F8B16802F0CEF89A
:10091000074677614146306902F056F8394602F0E1
:1009200053F8DFF8E013B06202F02AF838BF084647
:1009300006D3DFF8D41302F035F898BFDFF8CC0304
:10094000B06202F01FF9E860F461BDE8F081DFF801
:10095000442353185B7800F82C3F53189B7843705E
:100960005318DB78837053181B79838053185B7995
:10097000C38053189B7903815318DB794381531843
:1009800011441B7A8381497AC18170472DE9F8436C
:10099000064606F12C07DFF878433878DFF8745301
:1009A00001F01AF9306002F003F980468946B978FF
:1009B000787800F09BF802F0FBF800F039F800F0CE
:1009C00033F802F019F93060B7F9040002F048F981
:1009D00002F0EEF880468946B7F90810B7F906002C
:1009E00000F084F802F0E4F800F022F800F01CF8BF
:1009F00002F002F97060B7F90A0002F031F902F072
:100A0000D7F880468946B7F90E10B7F90C0000F008
:100A10006DF802F0CDF800F00BF800F005F802F0E8
:100A2000EBF8B060BDE8F18342464B4602F02AB9CC
:100A300022462B4602F0E2B970B59A4E4FF0FF31D4
:100A400006F12800FFF783FF924C082104F13000E3
:100A5000FFF77DFF904D11212846FFF778FF1A21FF
:100A600005F13C00FFF773FF04F124010A78487890
:100A700082183282C8788A788218B28308793080E6
:100A80004879706688793072C8797072087AB07265
:100A9000487AF072887A307306F12800FFF776FF03
:100AA00004F13000FFF772FF2846FFF76FFF05F1F2
:100AB0003C00FFF76BFF707A317A081802F0D0F82B
:100AC00002F076F804460D46F17AB07A00F00EF89E
:100AD00002F06EF88E4A8F4B02F090F922462B46B8
:100AE00002F0D0F802F088F8706070BD40EA012092
:100AF00002F0B6B8674810B590F82F20184C2F2197
:100B000000F032F808B901202070201DBDE8104027
:100B100040213BE01CB50446606802F049F87E4A7B
:100B20007E4B02F06BF902F067F8A0606F4AA06894
:100B3000114601F037FF98BFA260A068784901F024
:100B400031FF07D87748784B69490090A06800F0DA
:100B5000F9F800E0A06860620020207613BD000074
:100B6000240500200048004030B50023002402E0A6
:100B7000055DEB18641C8C42FADB180403EB106370
:100B80009BB29A18D243D0B230BD70470122090AF5
:100B900002FA01F10068C94389B20160704738B5B3
:100BA00001684A4CA1426AD1017F4C48012917D102
:100BB0003A4DA96E491CA966616B2980402100F05D
:100BC00062FF18B100F0B8F8012145E000220121D0
:100BD00000F0B6F800F0AAF828BF01F5E15148E0AE
:100BE000022914D1264DA16B2980802100F04BFFF2
:100BF00018B100F0A1F802212EE00022022100F03D
:100C00009FF800F093F828BF01F5E15131E0042985
:100C100015D1274DE16B29804FF4807100F033FF2F
:100C200018B100F089F8032116E00022032100F03A
:100C300087F800F07BF828BF01F5E15119E0082999
:100C40001DD1124D216C29804FF4007100F01BFF63
:100C500030B100F071F804212046BDE838408FE043
:100C60000022042100F06CF800F060F828BF01F5C4
:100C7000E151081A01F0F4FF68600120287631BDC7
:100C80004C03002068050020DC0300201C04002029
:100C900000780008E00000204C0100200000002047
:100CA000000C0140780000203C0800403C0000405F
:100CB000B403002000007A44A8050020002401406D
:100CC000D805002000280140002C0140000400400D
:100CD00000080040181002400008014000100140C8
:100CE000001401406F12833A000034C30000B44383
:100CF000000034430000B4C30000F0C10100F04123
:100D00000000F0410000FFC30100FF430000FF436B
:100D1000FCA9F1D24D62503F9A9999999999A93FAE
:100D200067E633430AD723BC71FD33C3688829883B
:100D3000884229886888704728886880022270471E
:100D400020461DE02DE9F041069F0C4615461E4643
:100D500001F0D6FD80463846314601F0D1FD4146CE
:100D600001F0A4FE07462846214601F0C9FD0146D0
:100D7000384600F0B3FE3146BDE8F04101F024BE34
:100D8000491E02238900002A03FA01F1026A89B28E
:100D90000CBF22EA01011143016270474D61696E87
:100DA0000D0A000080B50748016841F0100101609C
:100DB000032001F050FA002002F0F2F801F038FCB4
:100DC000002002BD0020024038B5040001D10120FE
:100DD00032BD00F022F808B900F023F800F013F853
:100DE00000F024F8FFE7416100F001F832BD20680F
:100DF000C16841F40051C160002068602020687023
:100E0000A87000207047242068702068C16821F411
:100E10000051C160204600F04EB904F138056878F1
:100E2000704700212970204601F017BD2068016934
:100E300021F4904101612068416921F02A01704745
:100E400030B500F138039C78202C21D109B1140071
:100E500001D1012030BD1C78012C19D001251D7055
:100E600081628285C285002159602221997000210A
:100E700019700168CA6842F48072CA6001684A69E0
:100E800042F001024A610068C16841F0200101E0BE
:100E9000022030BDC160002030BD416921F0400119
:100EA0004161606B704738B5044625682968EA6877
:100EB0006B6911F00F0007D188065DD590065BD5F0
:100EC0002046BDE83240ABE0D80702D412F4907F50
:100ED00052D0C80705D5D00503D5E06B40F001001E
:100EE000E063480705D5D80703D5E06B40F0020062
:100EF000E063880705D5D80703D5E06B40F0040010
:100F0000E063080705D5D80703D5E06B40F008007B
:100F1000E063E06B00286ED0890604D5900644BFDC
:100F2000204600F07DF820684069E16B0A0701D493
:100F300040061BD5204600F05FF8206841694A064C
:100F40000FD5FFF7AAFF60B10FF2C9014163606BD3
:100F500002F046F800284ED0606B416BBDE834408B
:100F600008472046BDE83240FFF70FBE2046FFF796
:100F70000CFE0020E06331BD08062CD510062AD5F2
:100F800094F83900212836D1A168206AB1F5805F34
:100F90000DD10188C1F308016960206918B9216A7F
:100FA000881C206207E0206A411C216203E0411C8A
:100FB000216200786860E08C401EE08480B2D0B985
:100FC0002068C16821F08001C1602068C16841F0DB
:100FD0004001C16031BD48060DD550060BD5E8680B
:100FE00020F04000E860202184F839102046BDE858
:100FF000324002F07DB831BD0168CA6822F49072B7
:10100000CA6001684A69520852004A61202180F88A
:101010003A107047406A0021C185C184FFF7B5BD11
:1010200080B590F83A10222943D18268B2F5805FEA
:1010300014D1826A016941B903685968C1F3080192
:101040001180826A911C816218E001684B6803F08C
:10105000FF031380816A4A1C82620FE00169002944
:10106000816A04D14A1C82620268536805E04A1C06
:1010700082620268536803F07F030B70C18D491EC2
:10108000C18589B299B90168CA6822F02002CA6094
:101090000168CA6822F48072CA6001684A6952080D
:1010A00052004A61202180F83A10FFF723FD00200A
:1010B00002BD022002BD2DE9F047044664252168E7
:1010C0000A69E06822F4405202430A611926CA689C
:1010D00031480240A068024320690243606902432C
:1010E000CA604A69A06922F4407202432B484A61EF
:1010F00081420ED100F0C5FF074600F0C2FF8046D6
:1011000000F0BFFF814600F0BCFF824600F0B9FF4F
:101110000DE000F0AEFF074600F0ABFF804600F0A8
:10112000A8FF814600F0A5FF824600F0A2FF06FB63
:1011300009F9616889007743B7FBF1F206FB08F70C
:10114000B7FBF1F3B9FBF1F7B7FBF5F705FB173385
:101150001B013233B3FBF5F3B2FBF5F203F0F003FE
:1011600003EB021306FB0AF74643B7FBF1F2B6FBAB
:10117000F1F06421B0FBF1F005FB10252D013235B3
:101180006420B5FBF0F0216800F00F00C3188B60FD
:10119000BDE8F08700000000F3E9FFFF00380140E0
:1011A0000068C16841F00101C160026842F00102BB
:1011B00002600020704702206870211D206800F046
:1011C0001CFA01206870002032BD03D1416C41F44B
:1011D00000414164026842F001020260002016BD35
:1011E00038B5040001D1012032BD00F03AF818B939
:1011F00000F033F801F09DFADDE71CB500F007F8C8
:1012000000F019F81CBFDFF89C108842DDE70446A7
:101210000122206800F02ABB2068C26842F0080260
:1012200070472068C26842F0040270472068C268B4
:1012300042F0020270472068DFF86C108842704765
:1012400038B5040001D1012032BD00F00AF818B908
:1012500000F003F801F095FAADE70021297020466F
:10126000704704F13C056878704710B504460800E3
:101270000BD004290CD008290DD00C2901BF2068FF
:10128000C36843F01003C36008E0FFF7CFFF04E03A
:10129000FFF7C7FF01E0FFF7BFFFC2602068012230
:1012A00005E0000000340140002C0140206800F0FF
:1012B000DDFA2068016841F001010160002010BDE5
:1012C00010B50446206801698A0715D5C1688A07E8
:1012D00012D56FF00202026101212177806910F0BE
:1012E000030F204602D0FFF75AFC03E001F001FF94
:1012F00000F087F800202077206801694A0715D59B
:10130000C1684A0712D56FF00402026102212177F9
:10131000806910F4407F204602D0FFF740FC03E0D4
:1013200001F0E7FE00F06DF80020207720680169E9
:101330000A0715D5C1680A0712D56FF008020261C5
:1013400004212177C06910F0030F204602D0FFF777
:1013500026FC03E001F0CDFE00F053F800202077DA
:1013600020680169CA0615D5C168CA0612D56FF092
:101370001002026108212177C06910F4407F2046E5
:1013800002D0FFF70CFC03E001F0B3FE00F039F8E7
:101390000020207720680169CA0708D5C168CA07FC
:1013A00005D56FF001020261204601F0A3FE20681E
:1013B00001690A0608D5C1680A0605D56FF08002E2
:1013C0000261204601F097FE206801694A0608D5AF
:1013D000C1684A0605D56FF040020261204601F05F
:1013E0008BFE206801698A060AD5C1688A0607D57E
:1013F0006FF0200202612046BDE8104001F07DBE82
:1014000010BD204601F07ABEF8B500F0E7F801D132
:101410000220F2BD00F0E9F882B9EB686A68296839
:10142000306800F0D2F93068816921F00C018161E7
:1014300031688A69A86802438A6164E0042A10D18D
:10144000EB686A682968306800F0F6F930688169ED
:1014500021F4406100F0BEF8AA6841EA02218161EE
:1014600051E0082AE9686A682B6827D13768386A2A
:1014700020F480703862090107F11C0001F0F001CE
:10148000D0F800C0D7F820E04FEA9C0C42EA8C026A
:1014900022F0F002114301601B022EF4206003F4DD
:1014A000206303433B623068C16921F00C01C161D4
:1014B0003168CA69A8680243CA6124E030681C30F8
:1014C0000903476827F48057476001F470410768B3
:1014D000D0F804C027F4407747EA022727F4704782
:1014E000394301601B032CF4005103F400530B43F8
:1014F00043603068C16921F4406100F067F8AA6870
:1015000041EA0221C1610120607073E070B500F012
:1015100065F801D1022070BD00F067F832B1042AED
:1015200017D0082A28D00C2A39D04AE0306829463A
:1015300000F09DF83068816941F0080100F04AF838
:1015400021F00401816131688A69286902438A6156
:1015500037E03068294600F0B3F83068816941F41B
:10156000006100F037F821F4806100F033F82A6957
:1015700041EA0221816124E03068294600F0D0F878
:101580003068C16941F0080100F020F821F0040141
:10159000C1613168CA6928690243CA6111E03068D3
:1015A000294600F0EFF83068C16941F4006100F0AD
:1015B0000DF821F4806100F009F82A6941EA02215E
:1015C000C161012060700020207070BDC161306871
:1015D000C16970478161306881697047064606F1CC
:1015E0003C040D462078012870470121217002201B
:1015F0006070704700202070F2BDF0B5DFF824C2A3
:10160000894F0368894C8A4D8A4E604518BFB8429D
:1016100008D0B0F1804F18BFB04203D0A84218BF25
:10162000A0420DD14A6823F070031343604518BFF0
:10163000B84207D0B0F1804F1CBFB042A84201D0E1
:10164000A04203D1CA6823F4407313434A6923F0CC
:1016500080031343036060458A68C2620A6882623D
:1016600012BFB8420969016301214161F0BDF0B5C3
:10167000026A6C4F6C4E520852000262056A43685F
:10168000846900F079F825F002051543B84218BFC7
:10169000B04207D1CA6825F008051543B84225F0C5
:1016A000040501D0B04205D14A6923F440731343C5
:1016B0008A69134343608461496841630562F0BDF0
:1016C000F0B5026A574E22F010020262B042056A7B
:1016D000436884690A6824F4E64444EA02248A6878
:1016E00025F0200545EA02154F4A18BF904208D15F
:1016F000CF6825F0800545EA0715B04225F0400582
:1017000001D0904206D14E698A6923F440631643A2
:1017100043EA860343608461496881630562F0BDE2
:10172000F0B5026A3F4E22F480720262056A436895
:10173000C46900F021F825F4007545EA02253A4A0B
:10174000B04218BF904208D1CF6825F4006545EA41
:101750000725B04225F4806501D0904206D14E693C
:101760008A6923F44053164343EA06134360C46175
:101770004968C1630562F0BD0A6824F0730414432C
:101780008A68704770B5026A264E22F4805202625F
:10179000B042046A4268C3690D6823F4E64343EA31
:1017A00005238D6824F400541CBF1F4EB04244EA48
:1017B000053404D14D6922F4804242EA8512426028
:1017C000C36149680164046270BD70B5046A154E56
:1017D000640864000462B0428469056A1CBF124E4A
:1017E000B0420BD0B0F1804F1CBF124EB04205D0BA
:1017F0000F4EB0421CBF0D4EB04203D1A40842EAC6
:10180000840201E044F001021B0122F0F00203F027
:10181000F0031A4325F00A0501F00A018261294309
:10182000016270BD002C014000340140000C0040FA
:10183000000800400004004030B5046A24F01004A1
:1018400004621B038469056A24F4407444EA022498
:1018500024F4704403F470430901234325F0A005E8
:1018600001F0A00183612943016230BD10B5036A14
:1018700001248C40A343036202FA01F1036A194375
:10188000016210BD0B49CA680020130607D50A4B38
:101890000A4A0B600A60C9680A0648BF01207047FF
:1018A0000348016841F0800101600020704700009A
:1018B000102002400420024023016745AB89EFCD90
:1018C0000EB4C0B5024603A800210190009101ABFF
:1018D0000121044878440C3001F01FFC06BC5DF87F
:1018E00010FB00BF31230000002848BF4042704772
:1018F0002DE9F84F83460F46002080466849694A23
:10190000694B4FF00F094FF0010A3C680AFA08F6DC
:1019100006EA040EB64540F0AE807C683CB3012C6C
:101920001AD0022C1DD0032C2ED0112C16D0122C24
:101930001AD05E4DAC421CBF5D4DAC4217D05D4D20
:10194000AC421CBF5C4DAC4211D05C4DAC421CBFE4
:101950005B4DAC420BD018E0F86816E0F868001D4B
:1019600013E0F868083010E0F8680C300DE0B86853
:1019700008B9042009E0012819BF0820CBF8146039
:101980000820CBF8106000E00020BEF5807F03D275
:10199000DC464FEA880404E0A8F108040BF1040CCB
:1019A000A400DCF8005009FA04F6B54300FA04F488
:1019B0002C43CCF800407C68E4005CD51C6844F003
:1019C00001041C604FEA980C1D6805F001050095A4
:1019D000009C52F82C604FEA880404F00C0409FAC9
:1019E00004F526EA0505374EB34508BF002618D092
:1019F000354EB34508BF012613D0344EB34508BF5A
:101A000002260ED0324EB34508BF032609D0314E10
:101A1000B34508BF042604D02F4EB3450CBF05269E
:101A2000062606FA04F42C4342F82C406FEA0E0610
:101A30007C68E50304D50D684EEA05050D6002E0FB
:101A40000C6834400C607C68A5034C684CBF4EEABF
:101A5000040434404C607C68E5028C684CBF4EEA5C
:101A6000040434408C607C68A502CC684CBF4EEA0C
:101A700004043440CC6008F10108B8F10F0F7FF680
:101A800044AFBDE8F18F8068084018BF0120C0B2A4
:101A9000704781B002B90904016101B070470000CC
:101AA000000401400800014018100240000011101D
:101AB0000000121000002110000022100000311060
:101AC0000000321000080140000C014000100140ED
:101AD0000014014000180140001C014010B5FF2314
:101AE00013EAD0541DBF13EAD1529C429A4239E006
:101AF000A41ADA0780EA0103134042EA012142EA0C
:101B00000020421A3CBF641E01EB4202090AB2FBEC
:101B1000F1FE01FB1E221202B2FBF1F001FB1022CA
:101B20006EF30F201202B2FBF1FE4EEA00207F346A
:101B300006DDFE2C24DA53EA500050EBC45010BDF1
:101B4000D4F1020401FB1E2240F08071192C1DDC2F
:101B500021FA04F0C4F12004A140114371F10042C4
:101B6000584110BD9C421ABF03EAD1529A420FE07D
:101B700080EA010E0EF00043400004D0490016D167
:101B800043F0FF4010BD490008BFD343180010BD0B
:101B90009C4205D1D21AF7D001F00041484010BD57
:101BA0004A0212BF0846484000F0004010BD4AB942
:101BB0000902B1FA81F2914044B1A418C00140F089
:101BC00000409EE7C90141F0004152420002B0FAD4
:101BD00080F4A040141B94E700280AD0B0FA80F1EA
:101BE0008840D1F19D01C905020672F1004241EB26
:101BF000102070472DE9F8430646DFF89C543078F2
:101C0000C1074AD5686800F00C00042807D068684E
:101C100000F00C0008280BD16868C10308D52968BA
:101C200088033AD57068002840F0C080012069E13F
:101C30007068B0F5803F0FD038B9296821F4803141
:101C40002960286820F4802009E0B0F5A02F2968D9
:101C500007D141F480212960286840F48030286051
:101C600006E021F4803129602A6822F480222A606B
:101C7000706868B101F0E4FA04462968880300F14D
:101C8000958001F0DDFA001B6528F6D3032039E1C9
:101C900001F0D6FA04462868810340F1878001F0FC
:101CA000CFFA001B6528F6D3F0E701F0C9FA001B54
:101CB000022840F2AA80E9E7306970B10121396059
:101CC00001F0BEFA04462868810700F1DC8001F0CB
:101CD000B7FA001B0228F6D9D8E7386001F0B0FA4D
:101CE00004462868810765D501F0AAFA001B02287E
:101CF000F7D9CBE7086001F0A3FA0446686A8107C8
:101D000077D501F09DFA001B0228F7D9BEE708B984
:101D1000286A09E00528286A06D140F004002862F4
:101D2000286A40F0010005E0400840002862286A67
:101D300020F00400286241F28938F06868B101F0AF
:101D40007FFA8146286A810700F1AA8001F078FABB
:101D5000A0EB09004045F5D398E701F071FA814600
:101D6000286A810740F19C8001F06AFAA0EB090023
:101D70004045F5D38AE701F063FA001B022840F2E0
:101D8000A28083E701F05CFA001B022840F2B580D4
:101D90007CE700F0B9F804462868810140F1B18081
:101DA00001F04EFA001B0228F6D96FE73078DFF811
:101DB000F47281071BD5686810F00C0F09D06868B1
:101DC00000F00C0008287FF477AF6868C1033FF586
:101DD00073AF2968880703D5306901287FF426AFDF
:101DE0002968706921F0F80141EAC0012960317861
:101DF00008071DD5B069DFF8B01200283FF47AAFAC
:101E000001220A6001F01CFA0446686A81077FF526
:101E10004CAFDFF888120868C0084FF47A72B0FB44
:101E2000F2F2009200BF0098411E00280091F9D103
:101E30003078410739D5E8690024C10009D4E86940
:101E400040F08050E8610124E86900F08050009083
:101E50000098DFF85882D8F80010C8051BD4D8F8CD
:101E6000000040F48070C8F8000001F0E9F98146F4
:101E7000D8F80010C8050ED401F0E2F9A0EB090073
:101E80006528F5D302E72868716920F0F80040EA78
:101E9000C1002860ABE7F06801287FF438AF3FE766
:101EA0001CB1E86920F08050E861F06948B36968C6
:101EB00001F00C0108293FF4B9AE02287FF469AFA4
:101EC00000F022F80446286881013FF554AF306ADB
:101ED000B0F5803F05D16968B06821F40031014355
:101EE00069606968306A21F474110143706A0143C2
:101EF0006960012000F009F80446286881017FF537
:101F000041AF0020BDE8F2830020386601F098B9A7
:101F10002DE9F843664F05463868894600F007000A
:101F2000484502D200F07AF86CD129785A4C8807DB
:101F300005D56168A86821F0F00101436160287847
:101F4000C10757D56868012802D121688A0303E0D8
:101F5000022803D121688A0103D453E02268910743
:101F600050D56168890840EA8100606041F2893893
:101F700001F066F90646686801280BD1606800F038
:101F80000C00042836D001F05BF9801B4045F5D3E6
:101F900003202DE0022837D1606800F00C000828EB
:101FA00028D001F04DF9801B4045F5D3F0E72878A3
:101FB000410705D56168E86821F4E061014361608B
:101FC0002878010706D56068296920F4605040EA46
:101FD000C100606000F02CF862683649C2F3031259
:101FE000895C2E4AC8401060002000F0D9FF002014
:101FF000BDE8F283386800F007008145D7D200F0D1
:102000000DF8D4D00120F3E7606810F00C0FF1D088
:1020100001F016F9801B4045F6D3B9E73968C908C5
:1020200049EAC1013960386800F007004845704747
:1020300021491B480A6802F00C03082B00D07047A6
:1020400010B500BF1FA4C2F38343D203E35C09D5DC
:10205000096800BF1FA2C1F340415843515CB0FB67
:10206000F1F010BD18461549484310BD0B480068F3
:1020700070470A48104A006813681149C3F30222E6
:1020800006E006480C4A006813680D49C3F3C222F3
:10209000895CC8407047000000100240D001002059
:1020A00000127A0000004242800442420070004068
:1020B000002002405C3A00080410024000093D0084
:1020C000543C000802030405060708090A0B0C0D1E
:1020D0000E0F10100102F0B4024610689568131834
:1020E000506803EB5004C00721D54D441FE0F0BCFD
:1020F00002F10C00704713F8017B05F8017B491EC3
:10210000F9D1A0B1B60813F8011B06F00306032E9F
:1021100008BF13F8016B01EB06214942801C2944DA
:1021200005D011F8016B05F8016B401EF9D1A342EF
:10213000DDD013F8016B16F0030104BF13F8011B87
:10214000C91C30090F28DAD113F8010B0F30D6E77C
:102150002DE9FC410646354D3078C10750D5A869B8
:102160000024C10009D4A86940F08050A86101246E
:10217000A86900F08050009000982D4F3968C8057C
:1021800017D4386840F48070386001F059F8804600
:102190003968C8050DD401F053F8A0EB0800652894
:1021A000F6D303203FE001F04BF8C01B404519D3A4
:1021B000F7E7E86910F440701EBF716801F44071E0
:1021C000884212D01B49E86901220A6020F440705D
:1021D00000220A60E861C00707D501F031F8074620
:1021E00041F28938E8698107DDD5E969706821F431
:1021F00040710143E9611CB1A86920F08050A861D9
:102200003178880705D52A68B06822F44042024335
:102210002A603078C10605D52968706921F48001EB
:10222000014329600020BDE8F6810000041002404F
:1022300000700040400442420901020081B006D50E
:102240002F4A00F00F00104400F8041C01E02D4B51
:10225000195401B070472C4A13684FF6FF01000271
:102260000B4000F4E06018432849084310607047B1
:1022700038B5254B1C68C4F30223C3F10704052CB1
:1022800028BF04241D1D072D34BF0023DB1E01259C
:1022900005FA04F4641E2140994005FA03F35B1E1D
:1022A0001A401143BDE83440C6E7012200F01F0187
:1022B000174BFFE78A40400943F82020704710B5CC
:1022C000401EB0F1807F01D3012010BD114C606031
:1022D0000F214FF0FF30FFF7AFFF0022A260072071
:1022E0002060002010BD04280A4904D1086840F08D
:1022F0000400086070470A6822F004020A60704710
:1023000018ED00E000E400E00CED00E00000FA054C
:1023100000E100E010E000E000F000B870470000CD
:10232000F8B5044600270026002C7AD004F12405D5
:10233000686820B9AE602870204600F0C3F92046D6
:1023400000F002F96968CA066CD401006AD16968B4
:1023500021F4885141F0020169602368DFF8CC1153
:10236000E269D4F804C08B4204BFB2F5402F4FF4A9
:102370000022E16842EA0C02D4F808C0BCF5807F74
:1023800014BFBCF1010F4FF48077D4F814C0BCF136
:10239000010F42EA41020FD131B9A169491E490337
:1023A00041F400610F4307E0696841F02001696072
:1023B000A96841F00101A960596821F469410F43FE
:1023C0005F602368DFF868119F680F4017439F60C4
:1023D000A168B1F5807F18BF012902D12669761E58
:1023E00036052168CB6A23F470031E43CE6224684D
:1023F000DFF84011A3680B40934208D10021A96087
:10240000696821F0020141F001016960F2BD68686C
:1024100020F0020040F010006860A86840F0010061
:10242000A86003E0686840F0100068600120F2BD19
:10243000F8B50A46002100F1240300911C78012C14
:1024400001D10220F2BD01251D701F2754681568B7
:102450000668072C08D2641E04EB8404D6F834C046
:1024600000F05EF8756312E00D2C08D2E41F04EB57
:102470008404D6F830C000F053F8356307E00D3C13
:1024800004EB8404D6F82CC000F04AF8F562072764
:102490001668946805680A2E08D30A3E06EB4606BD
:1024A000D5F80CC000F036F8EC6006E006EB460606
:1024B000D5F810C000F02EF82C611468102C18BF4D
:1024C000112C23D100681D4CA0421AD11C4804686D
:1024D00025021BD4056845F4000505601068102826
:1024E00014D1154C17482568B5FBF0F00A2250436B
:1024F0000090009800281EBF009A521E0092F8D14A
:1025000004E00121586840F0200058600020187055
:102510000846F2BDB7402CEA0707B4403C43704779
:10252000A7402CEA0707A5403D437047003C014007
:10253000FDF7E1FFFE0E1FFFD00100200024014047
:102540000824014040420F0038B5044620688168E5
:10255000CA0719D5816849084900816000F070FEFA
:10256000054620688168C8070ED500F069FE401B4B
:102570000328F6D3A06A40F01000A062E06A40F0A1
:102580000100E062012032BD002032BD30B590F87C
:102590003C20012A01D1022030BD012380F83C30CB
:1025A000CD688B684A688C6925F440751D4325F415
:1025B000806515430B680A69496925F400651D4368
:1025C00025F48055154325F400550D4325F4804529
:1025D0002543026825F400452C435464002180F80B
:1025E0003C10002030BD30B500F13C031A78012AC0
:1025F00001D1022030BD01241C7002225A700268F1
:10260000546824F070045460046865680A681543CF
:1026100065600268946824F080049460026894689D
:10262000486804439460012058700020187030BD41
:1026300080B5DFF89C02016841F001010160026889
:1026400002F0010200920099416841F0805141601E
:10265000406800F08050009000980320FFF7FBFDD9
:10266000002200216FF00B00FFF702FE0022002184
:102670006FF00A00FFF7FCFD002200216FF0090057
:10268000FFF7F6FD002200216FF00400FFF7F0FDD8
:10269000002200216FF00300FFF7EAFD0022002175
:1026A0006FF00100FFF7E4FD002200214FF0FF3042
:1026B000FFF7DEFD00F0C6F821F0E06141F00071A7
:1026C000016001BD00B585B000F02DF816D111688C
:1026D00041F4007111600323126802F40072049245
:1026E00080220499009201936946FFF701F9302096
:1026F0000321009001916946764810E0764B99429B
:102700000FD1116841F4806111600323126802F453
:102710008062049260220499009201936946FFF757
:10272000E7F805B000BD01686C4B6D48684A9942F6
:10273000704781B000686B4A6549904208D10868CB
:1027400040F400600860096801F40061009115E040
:10275000B0F1804F07D1486840F0010048604868F8
:1027600000F0010009E0604A904208D1486840F05A
:1027700004004860486800F004000090009801B030
:10278000704700685949884200D0704700B55848E2
:1027900085B0016841F0020101604FF4707100687A
:1027A00000F002000090002200984A480191029235
:1027B000039201A9FFF79CF800F044F841F0E061B2
:1027C00041F440610160002200211D20FFF750FD0F
:1027D0001D20FFF76AFD05B000BD1FB50168414A25
:1027E0003F48914208D14FF47061009102220323C7
:1027F00001920393694622E0B1F1804F3D4C17D11D
:10280000032100910222039101926946FFF770F8BB
:102810004FF4406000F019F8FFF76AF800F012F882
:1028200021F4407141F0E06141F4007101601FBD8D
:102830002D48814205D14FF4407000F006F8FFF7B3
:1028400057F81FBD2C4801687047009002210320F3
:1028500001910390694620467047006827498842E5
:1028600000D0704718B522481A4C85B0016841F471
:10287000802101604FF48061006800F480200090A6
:1028800002220098019103200490029201A920469F
:10289000FFF72EF84FF40060019000210120029113
:1028A000039001A92046FFF723F8FFF7CBFF21F0A3
:1028B000300141F0E06141F010010160002200218F
:1028C0002720FFF7D5FC2720FFF7EFFC06B010BD4F
:1028D000181002400010014000280140002401406F
:1028E00000080140002C01400008004000040040A6
:1028F0001C100240000C0140040001400048004050
:1029000090EA010F40F1668081F00041421A3CBF1D
:10291000801A89184FF0004CC0F3C752FF2A24D008
:10292000C1F3C75313B3D21AD2F1190327DD4CEA0E
:1029300001214CFA03F321EA0303D140C20D4CEA12
:102940000020401834BF20EA0C004CEA5000D205A9
:1029500053EA006373EB0C0C52EB1020420012F1AF
:10296000807F38BF7047C00DC0057047490212BF55
:102970009A4200EB5120F8E7D2F11703D9D57047FE
:102980004FF0807C1CEB400F94BF1CEB410F05E027
:1029900040EA010C1CEB0C0F01D28842704718BFB3
:1029A000814270474FF0807C1CEB400F94BF1CEBC2
:1029B000410F05E040EA010C1CEB0C0F01D28142F3
:1029C000704718BF8842704790EA010F7FF59EAFAD
:1029D00081F00041431A4FF000423EBF5340C01AFD
:1029E000C91800BFD3095FEAD05C13EB400F34BFB6
:1029F000B3EB410F40E07CEBD1530CD342EA012111
:102A000022D8D1EB402009D3400A28BF5FEA500109
:102A100040EBCC507047401A15D04002B0FA80F21B
:102A2000521C9040400A4FEA3C23B3EB026384BF40
:102A300000EB730007E040F400001A16DB07C2F158
:102A40000102D04018437047182BFCDC31FA03F226
:102A500002FA03F3591A38BF42F00102D2EB4020C8
:102A60003CBF4000ACF1010C5FEACC5CC20572F1E6
:102A700000414CEB5020704713EB400F0FD2C9427E
:102A800009D0ACEBD153022B03DB4902172BDDDD60
:102A900070479143401AC042D5D10020704713EBD4
:102AA000410FD0D36FF0000070470000FF2212EA00
:102AB000D05C1DBF12EAD153944593422BE09C4455
:102AC000D30780EA01021A4043EA002043EA0121C9
:102AD000A1FB0030C04238BF40007CF17F010BDB1E
:102AE000FE294ADA5B0842EAC15153EA006373F1F6
:102AF000004C51EB10207047D1F1080CDCF12001A3
:102B00002FDB5B0810FA01F10B4320FA0CF073F194
:102B100000415041704794451CBF02EAD153934293
:102B200080EA010202F000421DD0400019D04900A5
:102B300017D05BB9634514D00902B1FA81F399400B
:102B4000BCEB030CC00140F00040C1E70002B0FA4A
:102B500080FC10FA0CF0B3EB0C0CC90141F0004101
:102B6000B6E71000704740000AD0490008D010F1C5
:102B7000807F94BF11F1807F02E042F0FF407047F8
:102B8000D0437047C0F3C7517E390EDDC217D1F173
:102B9000200106DD000240F00040C84010445040D3
:102BA0007047D04380F0004070470020704700001D
:102BB000C0F3C75181B1FF2906D0C110400721F0F1
:102BC000E04101F16051704741020CBF40F4E00167
:102BD0006FF000410020704700F0004100020AD071
:102BE000B0FA80FC00FA0CF001F16051A1EB0C513D
:102BF00001EBD0214005704701F000428B1AA3F190
:102C00006051B1F5801F0ADBB1F17F6F1FD242EA3C
:102C1000C102C10071F1004142EB507070470B15C9
:102C2000C3F10903212B10D2890241EA905180029D
:102C30000128494141F0004121FA03F0C3F120038A
:102C4000994071F1004150417047100070476FF09A
:102C5000000013EB103F5CBF000E42EAC05070470B
:102C6000C2175040801AB0FA80F10AD08840D1F1E2
:102C70009D01D20742EAC151020672F1004241EBC6
:102C80001020704770B44FF0004591EA030F40F1F7
:102C9000DD826B40841A71EB030604D26E40001B88
:102CA000B141121973414FF4001C1CEB410F34BFAA
:102CB0007CEB430682E00C0DA4EB1356362E7BDC36
:102CC000012E45EAC32341DC43EA525312BFD2022C
:102CD00092025B08240545EAC12141EA5051D2EB3A
:102CE000C020994125D407D1B0FA80F610FA06F138
:102CF00062D00020203608E0B1FA81F6B140C6F17A
:102D0000200220FA02F21143B0404FEAF474B4EB0F
:102D1000465434F001064FEA74040AD8D6F500167A
:102D2000760D04F00044F04061FA06F25040F140A4
:102D30004840C00A40EA415021F0004128BF5FEA04
:102D4000500550F1000044EBD12135E0DB0A45EAA3
:102D5000C121C90AB6F120050EDD42EA0242120C79
:102D6000C5F1200603FA06F6EB4042EA06056D427D
:102D7000984161F100010DE062FA06F5F24055401C
:102D800063FA06FC82EA0C02F3405A406D4290411D
:102D900061EB030111F4801F05D1641E620502D0AE
:102DA0006D004041494121F48011430875F1004311
:102DB00050F1000041EB045170BC70471CEB410F17
:102DC00015D223F0004352EA43060BD04FEA4C0CD5
:102DD000BCEB410F04D80C0D661E342EB7DDEBE7BB
:102DE000801A994150EA410608BF0021E4E708BF74
:102DF0001CEB430F28BF6FF00001DDE7B0B581EA9F
:102E0000030C0CF0004C40F2FF7515EA11541DBF85
:102E100015EA1357AC42AF4239E0E41923EA4553AF
:102E200043F48013C90241F0004141EA505EC702F9
:102E30001100A7FB020200284FF00000EEFB01206A
:102E40004FF00001E3FB072118BF42F001024018D8
:102E500000214941E3FB0E01A4F580640F0302D277
:102E600052004041494154F101046CDD470872F1C0
:102E7000004250F1000051EB0451A1F580115CBFFC
:102E800041EA0C01B0BD4CEA05510020B0BD05EA95
:102E90001357AC4214BFAF4241E050EA410E1CBF91
:102EA00052EA430E02E061460020B0BD24423C4499
:102EB0001BD15FEA070EF6D0090302BF01460020CE
:102EC000AEF1140EB1FA81F7AEEB070401FA07FE7A
:102ED0000C37C7F1200100FA07F7C8404EEA000E90
:102EE00023EA455343F48013A2E733F00043B3FAD7
:102EF00083F704BFB2FA82FE77440B3FE41BB7F1BD
:102F0000200E2FBF02FA0EF3BB40C7F1200E22FAAB
:102F10000EFE38BF43EA0E03BA40641C82E750EA53
:102F2000410E14BF52EA430E6FF000014FF4001738
:102F300017EB430F8ABF194617EB410FB5E74CEA71
:102F400005510020B0BDD4F10104B4F120070FDA1F
:102F5000C4F12007520828BF42F0010210FA07F519
:102F600001FA07F7E1BF2A43E0403843E1400FE0B0
:102F7000352C98DCC7F1200452EA400220FA07F20F
:102F800018BF42F0010231FA07F0A1400A430021C4
:102F900072F1004250F1000051EB0C01B0BD000095
:102FA00038B50D4D0D4A297804464FF47A70B0FBC0
:102FB000F1F11068B0FBF1F0FFF781F950B9102C76
:102FC00008D2002221464FF0FF30FFF751F9AC60E4
:102FD000002032BD012032BDC4010020D0010020FC
:102FE000F8B590F821200024022A00F1340103D022
:102FF0000420486001245FE00268DFF8C4601368C1
:1030000023F00E0313604FF48077026815686D0893
:103010006D0015604FF480320368B3424FF4805561
:1030200019D9DFF89860B34208BF012210D0DFF849
:103030009460B34208BF10220AD0DFF88C60B3421C
:1030400008BF3A4604D0DFF88460B34208BF2A467E
:10305000DFF87C3027E0DFF87CC063451CD0DFF868
:1030600078C063451AD0DFF874C0634518D0DFF824
:103070007070BB420EBF2A46DFF86850AB4210D0DA
:10308000DFF86450AB4208BF4FF4801209D0B3425E
:1030900007D14FF0807204E0012202E0102200E02C
:1030A0003A46DFF848301A60012280F8212080F883
:1030B0002040096801B188472046F2BD080402405B
:1030C000800002401C0402403004024044040240DC
:1030D00004040240080002401C000240300002408C
:1030E00044000240580002406C00024004000240CC
:1030F000704770477047704770477047704770B5AA
:103100001C000546164606D0084616F8011BA847BF
:10311000641EFAD10146084670BD2DE9FC4383B018
:103120008146884617461D4607E001233A46414638
:103130004846FFF7E4FF80467F1C3878E0B1252839
:10314000F3D17978BF1C252912D058295AD0632988
:1031500015D0642918BF692918D06F2952D0702959
:1031600056D073295BD0752918BF78294AD0E4E777
:103170004046C8478046E0E705B0BDE8F0832868D0
:10318000286050F8041B2860C9B2F1E7286828605D
:1031900050F8046B2860002E03D52D214046C84707
:1031A000804664216F2908BF082205D041F0200025
:1031B000782814BF0A2210220B246429304602D139
:1031C000002E48BF4042B0FBF2FC02FB1C00303036
:1031D000641EC3B23A2BA4BFA1F1510318180DF815
:1031E00004005FEA0C0001D0002CECDC0DEB0406BF
:1031F000D4F10B044046BDD016F8011BC847641E2D
:10320000FAD1B7E72868286050F8046B2860C9E74E
:1032100028682860782150F8046B2860C2E7286885
:10322000286050F8046B2860304600F079F80400FC
:1032300040469FD016F8011BC847641EFAD199E793
:1032400001484068704700BFC4010020841A71EB38
:10325000030603D2001BB141121973414FF4001C45
:103260001CEB410F34BF7CEB430442E00C0DA4EB9C
:103270001356352E4FDC45EAC323DB0A45EAC1214C
:10328000C912B6F120050DDD63FA05F6EB4086EABA
:103290000305124218BF45F00105C01851F10001A5
:1032A0000CD213E062FA06F5F2405540F3415A4061
:1032B000B340F3405A408018594107D349085FEAA8
:1032C00030005FEA350528BF45F0010501F58011A2
:1032D000420875F1004250F1000041EB04514E00EC
:1032E00016F5001F70BC38BF70470020090D090596
:1032F00070471CEB410F10D252EA43060BD0BCEBD7
:10330000410F05D80C0DAB43661E342EB6DD02E02E
:10331000AB438018594170BC704770BC70470000C7
:1033200000F10103810704D010F8011B89B1810766
:10333000FAD10268B2F10131914311F0803F04BF2C
:1033400050F8042FF6E710F8011B11B110F8011B1B
:10335000FBE7C01A7047000010B50446AFF30080C9
:10336000204600F005F80446AFF30080204610BD6B
:103370007CB500F10F06F608F600B04240D2082EE8
:1033800004D2082602E0083000F047F8DFF80451C4
:103390002C68210005D1002007E00268B24221D24A
:1033A000011D08680028F8D12068291D0A6882429A
:1033B00022D01368B34238BF111DF7D312E093191E
:1033C0000B60801B54685C600B68186016600968AD
:1033D00000291DBF48680028081D0020286002F150
:1033E000080076BD61B10A681068A0F10803B34215
:1033F000E5D250680860EAE700F04EF80028C2D134
:10340000002076BD10B5040006D0AFF30080204642
:1034100000F003F8AFF3008010BD002800D1704722
:1034200050B4A0F108021368072B2BD913F0070F33
:1034300028D1184C616809B18A4202D25160626099
:1034400013E0486800B3904238BF0146F9D31BE04F
:10345000964203D11B180B600A4606E0486810B17B
:10346000134498420ED350604A60506850B11368BC
:10347000D118814206D1002121600168CB18136068
:103480004068506050BC704708680E18B242DFD2E6
:1034900050BC7047080600200749086808B10020A2
:1034A00070470648C008C00008600549C908C9003F
:1034B000091A0160704700BF100600201F16002087
:1034C000182600202DE9F04107468846387810F08C
:1034D000030F16461D4633D0384600F099F878BBE6
:1034E000B8F1000F1CBFD8E900018619012D2ED1BB
:1034F0003888C10415D5396A07F14402384600F00E
:10350000A3F83A6B044602B93A69F968384600F004
:103510009BF8361B341A7A69F968384600F094F83B
:10352000261A1EB94DB916F1010F09D097F90300FB
:103530002A46314600F08EF8064616F1010F09D1F1
:103540002320AFF300804FF0FF30BDE8F081022D63
:10355000E8D1EBE7388810F4405F0ED07868F86067
:1035600038617861B8617868F86107F144003862C1
:1035700007F13000786200203863B8F1000F05D001
:10358000D8E9020107F13402C2E9000139884CF69A
:10359000FF60014039800020BDE8F08170B505462C
:1035A000AFF300802888810415D56E680024EA688E
:1035B00095F903003146914212D2521A00F06FF889
:1035C00010F1010F1CBF00283618F0D10FE04DF6A6
:1035D000FF70014029802846AFF30080002070BDB5
:1035E0000022002100F05BF810F1010F00D101244E
:1035F0006868E860A861E861002C2988E7D041F498
:10360000007129802846AFF300804FF0FF3070BD75
:10361000F8B5A0B9AFF3008000250A4E08244FF09A
:10362000FF37306820B1FFF7B9FF002848BF3D469B
:10363000361D641EF5D1AFF300802846F2BDBDE80B
:10364000F240ABE7AC020020914234BF511A002196
:10365000084670473EB504000D00012A02D100F073
:103660006BF807E0022A07D1009400200190694618
:103670000C20ABBE2D1801E0002A0CD1009401955E
:1036800069460A20ABBE002805D10022210028008F
:1036900000F02FF801E00020C04303B030BD80B53A
:1036A000002802D400F06AF802BD002002BD00002C
:1036B00010B4314A002113461C6884421EBF491CC5
:1036C0009C6884421EBF491C1C69844209D09C69C5
:1036D000491C844205D0491C20331029ECD310BC6E
:1036E0007047002342F8313002EBC1014B6010BC3F
:1036F000704778B4204C002325462E688E421EBFAA
:103700005B1CAE688E421EBF5B1C2E698E4209D0C8
:10371000AE695B1C8E4205D05B1C2035102BECD3B0
:1037200072BC7047054604EBC303012A04BF596805
:103730004D195D6072BC704710B40F4A00211346EA
:103740001C6884421EBF491C9C6884421EBF491CE1
:103750001C6984420AD09C69491C844206D0491CD9
:1037600020331029ECD310BC0020704702EBC100BD
:10377000406810BC70470000CC02002080B50029D2
:1037800001D1002002BD012801D0022802D100F0A1
:1037900005F802BD00F02AF802BD000070B40B006D
:1037A000002111480068C0010FD4080070BC7047A8
:1037B0005D782D0225439C7826042E43DC78240670
:1037C00034431B1D0460121F091D002AEDD0E020A8
:1037D00000060468002CFAD01C78042AE8D2047091
:1037E0005B1C491C521EF0E7FCED00E018B583B0ED
:1037F0000300140000930191029469460520ABBEBA
:1038000001221900201AFFF774FF04B010BD10B593
:103810000446E068A169884251D3218849F2020335
:103820000B40022B08D008044CBF4FF400704FF43B
:103830008440014321803BE001F4C042B2F5C04F17
:1038400006D1A168884203D32046FFF7E1FE78BB8A
:10385000208810F4406F02BF606804F14401884280
:1038600017D14FF40070FFF777FD606030B904F1B5
:1038700044006060E060401CA0600AE0218841F0E4
:1038800040012180E060606100F500726068A26024
:10389000E06160682061A068A061207841070AD5D6
:1038A00002220021204600F00CF810F1010F02D195
:1038B0004FF0FF3010BD208840F4C0402080002031
:1038C00010BD70B504460D461646AFF30080334672
:1038D0002A4600212046FFF7F5FD05462046AFF3B6
:1038E0000080284670BD38B504000ED0207810F056
:1038F000030F03D094F90300002809D5AFF300802B
:10390000204600F02FF8AFF300804FF0FF3032BDBB
:103910002046FFF77DFE0546AFF300802078410684
:1039200044BF606800F05CF80020606094F9030018
:10393000022804D900F056F808B14FF0FF35E06BCB
:1039400048B100F05BF808B14FF0FF35E06B00F0D4
:1039500047F80020E063204600F004F8AFF3008051
:10396000284632BD01780A0626D51C4A1368002174
:10397000834203D1002342F821301BE05368012128
:1039800083421EBF022193688342F3D0D368032190
:1039900083421EBF042113698342EBD05369052182
:1039A00083421EBF0621936983421EBF0721D3694C
:1039B0008342DFD000F014B8002101804FF0FF31C6
:1039C000C17000F144014160C160016141618161E8
:1039D000C161016200F1300141627047AC02002018
:1039E000FFF710BD1CB50200009269460220ABBE75
:1039F00004001000FFF75CFE200016BDE0B500904B
:103A0000FFF78EFC019069460E20ABBE03B000BDEF
:103A10000E49086840F0010008604A680C480240FE
:103A20004A600B680B4803400B60086820F4802054
:103A300008604FF41F004A6822F4FE024A60886062
:103A40004FF0006004490860704700000010024019
:103A50000000FFF8FFFFF6FE08ED00E000000000A8
:103A600000000000010203040607080938B50C46EF
:103A7000C5B22046AFF30080E068A169884204D354
:103A80002046FFF7C4FE00280FD4E068401CE06029
:103A900000F8015D2088010503D440050BD50A2DEF
:103AA00009D12046FFF7B4FD28B12046AFF30080CE
:103AB0004FF0FF3032BD2046AFF30080284632BDC4
:103AC00019E050F8042BD30744BFA9F101039A1859
:103AD000091F0023042942F8043BF9D25FEA817CE4
:103AE000134604D54FF0000CA2F800C09B1CC90778
:103AF00044BF0021197050F8041B0029E1D1704720
:103B000038B50D4D0824286800281CBF017811F035
:103B1000030F05D090F90310002958BFFFF7E3FE0B
:103B20002D1D641EEFD1BDE83840002200214FF06A
:103B3000FF30FFF7B4BD00BFAC0200207047FEE7C6
:103B4000FEE7FEE7FEE770477047704780B500F07C
:103B50000FF8BDE80140FEF7DFBB0348FDF7B0BB3F
:103B60000248FDF7A0B90000440400202805002009
:103B700002494A68087882184A607047C4010020E8
:103B800010B5074979441831064C7C44163404E0DA
:103B90000A68081D114488470146A142F8D110BDAA
:103BA000080000002400000019FFFFFF4803000088
:103BB000CC020020000000001FE5FFFF880100008C
:103BC000080100000000002000F00DF8002801D0DE
:103BD000FFF7D6FFAFF300800020AFF30080FCF7C3
:103BE000A7FA00F002F80120704700F001B80000C9
:103BF0000746FFF785FF384600F002F8FBE70000B4
:103C000080B5AFF30080024A11001820ABBEFBE77D
:103C10002600020038B504460D46284600F006F896
:103C2000A84218BF0024204632BD00000149FFF71A
:103C30001DBF00BF1C02002001488047014800470B
:103C4000113A0008493C0008AFF30080AFF3008050
:103C5000FFF7BAFF0000000001020304FFF7FEBFF8
:103C6000FFF7FEBFFFF7FEBFFFF7FEBFFFF7FEBF88
:103C7000FFF7FEBFFFF7FEBFFFF7FEBFFFF7FEBF78
:103C8000FFF7FEBFFFF7FEBFFFF7FEBFFFF7FEBF68
:103C9000FFF7FEBFFFF7FEBFFFF7FEBFFFF7FEBF58
:103CA000FFF7FEBFFFF7FEBFFFF7FEBFFFF7FEBF48
:103CB000FFF7FEBFFFF7FEBFFFF7FEBFFFF7FEBF38
:103CC000FFF7FEBFFFF7FEBFFFF7FEBFFFF7FEBF28
:103CD000FFF7FEBFFFF7FEBFFFF7FEBFFFF7FEBF18
:103CE000FFF7FEBFFFF7FEBFFFF7FEBFFFF7FEBF08
:103CF000FFF7FEBFFFF7FEBFFFF7FEBFFFF7FEBFF8
:103D0000FFF7FEBFFFF7FEBFFFF7FEBFFFF7FEBFE7
:103D1000FFF7FEBFFFF7FEBFFFF7FEBFFFF7FEBFD7
:103D2000FFF7FEBFFFF7FEBFFFF7FEBFFFF7FEBFC7
:103D3000FFF7FEBFFFF7FEBFFFF7FEBFFFF7FEBFB7
:103D4000FFF7FEBFF217000130010C0140046101D2
:103D5000F11F10F1280123803F04F00354CDCCCC97
:103D60003D0001F12B70F1653C5201312210081029
:103D70000AA24A0401040000180200201904521883
:103D800004211BA10852040CF10B01200A020401BA
:103D900001D40400202405002008210421346108F6
:103DA000126044F2134C48500208020284405284CC
:103DB000042134610812A844F21294481003D4017B
:083DC00000201C28F206642C0F
:0400000508003C496A
:00000001FF
